{
  "contractName": "SimpleMedicalVault",
  "abi": [
    {
      "inputs": [],
      "stateMutability": "nonpayable",
      "type": "constructor"
    },
    {
      "anonymous": false,
      "inputs": [
        {
          "indexed": true,
          "internalType": "bytes32",
          "name": "patientId",
          "type": "bytes32"
        },
        {
          "indexed": true,
          "internalType": "uint8",
          "name": "kind",
          "type": "uint8"
        },
        {
          "indexed": false,
          "internalType": "address",
          "name": "accessor",
          "type": "address"
        }
      ],
      "name": "DocumentRead",
      "type": "event"
    },
    {
      "anonymous": false,
      "inputs": [
        {
          "indexed": true,
          "internalType": "bytes32",
          "name": "patientId",
          "type": "bytes32"
        },
        {
          "indexed": true,
          "internalType": "uint8",
          "name": "kind",
          "type": "uint8"
        },
        {
          "indexed": false,
          "internalType": "string",
          "name": "hashURI",
          "type": "string"
        },
        {
          "indexed": false,
          "internalType": "uint256",
          "name": "version",
          "type": "uint256"
        }
      ],
      "name": "DocumentUploaded",
      "type": "event"
    },
    {
      "anonymous": false,
      "inputs": [
        {
          "indexed": true,
          "internalType": "address",
          "name": "fdc",
          "type": "address"
        }
      ],
      "name": "FdcSet",
      "type": "event"
    },
    {
      "anonymous": false,
      "inputs": [
        {
          "indexed": false,
          "internalType": "uint256",
          "name": "feeUSDc",
          "type": "uint256"
        }
      ],
      "name": "FeesUpdated",
      "type": "event"
    },
    {
      "anonymous": false,
      "inputs": [
        {
          "indexed": true,
          "internalType": "address",
          "name": "ftso",
          "type": "address"
        }
      ],
      "name": "FtsoSet",
      "type": "event"
    },
    {
      "anonymous": false,
      "inputs": [
        {
          "indexed": false,
          "internalType": "uint256",
          "name": "maxStalenessSeconds",
          "type": "uint256"
        }
      ],
      "name": "OracleStalenessUpdated",
      "type": "event"
    },
    {
      "anonymous": false,
      "inputs": [
        {
          "indexed": true,
          "internalType": "bytes32",
          "name": "patientId",
          "type": "bytes32"
        },
        {
          "indexed": true,
          "internalType": "uint8",
          "name": "kind",
          "type": "uint8"
        },
        {
          "indexed": true,
          "internalType": "address",
          "name": "payer",
          "type": "address"
        },
        {
          "indexed": false,
          "internalType": "uint256",
          "name": "version",
          "type": "uint256"
        },
        {
          "indexed": false,
          "internalType": "uint256",
          "name": "amountWei",
          "type": "uint256"
        }
      ],
      "name": "UploadPaidFLR",
      "type": "event"
    },
    {
      "anonymous": false,
      "inputs": [
        {
          "indexed": true,
          "internalType": "bytes32",
          "name": "patientId",
          "type": "bytes32"
        },
        {
          "indexed": true,
          "internalType": "uint8",
          "name": "kind",
          "type": "uint8"
        },
        {
          "indexed": false,
          "internalType": "uint256",
          "name": "version",
          "type": "uint256"
        },
        {
          "indexed": false,
          "internalType": "uint256",
          "name": "paidDrops",
          "type": "uint256"
        },
        {
          "indexed": false,
          "internalType": "bytes32",
          "name": "proofHash",
          "type": "bytes32"
        }
      ],
      "name": "UploadPaidXRPLXRP",
      "type": "event"
    },
    {
      "inputs": [],
      "name": "fdc",
      "outputs": [
        {
          "internalType": "contract IFDC",
          "name": "",
          "type": "address"
        }
      ],
      "stateMutability": "view",
      "type": "function"
    },
    {
      "inputs": [],
      "name": "feeCollector",
      "outputs": [
        {
          "internalType": "address",
          "name": "",
          "type": "address"
        }
      ],
      "stateMutability": "view",
      "type": "function"
    },
    {
      "inputs": [],
      "name": "ftso",
      "outputs": [
        {
          "internalType": "contract IFTSO",
          "name": "",
          "type": "address"
        }
      ],
      "stateMutability": "view",
      "type": "function"
    },
    {
      "inputs": [
        {
          "internalType": "bytes32",
          "name": "",
          "type": "bytes32"
        }
      ],
      "name": "insurerInfo",
      "outputs": [
        {
          "internalType": "string",
          "name": "xrplAccount",
          "type": "string"
        },
        {
          "internalType": "string",
          "name": "contact",
          "type": "string"
        }
      ],
      "stateMutability": "view",
      "type": "function"
    },
    {
      "inputs": [],
      "name": "maxOracleStaleness",
      "outputs": [
        {
          "internalType": "uint256",
          "name": "",
          "type": "uint256"
        }
      ],
      "stateMutability": "view",
      "type": "function"
    },
    {
      "inputs": [],
      "name": "owner",
      "outputs": [
        {
          "internalType": "address",
          "name": "",
          "type": "address"
        }
      ],
      "stateMutability": "view",
      "type": "function"
    },
    {
      "inputs": [
        {
          "internalType": "bytes32",
          "name": "",
          "type": "bytes32"
        },
        {
          "internalType": "uint8",
          "name": "",
          "type": "uint8"
        }
      ],
      "name": "paidVersion",
      "outputs": [
        {
          "internalType": "uint256",
          "name": "",
          "type": "uint256"
        }
      ],
      "stateMutability": "view",
      "type": "function"
    },
    {
      "inputs": [],
      "name": "uploadFeeUSDc",
      "outputs": [
        {
          "internalType": "uint256",
          "name": "",
          "type": "uint256"
        }
      ],
      "stateMutability": "view",
      "type": "function"
    },
    {
      "inputs": [],
      "name": "uploadFeeWei",
      "outputs": [
        {
          "internalType": "uint256",
          "name": "",
          "type": "uint256"
        }
      ],
      "stateMutability": "view",
      "type": "function"
    },
    {
      "inputs": [
        {
          "internalType": "address",
          "name": "newOwner",
          "type": "address"
        }
      ],
      "name": "transferOwnership",
      "outputs": [],
      "stateMutability": "nonpayable",
      "type": "function"
    },
    {
      "inputs": [
        {
          "internalType": "address",
          "name": "verifier",
          "type": "address"
        }
      ],
      "name": "setFDC",
      "outputs": [],
      "stateMutability": "nonpayable",
      "type": "function"
    },
    {
      "inputs": [
        {
          "internalType": "address",
          "name": "oracle",
          "type": "address"
        }
      ],
      "name": "setFTSO",
      "outputs": [],
      "stateMutability": "nonpayable",
      "type": "function"
    },
    {
      "inputs": [
        {
          "internalType": "uint256",
          "name": "feeUSDc",
          "type": "uint256"
        }
      ],
      "name": "setUploadFeeUSDc",
      "outputs": [],
      "stateMutability": "nonpayable",
      "type": "function"
    },
    {
      "inputs": [
        {
          "internalType": "uint256",
          "name": "feeWei",
          "type": "uint256"
        }
      ],
      "name": "setUploadFeeFLR",
      "outputs": [],
      "stateMutability": "nonpayable",
      "type": "function"
    },
    {
      "inputs": [
        {
          "internalType": "address",
          "name": "collector",
          "type": "address"
        }
      ],
      "name": "setFeeCollector",
      "outputs": [],
      "stateMutability": "nonpayable",
      "type": "function"
    },
    {
      "inputs": [
        {
          "internalType": "uint256",
          "name": "seconds_",
          "type": "uint256"
        }
      ],
      "name": "setMaxOracleStaleness",
      "outputs": [],
      "stateMutability": "nonpayable",
      "type": "function"
    },
    {
      "inputs": [
        {
          "internalType": "bytes32",
          "name": "patientId",
          "type": "bytes32"
        },
        {
          "internalType": "string",
          "name": "xrplAccount",
          "type": "string"
        },
        {
          "internalType": "string",
          "name": "contact",
          "type": "string"
        }
      ],
      "name": "setInsurerInfo",
      "outputs": [],
      "stateMutability": "nonpayable",
      "type": "function"
    },
    {
      "inputs": [
        {
          "internalType": "bytes32",
          "name": "patientId",
          "type": "bytes32"
        },
        {
          "internalType": "uint8",
          "name": "kind",
          "type": "uint8"
        },
        {
          "internalType": "string",
          "name": "hashURI",
          "type": "string"
        },
        {
          "internalType": "bytes",
          "name": "xrplProof",
          "type": "bytes"
        },
        {
          "internalType": "bytes32",
          "name": "statementId",
          "type": "bytes32"
        },
        {
          "internalType": "bytes32",
          "name": "proofId",
          "type": "bytes32"
        },
        {
          "internalType": "uint256",
          "name": "xrplPaidDrops",
          "type": "uint256"
        }
      ],
      "name": "uploadDocumentXRP",
      "outputs": [],
      "stateMutability": "nonpayable",
      "type": "function"
    },
    {
      "inputs": [
        {
          "internalType": "bytes32",
          "name": "patientId",
          "type": "bytes32"
        },
        {
          "internalType": "uint8",
          "name": "kind",
          "type": "uint8"
        },
        {
          "internalType": "string",
          "name": "hashURI",
          "type": "string"
        }
      ],
      "name": "uploadDocumentFLR",
      "outputs": [],
      "stateMutability": "payable",
      "type": "function"
    },
    {
      "inputs": [
        {
          "internalType": "bytes32",
          "name": "patientId",
          "type": "bytes32"
        },
        {
          "internalType": "uint8",
          "name": "kind",
          "type": "uint8"
        }
      ],
      "name": "getDocument",
      "outputs": [
        {
          "internalType": "string",
          "name": "",
          "type": "string"
        },
        {
          "internalType": "uint256",
          "name": "",
          "type": "uint256"
        },
        {
          "internalType": "uint256",
          "name": "",
          "type": "uint256"
        },
        {
          "internalType": "bytes32",
          "name": "",
          "type": "bytes32"
        }
      ],
      "stateMutability": "nonpayable",
      "type": "function"
    },
    {
      "inputs": [
        {
          "internalType": "bytes32",
          "name": "patientId",
          "type": "bytes32"
        },
        {
          "internalType": "uint8",
          "name": "kind",
          "type": "uint8"
        }
      ],
      "name": "getDocMeta",
      "outputs": [
        {
          "internalType": "string",
          "name": "hashURI",
          "type": "string"
        },
        {
          "internalType": "uint256",
          "name": "version",
          "type": "uint256"
        },
        {
          "internalType": "uint256",
          "name": "updatedAt",
          "type": "uint256"
        },
        {
          "internalType": "bytes32",
          "name": "paymentProof",
          "type": "bytes32"
        },
        {
          "internalType": "uint256",
          "name": "paidDrops",
          "type": "uint256"
        },
        {
          "internalType": "bytes32",
          "name": "currencyHash",
          "type": "bytes32"
        }
      ],
      "stateMutability": "view",
      "type": "function"
    },
    {
      "inputs": [],
      "name": "requiredXrpDrops",
      "outputs": [
        {
          "internalType": "uint256",
          "name": "drops",
          "type": "uint256"
        },
        {
          "internalType": "uint256",
          "name": "price",
          "type": "uint256"
        },
        {
          "internalType": "uint8",
          "name": "decimals",
          "type": "uint8"
        },
        {
          "internalType": "uint256",
          "name": "timestamp",
          "type": "uint256"
        }
      ],
      "stateMutability": "view",
      "type": "function"
    },
    {
      "inputs": [
        {
          "internalType": "bytes32",
          "name": "patientId",
          "type": "bytes32"
        }
      ],
      "name": "getInsurerInfo",
      "outputs": [
        {
          "internalType": "string",
          "name": "xrplAccount",
          "type": "string"
        },
        {
          "internalType": "string",
          "name": "contact",
          "type": "string"
        }
      ],
      "stateMutability": "view",
      "type": "function"
    }
  ],
  "bytecode": "0x60806040526101f460045566038d7ea4c68000600555610258600655348015610026575f80fd5b505f8054336001600160a01b03199182168117835560078054909216179055611dbc90819061005490395ff3fe60806040526004361061013c575f3560e01c80638da5cb5b116100b3578063c0e799c51161006d578063c0e799c5146103b9578063c1ae721c146103cc578063c415b95c146103eb578063d538d6651461040a578063e036286714610440578063f2fde38b14610455575f80fd5b80638da5cb5b146103065780639061fba214610324578063935e548514610343578063971afafd14610366578063a42dce801461037b578063b510f6691461039a575f80fd5b806358c193601161010457806358c193601461022a57806362c75cec1461024957806371a265aa1461027a578063781404681461029957806378ea5ec5146102c85780638c9d41ce146102e7575f80fd5b80630709f860146101405780630da0c022146101865780633275f21c146101bd57806342f88eef146101dc578063549fcc6d14610209575b5f80fd5b34801561014b575f80fd5b50610154610474565b60405161017d9493929190938452602084019290925260ff166040830152606082015260800190565b60405180910390f35b348015610191575f80fd5b506009546101a5906001600160a01b031681565b6040516001600160a01b03909116815260200161017d565b3480156101c8575f80fd5b506008546101a5906001600160a01b031681565b3480156101e7575f80fd5b506101fb6101f6366004611638565b61059f565b60405161017d929190611692565b348015610214575f80fd5b50610228610223366004611704565b6106c6565b005b348015610235575f80fd5b50610228610244366004611778565b610778565b348015610254575f80fd5b506102686102633660046117af565b6107ea565b60405161017d969594939291906117dd565b348015610285575f80fd5b506101fb610294366004611638565b6108d7565b3480156102a4575f80fd5b506102b86102b33660046117af565b610a0f565b60405161017d9493929190611818565b3480156102d3575f80fd5b506102286102e2366004611778565b610bcd565b3480156102f2575f80fd5b50610228610301366004611638565b610c3f565b348015610311575f80fd5b505f546101a5906001600160a01b031681565b34801561032f575f80fd5b5061022861033e366004611638565b610ca4565b34801561034e575f80fd5b5061035860065481565b60405190815260200161017d565b348015610371575f80fd5b5061035860045481565b348015610386575f80fd5b50610228610395366004611778565b610d02565b3480156103a5575f80fd5b506102286103b4366004611846565b610d92565b6102286103c73660046118e2565b610ff6565b3480156103d7575f80fd5b506102286103e6366004611638565b611242565b3480156103f6575f80fd5b506007546101a5906001600160a01b031681565b348015610415575f80fd5b506103586104243660046117af565b600260209081525f928352604080842090915290825290205481565b34801561044b575f80fd5b5061035860055481565b348015610460575f80fd5b5061022861046f366004611778565b6112a0565b6009545f908190819081906001600160a01b03166104c85760405162461bcd60e51b815260206004820152600c60248201526b119514d3c81b9bdd081cd95d60a21b60448201526064015b60405180910390fd5b5f805f60095f9054906101000a90046001600160a01b03166001600160a01b031663d4fdd8726040518163ffffffff1660e01b8152600401606060405180830381865afa15801561051b573d5f803e3d5ffd5b505050506040513d601f19601f8201168201806040525081019061053f919061193a565b9250925092505f83116105855760405162461bcd60e51b815260206004820152600e60248201526d06f7261636c652070726963653d360941b60448201526064016104bf565b610592600454848461132d565b9792965090945092509050565b60036020525f90815260409020805481906105b990611970565b80601f01602080910402602001604051908101604052809291908181526020018280546105e590611970565b80156106305780601f1061060757610100808354040283529160200191610630565b820191905f5260205f20905b81548152906001019060200180831161061357829003601f168201915b50505050509080600101805461064590611970565b80601f016020809104026020016040519081016040528092919081815260200182805461067190611970565b80156106bc5780601f10610693576101008083540402835291602001916106bc565b820191905f5260205f20905b81548152906001019060200180831161069f57829003601f168201915b5050505050905082565b6040805160606020601f870181900402820181018352918101858152909182919087908790819085018382808284375f92019190915250505090825250604080516020601f8601819004810282018101909252848152918101919085908590819084018382808284375f920182905250939094525050878152600360205260409020825190915081906107599082611a0a565b506020820151600182019061076e9082611a0a565b5050505050505050565b5f546001600160a01b031633146107a15760405162461bcd60e51b81526004016104bf90611ac6565b600880546001600160a01b0319166001600160a01b0383169081179091556040517fb13b6897f1078ad5cac6d8c947da22bcddc0cec9601e74d580711a8830a1abf6905f90a250565b60605f805f805f8060015f8a81526020019081526020015f205f8960ff1660ff1681526020019081526020015f209050805f018160010154826002015483600301548460040154856005015485805461084290611970565b80601f016020809104026020016040519081016040528092919081815260200182805461086e90611970565b80156108b95780601f10610890576101008083540402835291602001916108b9565b820191905f5260205f20905b81548152906001019060200180831161089c57829003601f168201915b50505050509550965096509650965096509650509295509295509295565b5f818152600360205260409020805460609182918190600182019082906108fd90611970565b80601f016020809104026020016040519081016040528092919081815260200182805461092990611970565b80156109745780601f1061094b57610100808354040283529160200191610974565b820191905f5260205f20905b81548152906001019060200180831161095757829003601f168201915b5050505050915080805461098790611970565b80601f01602080910402602001604051908101604052809291908181526020018280546109b390611970565b80156109fe5780601f106109d5576101008083540402835291602001916109fe565b820191905f5260205f20905b8154815290600101906020018083116109e157829003601f168201915b505050505090509250925050915091565b60605f8080600260ff86161115610a605760405162461bcd60e51b81526020600482015260156024820152741a5b9d985b1a5908191bd8dd5b595b9d081ada5b99605a1b60448201526064016104bf565b5f86815260016020818152604080842060ff8a16808652908352818520938401548b865260028452828620918652925290922054909111801590610aa757505f8160010154115b610ae55760405162461bcd60e51b815260206004820152600f60248201526e756e70616964206f7220656d70747960881b60448201526064016104bf565b60405133815260ff87169088907f074f075979d9759e37d7ae44786a6bc14281a51cd89a11a7efe7d94b8d98cb929060200160405180910390a3805f01816001015482600201548360030154838054610b3d90611970565b80601f0160208091040260200160405190810160405280929190818152602001828054610b6990611970565b8015610bb45780601f10610b8b57610100808354040283529160200191610bb4565b820191905f5260205f20905b815481529060010190602001808311610b9757829003601f168201915b5050505050935094509450945094505092959194509250565b5f546001600160a01b03163314610bf65760405162461bcd60e51b81526004016104bf90611ac6565b600980546001600160a01b0319166001600160a01b0383169081179091556040517f78bf9ee573ab4ba0b227ab30e4d583f41e8312c1d584c36833c12d40e56d4364905f90a250565b5f546001600160a01b03163314610c685760405162461bcd60e51b81526004016104bf90611ac6565b60068190556040518181527f6b25cf17c118911f118f91dff57adc2ad6e5ecee484181db518ddc86b9f6276b906020015b60405180910390a150565b5f546001600160a01b03163314610ccd5760405162461bcd60e51b81526004016104bf90611ac6565b60058190556040518181527f9fe6eeb0f0541c644a56c67efeb872dbadd803a60b909d7dde1b35a3fe230b0e90602001610c99565b5f546001600160a01b03163314610d2b5760405162461bcd60e51b81526004016104bf90611ac6565b6001600160a01b038116610d705760405162461bcd60e51b815260206004820152600c60248201526b7a65726f206164647265737360a01b60448201526064016104bf565b600780546001600160a01b0319166001600160a01b0392909216919091179055565b6008546001600160a01b0316610dd85760405162461bcd60e51b815260206004820152600b60248201526a119110c81b9bdd081cd95d60aa1b60448201526064016104bf565b6009546001600160a01b0316610e1f5760405162461bcd60e51b815260206004820152600c60248201526b119514d3c81b9bdd081cd95d60a21b60448201526064016104bf565b600854604051636b40634160e01b81526001600160a01b0390911690636b40634190610e5390889088908890600401611b11565b602060405180830381865afa158015610e6e573d5f803e3d5ffd5b505050506040513d601f19601f82011682018060405250810190610e929190611b34565b610ede5760405162461bcd60e51b815260206004820152601a60248201527f696e76616c6964205852504c207061796d656e742070726f6f6600000000000060448201526064016104bf565b5f610ee761138b565b905080821015610f315760405162461bcd60e51b8152602060048201526015602482015274161494081c185e5b595b9d081d1bdbc81cdb585b1b605a1b60448201526064016104bf565b610f3d8a8a8a8a6114b3565b5f8a815260016020818152604080842060ff8e16808652908352818520938401548f86526002845282862082875284529482902085905560038401889055600484018790557f41e63e558275fa38bf6d680d2e2e25cee34fb53af66b143d0fcccdaa1285f93d60058501558151948552918401869052830186905290918c907f2bd495210f90c5947db19e2ed93f400539ce2f52b0211c7a52870d200104be059060600160405180910390a35050505050505050505050565b6005543410156110485760405162461bcd60e51b815260206004820152601860248201527f696e73756666696369656e7420464c52207061796d656e74000000000000000060448201526064016104bf565b611054848484846114b3565b5f600554346110639190611b67565b6007546005546040519293505f926001600160a01b03909216918381818185875af1925050503d805f81146110b3576040519150601f19603f3d011682016040523d82523d5f602084013e6110b8565b606091505b50509050806110ff5760405162461bcd60e51b8152602060048201526013602482015272199959481d1c985b9cd9995c8819985a5b1959606a1b60448201526064016104bf565b811561118c576040515f90339084908381818185875af1925050503d805f8114611144576040519150601f19603f3d011682016040523d82523d5f602084013e611149565b606091505b505090508061118a5760405162461bcd60e51b815260206004820152600d60248201526c1c99599d5b990819985a5b1959609a1b60448201526064016104bf565b505b5f86815260016020818152604080842060ff8a16808652908352818520938401548b86526002845282862082875284528286208190556003850186905560048501959095557f978b4128ff44cadd99d6a9bfa5f4d851b76b49a45150b20d3196ea341ff9521360058086019190915554825195865292850192909252919233928a917f96c619c6279880ef0bdf34f43a4773c451716b194849307836486cd77717d31b910160405180910390a450505050505050565b5f546001600160a01b0316331461126b5760405162461bcd60e51b81526004016104bf90611ac6565b60048190556040518181527f9fe6eeb0f0541c644a56c67efeb872dbadd803a60b909d7dde1b35a3fe230b0e90602001610c99565b5f546001600160a01b031633146112c95760405162461bcd60e51b81526004016104bf90611ac6565b6001600160a01b03811661130c5760405162461bcd60e51b815260206004820152600a6024820152693d32b9379037bbb732b960b11b60448201526064016104bf565b5f80546001600160a01b0319166001600160a01b0392909216919091179055565b5f8061134085662386f26fc10000611b7a565b90505f61134f85856012611593565b90505f61136d61136784670de0b6b3a7640000611b7a565b83611600565b905061137e8164e8d4a51000611600565b93505050505b9392505050565b5f805f8060095f9054906101000a90046001600160a01b03166001600160a01b031663d4fdd8726040518163ffffffff1660e01b8152600401606060405180830381865afa1580156113df573d5f803e3d5ffd5b505050506040513d601f19601f82011682018060405250810190611403919061193a565b9250925092505f83116114495760405162461bcd60e51b815260206004820152600e60248201526d06f7261636c652070726963653d360941b60448201526064016104bf565b80421015801561146457506006546114618242611b67565b11155b61149e5760405162461bcd60e51b815260206004820152600b60248201526a7072696365207374616c6560a81b60448201526064016104bf565b6114ab600454848461132d565b935050505090565b600260ff841611156114ff5760405162461bcd60e51b81526020600482015260156024820152741a5b9d985b1a5908191bd8dd5b595b9d081ada5b99605a1b60448201526064016104bf565b5f84815260016020908152604080832060ff87168452909152902080611526838583611b91565b506001816001015f82825461153b9190611c4d565b9091555050426002820155600181015460405160ff86169187917f06f6b1bfeb5b4ec123686e3e99b88f31ea983f9a90ad9ba8bf10f0fb29b47af4916115849188918891611b11565b60405180910390a35050505050565b5f8160ff168360ff16036115a8575082611384565b8160ff168360ff16106115d9576115bf8284611c60565b6115ca90600a611d59565b6115d49085611d67565b6115f8565b6115e38383611c60565b6115ee90600a611d59565b6115f89085611b7a565b949350505050565b5f821561162d5781611613600185611b67565b61161d9190611d67565b611628906001611c4d565b61162f565b5f5b90505b92915050565b5f60208284031215611648575f80fd5b5035919050565b5f81518084525f5b8181101561167357602081850181015186830182015201611657565b505f602082860101526020601f19601f83011685010191505092915050565b604081525f6116a4604083018561164f565b82810360208401526116b6818561164f565b95945050505050565b5f8083601f8401126116cf575f80fd5b50813567ffffffffffffffff8111156116e6575f80fd5b6020830191508360208285010111156116fd575f80fd5b9250929050565b5f805f805f60608688031215611718575f80fd5b85359450602086013567ffffffffffffffff80821115611736575f80fd5b61174289838a016116bf565b9096509450604088013591508082111561175a575f80fd5b50611767888289016116bf565b969995985093965092949392505050565b5f60208284031215611788575f80fd5b81356001600160a01b0381168114611384575f80fd5b60ff811681146117ac575f80fd5b50565b5f80604083850312156117c0575f80fd5b8235915060208301356117d28161179e565b809150509250929050565b60c081525f6117ef60c083018961164f565b60208301979097525060408101949094526060840192909252608083015260a090910152919050565b608081525f61182a608083018761164f565b6020830195909552506040810192909252606090910152919050565b5f805f805f805f805f60e08a8c03121561185e575f80fd5b8935985060208a01356118708161179e565b975060408a013567ffffffffffffffff8082111561188c575f80fd5b6118988d838e016116bf565b909950975060608c01359150808211156118b0575f80fd5b506118bd8c828d016116bf565b9a9d999c50979a9699979860808801359760a0810135975060c0013595509350505050565b5f805f80606085870312156118f5575f80fd5b8435935060208501356119078161179e565b9250604085013567ffffffffffffffff811115611922575f80fd5b61192e878288016116bf565b95989497509550505050565b5f805f6060848603121561194c575f80fd5b83519250602084015161195e8161179e565b80925050604084015190509250925092565b600181811c9082168061198457607f821691505b6020821081036119a257634e487b7160e01b5f52602260045260245ffd5b50919050565b634e487b7160e01b5f52604160045260245ffd5b601f821115611a05575f81815260208120601f850160051c810160208610156119e25750805b601f850160051c820191505b81811015611a01578281556001016119ee565b5050505b505050565b815167ffffffffffffffff811115611a2457611a246119a8565b611a3881611a328454611970565b846119bc565b602080601f831160018114611a6b575f8415611a545750858301515b5f19600386901b1c1916600185901b178555611a01565b5f85815260208120601f198616915b82811015611a9957888601518255948401946001909101908401611a7a565b5085821015611ab657878501515f19600388901b60f8161c191681555b5050505050600190811b01905550565b6020808252600990820152683737ba1037bbb732b960b91b604082015260600190565b81835281816020850137505f828201602090810191909152601f909101601f19169091010190565b604081525f611b24604083018587611ae9565b9050826020830152949350505050565b5f60208284031215611b44575f80fd5b81518015158114611384575f80fd5b634e487b7160e01b5f52601160045260245ffd5b8181038181111561163257611632611b53565b808202811582820484141761163257611632611b53565b67ffffffffffffffff831115611ba957611ba96119a8565b611bbd83611bb78354611970565b836119bc565b5f601f841160018114611bee575f8515611bd75750838201355b5f19600387901b1c1916600186901b178355611c46565b5f83815260209020601f19861690835b82811015611c1e5786850135825560209485019460019092019101611bfe565b5086821015611c3a575f1960f88860031b161c19848701351681555b505060018560011b0183555b5050505050565b8082018082111561163257611632611b53565b60ff828116828216039081111561163257611632611b53565b600181815b80851115611cb357815f1904821115611c9957611c99611b53565b80851615611ca657918102915b93841c9390800290611c7e565b509250929050565b5f82611cc957506001611632565b81611cd557505f611632565b8160018114611ceb5760028114611cf557611d11565b6001915050611632565b60ff841115611d0657611d06611b53565b50506001821b611632565b5060208310610133831016604e8410600b8410161715611d34575081810a611632565b611d3e8383611c79565b805f1904821115611d5157611d51611b53565b029392505050565b5f61162f60ff841683611cbb565b5f82611d8157634e487b7160e01b5f52601260045260245ffd5b50049056fea26469706673582212201161751d700f9ec88013291f12e924fe1b77ef09b11105a8e68127739d2325a664736f6c63430008150033",
  "immutableReferences": {},
  "source": "// SPDX-License-Identifier: MIT\r\npragma solidity ^0.8.21;\r\n\r\n/**\r\n * SimpleMedicalVault - XRPL-only payment, no ACL\r\n * ------------------------------------------------\r\n * Based on the working yi-update design:\r\n * - Single upload path: uploadDocumentXRP()\r\n * - XRPL payment verification via FDC + FTSO pricing\r\n * - No complex role system - anyone can upload for any patientId\r\n * - Clean state model with version tracking\r\n */\r\n\r\ninterface IFDC {\r\n    function verify(bytes calldata proof, bytes32 statementId) external view returns (bool);\r\n}\r\n\r\ninterface IFTSO {\r\n    function getXRPUSDPrice() external view returns (uint256 price, uint8 decimals, uint256 timestamp);\r\n}\r\n\r\ncontract SimpleMedicalVault {\r\n    /*  Types  */\r\n    enum DocKind { Diagnosis, Referral, Intake } // 0,1,2\r\n\r\n    struct DocMeta {\r\n        string  hashURI;        // encrypted pointer (IPFS CID/URI)\r\n        uint256 version;        // increments per upload\r\n        uint256 updatedAt;      // unix timestamp\r\n\r\n        // Payment trace\r\n        bytes32 paymentProof;   // XRPL proof id for logging\r\n        uint256 paidDrops;      // XRP amount paid (in drops)\r\n        bytes32 currencyHash;   // keccak256(currencyCode|issuer)\r\n    }\r\n\r\n    struct InsurerInfo {\r\n        string xrplAccount;     // XRPL address (optional metadata)\r\n        string contact;         // contact info (optional metadata)\r\n    }\r\n\r\n    /*  Events  */\r\n    event DocumentUploaded(bytes32 indexed patientId, uint8 indexed kind, string hashURI, uint256 version);\r\n    event UploadPaidXRPLXRP(\r\n        bytes32 indexed patientId,\r\n        uint8   indexed kind,\r\n        uint256 version,\r\n        uint256 paidDrops,\r\n        bytes32 proofHash\r\n    );\r\n    event UploadPaidFLR(\r\n        bytes32 indexed patientId,\r\n        uint8   indexed kind,\r\n        address indexed payer,\r\n        uint256 version,\r\n        uint256 amountWei\r\n    );\r\n    event DocumentRead(bytes32 indexed patientId, uint8 indexed kind, address accessor);\r\n\r\n    event FtsoSet(address indexed ftso);\r\n    event FdcSet(address indexed fdc);\r\n    event FeesUpdated(uint256 feeUSDc);\r\n    event OracleStalenessUpdated(uint256 maxStalenessSeconds);\r\n\r\n    /*  Ownership  */\r\n    address public owner;\r\n    modifier onlyOwner() { require(msg.sender == owner, \"not owner\"); _; }\r\n\r\n    constructor() {\r\n        owner = msg.sender;\r\n        feeCollector = msg.sender;\r\n    }\r\n\r\n    function transferOwnership(address newOwner) external onlyOwner {\r\n        require(newOwner != address(0), \"zero owner\");\r\n        owner = newOwner;\r\n    }\r\n\r\n    /*  Storage  */\r\n    // patientId => docKind => DocMeta\r\n    mapping(bytes32 => mapping(uint8 => DocMeta)) private docs;\r\n\r\n    // patientId => kind => version (latest paid version)\r\n    mapping(bytes32 => mapping(uint8 => uint256)) public paidVersion;\r\n\r\n    // Optional insurer metadata (doesn't affect permissions)\r\n    mapping(bytes32 => InsurerInfo) public insurerInfo;\r\n\r\n    // Payment settings\r\n    uint256 public uploadFeeUSDc = 500;  // $5.00 in cents for XRPL\r\n    uint256 public uploadFeeWei = 0.001 ether;  // 0.001 FLR for direct payment\r\n    uint256 public maxOracleStaleness = 10 minutes;\r\n\r\n    // Fee collection\r\n    address public feeCollector;\r\n\r\n    // Oracles\r\n    IFDC  public fdc;\r\n    IFTSO public ftso;\r\n\r\n    /*  Admin / Setup  */\r\n    function setFDC(address verifier) external onlyOwner {\r\n        fdc = IFDC(verifier);\r\n        emit FdcSet(verifier);\r\n    }\r\n\r\n    function setFTSO(address oracle) external onlyOwner {\r\n        ftso = IFTSO(oracle);\r\n        emit FtsoSet(oracle);\r\n    }\r\n\r\n    function setUploadFeeUSDc(uint256 feeUSDc) external onlyOwner {\r\n        uploadFeeUSDc = feeUSDc;\r\n        emit FeesUpdated(feeUSDc);\r\n    }\r\n\r\n    function setUploadFeeFLR(uint256 feeWei) external onlyOwner {\r\n        uploadFeeWei = feeWei;\r\n        emit FeesUpdated(feeWei);\r\n    }\r\n\r\n    function setFeeCollector(address collector) external onlyOwner {\r\n        require(collector != address(0), \"zero address\");\r\n        feeCollector = collector;\r\n    }\r\n\r\n    function setMaxOracleStaleness(uint256 seconds_) external onlyOwner {\r\n        maxOracleStaleness = seconds_;\r\n        emit OracleStalenessUpdated(seconds_);\r\n    }\r\n\r\n    function setInsurerInfo(bytes32 patientId, string calldata xrplAccount, string calldata contact) external {\r\n        // Anyone can set insurer info - it's just metadata\r\n        insurerInfo[patientId] = InsurerInfo(xrplAccount, contact);\r\n    }\r\n\r\n    /*  MAIN UPLOAD FUNCTION  */\r\n\r\n    /**\r\n     * Single upload path: XRPL payment with FDC verification + FTSO pricing\r\n     * Anyone can upload for any patientId (no ACL checks)\r\n     */\r\n    function uploadDocumentXRP(\r\n        bytes32 patientId,\r\n        uint8   kind,                // 0=Diagnosis, 1=Referral, 2=Intake\r\n        string  calldata hashURI,    // encrypted IPFS CID/URI\r\n        bytes   calldata xrplProof,  // opaque proof for FDC\r\n        bytes32 statementId,         // context binding for proof\r\n        bytes32 proofId,             // for logging/trace\r\n        uint256 xrplPaidDrops        // amount paid on XRPL (in drops)\r\n    ) external {\r\n        // 1. Verify oracles are set\r\n        require(address(fdc) != address(0), \"FDC not set\");\r\n        require(address(ftso) != address(0), \"FTSO not set\");\r\n\r\n        // 2. Verify FDC attestation\r\n        require(fdc.verify(xrplProof, statementId), \"invalid XRPL payment proof\");\r\n\r\n        // 3. Check FTSO price and compute required drops\r\n        uint256 requiredDrops = _requiredDrops();\r\n        require(xrplPaidDrops >= requiredDrops, \"XRP payment too small\");\r\n\r\n        // 4. Write document (no ACL checks)\r\n        _writeDoc(patientId, kind, hashURI);\r\n\r\n        // 5. Mark as paid and emit event\r\n        DocMeta storage d = docs[patientId][kind];\r\n        paidVersion[patientId][kind] = d.version;\r\n        d.paymentProof = proofId;\r\n        d.paidDrops = xrplPaidDrops;\r\n        d.currencyHash = keccak256(\"XRP|native\"); // XRP is native currency\r\n\r\n        emit UploadPaidXRPLXRP(patientId, kind, d.version, xrplPaidDrops, proofId);\r\n    }\r\n\r\n    /**\r\n     * Direct FLR payment upload: Insurer pays fee directly with transaction\r\n     * Fee amount sent as msg.value, no balance management needed\r\n     */\r\n    function uploadDocumentFLR(\r\n        bytes32 patientId,\r\n        uint8   kind,                // 0=Diagnosis, 1=Referral, 2=Intake\r\n        string  calldata hashURI     // encrypted IPFS CID/URI\r\n    ) external payable {\r\n        // 1. Verify sufficient payment sent\r\n        require(msg.value >= uploadFeeWei, \"insufficient FLR payment\");\r\n\r\n        // 2. Write document (no ACL checks)\r\n        _writeDoc(patientId, kind, hashURI);\r\n\r\n        // 3. Transfer fee to collector, refund excess\r\n        uint256 excess = msg.value - uploadFeeWei;\r\n\r\n        (bool success,) = payable(feeCollector).call{value: uploadFeeWei}(\"\");\r\n        require(success, \"fee transfer failed\");\r\n\r\n        if (excess > 0) {\r\n            (bool refundSuccess,) = payable(msg.sender).call{value: excess}(\"\");\r\n            require(refundSuccess, \"refund failed\");\r\n        }\r\n\r\n        // 4. Mark as paid and emit event\r\n        DocMeta storage d = docs[patientId][kind];\r\n        paidVersion[patientId][kind] = d.version;\r\n        d.paymentProof = bytes32(0); // FLR marker\r\n        d.paidDrops = 0;\r\n        d.currencyHash = keccak256(\"FLR|native\");\r\n\r\n        emit UploadPaidFLR(patientId, kind, msg.sender, d.version, uploadFeeWei);\r\n    }\r\n\r\n    /*  Internal helpers  */\r\n\r\n    function _writeDoc(bytes32 patientId, uint8 kind, string calldata hashURI) internal {\r\n        require(kind <= uint8(DocKind.Intake), \"invalid document kind\");\r\n\r\n        DocMeta storage d = docs[patientId][kind];\r\n        d.hashURI = hashURI;\r\n        d.version += 1;\r\n        d.updatedAt = block.timestamp;\r\n\r\n        emit DocumentUploaded(patientId, kind, hashURI, d.version);\r\n    }\r\n\r\n    function _requiredDrops() internal view returns (uint256) {\r\n        (uint256 price, uint8 decimals, uint256 timestamp) = ftso.getXRPUSDPrice();\r\n        require(price > 0, \"oracle price=0\");\r\n        require(block.timestamp >= timestamp && block.timestamp - timestamp <= maxOracleStaleness, \"price stale\");\r\n\r\n        return _requiredXrpDropsFromUSDc(uploadFeeUSDc, price, decimals);\r\n    }\r\n\r\n    /*  READ Functions  */\r\n\r\n    function getDocument(bytes32 patientId, uint8 kind)\r\n        external\r\n        returns (string memory, uint256, uint256, bytes32)\r\n    {\r\n        require(kind <= uint8(DocKind.Intake), \"invalid document kind\");\r\n        DocMeta storage d = docs[patientId][kind];\r\n        require(paidVersion[patientId][kind] >= d.version && d.version > 0, \"unpaid or empty\");\r\n\r\n        emit DocumentRead(patientId, kind, msg.sender);\r\n        return (d.hashURI, d.version, d.updatedAt, d.paymentProof);\r\n    }\r\n\r\n    function getDocMeta(bytes32 patientId, uint8 kind)\r\n        external\r\n        view\r\n        returns (string memory hashURI, uint256 version, uint256 updatedAt, bytes32 paymentProof, uint256 paidDrops, bytes32 currencyHash)\r\n    {\r\n        DocMeta storage d = docs[patientId][kind];\r\n        return (d.hashURI, d.version, d.updatedAt, d.paymentProof, d.paidDrops, d.currencyHash);\r\n    }\r\n\r\n    function requiredXrpDrops()\r\n        external\r\n        view\r\n        returns (uint256 drops, uint256 price, uint8 decimals, uint256 timestamp)\r\n    {\r\n        require(address(ftso) != address(0), \"FTSO not set\");\r\n        (uint256 px, uint8 dec, uint256 ts) = ftso.getXRPUSDPrice();\r\n        require(px > 0, \"oracle price=0\");\r\n        return (_requiredXrpDropsFromUSDc(uploadFeeUSDc, px, dec), px, dec, ts);\r\n    }\r\n\r\n    function getInsurerInfo(bytes32 patientId) external view returns (string memory xrplAccount, string memory contact) {\r\n        InsurerInfo storage info = insurerInfo[patientId];\r\n        return (info.xrplAccount, info.contact);\r\n    }\r\n\r\n    /*  Math  */\r\n\r\n    function _requiredXrpDropsFromUSDc(uint256 feeUSDc, uint256 price, uint8 priceDecimals) internal pure returns (uint256) {\r\n        // Convert USD cents to 18-decimal USD: USDc * 1e16\r\n        uint256 usdWad = feeUSDc * 1e16;\r\n        uint256 priceWad = _scaleDecimals(price, priceDecimals, 18);\r\n\r\n        // required XRP (WAD) = ceil(usdWad / priceWad)\r\n        uint256 xrpWad = _ceilDiv(usdWad * 1e18, priceWad);\r\n\r\n        // 1 XRP = 1e6 drops => drops = ceil(xrpWad / 1e12)\r\n        return _ceilDiv(xrpWad, 1e12);\r\n    }\r\n\r\n    function _scaleDecimals(uint256 x, uint8 fromDec, uint8 toDec) internal pure returns (uint256) {\r\n        if (fromDec == toDec) return x;\r\n        return (fromDec < toDec)\r\n            ? x * (10 ** (toDec - fromDec))\r\n            : x / (10 ** (fromDec - toDec));\r\n    }\r\n\r\n    function _ceilDiv(uint256 a, uint256 b) internal pure returns (uint256) {\r\n        return a == 0 ? 0 : 1 + ((a - 1) / b);\r\n    }\r\n}",
  "sourcePath": "E:\\EasyAHackathon\\contracts\\SimpleMedicalVault.sol",
  "compiler": {
    "name": "solc",
    "version": "0.8.21+commit.d9974bed.Emscripten.clang"
  },
  "schemaVersion": "3.4.16",
  "updatedAt": "2025-09-21T12:57:44.988Z",
  "devdoc": {
    "kind": "dev",
    "methods": {},
    "version": 1
  },
  "userdoc": {
    "kind": "user",
    "methods": {
      "uploadDocumentFLR(bytes32,uint8,string)": {
        "notice": "Direct FLR payment upload: Insurer pays fee directly with transaction Fee amount sent as msg.value, no balance management needed"
      },
      "uploadDocumentXRP(bytes32,uint8,string,bytes,bytes32,bytes32,uint256)": {
        "notice": "Single upload path: XRPL payment with FDC verification + FTSO pricing Anyone can upload for any patientId (no ACL checks)"
      }
    },
    "version": 1
  }
}