{
  "contractName": "SimpleMedicalVault",
  "abi": [
    {
      "inputs": [],
      "stateMutability": "nonpayable",
      "type": "constructor"
    },
    {
      "anonymous": false,
      "inputs": [
        {
          "indexed": true,
          "internalType": "bytes32",
          "name": "patientId",
          "type": "bytes32"
        },
        {
          "indexed": true,
          "internalType": "uint8",
          "name": "kind",
          "type": "uint8"
        },
        {
          "indexed": false,
          "internalType": "address",
          "name": "accessor",
          "type": "address"
        }
      ],
      "name": "DocumentRead",
      "type": "event"
    },
    {
      "anonymous": false,
      "inputs": [
        {
          "indexed": true,
          "internalType": "bytes32",
          "name": "patientId",
          "type": "bytes32"
        },
        {
          "indexed": true,
          "internalType": "uint8",
          "name": "kind",
          "type": "uint8"
        },
        {
          "indexed": false,
          "internalType": "string",
          "name": "hashURI",
          "type": "string"
        },
        {
          "indexed": false,
          "internalType": "uint256",
          "name": "version",
          "type": "uint256"
        }
      ],
      "name": "DocumentUploaded",
      "type": "event"
    },
    {
      "anonymous": false,
      "inputs": [
        {
          "indexed": true,
          "internalType": "address",
          "name": "fdc",
          "type": "address"
        }
      ],
      "name": "FdcSet",
      "type": "event"
    },
    {
      "anonymous": false,
      "inputs": [
        {
          "indexed": false,
          "internalType": "uint256",
          "name": "feeUSDc",
          "type": "uint256"
        }
      ],
      "name": "FeesUpdated",
      "type": "event"
    },
    {
      "anonymous": false,
      "inputs": [
        {
          "indexed": true,
          "internalType": "address",
          "name": "ftso",
          "type": "address"
        }
      ],
      "name": "FtsoSet",
      "type": "event"
    },
    {
      "anonymous": false,
      "inputs": [
        {
          "indexed": false,
          "internalType": "uint256",
          "name": "maxStalenessSeconds",
          "type": "uint256"
        }
      ],
      "name": "OracleStalenessUpdated",
      "type": "event"
    },
    {
      "anonymous": false,
      "inputs": [
        {
          "indexed": true,
          "internalType": "bytes32",
          "name": "patientId",
          "type": "bytes32"
        },
        {
          "indexed": true,
          "internalType": "uint8",
          "name": "kind",
          "type": "uint8"
        },
        {
          "indexed": false,
          "internalType": "uint256",
          "name": "version",
          "type": "uint256"
        },
        {
          "indexed": false,
          "internalType": "uint256",
          "name": "paidDrops",
          "type": "uint256"
        },
        {
          "indexed": false,
          "internalType": "bytes32",
          "name": "proofHash",
          "type": "bytes32"
        }
      ],
      "name": "UploadPaidXRPLXRP",
      "type": "event"
    },
    {
      "inputs": [],
      "name": "fdc",
      "outputs": [
        {
          "internalType": "contract IFDC",
          "name": "",
          "type": "address"
        }
      ],
      "stateMutability": "view",
      "type": "function"
    },
    {
      "inputs": [],
      "name": "ftso",
      "outputs": [
        {
          "internalType": "contract IFTSO",
          "name": "",
          "type": "address"
        }
      ],
      "stateMutability": "view",
      "type": "function"
    },
    {
      "inputs": [
        {
          "internalType": "bytes32",
          "name": "",
          "type": "bytes32"
        }
      ],
      "name": "insurerInfo",
      "outputs": [
        {
          "internalType": "string",
          "name": "xrplAccount",
          "type": "string"
        },
        {
          "internalType": "string",
          "name": "contact",
          "type": "string"
        }
      ],
      "stateMutability": "view",
      "type": "function"
    },
    {
      "inputs": [],
      "name": "maxOracleStaleness",
      "outputs": [
        {
          "internalType": "uint256",
          "name": "",
          "type": "uint256"
        }
      ],
      "stateMutability": "view",
      "type": "function"
    },
    {
      "inputs": [],
      "name": "owner",
      "outputs": [
        {
          "internalType": "address",
          "name": "",
          "type": "address"
        }
      ],
      "stateMutability": "view",
      "type": "function"
    },
    {
      "inputs": [
        {
          "internalType": "bytes32",
          "name": "",
          "type": "bytes32"
        },
        {
          "internalType": "uint8",
          "name": "",
          "type": "uint8"
        }
      ],
      "name": "paidVersion",
      "outputs": [
        {
          "internalType": "uint256",
          "name": "",
          "type": "uint256"
        }
      ],
      "stateMutability": "view",
      "type": "function"
    },
    {
      "inputs": [],
      "name": "uploadFeeUSDc",
      "outputs": [
        {
          "internalType": "uint256",
          "name": "",
          "type": "uint256"
        }
      ],
      "stateMutability": "view",
      "type": "function"
    },
    {
      "inputs": [
        {
          "internalType": "address",
          "name": "newOwner",
          "type": "address"
        }
      ],
      "name": "transferOwnership",
      "outputs": [],
      "stateMutability": "nonpayable",
      "type": "function"
    },
    {
      "inputs": [
        {
          "internalType": "address",
          "name": "verifier",
          "type": "address"
        }
      ],
      "name": "setFDC",
      "outputs": [],
      "stateMutability": "nonpayable",
      "type": "function"
    },
    {
      "inputs": [
        {
          "internalType": "address",
          "name": "oracle",
          "type": "address"
        }
      ],
      "name": "setFTSO",
      "outputs": [],
      "stateMutability": "nonpayable",
      "type": "function"
    },
    {
      "inputs": [
        {
          "internalType": "uint256",
          "name": "feeUSDc",
          "type": "uint256"
        }
      ],
      "name": "setUploadFeeUSDc",
      "outputs": [],
      "stateMutability": "nonpayable",
      "type": "function"
    },
    {
      "inputs": [
        {
          "internalType": "uint256",
          "name": "seconds_",
          "type": "uint256"
        }
      ],
      "name": "setMaxOracleStaleness",
      "outputs": [],
      "stateMutability": "nonpayable",
      "type": "function"
    },
    {
      "inputs": [
        {
          "internalType": "bytes32",
          "name": "patientId",
          "type": "bytes32"
        },
        {
          "internalType": "string",
          "name": "xrplAccount",
          "type": "string"
        },
        {
          "internalType": "string",
          "name": "contact",
          "type": "string"
        }
      ],
      "name": "setInsurerInfo",
      "outputs": [],
      "stateMutability": "nonpayable",
      "type": "function"
    },
    {
      "inputs": [
        {
          "internalType": "bytes32",
          "name": "patientId",
          "type": "bytes32"
        },
        {
          "internalType": "uint8",
          "name": "kind",
          "type": "uint8"
        },
        {
          "internalType": "string",
          "name": "hashURI",
          "type": "string"
        },
        {
          "internalType": "bytes",
          "name": "xrplProof",
          "type": "bytes"
        },
        {
          "internalType": "bytes32",
          "name": "statementId",
          "type": "bytes32"
        },
        {
          "internalType": "bytes32",
          "name": "proofId",
          "type": "bytes32"
        },
        {
          "internalType": "uint256",
          "name": "xrplPaidDrops",
          "type": "uint256"
        }
      ],
      "name": "uploadDocumentXRP",
      "outputs": [],
      "stateMutability": "nonpayable",
      "type": "function"
    },
    {
      "inputs": [
        {
          "internalType": "bytes32",
          "name": "patientId",
          "type": "bytes32"
        },
        {
          "internalType": "uint8",
          "name": "kind",
          "type": "uint8"
        }
      ],
      "name": "getDocument",
      "outputs": [
        {
          "internalType": "string",
          "name": "",
          "type": "string"
        },
        {
          "internalType": "uint256",
          "name": "",
          "type": "uint256"
        },
        {
          "internalType": "uint256",
          "name": "",
          "type": "uint256"
        },
        {
          "internalType": "bytes32",
          "name": "",
          "type": "bytes32"
        }
      ],
      "stateMutability": "nonpayable",
      "type": "function"
    },
    {
      "inputs": [
        {
          "internalType": "bytes32",
          "name": "patientId",
          "type": "bytes32"
        },
        {
          "internalType": "uint8",
          "name": "kind",
          "type": "uint8"
        }
      ],
      "name": "getDocMeta",
      "outputs": [
        {
          "internalType": "string",
          "name": "hashURI",
          "type": "string"
        },
        {
          "internalType": "uint256",
          "name": "version",
          "type": "uint256"
        },
        {
          "internalType": "uint256",
          "name": "updatedAt",
          "type": "uint256"
        },
        {
          "internalType": "bytes32",
          "name": "paymentProof",
          "type": "bytes32"
        },
        {
          "internalType": "uint256",
          "name": "paidDrops",
          "type": "uint256"
        },
        {
          "internalType": "bytes32",
          "name": "currencyHash",
          "type": "bytes32"
        }
      ],
      "stateMutability": "view",
      "type": "function"
    },
    {
      "inputs": [],
      "name": "requiredXrpDrops",
      "outputs": [
        {
          "internalType": "uint256",
          "name": "drops",
          "type": "uint256"
        },
        {
          "internalType": "uint256",
          "name": "price",
          "type": "uint256"
        },
        {
          "internalType": "uint8",
          "name": "decimals",
          "type": "uint8"
        },
        {
          "internalType": "uint256",
          "name": "timestamp",
          "type": "uint256"
        }
      ],
      "stateMutability": "view",
      "type": "function"
    },
    {
      "inputs": [
        {
          "internalType": "bytes32",
          "name": "patientId",
          "type": "bytes32"
        }
      ],
      "name": "getInsurerInfo",
      "outputs": [
        {
          "internalType": "string",
          "name": "xrplAccount",
          "type": "string"
        },
        {
          "internalType": "string",
          "name": "contact",
          "type": "string"
        }
      ],
      "stateMutability": "view",
      "type": "function"
    }
  ],
  "bytecode": "0x60806040526101f460045561025860055534801561001b575f80fd5b505f80546001600160a01b031916331790556118a28061003a5f395ff3fe608060405234801561000f575f80fd5b5060043610610111575f3560e01c806378ea5ec51161009e578063971afafd1161006e578063971afafd14610280578063b510f66914610289578063c1ae721c1461029c578063d538d665146102af578063f2fde38b146102d9575f80fd5b806378ea5ec5146102315780638c9d41ce146102445780638da5cb5b14610257578063935e548514610269575f80fd5b8063549fcc6d116100e4578063549fcc6d146101ae57806358c19360146101c357806362c75cec146101d657806371a265aa146101fb578063781404681461020e575f80fd5b80630709f860146101155780630da0c0221461014f5780633275f21c1461017a57806342f88eef1461018d575b5f80fd5b61011d6102ec565b6040516101469493929190938452602084019290925260ff166040830152606082015260800190565b60405180910390f35b600754610162906001600160a01b031681565b6040516001600160a01b039091168152602001610146565b600654610162906001600160a01b031681565b6101a061019b366004611176565b610417565b6040516101469291906111d0565b6101c16101bc366004611242565b61053e565b005b6101c16101d13660046112b6565b6105f0565b6101e96101e43660046112ed565b610662565b6040516101469695949392919061131b565b6101a0610209366004611176565b61074f565b61022161021c3660046112ed565b610887565b6040516101469493929190611356565b6101c161023f3660046112b6565b610a45565b6101c1610252366004611176565b610ab7565b5f54610162906001600160a01b031681565b61027260055481565b604051908152602001610146565b61027260045481565b6101c1610297366004611384565b610b1c565b6101c16102aa366004611176565b610d80565b6102726102bd3660046112ed565b600260209081525f928352604080842090915290825290205481565b6101c16102e73660046112b6565b610dde565b6007545f908190819081906001600160a01b03166103405760405162461bcd60e51b815260206004820152600c60248201526b119514d3c81b9bdd081cd95d60a21b60448201526064015b60405180910390fd5b5f805f60075f9054906101000a90046001600160a01b03166001600160a01b031663d4fdd8726040518163ffffffff1660e01b8152600401606060405180830381865afa158015610393573d5f803e3d5ffd5b505050506040513d601f19601f820116820180604052508101906103b79190611420565b9250925092505f83116103fd5760405162461bcd60e51b815260206004820152600e60248201526d06f7261636c652070726963653d360941b6044820152606401610337565b61040a6004548484610e6b565b9792965090945092509050565b60036020525f908152604090208054819061043190611456565b80601f016020809104026020016040519081016040528092919081815260200182805461045d90611456565b80156104a85780601f1061047f576101008083540402835291602001916104a8565b820191905f5260205f20905b81548152906001019060200180831161048b57829003601f168201915b5050505050908060010180546104bd90611456565b80601f01602080910402602001604051908101604052809291908181526020018280546104e990611456565b80156105345780601f1061050b57610100808354040283529160200191610534565b820191905f5260205f20905b81548152906001019060200180831161051757829003601f168201915b5050505050905082565b6040805160606020601f870181900402820181018352918101858152909182919087908790819085018382808284375f92019190915250505090825250604080516020601f8601819004810282018101909252848152918101919085908590819084018382808284375f920182905250939094525050878152600360205260409020825190915081906105d190826114f0565b50602082015160018201906105e690826114f0565b5050505050505050565b5f546001600160a01b031633146106195760405162461bcd60e51b8152600401610337906115ac565b600680546001600160a01b0319166001600160a01b0383169081179091556040517fb13b6897f1078ad5cac6d8c947da22bcddc0cec9601e74d580711a8830a1abf6905f90a250565b60605f805f805f8060015f8a81526020019081526020015f205f8960ff1660ff1681526020019081526020015f209050805f01816001015482600201548360030154846004015485600501548580546106ba90611456565b80601f01602080910402602001604051908101604052809291908181526020018280546106e690611456565b80156107315780601f1061070857610100808354040283529160200191610731565b820191905f5260205f20905b81548152906001019060200180831161071457829003601f168201915b50505050509550965096509650965096509650509295509295509295565b5f8181526003602052604090208054606091829181906001820190829061077590611456565b80601f01602080910402602001604051908101604052809291908181526020018280546107a190611456565b80156107ec5780601f106107c3576101008083540402835291602001916107ec565b820191905f5260205f20905b8154815290600101906020018083116107cf57829003601f168201915b505050505091508080546107ff90611456565b80601f016020809104026020016040519081016040528092919081815260200182805461082b90611456565b80156108765780601f1061084d57610100808354040283529160200191610876565b820191905f5260205f20905b81548152906001019060200180831161085957829003601f168201915b505050505090509250925050915091565b60605f8080600260ff861611156108d85760405162461bcd60e51b81526020600482015260156024820152741a5b9d985b1a5908191bd8dd5b595b9d081ada5b99605a1b6044820152606401610337565b5f86815260016020818152604080842060ff8a16808652908352818520938401548b86526002845282862091865292529092205490911180159061091f57505f8160010154115b61095d5760405162461bcd60e51b815260206004820152600f60248201526e756e70616964206f7220656d70747960881b6044820152606401610337565b60405133815260ff87169088907f074f075979d9759e37d7ae44786a6bc14281a51cd89a11a7efe7d94b8d98cb929060200160405180910390a3805f018160010154826002015483600301548380546109b590611456565b80601f01602080910402602001604051908101604052809291908181526020018280546109e190611456565b8015610a2c5780601f10610a0357610100808354040283529160200191610a2c565b820191905f5260205f20905b815481529060010190602001808311610a0f57829003601f168201915b5050505050935094509450945094505092959194509250565b5f546001600160a01b03163314610a6e5760405162461bcd60e51b8152600401610337906115ac565b600780546001600160a01b0319166001600160a01b0383169081179091556040517f78bf9ee573ab4ba0b227ab30e4d583f41e8312c1d584c36833c12d40e56d4364905f90a250565b5f546001600160a01b03163314610ae05760405162461bcd60e51b8152600401610337906115ac565b60058190556040518181527f6b25cf17c118911f118f91dff57adc2ad6e5ecee484181db518ddc86b9f6276b906020015b60405180910390a150565b6006546001600160a01b0316610b625760405162461bcd60e51b815260206004820152600b60248201526a119110c81b9bdd081cd95d60aa1b6044820152606401610337565b6007546001600160a01b0316610ba95760405162461bcd60e51b815260206004820152600c60248201526b119514d3c81b9bdd081cd95d60a21b6044820152606401610337565b600654604051636b40634160e01b81526001600160a01b0390911690636b40634190610bdd908890889088906004016115f7565b602060405180830381865afa158015610bf8573d5f803e3d5ffd5b505050506040513d601f19601f82011682018060405250810190610c1c919061161a565b610c685760405162461bcd60e51b815260206004820152601a60248201527f696e76616c6964205852504c207061796d656e742070726f6f660000000000006044820152606401610337565b5f610c71610ec9565b905080821015610cbb5760405162461bcd60e51b8152602060048201526015602482015274161494081c185e5b595b9d081d1bdbc81cdb585b1b605a1b6044820152606401610337565b610cc78a8a8a8a610ff1565b5f8a815260016020818152604080842060ff8e16808652908352818520938401548f86526002845282862082875284529482902085905560038401889055600484018790557f41e63e558275fa38bf6d680d2e2e25cee34fb53af66b143d0fcccdaa1285f93d60058501558151948552918401869052830186905290918c907f2bd495210f90c5947db19e2ed93f400539ce2f52b0211c7a52870d200104be059060600160405180910390a35050505050505050505050565b5f546001600160a01b03163314610da95760405162461bcd60e51b8152600401610337906115ac565b60048190556040518181527f9fe6eeb0f0541c644a56c67efeb872dbadd803a60b909d7dde1b35a3fe230b0e90602001610b11565b5f546001600160a01b03163314610e075760405162461bcd60e51b8152600401610337906115ac565b6001600160a01b038116610e4a5760405162461bcd60e51b815260206004820152600a6024820152693d32b9379037bbb732b960b11b6044820152606401610337565b5f80546001600160a01b0319166001600160a01b0392909216919091179055565b5f80610e7e85662386f26fc1000061164d565b90505f610e8d858560126110d1565b90505f610eab610ea584670de0b6b3a764000061164d565b8361113e565b9050610ebc8164e8d4a5100061113e565b93505050505b9392505050565b5f805f8060075f9054906101000a90046001600160a01b03166001600160a01b031663d4fdd8726040518163ffffffff1660e01b8152600401606060405180830381865afa158015610f1d573d5f803e3d5ffd5b505050506040513d601f19601f82011682018060405250810190610f419190611420565b9250925092505f8311610f875760405162461bcd60e51b815260206004820152600e60248201526d06f7261636c652070726963653d360941b6044820152606401610337565b804210158015610fa25750600554610f9f8242611664565b11155b610fdc5760405162461bcd60e51b815260206004820152600b60248201526a7072696365207374616c6560a81b6044820152606401610337565b610fe96004548484610e6b565b935050505090565b600260ff8416111561103d5760405162461bcd60e51b81526020600482015260156024820152741a5b9d985b1a5908191bd8dd5b595b9d081ada5b99605a1b6044820152606401610337565b5f84815260016020908152604080832060ff87168452909152902080611064838583611677565b506001816001015f8282546110799190611733565b9091555050426002820155600181015460405160ff86169187917f06f6b1bfeb5b4ec123686e3e99b88f31ea983f9a90ad9ba8bf10f0fb29b47af4916110c291889188916115f7565b60405180910390a35050505050565b5f8160ff168360ff16036110e6575082610ec2565b8160ff168360ff1610611117576110fd8284611746565b61110890600a61183f565b611112908561184d565b611136565b6111218383611746565b61112c90600a61183f565b611136908561164d565b949350505050565b5f821561116b5781611151600185611664565b61115b919061184d565b611166906001611733565b61116d565b5f5b90505b92915050565b5f60208284031215611186575f80fd5b5035919050565b5f81518084525f5b818110156111b157602081850181015186830182015201611195565b505f602082860101526020601f19601f83011685010191505092915050565b604081525f6111e2604083018561118d565b82810360208401526111f4818561118d565b95945050505050565b5f8083601f84011261120d575f80fd5b50813567ffffffffffffffff811115611224575f80fd5b60208301915083602082850101111561123b575f80fd5b9250929050565b5f805f805f60608688031215611256575f80fd5b85359450602086013567ffffffffffffffff80821115611274575f80fd5b61128089838a016111fd565b90965094506040880135915080821115611298575f80fd5b506112a5888289016111fd565b969995985093965092949392505050565b5f602082840312156112c6575f80fd5b81356001600160a01b0381168114610ec2575f80fd5b60ff811681146112ea575f80fd5b50565b5f80604083850312156112fe575f80fd5b823591506020830135611310816112dc565b809150509250929050565b60c081525f61132d60c083018961118d565b60208301979097525060408101949094526060840192909252608083015260a090910152919050565b608081525f611368608083018761118d565b6020830195909552506040810192909252606090910152919050565b5f805f805f805f805f60e08a8c03121561139c575f80fd5b8935985060208a01356113ae816112dc565b975060408a013567ffffffffffffffff808211156113ca575f80fd5b6113d68d838e016111fd565b909950975060608c01359150808211156113ee575f80fd5b506113fb8c828d016111fd565b9a9d999c50979a9699979860808801359760a0810135975060c0013595509350505050565b5f805f60608486031215611432575f80fd5b835192506020840151611444816112dc565b80925050604084015190509250925092565b600181811c9082168061146a57607f821691505b60208210810361148857634e487b7160e01b5f52602260045260245ffd5b50919050565b634e487b7160e01b5f52604160045260245ffd5b601f8211156114eb575f81815260208120601f850160051c810160208610156114c85750805b601f850160051c820191505b818110156114e7578281556001016114d4565b5050505b505050565b815167ffffffffffffffff81111561150a5761150a61148e565b61151e816115188454611456565b846114a2565b602080601f831160018114611551575f841561153a5750858301515b5f19600386901b1c1916600185901b1785556114e7565b5f85815260208120601f198616915b8281101561157f57888601518255948401946001909101908401611560565b508582101561159c57878501515f19600388901b60f8161c191681555b5050505050600190811b01905550565b6020808252600990820152683737ba1037bbb732b960b91b604082015260600190565b81835281816020850137505f828201602090810191909152601f909101601f19169091010190565b604081525f61160a6040830185876115cf565b9050826020830152949350505050565b5f6020828403121561162a575f80fd5b81518015158114610ec2575f80fd5b634e487b7160e01b5f52601160045260245ffd5b808202811582820484141761117057611170611639565b8181038181111561117057611170611639565b67ffffffffffffffff83111561168f5761168f61148e565b6116a38361169d8354611456565b836114a2565b5f601f8411600181146116d4575f85156116bd5750838201355b5f19600387901b1c1916600186901b17835561172c565b5f83815260209020601f19861690835b8281101561170457868501358255602094850194600190920191016116e4565b5086821015611720575f1960f88860031b161c19848701351681555b505060018560011b0183555b5050505050565b8082018082111561117057611170611639565b60ff828116828216039081111561117057611170611639565b600181815b8085111561179957815f190482111561177f5761177f611639565b8085161561178c57918102915b93841c9390800290611764565b509250929050565b5f826117af57506001611170565b816117bb57505f611170565b81600181146117d157600281146117db576117f7565b6001915050611170565b60ff8411156117ec576117ec611639565b50506001821b611170565b5060208310610133831016604e8410600b841016171561181a575081810a611170565b611824838361175f565b805f190482111561183757611837611639565b029392505050565b5f61116d60ff8416836117a1565b5f8261186757634e487b7160e01b5f52601260045260245ffd5b50049056fea2646970667358221220b6dbd010848ba2019b2dd7880bc4b925b0423cc5c29d5a9141515d28116c8b1c64736f6c63430008150033",
  "immutableReferences": {},
  "source": "// SPDX-License-Identifier: MIT\npragma solidity ^0.8.21;\n\n/**\n * SimpleMedicalVault - XRPL-only payment, no ACL\n * ------------------------------------------------\n * Based on the working yi-update design:\n * - Single upload path: uploadDocumentXRP()\n * - XRPL payment verification via FDC + FTSO pricing\n * - No complex role system - anyone can upload for any patientId\n * - Clean state model with version tracking\n */\n\ninterface IFDC {\n    function verify(bytes calldata proof, bytes32 statementId) external view returns (bool);\n}\n\ninterface IFTSO {\n    function getXRPUSDPrice() external view returns (uint256 price, uint8 decimals, uint256 timestamp);\n}\n\ncontract SimpleMedicalVault {\n    /*  Types  */\n    enum DocKind { Diagnosis, Referral, Intake } // 0,1,2\n\n    struct DocMeta {\n        string  hashURI;        // encrypted pointer (IPFS CID/URI)\n        uint256 version;        // increments per upload\n        uint256 updatedAt;      // unix timestamp\n\n        // Payment trace\n        bytes32 paymentProof;   // XRPL proof id for logging\n        uint256 paidDrops;      // XRP amount paid (in drops)\n        bytes32 currencyHash;   // keccak256(currencyCode|issuer)\n    }\n\n    struct InsurerInfo {\n        string xrplAccount;     // XRPL address (optional metadata)\n        string contact;         // contact info (optional metadata)\n    }\n\n    /*  Events  */\n    event DocumentUploaded(bytes32 indexed patientId, uint8 indexed kind, string hashURI, uint256 version);\n    event UploadPaidXRPLXRP(\n        bytes32 indexed patientId,\n        uint8   indexed kind,\n        uint256 version,\n        uint256 paidDrops,\n        bytes32 proofHash\n    );\n    event DocumentRead(bytes32 indexed patientId, uint8 indexed kind, address accessor);\n\n    event FtsoSet(address indexed ftso);\n    event FdcSet(address indexed fdc);\n    event FeesUpdated(uint256 feeUSDc);\n    event OracleStalenessUpdated(uint256 maxStalenessSeconds);\n\n    /*  Ownership  */\n    address public owner;\n    modifier onlyOwner() { require(msg.sender == owner, \"not owner\"); _; }\n\n    constructor() {\n        owner = msg.sender;\n    }\n\n    function transferOwnership(address newOwner) external onlyOwner {\n        require(newOwner != address(0), \"zero owner\");\n        owner = newOwner;\n    }\n\n    /*  Storage  */\n    // patientId => docKind => DocMeta\n    mapping(bytes32 => mapping(uint8 => DocMeta)) private docs;\n\n    // patientId => kind => version (latest paid version)\n    mapping(bytes32 => mapping(uint8 => uint256)) public paidVersion;\n\n    // Optional insurer metadata (doesn't affect permissions)\n    mapping(bytes32 => InsurerInfo) public insurerInfo;\n\n    // XRPL payment settings\n    uint256 public uploadFeeUSDc = 500;  // $5.00 in cents\n    uint256 public maxOracleStaleness = 10 minutes;\n\n    // Oracles\n    IFDC  public fdc;\n    IFTSO public ftso;\n\n    /*  Admin / Setup  */\n    function setFDC(address verifier) external onlyOwner {\n        fdc = IFDC(verifier);\n        emit FdcSet(verifier);\n    }\n\n    function setFTSO(address oracle) external onlyOwner {\n        ftso = IFTSO(oracle);\n        emit FtsoSet(oracle);\n    }\n\n    function setUploadFeeUSDc(uint256 feeUSDc) external onlyOwner {\n        uploadFeeUSDc = feeUSDc;\n        emit FeesUpdated(feeUSDc);\n    }\n\n    function setMaxOracleStaleness(uint256 seconds_) external onlyOwner {\n        maxOracleStaleness = seconds_;\n        emit OracleStalenessUpdated(seconds_);\n    }\n\n    function setInsurerInfo(bytes32 patientId, string calldata xrplAccount, string calldata contact) external {\n        // Anyone can set insurer info - it's just metadata\n        insurerInfo[patientId] = InsurerInfo(xrplAccount, contact);\n    }\n\n    /*  MAIN UPLOAD FUNCTION  */\n\n    /**\n     * Single upload path: XRPL payment with FDC verification + FTSO pricing\n     * Anyone can upload for any patientId (no ACL checks)\n     */\n    function uploadDocumentXRP(\n        bytes32 patientId,\n        uint8   kind,                // 0=Diagnosis, 1=Referral, 2=Intake\n        string  calldata hashURI,    // encrypted IPFS CID/URI\n        bytes   calldata xrplProof,  // opaque proof for FDC\n        bytes32 statementId,         // context binding for proof\n        bytes32 proofId,             // for logging/trace\n        uint256 xrplPaidDrops        // amount paid on XRPL (in drops)\n    ) external {\n        // 1. Verify oracles are set\n        require(address(fdc) != address(0), \"FDC not set\");\n        require(address(ftso) != address(0), \"FTSO not set\");\n\n        // 2. Verify FDC attestation\n        require(fdc.verify(xrplProof, statementId), \"invalid XRPL payment proof\");\n\n        // 3. Check FTSO price and compute required drops\n        uint256 requiredDrops = _requiredDrops();\n        require(xrplPaidDrops >= requiredDrops, \"XRP payment too small\");\n\n        // 4. Write document (no ACL checks)\n        _writeDoc(patientId, kind, hashURI);\n\n        // 5. Mark as paid and emit event\n        DocMeta storage d = docs[patientId][kind];\n        paidVersion[patientId][kind] = d.version;\n        d.paymentProof = proofId;\n        d.paidDrops = xrplPaidDrops;\n        d.currencyHash = keccak256(\"XRP|native\"); // XRP is native currency\n\n        emit UploadPaidXRPLXRP(patientId, kind, d.version, xrplPaidDrops, proofId);\n    }\n\n    /*  Internal helpers  */\n\n    function _writeDoc(bytes32 patientId, uint8 kind, string calldata hashURI) internal {\n        require(kind <= uint8(DocKind.Intake), \"invalid document kind\");\n\n        DocMeta storage d = docs[patientId][kind];\n        d.hashURI = hashURI;\n        d.version += 1;\n        d.updatedAt = block.timestamp;\n\n        emit DocumentUploaded(patientId, kind, hashURI, d.version);\n    }\n\n    function _requiredDrops() internal view returns (uint256) {\n        (uint256 price, uint8 decimals, uint256 timestamp) = ftso.getXRPUSDPrice();\n        require(price > 0, \"oracle price=0\");\n        require(block.timestamp >= timestamp && block.timestamp - timestamp <= maxOracleStaleness, \"price stale\");\n\n        return _requiredXrpDropsFromUSDc(uploadFeeUSDc, price, decimals);\n    }\n\n    /*  READ Functions  */\n\n    function getDocument(bytes32 patientId, uint8 kind)\n        external\n        returns (string memory, uint256, uint256, bytes32)\n    {\n        require(kind <= uint8(DocKind.Intake), \"invalid document kind\");\n        DocMeta storage d = docs[patientId][kind];\n        require(paidVersion[patientId][kind] >= d.version && d.version > 0, \"unpaid or empty\");\n\n        emit DocumentRead(patientId, kind, msg.sender);\n        return (d.hashURI, d.version, d.updatedAt, d.paymentProof);\n    }\n\n    function getDocMeta(bytes32 patientId, uint8 kind)\n        external\n        view\n        returns (string memory hashURI, uint256 version, uint256 updatedAt, bytes32 paymentProof, uint256 paidDrops, bytes32 currencyHash)\n    {\n        DocMeta storage d = docs[patientId][kind];\n        return (d.hashURI, d.version, d.updatedAt, d.paymentProof, d.paidDrops, d.currencyHash);\n    }\n\n    function requiredXrpDrops()\n        external\n        view\n        returns (uint256 drops, uint256 price, uint8 decimals, uint256 timestamp)\n    {\n        require(address(ftso) != address(0), \"FTSO not set\");\n        (uint256 px, uint8 dec, uint256 ts) = ftso.getXRPUSDPrice();\n        require(px > 0, \"oracle price=0\");\n        return (_requiredXrpDropsFromUSDc(uploadFeeUSDc, px, dec), px, dec, ts);\n    }\n\n    function getInsurerInfo(bytes32 patientId) external view returns (string memory xrplAccount, string memory contact) {\n        InsurerInfo storage info = insurerInfo[patientId];\n        return (info.xrplAccount, info.contact);\n    }\n\n    /*  Math  */\n\n    function _requiredXrpDropsFromUSDc(uint256 feeUSDc, uint256 price, uint8 priceDecimals) internal pure returns (uint256) {\n        // Convert USD cents to 18-decimal USD: USDc * 1e16\n        uint256 usdWad = feeUSDc * 1e16;\n        uint256 priceWad = _scaleDecimals(price, priceDecimals, 18);\n\n        // required XRP (WAD) = ceil(usdWad / priceWad)\n        uint256 xrpWad = _ceilDiv(usdWad * 1e18, priceWad);\n\n        // 1 XRP = 1e6 drops => drops = ceil(xrpWad / 1e12)\n        return _ceilDiv(xrpWad, 1e12);\n    }\n\n    function _scaleDecimals(uint256 x, uint8 fromDec, uint8 toDec) internal pure returns (uint256) {\n        if (fromDec == toDec) return x;\n        return (fromDec < toDec)\n            ? x * (10 ** (toDec - fromDec))\n            : x / (10 ** (fromDec - toDec));\n    }\n\n    function _ceilDiv(uint256 a, uint256 b) internal pure returns (uint256) {\n        return a == 0 ? 0 : 1 + ((a - 1) / b);\n    }\n}",
  "sourcePath": "E:\\EasyAHackathon\\contracts\\SimpleMedicalVault.sol",
  "compiler": {
    "name": "solc",
    "version": "0.8.21+commit.d9974bed.Emscripten.clang"
  },
  "schemaVersion": "3.4.16",
  "updatedAt": "2025-09-21T07:18:57.439Z",
  "devdoc": {
    "kind": "dev",
    "methods": {},
    "version": 1
  },
  "userdoc": {
    "kind": "user",
    "methods": {
      "uploadDocumentXRP(bytes32,uint8,string,bytes,bytes32,bytes32,uint256)": {
        "notice": "Single upload path: XRPL payment with FDC verification + FTSO pricing Anyone can upload for any patientId (no ACL checks)"
      }
    },
    "version": 1
  }
}