{"abi":[{"type":"function","name":"balances","inputs":[{"name":"","type":"bytes32","internalType":"bytes32"}],"outputs":[{"name":"","type":"uint256","internalType":"uint256"}],"stateMutability":"view"},{"type":"function","name":"depositFor","inputs":[{"name":"patientId","type":"bytes32","internalType":"bytes32"}],"outputs":[],"stateMutability":"payable"},{"type":"function","name":"getDocMeta","inputs":[{"name":"patientId","type":"bytes32","internalType":"bytes32"},{"name":"kind","type":"uint8","internalType":"uint8"}],"outputs":[{"name":"uri","type":"string","internalType":"string"},{"name":"ver","type":"uint256","internalType":"uint256"},{"name":"updatedAt","type":"uint256","internalType":"uint256"},{"name":"proof","type":"bytes32","internalType":"bytes32"}],"stateMutability":"view"},{"type":"function","name":"getDocPayment","inputs":[{"name":"patientId","type":"bytes32","internalType":"bytes32"},{"name":"kind","type":"uint8","internalType":"uint8"}],"outputs":[{"name":"paidDrops","type":"uint256","internalType":"uint256"},{"name":"paidVer","type":"uint256","internalType":"uint256"},{"name":"flareDeduct","type":"bool","internalType":"bool"}],"stateMutability":"view"},{"type":"function","name":"getDocument","inputs":[{"name":"patientId","type":"bytes32","internalType":"bytes32"},{"name":"kind","type":"uint8","internalType":"uint8"}],"outputs":[{"name":"uri","type":"string","internalType":"string"},{"name":"ver","type":"uint256","internalType":"uint256"},{"name":"updatedAt","type":"uint256","internalType":"uint256"},{"name":"proof","type":"bytes32","internalType":"bytes32"}],"stateMutability":"view"},{"type":"function","name":"getRoles","inputs":[{"name":"patientId","type":"bytes32","internalType":"bytes32"}],"outputs":[{"name":"guardian","type":"address","internalType":"address"},{"name":"psychologist","type":"address","internalType":"address"},{"name":"insurer","type":"address","internalType":"address"}],"stateMutability":"view"},{"type":"function","name":"grantRead","inputs":[{"name":"patientId","type":"bytes32","internalType":"bytes32"},{"name":"reader","type":"address","internalType":"address"},{"name":"grant","type":"bool","internalType":"bool"}],"outputs":[],"stateMutability":"nonpayable"},{"type":"function","name":"guardians","inputs":[{"name":"","type":"bytes32","internalType":"bytes32"}],"outputs":[{"name":"","type":"address","internalType":"address"}],"stateMutability":"view"},{"type":"function","name":"hasRead","inputs":[{"name":"patientId","type":"bytes32","internalType":"bytes32"},{"name":"reader","type":"address","internalType":"address"}],"outputs":[{"name":"","type":"bool","internalType":"bool"}],"stateMutability":"view"},{"type":"function","name":"insurers","inputs":[{"name":"","type":"bytes32","internalType":"bytes32"}],"outputs":[{"name":"","type":"address","internalType":"address"}],"stateMutability":"view"},{"type":"function","name":"pediatricPsychologists","inputs":[{"name":"","type":"bytes32","internalType":"bytes32"}],"outputs":[{"name":"","type":"address","internalType":"address"}],"stateMutability":"view"},{"type":"function","name":"setGuardian","inputs":[{"name":"patientId","type":"bytes32","internalType":"bytes32"},{"name":"guardian","type":"address","internalType":"address"}],"outputs":[],"stateMutability":"nonpayable"},{"type":"function","name":"setInsurer","inputs":[{"name":"patientId","type":"bytes32","internalType":"bytes32"},{"name":"insurer","type":"address","internalType":"address"}],"outputs":[],"stateMutability":"nonpayable"},{"type":"function","name":"setPediatricPsychologist","inputs":[{"name":"patientId","type":"bytes32","internalType":"bytes32"},{"name":"psychologist","type":"address","internalType":"address"}],"outputs":[],"stateMutability":"nonpayable"},{"type":"function","name":"uploadDocumentDeduct","inputs":[{"name":"patientId","type":"bytes32","internalType":"bytes32"},{"name":"kind","type":"uint8","internalType":"uint8"},{"name":"uri","type":"string","internalType":"string"}],"outputs":[],"stateMutability":"nonpayable"},{"type":"function","name":"uploadFeeWei","inputs":[],"outputs":[{"name":"","type":"uint256","internalType":"uint256"}],"stateMutability":"pure"}],"bytecode":{"object":"0x608060405234801561000f575f80fd5b50610c238061001d5f395ff3fe6080604052600436106100ee575f3560e01c8063887a926c11610087578063b5574f2411610057578063b5574f241461039a578063d3674b18146103b9578063e036286714610400578063f4748bbb14610419575f80fd5b8063887a926c146102fb5780638909aa3f1461032f57806395820a04146103685780639bf77fb414610387575f80fd5b80634ad938c4116100c25780634ad938c4146102375780635c1dafb61461027e57806362c75cec146102ad57806378140468146102dc575f80fd5b80626728a9146100f2578063116aa52f1461014357806316a1d8b4146101ba5780631aef903914610203575b5f80fd5b3480156100fd575f80fd5b5061012661010c3660046108af565b60016020525f90815260409020546001600160a01b031681565b6040516001600160a01b0390911681526020015b60405180910390f35b34801561014e575f80fd5b5061019061015d3660046108af565b5f9081526020818152604080832054600183528184205460029093529220546001600160a01b0392831693918316921690565b604080516001600160a01b039485168152928416602084015292169181019190915260600161013a565b3480156101c5575f80fd5b506102016101d43660046108e1565b5f9182526001602052604090912080546001600160a01b0319166001600160a01b03909216919091179055565b005b34801561020e575f80fd5b5061012661021d3660046108af565b60026020525f90815260409020546001600160a01b031681565b348015610242575f80fd5b506102016102513660046108e1565b5f9182526002602052604090912080546001600160a01b0319166001600160a01b03909216919091179055565b348015610289575f80fd5b5061029d6102983660046108e1565b610482565b604051901515815260200161013a565b3480156102b8575f80fd5b506102cc6102c736600461091b565b6104ae565b60405161013a949392919061093c565b3480156102e7575f80fd5b506102cc6102f636600461091b565b610583565b348015610306575f80fd5b506101266103153660046108af565b5f602081905290815260409020546001600160a01b031681565b34801561033a575f80fd5b5061035a6103493660046108af565b60066020525f908152604090205481565b60405190815260200161013a565b348015610373575f80fd5b5061020161038236600461099c565b610627565b6102016103953660046108af565b6106af565b3480156103a5575f80fd5b506102016103b43660046109dd565b6106d4565b3480156103c4575f80fd5b506102016103d33660046108e1565b5f9182526020829052604090912080546001600160a01b0319166001600160a01b03909216919091179055565b34801561040b575f80fd5b50662386f26fc1000061035a565b348015610424575f80fd5b5061046561043336600461091b565b5f91825260046020908152604080842060ff938416855290915290912080546001820154600290920154909391921690565b60408051938452602084019290925215159082015260600161013a565b5f8281526005602090815260408083206001600160a01b038516845290915290205460ff165b92915050565b5f82815260036020818152604080842060ff8616855290915282206001810154600282015492820154825460609594859485949093849391929184906104f390610a5d565b80601f016020809104026020016040519081016040528092919081815260200182805461051f90610a5d565b801561056a5780601f106105415761010080835404028352916020019161056a565b820191905f5260205f20905b81548152906001019060200180831161054d57829003601f168201915b5050505050935094509450945094505092959194509250565b5f828152600560209081526040808320338452909152812054606091908190819060ff166105e95760405162461bcd60e51b815260206004820152600e60248201526d4e6f20726561642061636365737360901b60448201526064015b60405180910390fd5b5f86815260036020818152604080842060ff8a168552909152909120600181015460028201549282015482549293849390919084906104f390610a5d565b5f838152602081905260409020546001600160a01b0316331461067b5760405162461bcd60e51b815260206004820152600c60248201526b2737ba1033bab0b93234b0b760a11b60448201526064016105e0565b5f9283526005602090815260408085206001600160a01b039490941685529290529120805460ff1916911515919091179055565b5f81815260066020526040812080543492906106cc908490610aa9565b909155505050565b5f848152600160205260409020546001600160a01b0316331461072a5760405162461bcd60e51b815260206004820152600e60248201526d139bdd08185d5d1a1bdc9a5e995960921b60448201526064016105e0565b5f84815260066020526040902054662386f26fc1000011156107855760405162461bcd60e51b8152602060048201526014602482015273496e73756666696369656e742062616c616e636560601b60448201526064016105e0565b5f8481526006602052604081208054662386f26fc1000092906107a9908490610abc565b90915550506040805160a06020601f8501819004028201810190925260808101838152909182919085908590819085018382808284375f920182905250938552505060016020808501919091524260408086019190915260609094018390528883526003815283832060ff89168452905250208151819061082a9082610b31565b50602082810151600183810191909155604080850151600280860191909155606095860151600390950194909455805194850181525f8086528584018381528683018481529a82526004855282822060ff9a909a1682529890935290912092518355945194820194909455935193909201805460ff1916931515939093179092555050565b5f602082840312156108bf575f80fd5b5035919050565b80356001600160a01b03811681146108dc575f80fd5b919050565b5f80604083850312156108f2575f80fd5b82359150610902602084016108c6565b90509250929050565b803560ff811681146108dc575f80fd5b5f806040838503121561092c575f80fd5b823591506109026020840161090b565b608081525f85518060808401525f5b8181101561096857602081890181015160a086840101520161094b565b505f60a0828501015260a0601f19601f83011684010191505084602083015283604083015282606083015295945050505050565b5f805f606084860312156109ae575f80fd5b833592506109be602085016108c6565b9150604084013580151581146109d2575f80fd5b809150509250925092565b5f805f80606085870312156109f0575f80fd5b84359350610a006020860161090b565b9250604085013567ffffffffffffffff80821115610a1c575f80fd5b818701915087601f830112610a2f575f80fd5b813581811115610a3d575f80fd5b886020828501011115610a4e575f80fd5b95989497505060200194505050565b600181811c90821680610a7157607f821691505b602082108103610a8f57634e487b7160e01b5f52602260045260245ffd5b50919050565b634e487b7160e01b5f52601160045260245ffd5b808201808211156104a8576104a8610a95565b818103818111156104a8576104a8610a95565b634e487b7160e01b5f52604160045260245ffd5b601f821115610b2c575f81815260208120601f850160051c81016020861015610b095750805b601f850160051c820191505b81811015610b2857828155600101610b15565b5050505b505050565b815167ffffffffffffffff811115610b4b57610b4b610acf565b610b5f81610b598454610a5d565b84610ae3565b602080601f831160018114610b92575f8415610b7b5750858301515b5f19600386901b1c1916600185901b178555610b28565b5f85815260208120601f198616915b82811015610bc057888601518255948401946001909101908401610ba1565b5085821015610bdd57878501515f19600388901b60f8161c191681555b5050505050600190811b0190555056fea2646970667358221220582dd4e767eba5886138125947f86ae8f784c3ab0688af5b2a02c7fa307c985c64736f6c63430008150033","linkReferences":{}},"methodIdentifiers":{"balances(bytes32)":"8909aa3f","depositFor(bytes32)":"9bf77fb4","getDocMeta(bytes32,uint8)":"62c75cec","getDocPayment(bytes32,uint8)":"f4748bbb","getDocument(bytes32,uint8)":"78140468","getRoles(bytes32)":"116aa52f","grantRead(bytes32,address,bool)":"95820a04","guardians(bytes32)":"887a926c","hasRead(bytes32,address)":"5c1dafb6","insurers(bytes32)":"1aef9039","pediatricPsychologists(bytes32)":"006728a9","setGuardian(bytes32,address)":"d3674b18","setInsurer(bytes32,address)":"4ad938c4","setPediatricPsychologist(bytes32,address)":"16a1d8b4","uploadDocumentDeduct(bytes32,uint8,string)":"b5574f24","uploadFeeWei()":"e0362867"},"id":19}