{
  "_format": "hh-sol-artifact-1",
  "contractName": "AutismMedicalSystemSimple",
  "sourceName": "contracts/AutismMedicalSystemSimple.sol",
  "abi": [
    {
      "inputs": [],
      "stateMutability": "nonpayable",
      "type": "constructor"
    },
    {
      "inputs": [],
      "name": "AccessControlBadConfirmation",
      "type": "error"
    },
    {
      "inputs": [
        {
          "internalType": "address",
          "name": "account",
          "type": "address"
        },
        {
          "internalType": "bytes32",
          "name": "neededRole",
          "type": "bytes32"
        }
      ],
      "name": "AccessControlUnauthorizedAccount",
      "type": "error"
    },
    {
      "inputs": [
        {
          "internalType": "address",
          "name": "sender",
          "type": "address"
        },
        {
          "internalType": "uint256",
          "name": "tokenId",
          "type": "uint256"
        },
        {
          "internalType": "address",
          "name": "owner",
          "type": "address"
        }
      ],
      "name": "ERC721IncorrectOwner",
      "type": "error"
    },
    {
      "inputs": [
        {
          "internalType": "address",
          "name": "operator",
          "type": "address"
        },
        {
          "internalType": "uint256",
          "name": "tokenId",
          "type": "uint256"
        }
      ],
      "name": "ERC721InsufficientApproval",
      "type": "error"
    },
    {
      "inputs": [
        {
          "internalType": "address",
          "name": "approver",
          "type": "address"
        }
      ],
      "name": "ERC721InvalidApprover",
      "type": "error"
    },
    {
      "inputs": [
        {
          "internalType": "address",
          "name": "operator",
          "type": "address"
        }
      ],
      "name": "ERC721InvalidOperator",
      "type": "error"
    },
    {
      "inputs": [
        {
          "internalType": "address",
          "name": "owner",
          "type": "address"
        }
      ],
      "name": "ERC721InvalidOwner",
      "type": "error"
    },
    {
      "inputs": [
        {
          "internalType": "address",
          "name": "receiver",
          "type": "address"
        }
      ],
      "name": "ERC721InvalidReceiver",
      "type": "error"
    },
    {
      "inputs": [
        {
          "internalType": "address",
          "name": "sender",
          "type": "address"
        }
      ],
      "name": "ERC721InvalidSender",
      "type": "error"
    },
    {
      "inputs": [
        {
          "internalType": "uint256",
          "name": "tokenId",
          "type": "uint256"
        }
      ],
      "name": "ERC721NonexistentToken",
      "type": "error"
    },
    {
      "inputs": [],
      "name": "ReentrancyGuardReentrantCall",
      "type": "error"
    },
    {
      "anonymous": false,
      "inputs": [
        {
          "indexed": true,
          "internalType": "address",
          "name": "owner",
          "type": "address"
        },
        {
          "indexed": true,
          "internalType": "address",
          "name": "approved",
          "type": "address"
        },
        {
          "indexed": true,
          "internalType": "uint256",
          "name": "tokenId",
          "type": "uint256"
        }
      ],
      "name": "Approval",
      "type": "event"
    },
    {
      "anonymous": false,
      "inputs": [
        {
          "indexed": true,
          "internalType": "address",
          "name": "owner",
          "type": "address"
        },
        {
          "indexed": true,
          "internalType": "address",
          "name": "operator",
          "type": "address"
        },
        {
          "indexed": false,
          "internalType": "bool",
          "name": "approved",
          "type": "bool"
        }
      ],
      "name": "ApprovalForAll",
      "type": "event"
    },
    {
      "anonymous": false,
      "inputs": [
        {
          "indexed": false,
          "internalType": "uint256",
          "name": "_fromTokenId",
          "type": "uint256"
        },
        {
          "indexed": false,
          "internalType": "uint256",
          "name": "_toTokenId",
          "type": "uint256"
        }
      ],
      "name": "BatchMetadataUpdate",
      "type": "event"
    },
    {
      "anonymous": false,
      "inputs": [
        {
          "indexed": true,
          "internalType": "bytes32",
          "name": "billId",
          "type": "bytes32"
        },
        {
          "indexed": true,
          "internalType": "uint256",
          "name": "tokenId",
          "type": "uint256"
        },
        {
          "indexed": true,
          "internalType": "address",
          "name": "patient",
          "type": "address"
        },
        {
          "indexed": false,
          "internalType": "uint256",
          "name": "totalAmount",
          "type": "uint256"
        },
        {
          "indexed": false,
          "internalType": "uint256",
          "name": "insurancePortion",
          "type": "uint256"
        }
      ],
      "name": "BillCreated",
      "type": "event"
    },
    {
      "anonymous": false,
      "inputs": [
        {
          "indexed": true,
          "internalType": "address",
          "name": "patient",
          "type": "address"
        },
        {
          "indexed": false,
          "internalType": "enum AutismMedicalSystemSimple.SeverityLevel",
          "name": "newLevel",
          "type": "uint8"
        },
        {
          "indexed": false,
          "internalType": "uint256",
          "name": "evaluationTokenId",
          "type": "uint256"
        }
      ],
      "name": "DiagnosisUpdated",
      "type": "event"
    },
    {
      "anonymous": false,
      "inputs": [
        {
          "indexed": true,
          "internalType": "uint256",
          "name": "tokenId",
          "type": "uint256"
        },
        {
          "indexed": true,
          "internalType": "address",
          "name": "patient",
          "type": "address"
        },
        {
          "indexed": false,
          "internalType": "enum AutismMedicalSystemSimple.EvaluationType",
          "name": "evaluationType",
          "type": "uint8"
        },
        {
          "indexed": false,
          "internalType": "bool",
          "name": "paidByInsurance",
          "type": "bool"
        }
      ],
      "name": "EvaluationUploaded",
      "type": "event"
    },
    {
      "anonymous": false,
      "inputs": [
        {
          "indexed": true,
          "internalType": "uint256",
          "name": "tokenId",
          "type": "uint256"
        },
        {
          "indexed": true,
          "internalType": "address",
          "name": "accessor",
          "type": "address"
        },
        {
          "indexed": false,
          "internalType": "string",
          "name": "purpose",
          "type": "string"
        },
        {
          "indexed": false,
          "internalType": "bool",
          "name": "requiresPayment",
          "type": "bool"
        }
      ],
      "name": "FileAccessGranted",
      "type": "event"
    },
    {
      "anonymous": false,
      "inputs": [
        {
          "indexed": true,
          "internalType": "uint256",
          "name": "tokenId",
          "type": "uint256"
        },
        {
          "indexed": false,
          "internalType": "string",
          "name": "insuranceProvider",
          "type": "string"
        },
        {
          "indexed": false,
          "internalType": "string",
          "name": "xrplTxHash",
          "type": "string"
        },
        {
          "indexed": false,
          "internalType": "uint256",
          "name": "amountUSD",
          "type": "uint256"
        }
      ],
      "name": "InsurancePaymentProcessed",
      "type": "event"
    },
    {
      "anonymous": false,
      "inputs": [
        {
          "indexed": false,
          "internalType": "uint256",
          "name": "_tokenId",
          "type": "uint256"
        }
      ],
      "name": "MetadataUpdate",
      "type": "event"
    },
    {
      "anonymous": false,
      "inputs": [
        {
          "indexed": true,
          "internalType": "bytes32",
          "name": "role",
          "type": "bytes32"
        },
        {
          "indexed": true,
          "internalType": "bytes32",
          "name": "previousAdminRole",
          "type": "bytes32"
        },
        {
          "indexed": true,
          "internalType": "bytes32",
          "name": "newAdminRole",
          "type": "bytes32"
        }
      ],
      "name": "RoleAdminChanged",
      "type": "event"
    },
    {
      "anonymous": false,
      "inputs": [
        {
          "indexed": true,
          "internalType": "bytes32",
          "name": "role",
          "type": "bytes32"
        },
        {
          "indexed": true,
          "internalType": "address",
          "name": "account",
          "type": "address"
        },
        {
          "indexed": true,
          "internalType": "address",
          "name": "sender",
          "type": "address"
        }
      ],
      "name": "RoleGranted",
      "type": "event"
    },
    {
      "anonymous": false,
      "inputs": [
        {
          "indexed": true,
          "internalType": "bytes32",
          "name": "role",
          "type": "bytes32"
        },
        {
          "indexed": true,
          "internalType": "address",
          "name": "account",
          "type": "address"
        },
        {
          "indexed": true,
          "internalType": "address",
          "name": "sender",
          "type": "address"
        }
      ],
      "name": "RoleRevoked",
      "type": "event"
    },
    {
      "anonymous": false,
      "inputs": [
        {
          "indexed": true,
          "internalType": "address",
          "name": "from",
          "type": "address"
        },
        {
          "indexed": true,
          "internalType": "address",
          "name": "to",
          "type": "address"
        },
        {
          "indexed": true,
          "internalType": "uint256",
          "name": "tokenId",
          "type": "uint256"
        }
      ],
      "name": "Transfer",
      "type": "event"
    },
    {
      "inputs": [],
      "name": "DEFAULT_ADMIN_ROLE",
      "outputs": [
        {
          "internalType": "bytes32",
          "name": "",
          "type": "bytes32"
        }
      ],
      "stateMutability": "view",
      "type": "function"
    },
    {
      "inputs": [],
      "name": "EVALUATOR_ROLE",
      "outputs": [
        {
          "internalType": "bytes32",
          "name": "",
          "type": "bytes32"
        }
      ],
      "stateMutability": "view",
      "type": "function"
    },
    {
      "inputs": [],
      "name": "HOSPITAL_ROLE",
      "outputs": [
        {
          "internalType": "bytes32",
          "name": "",
          "type": "bytes32"
        }
      ],
      "stateMutability": "view",
      "type": "function"
    },
    {
      "inputs": [],
      "name": "INSURANCE_ROLE",
      "outputs": [
        {
          "internalType": "bytes32",
          "name": "",
          "type": "bytes32"
        }
      ],
      "stateMutability": "view",
      "type": "function"
    },
    {
      "inputs": [
        {
          "internalType": "uint256",
          "name": "tokenId",
          "type": "uint256"
        },
        {
          "internalType": "string",
          "name": "purpose",
          "type": "string"
        }
      ],
      "name": "accessEvaluationFile",
      "outputs": [
        {
          "internalType": "string",
          "name": "fileLocation",
          "type": "string"
        },
        {
          "internalType": "bytes32",
          "name": "encryptedKey",
          "type": "bytes32"
        },
        {
          "internalType": "bool",
          "name": "requiresPayment",
          "type": "bool"
        }
      ],
      "stateMutability": "nonpayable",
      "type": "function"
    },
    {
      "inputs": [
        {
          "internalType": "uint256",
          "name": "",
          "type": "uint256"
        },
        {
          "internalType": "uint256",
          "name": "",
          "type": "uint256"
        }
      ],
      "name": "accessHistory",
      "outputs": [
        {
          "internalType": "address",
          "name": "accessor",
          "type": "address"
        },
        {
          "internalType": "uint256",
          "name": "accessTime",
          "type": "uint256"
        },
        {
          "internalType": "string",
          "name": "purpose",
          "type": "string"
        },
        {
          "internalType": "bool",
          "name": "isPaid",
          "type": "bool"
        }
      ],
      "stateMutability": "view",
      "type": "function"
    },
    {
      "inputs": [
        {
          "internalType": "string",
          "name": "provider",
          "type": "string"
        }
      ],
      "name": "addVerifiedInsurance",
      "outputs": [],
      "stateMutability": "nonpayable",
      "type": "function"
    },
    {
      "inputs": [
        {
          "internalType": "address",
          "name": "to",
          "type": "address"
        },
        {
          "internalType": "uint256",
          "name": "tokenId",
          "type": "uint256"
        }
      ],
      "name": "approve",
      "outputs": [],
      "stateMutability": "nonpayable",
      "type": "function"
    },
    {
      "inputs": [
        {
          "internalType": "address",
          "name": "owner",
          "type": "address"
        }
      ],
      "name": "balanceOf",
      "outputs": [
        {
          "internalType": "uint256",
          "name": "",
          "type": "uint256"
        }
      ],
      "stateMutability": "view",
      "type": "function"
    },
    {
      "inputs": [
        {
          "internalType": "uint256",
          "name": "evaluationTokenId",
          "type": "uint256"
        },
        {
          "internalType": "uint256",
          "name": "serviceAmountUSD",
          "type": "uint256"
        },
        {
          "internalType": "string",
          "name": "serviceDescription",
          "type": "string"
        }
      ],
      "name": "billPatientThroughInsurance",
      "outputs": [
        {
          "internalType": "bytes32",
          "name": "billId",
          "type": "bytes32"
        }
      ],
      "stateMutability": "nonpayable",
      "type": "function"
    },
    {
      "inputs": [
        {
          "internalType": "uint256",
          "name": "",
          "type": "uint256"
        }
      ],
      "name": "evaluations",
      "outputs": [
        {
          "internalType": "uint256",
          "name": "tokenId",
          "type": "uint256"
        },
        {
          "internalType": "address",
          "name": "patient",
          "type": "address"
        },
        {
          "internalType": "address",
          "name": "evaluator",
          "type": "address"
        },
        {
          "internalType": "bytes32",
          "name": "fileHash",
          "type": "bytes32"
        },
        {
          "internalType": "string",
          "name": "fileLocation",
          "type": "string"
        },
        {
          "internalType": "bytes32",
          "name": "encryptedKey",
          "type": "bytes32"
        },
        {
          "internalType": "enum AutismMedicalSystemSimple.EvaluationType",
          "name": "evaluationType",
          "type": "uint8"
        },
        {
          "internalType": "uint256",
          "name": "evaluationDate",
          "type": "uint256"
        },
        {
          "internalType": "uint256",
          "name": "uploadDate",
          "type": "uint256"
        },
        {
          "internalType": "bool",
          "name": "isPaidByInsurance",
          "type": "bool"
        },
        {
          "internalType": "string",
          "name": "insurancePaymentTx",
          "type": "string"
        },
        {
          "internalType": "uint256",
          "name": "evaluationCostUSD",
          "type": "uint256"
        },
        {
          "components": [
            {
              "internalType": "string",
              "name": "insuranceProvider",
              "type": "string"
            },
            {
              "internalType": "string",
              "name": "policyNumber",
              "type": "string"
            },
            {
              "internalType": "string",
              "name": "memberID",
              "type": "string"
            },
            {
              "internalType": "string",
              "name": "insuranceXRPL",
              "type": "string"
            },
            {
              "internalType": "uint256",
              "name": "coveragePercentage",
              "type": "uint256"
            },
            {
              "internalType": "bool",
              "name": "isVerified",
              "type": "bool"
            }
          ],
          "internalType": "struct AutismMedicalSystemSimple.InsuranceInfo",
          "name": "insurance",
          "type": "tuple"
        }
      ],
      "stateMutability": "view",
      "type": "function"
    },
    {
      "inputs": [
        {
          "internalType": "uint256",
          "name": "tokenId",
          "type": "uint256"
        }
      ],
      "name": "getAccessHistory",
      "outputs": [
        {
          "components": [
            {
              "internalType": "address",
              "name": "accessor",
              "type": "address"
            },
            {
              "internalType": "uint256",
              "name": "accessTime",
              "type": "uint256"
            },
            {
              "internalType": "string",
              "name": "purpose",
              "type": "string"
            },
            {
              "internalType": "bool",
              "name": "isPaid",
              "type": "bool"
            }
          ],
          "internalType": "struct AutismMedicalSystemSimple.AccessRecord[]",
          "name": "",
          "type": "tuple[]"
        }
      ],
      "stateMutability": "view",
      "type": "function"
    },
    {
      "inputs": [
        {
          "internalType": "uint256",
          "name": "tokenId",
          "type": "uint256"
        }
      ],
      "name": "getApproved",
      "outputs": [
        {
          "internalType": "address",
          "name": "",
          "type": "address"
        }
      ],
      "stateMutability": "view",
      "type": "function"
    },
    {
      "inputs": [
        {
          "internalType": "uint256",
          "name": "tokenId",
          "type": "uint256"
        }
      ],
      "name": "getEvaluation",
      "outputs": [
        {
          "internalType": "address",
          "name": "patient",
          "type": "address"
        },
        {
          "internalType": "enum AutismMedicalSystemSimple.EvaluationType",
          "name": "evaluationType",
          "type": "uint8"
        },
        {
          "internalType": "uint256",
          "name": "evaluationDate",
          "type": "uint256"
        },
        {
          "internalType": "bool",
          "name": "isPaidByInsurance",
          "type": "bool"
        },
        {
          "internalType": "string",
          "name": "insuranceProvider",
          "type": "string"
        }
      ],
      "stateMutability": "view",
      "type": "function"
    },
    {
      "inputs": [],
      "name": "getEvaluationTypes",
      "outputs": [
        {
          "internalType": "string[]",
          "name": "",
          "type": "string[]"
        }
      ],
      "stateMutability": "pure",
      "type": "function"
    },
    {
      "inputs": [
        {
          "internalType": "address",
          "name": "patient",
          "type": "address"
        }
      ],
      "name": "getPatientBills",
      "outputs": [
        {
          "internalType": "bytes32[]",
          "name": "",
          "type": "bytes32[]"
        }
      ],
      "stateMutability": "view",
      "type": "function"
    },
    {
      "inputs": [
        {
          "internalType": "address",
          "name": "patient",
          "type": "address"
        }
      ],
      "name": "getPatientDiagnosis",
      "outputs": [
        {
          "internalType": "enum AutismMedicalSystemSimple.SeverityLevel",
          "name": "currentLevel",
          "type": "uint8"
        },
        {
          "internalType": "uint256",
          "name": "firstDiagnosisDate",
          "type": "uint256"
        },
        {
          "internalType": "uint256",
          "name": "lastUpdateDate",
          "type": "uint256"
        },
        {
          "internalType": "string",
          "name": "primaryDiagnosis",
          "type": "string"
        },
        {
          "internalType": "uint256",
          "name": "totalEvals",
          "type": "uint256"
        }
      ],
      "stateMutability": "view",
      "type": "function"
    },
    {
      "inputs": [
        {
          "internalType": "bytes32",
          "name": "role",
          "type": "bytes32"
        }
      ],
      "name": "getRoleAdmin",
      "outputs": [
        {
          "internalType": "bytes32",
          "name": "",
          "type": "bytes32"
        }
      ],
      "stateMutability": "view",
      "type": "function"
    },
    {
      "inputs": [],
      "name": "getSeverityLevels",
      "outputs": [
        {
          "internalType": "string[]",
          "name": "",
          "type": "string[]"
        }
      ],
      "stateMutability": "pure",
      "type": "function"
    },
    {
      "inputs": [
        {
          "internalType": "bytes32",
          "name": "role",
          "type": "bytes32"
        },
        {
          "internalType": "address",
          "name": "account",
          "type": "address"
        }
      ],
      "name": "grantRole",
      "outputs": [],
      "stateMutability": "nonpayable",
      "type": "function"
    },
    {
      "inputs": [
        {
          "internalType": "uint256",
          "name": "",
          "type": "uint256"
        },
        {
          "internalType": "address",
          "name": "",
          "type": "address"
        }
      ],
      "name": "hasPaidAccess",
      "outputs": [
        {
          "internalType": "bool",
          "name": "",
          "type": "bool"
        }
      ],
      "stateMutability": "view",
      "type": "function"
    },
    {
      "inputs": [
        {
          "internalType": "bytes32",
          "name": "role",
          "type": "bytes32"
        },
        {
          "internalType": "address",
          "name": "account",
          "type": "address"
        }
      ],
      "name": "hasRole",
      "outputs": [
        {
          "internalType": "bool",
          "name": "",
          "type": "bool"
        }
      ],
      "stateMutability": "view",
      "type": "function"
    },
    {
      "inputs": [
        {
          "internalType": "address",
          "name": "owner",
          "type": "address"
        },
        {
          "internalType": "address",
          "name": "operator",
          "type": "address"
        }
      ],
      "name": "isApprovedForAll",
      "outputs": [
        {
          "internalType": "bool",
          "name": "",
          "type": "bool"
        }
      ],
      "stateMutability": "view",
      "type": "function"
    },
    {
      "inputs": [
        {
          "internalType": "bytes32",
          "name": "",
          "type": "bytes32"
        }
      ],
      "name": "medicalBills",
      "outputs": [
        {
          "internalType": "bytes32",
          "name": "billId",
          "type": "bytes32"
        },
        {
          "internalType": "uint256",
          "name": "evaluationTokenId",
          "type": "uint256"
        },
        {
          "internalType": "address",
          "name": "hospital",
          "type": "address"
        },
        {
          "internalType": "address",
          "name": "patient",
          "type": "address"
        },
        {
          "internalType": "uint256",
          "name": "amountUSD",
          "type": "uint256"
        },
        {
          "internalType": "uint256",
          "name": "insurancePortion",
          "type": "uint256"
        },
        {
          "internalType": "uint256",
          "name": "patientPortion",
          "type": "uint256"
        },
        {
          "internalType": "bool",
          "name": "isPaid",
          "type": "bool"
        },
        {
          "internalType": "uint256",
          "name": "createdAt",
          "type": "uint256"
        }
      ],
      "stateMutability": "view",
      "type": "function"
    },
    {
      "inputs": [],
      "name": "name",
      "outputs": [
        {
          "internalType": "string",
          "name": "",
          "type": "string"
        }
      ],
      "stateMutability": "view",
      "type": "function"
    },
    {
      "inputs": [
        {
          "internalType": "uint256",
          "name": "tokenId",
          "type": "uint256"
        }
      ],
      "name": "ownerOf",
      "outputs": [
        {
          "internalType": "address",
          "name": "",
          "type": "address"
        }
      ],
      "stateMutability": "view",
      "type": "function"
    },
    {
      "inputs": [
        {
          "internalType": "address",
          "name": "",
          "type": "address"
        },
        {
          "internalType": "uint256",
          "name": "",
          "type": "uint256"
        }
      ],
      "name": "patientBills",
      "outputs": [
        {
          "internalType": "bytes32",
          "name": "",
          "type": "bytes32"
        }
      ],
      "stateMutability": "view",
      "type": "function"
    },
    {
      "inputs": [
        {
          "internalType": "address",
          "name": "",
          "type": "address"
        }
      ],
      "name": "patientDiagnosis",
      "outputs": [
        {
          "internalType": "enum AutismMedicalSystemSimple.SeverityLevel",
          "name": "currentLevel",
          "type": "uint8"
        },
        {
          "internalType": "uint256",
          "name": "firstDiagnosisDate",
          "type": "uint256"
        },
        {
          "internalType": "uint256",
          "name": "lastUpdateDate",
          "type": "uint256"
        },
        {
          "internalType": "string",
          "name": "primaryDiagnosis",
          "type": "string"
        },
        {
          "internalType": "uint256",
          "name": "totalEvaluations",
          "type": "uint256"
        }
      ],
      "stateMutability": "view",
      "type": "function"
    },
    {
      "inputs": [
        {
          "internalType": "bytes32",
          "name": "billId",
          "type": "bytes32"
        },
        {
          "internalType": "string",
          "name": "xrplPaymentTx",
          "type": "string"
        }
      ],
      "name": "payBill",
      "outputs": [],
      "stateMutability": "nonpayable",
      "type": "function"
    },
    {
      "inputs": [
        {
          "internalType": "bytes32",
          "name": "role",
          "type": "bytes32"
        },
        {
          "internalType": "address",
          "name": "callerConfirmation",
          "type": "address"
        }
      ],
      "name": "renounceRole",
      "outputs": [],
      "stateMutability": "nonpayable",
      "type": "function"
    },
    {
      "inputs": [
        {
          "internalType": "bytes32",
          "name": "role",
          "type": "bytes32"
        },
        {
          "internalType": "address",
          "name": "account",
          "type": "address"
        }
      ],
      "name": "revokeRole",
      "outputs": [],
      "stateMutability": "nonpayable",
      "type": "function"
    },
    {
      "inputs": [
        {
          "internalType": "address",
          "name": "from",
          "type": "address"
        },
        {
          "internalType": "address",
          "name": "to",
          "type": "address"
        },
        {
          "internalType": "uint256",
          "name": "tokenId",
          "type": "uint256"
        }
      ],
      "name": "safeTransferFrom",
      "outputs": [],
      "stateMutability": "nonpayable",
      "type": "function"
    },
    {
      "inputs": [
        {
          "internalType": "address",
          "name": "from",
          "type": "address"
        },
        {
          "internalType": "address",
          "name": "to",
          "type": "address"
        },
        {
          "internalType": "uint256",
          "name": "tokenId",
          "type": "uint256"
        },
        {
          "internalType": "bytes",
          "name": "data",
          "type": "bytes"
        }
      ],
      "name": "safeTransferFrom",
      "outputs": [],
      "stateMutability": "nonpayable",
      "type": "function"
    },
    {
      "inputs": [
        {
          "internalType": "address",
          "name": "operator",
          "type": "address"
        },
        {
          "internalType": "bool",
          "name": "approved",
          "type": "bool"
        }
      ],
      "name": "setApprovalForAll",
      "outputs": [],
      "stateMutability": "nonpayable",
      "type": "function"
    },
    {
      "inputs": [
        {
          "internalType": "bytes4",
          "name": "interfaceId",
          "type": "bytes4"
        }
      ],
      "name": "supportsInterface",
      "outputs": [
        {
          "internalType": "bool",
          "name": "",
          "type": "bool"
        }
      ],
      "stateMutability": "view",
      "type": "function"
    },
    {
      "inputs": [],
      "name": "symbol",
      "outputs": [
        {
          "internalType": "string",
          "name": "",
          "type": "string"
        }
      ],
      "stateMutability": "view",
      "type": "function"
    },
    {
      "inputs": [
        {
          "internalType": "uint256",
          "name": "tokenId",
          "type": "uint256"
        }
      ],
      "name": "tokenURI",
      "outputs": [
        {
          "internalType": "string",
          "name": "",
          "type": "string"
        }
      ],
      "stateMutability": "view",
      "type": "function"
    },
    {
      "inputs": [],
      "name": "totalDiagnosedPatients",
      "outputs": [
        {
          "internalType": "uint256",
          "name": "",
          "type": "uint256"
        }
      ],
      "stateMutability": "view",
      "type": "function"
    },
    {
      "inputs": [],
      "name": "totalEvaluations",
      "outputs": [
        {
          "internalType": "uint256",
          "name": "",
          "type": "uint256"
        }
      ],
      "stateMutability": "view",
      "type": "function"
    },
    {
      "inputs": [],
      "name": "totalInsurancePayments",
      "outputs": [
        {
          "internalType": "uint256",
          "name": "",
          "type": "uint256"
        }
      ],
      "stateMutability": "view",
      "type": "function"
    },
    {
      "inputs": [
        {
          "internalType": "address",
          "name": "from",
          "type": "address"
        },
        {
          "internalType": "address",
          "name": "to",
          "type": "address"
        },
        {
          "internalType": "uint256",
          "name": "tokenId",
          "type": "uint256"
        }
      ],
      "name": "transferFrom",
      "outputs": [],
      "stateMutability": "nonpayable",
      "type": "function"
    },
    {
      "inputs": [
        {
          "internalType": "address",
          "name": "patient",
          "type": "address"
        },
        {
          "internalType": "uint256",
          "name": "evaluationTokenId",
          "type": "uint256"
        },
        {
          "internalType": "enum AutismMedicalSystemSimple.SeverityLevel",
          "name": "newLevel",
          "type": "uint8"
        },
        {
          "internalType": "string",
          "name": "primaryDiagnosis",
          "type": "string"
        }
      ],
      "name": "updateDiagnosis",
      "outputs": [],
      "stateMutability": "nonpayable",
      "type": "function"
    },
    {
      "inputs": [
        {
          "components": [
            {
              "internalType": "string",
              "name": "insuranceProvider",
              "type": "string"
            },
            {
              "internalType": "string",
              "name": "policyNumber",
              "type": "string"
            },
            {
              "internalType": "string",
              "name": "memberID",
              "type": "string"
            },
            {
              "internalType": "string",
              "name": "insuranceXRPL",
              "type": "string"
            },
            {
              "internalType": "uint256",
              "name": "coveragePercentage",
              "type": "uint256"
            },
            {
              "internalType": "bool",
              "name": "isVerified",
              "type": "bool"
            }
          ],
          "internalType": "struct AutismMedicalSystemSimple.InsuranceInfo",
          "name": "insurance",
          "type": "tuple"
        },
        {
          "internalType": "bytes32",
          "name": "fileHash",
          "type": "bytes32"
        },
        {
          "internalType": "string",
          "name": "fileLocation",
          "type": "string"
        },
        {
          "internalType": "bytes32",
          "name": "encryptedKey",
          "type": "bytes32"
        },
        {
          "internalType": "enum AutismMedicalSystemSimple.EvaluationType",
          "name": "evaluationType",
          "type": "uint8"
        },
        {
          "internalType": "uint256",
          "name": "evaluationCostUSD",
          "type": "uint256"
        },
        {
          "internalType": "string",
          "name": "insurancePaymentTxHash",
          "type": "string"
        }
      ],
      "name": "uploadEvaluationWithInsurance",
      "outputs": [
        {
          "internalType": "uint256",
          "name": "tokenId",
          "type": "uint256"
        }
      ],
      "stateMutability": "nonpayable",
      "type": "function"
    },
    {
      "inputs": [
        {
          "internalType": "string",
          "name": "",
          "type": "string"
        }
      ],
      "name": "verifiedInsuranceProviders",
      "outputs": [
        {
          "internalType": "bool",
          "name": "",
          "type": "bool"
        }
      ],
      "stateMutability": "view",
      "type": "function"
    }
  ],
  "bytecode": "0x60806040523480156200001157600080fd5b506040518060400160405280601581526020017f41757469736d204576616c756174696f6e204e465400000000000000000000008152506040518060400160405280600381526020016220a2a760e91b8152508160009081620000759190620002d8565b506001620000848282620002d8565b50506001600855506200009960003362000180565b5060016010604051620000cf907f426c75652043726f737320426c756520536869656c6400000000000000000000815260160190565b90815260408051918290036020018220805493151560ff19948516179055644165746e6160d81b825260106005830181905281519283900360250183208054851660019081179091556f556e697465644865616c74686361726560801b845283820182905282519384900360300184208054861682179055705465737420496e737572616e636520436f60781b845260118401919091529051918290036031019091208054909216179055620003a4565b60008281526007602090815260408083206001600160a01b038516845290915281205460ff16620002295760008381526007602090815260408083206001600160a01b03861684529091529020805460ff19166001179055620001e03390565b6001600160a01b0316826001600160a01b0316847f2f8788117e7eff1d82e926ec794901d17c78024a50270940304540a733656f0d60405160405180910390a45060016200022d565b5060005b92915050565b634e487b7160e01b600052604160045260246000fd5b600181811c908216806200025e57607f821691505b6020821081036200027f57634e487b7160e01b600052602260045260246000fd5b50919050565b601f821115620002d357600081815260208120601f850160051c81016020861015620002ae5750805b601f850160051c820191505b81811015620002cf57828155600101620002ba565b5050505b505050565b81516001600160401b03811115620002f457620002f462000233565b6200030c8162000305845462000249565b8462000285565b602080601f8311600181146200034457600084156200032b5750858301515b600019600386901b1c1916600185901b178555620002cf565b600085815260208120601f198616915b82811015620003755788860151825594840194600190910190840162000354565b5085821015620003945787850151600019600388901b60f8161c191681555b5050505050600190811b01905550565b613ad880620003b46000396000f3fe608060405234801561001057600080fd5b50600436106102745760003560e01c80639e06145211610151578063d547741f116100c3578063eda3136911610087578063eda31369146105fa578063edaef9051461060d578063f2cec6ee1461063b578063f41b30f31461065b578063f6ba66781461067b578063fc82c0ef146106a257600080fd5b8063d547741f14610596578063dab6c121146105a9578063e3c40e1a146105bc578063e58da742146105df578063e985e9c5146105e757600080fd5b8063b88d4fde11610115578063b88d4fde1461051d578063b8cd16b414610530578063c0e8224a14610539578063c23d4c851461054c578063c87b56dd14610570578063cc8d47011461058357600080fd5b80639e0614521461049a578063a217fddf146104c8578063a22cb465146104d0578063a8c6faa5146104e3578063b752a74b146104f657600080fd5b806333c63b17116101ea5780634d6cac7a116101ae5780634d6cac7a146104135780636352211e1461043557806370a08231146104485780638577fee71461045b57806391d148541461047f57806395d89b411461049257600080fd5b806333c63b171461039957806336568abe146103c557806337a13153146103d857806342842e0e146103ed5780634668bf101461040057600080fd5b8063095ea7b31161023c578063095ea7b31461030b57806323b872dd14610320578063248a9ca3146103335780632f2ff15d1461035657806330b5abd71461036957806330d0ea311461037257600080fd5b806301ffc9a71461027957806304345c93146102a157806305f047df146102b857806306fdde03146102cb578063081812fc146102e0575b600080fd5b61028c610287366004612de8565b61075d565b60405190151581526020015b60405180910390f35b6102aa60115481565b604051908152602001610298565b6102aa6102c6366004612e21565b61076e565b6102d361079f565b6040516102989190612e9b565b6102f36102ee366004612eae565b610831565b6040516001600160a01b039091168152602001610298565b61031e610319366004612e21565b61085a565b005b61031e61032e366004612ec7565b610869565b6102aa610341366004612eae565b60009081526007602052604090206001015490565b61031e610364366004612f03565b6108f9565b6102aa60125481565b6102aa7f4848aa3d2c0568bab3ca9720f91818ee0957e95426fa0627cc4809e2e5ed8be081565b6103ac6103a7366004612eae565b61090e565b6040516102989d9c9b9a99989796959493929190612fde565b61031e6103d3366004612f03565b610d04565b6103e0610d3c565b604051610298919061308a565b61031e6103fb366004612ec7565b610e71565b61031e61040e3660046131c1565b610e8c565b61042661042136600461322f565b611031565b60405161029893929190613276565b6102f3610443366004612eae565b611340565b6102aa6104563660046132a0565b61134b565b61046e6104693660046132a0565b611393565b6040516102989594939291906132cb565b61028c61048d366004612f03565b611477565b6102d36114a2565b61028c6104a8366004612f03565b600d60209081526000928352604080842090915290825290205460ff1681565b6102aa600081565b61031e6104de366004613319565b6114b1565b61031e6104f136600461322f565b6114bc565b6102aa7ffec7cd74e5c65b641d49ecc2e89f646c7c0bcae85dc50f9616bf9c798cedda8b81565b61031e61052b366004613343565b6115c3565b6102aa60135481565b6102aa6105473660046133c2565b6115db565b61055f61055a366004612eae565b611906565b60405161029895949392919061352d565b6102d361057e366004612eae565b611a41565b6102aa61059136600461356a565b611a4c565b61031e6105a4366004612f03565b611d33565b61031e6105b73660046135ba565b611d58565b6105cf6105ca3660046135ef565b611d99565b6040516102989493929190613611565b6103e0611e78565b61028c6105f536600461364b565b612078565b61046e6106083660046132a0565b6120a6565b61028c61061b3660046135ba565b805160208183018101805160108252928201919093012091525460ff1681565b61064e610649366004612eae565b612163565b6040516102989190613675565b61066e6106693660046132a0565b612299565b604051610298919061370e565b6102aa7fc8f5b4140cca307cd927e59cbeea8291bffeee228fc677f0fa059aef7b4dd8d581565b61070b6106b0366004612eae565b600e60205260009081526040902080546001820154600283015460038401546004850154600586015460068701546007880154600890980154969795966001600160a01b0395861696949095169492939192909160ff169089565b60408051998a5260208a01989098526001600160a01b0396871697890197909752949093166060870152608086019190915260a085015260c0840152151560e083015261010082015261012001610298565b600061076882612305565b92915050565b600f602052816000526040600020818154811061078a57600080fd5b90600052602060002001600091509150505481565b6060600080546107ae90613752565b80601f01602080910402602001604051908101604052809291908181526020018280546107da90613752565b80156108275780601f106107fc57610100808354040283529160200191610827565b820191906000526020600020905b81548152906001019060200180831161080a57829003601f168201915b5050505050905090565b600061083c8261232a565b506000828152600460205260409020546001600160a01b0316610768565b610865828233612362565b5050565b6001600160a01b03821661089857604051633250574960e11b8152600060048201526024015b60405180910390fd5b60006108a583833361236f565b9050836001600160a01b0316816001600160a01b0316146108f3576040516364283d7b60e01b81526001600160a01b038086166004830152602482018490528216604482015260640161088f565b50505050565b600061090481612463565b6108f38383612470565b600a602052600090815260409020805460018201546002830154600384015460048501805494956001600160a01b03948516959390941693919261095190613752565b80601f016020809104026020016040519081016040528092919081815260200182805461097d90613752565b80156109ca5780601f1061099f576101008083540402835291602001916109ca565b820191906000526020600020905b8154815290600101906020018083116109ad57829003601f168201915b50505060058401546006850154600786015460088701546009880154600a890180549899959860ff9586169850939650919493169291610a0990613752565b80601f0160208091040260200160405190810160405280929190818152602001828054610a3590613752565b8015610a825780601f10610a5757610100808354040283529160200191610a82565b820191906000526020600020905b815481529060010190602001808311610a6557829003601f168201915b50505050509080600b01549080600c016040518060c0016040529081600082018054610aad90613752565b80601f0160208091040260200160405190810160405280929190818152602001828054610ad990613752565b8015610b265780601f10610afb57610100808354040283529160200191610b26565b820191906000526020600020905b815481529060010190602001808311610b0957829003601f168201915b50505050508152602001600182018054610b3f90613752565b80601f0160208091040260200160405190810160405280929190818152602001828054610b6b90613752565b8015610bb85780601f10610b8d57610100808354040283529160200191610bb8565b820191906000526020600020905b815481529060010190602001808311610b9b57829003601f168201915b50505050508152602001600282018054610bd190613752565b80601f0160208091040260200160405190810160405280929190818152602001828054610bfd90613752565b8015610c4a5780601f10610c1f57610100808354040283529160200191610c4a565b820191906000526020600020905b815481529060010190602001808311610c2d57829003601f168201915b50505050508152602001600382018054610c6390613752565b80601f0160208091040260200160405190810160405280929190818152602001828054610c8f90613752565b8015610cdc5780601f10610cb157610100808354040283529160200191610cdc565b820191906000526020600020905b815481529060010190602001808311610cbf57829003601f168201915b50505091835250506004820154602082015260059091015460ff16151560409091015290508d565b6001600160a01b0381163314610d2d5760405163334bd91960e11b815260040160405180910390fd5b610d378282612504565b505050565b60408051600480825260a0820190925260609160009190816020015b6060815260200190600190039081610d58579050509050604051806040016040528060048152602001634e6f6e6560e01b81525081600081518110610d9f57610d9f61378c565b60200260200101819052506040518060400160405280601781526020017f4c6576656c315f526571756972696e67537570706f727400000000000000000081525081600181518110610df357610df361378c565b6020026020010181905250604051806060016040528060228152602001613a5b6022913981600281518110610e2a57610e2a61378c565b6020026020010181905250604051806060016040528060268152602001613a7d6026913981600381518110610e6157610e6161378c565b6020908102919091010152919050565b610d37838383604051806020016040528060008152506115c3565b610eb67f4848aa3d2c0568bab3ca9720f91818ee0957e95426fa0627cc4809e2e5ed8be033611477565b610f025760405162461bcd60e51b815260206004820152601860248201527f4e6f7420617574686f72697a6564206576616c7561746f720000000000000000604482015260640161088f565b6000610f0d84612571565b6001600160a01b031603610f585760405162461bcd60e51b815260206004820152601260248201527124b73b30b634b21032bb30b63ab0ba34b7b760711b604482015260640161088f565b6001600160a01b0384166000908152600b602052604081206001810154909103610f985742600182015560138054906000610f92836137b8565b91905055505b80548390829060ff19166001836003811115610fb657610fb6612f2f565b021790555042600282015560038101610fcf8382613817565b50600481018054906000610fe2836137b8565b9190505550846001600160a01b03167f398865b44291ccf794af9023bfee116248ee709c8c101e69961c2bea10255fc084866040516110229291906138d7565b60405180910390a25050505050565b606060008061103e61258f565b600061104986612571565b6001600160a01b0316036110965760405162461bcd60e51b8152602060048201526014602482015273151bdad95b88191bd95cc81b9bdd08195e1a5cdd60621b604482015260640161088f565b6110c07fc8f5b4140cca307cd927e59cbeea8291bffeee228fc677f0fa059aef7b4dd8d533611477565b806110f057506110f07ffec7cd74e5c65b641d49ecc2e89f646c7c0bcae85dc50f9616bf9c798cedda8b33611477565b61112d5760405162461bcd60e51b815260206004820152600e60248201526d139bdd08185d5d1a1bdc9a5e995960921b604482015260640161088f565b6000858152600a60205260408120600981015490919060ff168061116a57506000878152600d6020908152604080832033845290915290205460ff165b9050806111915750506040805160208101909152600080825290935091506001905061132f565b6000878152600d60209081526040808320338085529083528184208054600160ff1990911681179091558251608081018452918252428285019081528284018c8152606084018390528d8752600c86529386208054808401825590875294909520825160049095020180546001600160a01b0319166001600160a01b039095169490941784559351938301939093555182919060028201906112339082613817565b50606091909101516003909101805460ff1916911515919091179055604051339089907f16d577c4c96cf9d9d1a1ca8421248118615f2dbc5789728c0b6bc7dfbc61942490611286908b906000906138f2565b60405180910390a382600401836005015460008280546112a590613752565b80601f01602080910402602001604051908101604052809291908181526020018280546112d190613752565b801561131e5780601f106112f35761010080835404028352916020019161131e565b820191906000526020600020905b81548152906001019060200180831161130157829003601f168201915b505050505092509550955095505050505b6113396001600855565b9250925092565b60006107688261232a565b60006001600160a01b038216611377576040516322718ad960e21b81526000600482015260240161088f565b506001600160a01b031660009081526003602052604090205490565b6001600160a01b0381166000908152600b602052604081208054600182015460028301546004840154600385018054879687966060968896929560ff90921694909390919082906113e390613752565b80601f016020809104026020016040519081016040528092919081815260200182805461140f90613752565b801561145c5780601f106114315761010080835404028352916020019161145c565b820191906000526020600020905b81548152906001019060200180831161143f57829003601f168201915b50505050509150955095509550955095505091939590929450565b60009182526007602090815260408084206001600160a01b0393909316845291905290205460ff1690565b6060600180546107ae90613752565b6108653383836125b9565b6000828152600e60205260409020600781015460ff16156115135760405162461bcd60e51b8152602060048201526011602482015270109a5b1b08185b1c9958591e481c185a59607a1b604482015260640161088f565b60038101546001600160a01b031633146115605760405162461bcd60e51b815260206004820152600e60248201526d2737ba103134b6361037bbb732b960911b604482015260640161088f565b60008251116115b15760405162461bcd60e51b815260206004820152601c60248201527f5061796d656e74207472616e73616374696f6e20726571756972656400000000604482015260640161088f565b600701805460ff191660011790555050565b6115ce848484610869565b6108f33385858585612658565b60006115e561258f565b8751516116285760405162461bcd60e51b8152602060048201526011602482015270496e76616c696420696e737572616e636560781b604482015260640161088f565b875160405160109161163991613916565b9081526040519081900360200190205460ff166116915760405162461bcd60e51b8152602060048201526016602482015275125b9cdd5c985b98d9481b9bdd081d995c9a599a595960521b604482015260640161088f565b60008251116116e25760405162461bcd60e51b815260206004820152601f60248201527f496e737572616e6365207061796d656e74206861736820726571756972656400604482015260640161088f565b600980549060006116f2836137b8565b9190505590506117023382612783565b6000818152600a602052604090208181556001810180546001600160a01b03191633179055600381018890556004810161173c8882613817565b506005810186905560068101805486919060ff1916600183600781111561176557611765612f2f565b02179055504260078201819055600882015560098101805460ff19166001179055600a81016117948482613817565b50600b810184905588518990600c83019081906117b19082613817565b50602082015160018201906117c69082613817565b50604082015160028201906117db9082613817565b50606082015160038201906117f09082613817565b506080820151600482015560a0909101516005909101805491151560ff199283161790556000838152600d60209081526040808320308452909152902080549091166001179055611841338361279d565b60118054906000611851836137b8565b909155505060128054906000611866836137b8565b9190505550336001600160a01b0316827f931f7af5fd41db155c97c737c3100c1540d9fd948a408a7bd0db82e7a3f90f118760016040516118a8929190613932565b60405180910390a3817fc2687b4cf2e8fb805e48c095a786345c2953850fb19620e5618cea5412dc227f8a6000015185876040516118e89392919061394f565b60405180910390a2506118fb6001600855565b979650505050505050565b600080808060608161191787612571565b6001600160a01b0316036119645760405162461bcd60e51b8152602060048201526014602482015273151bdad95b88191bd95cc81b9bdd08195e1a5cdd60621b604482015260640161088f565b6000868152600a602052604090206001810154600682015460078301546009840154600c850180546001600160a01b039095169460ff948516949092169181906119ad90613752565b80601f01602080910402602001604051908101604052809291908181526020018280546119d990613752565b8015611a265780601f106119fb57610100808354040283529160200191611a26565b820191906000526020600020905b815481529060010190602001808311611a0957829003601f168201915b50505050509050955095509550955095505091939590929450565b6060610768826127ea565b6000611a5661258f565b611a807fc8f5b4140cca307cd927e59cbeea8291bffeee228fc677f0fa059aef7b4dd8d533611477565b611abd5760405162461bcd60e51b815260206004820152600e60248201526d139bdd0818481a1bdcdc1a5d185b60921b604482015260640161088f565b6000611ac885612571565b6001600160a01b031603611b135760405162461bcd60e51b815260206004820152601260248201527124b73b30b634b21032bb30b63ab0ba34b7b760711b604482015260640161088f565b6000848152600a602052604081206010810154909190606490611b369087613985565b611b40919061399c565b9050806000611b4f82886139be565b60408051602081018b90526bffffffffffffffffffffffff193360601b1691810191909152605481018990524260748201529091506094016040516020818303038152906040528051906020012094506000600e60008781526020019081526020016000209050858160000181905550888160010181905550338160020160006101000a8154816001600160a01b0302191690836001600160a01b031602179055508460010160009054906101000a90046001600160a01b03168160030160006101000a8154816001600160a01b0302191690836001600160a01b03160217905550878160040181905550828160050181905550818160060181905550428160080181905550600f60008660010160009054906101000a90046001600160a01b03166001600160a01b03166001600160a01b031681526020019081526020016000208690806001815401808255809150506001900390600052602060002001600090919091909150558460010160009054906101000a90046001600160a01b03166001600160a01b031689877f32a639b5e81d2a5d0d4621d6d8f19e4dec31f1a08746258aacd388c40caeb66c8b87604051611d15929190918252602082015260400190565b60405180910390a45050505050611d2c6001600855565b9392505050565b600082815260076020526040902060010154611d4e81612463565b6108f38383612504565b6000611d6381612463565b6001601083604051611d759190613916565b908152604051908190036020019020805491151560ff199092169190911790555050565b600c6020528160005260406000208181548110611db557600080fd5b60009182526020909120600490910201805460018201546002830180546001600160a01b03909316955090935090611dec90613752565b80601f0160208091040260200160405190810160405280929190818152602001828054611e1890613752565b8015611e655780601f10611e3a57610100808354040283529160200191611e65565b820191906000526020600020905b815481529060010190602001808311611e4857829003601f168201915b5050506003909301549192505060ff1684565b604080516008808252610120820190925260609160009190816020015b6060815260200190600190039081611e955790505090506040518060400160405280600481526020016341444f5360e01b81525081600081518110611edc57611edc61378c565b60200260200101819052506040518060400160405280600481526020016320a224a960e11b81525081600181518110611f1757611f1761378c565b6020026020010181905250604051806040016040528060048152602001634341525360e01b81525081600281518110611f5257611f5261378c565b6020026020010181905250604051806040016040528060058152602001641350d2105560da1b81525081600381518110611f8e57611f8e61378c565b6020026020010181905250604051806040016040528060048152602001634741525360e01b81525081600481518110611fc957611fc961378c565b60200260200101819052506040518060400160405280600381526020016253525360e81b815250816005815181106120035761200361378c565b60200260200101819052506040518060400160405280600381526020016241424360e81b8152508160068151811061203d5761203d61378c565b6020026020010181905250604051806040016040528060048152602001634153525360e01b81525081600781518110610e6157610e6161378c565b6001600160a01b03918216600090815260056020908152604080832093909416825291909152205460ff1690565b600b60205260009081526040902080546001820154600283015460038401805460ff9094169492939192916120da90613752565b80601f016020809104026020016040519081016040528092919081815260200182805461210690613752565b80156121535780601f1061212857610100808354040283529160200191612153565b820191906000526020600020905b81548152906001019060200180831161213657829003601f168201915b5050505050908060040154905085565b6060600c6000838152602001908152602001600020805480602002602001604051908101604052809291908181526020016000905b8282101561228e576000848152602090819020604080516080810182526004860290920180546001600160a01b03168352600181015493830193909352600283018054929392918401916121eb90613752565b80601f016020809104026020016040519081016040528092919081815260200182805461221790613752565b80156122645780601f1061223957610100808354040283529160200191612264565b820191906000526020600020905b81548152906001019060200180831161224757829003601f168201915b50505091835250506003919091015460ff1615156020918201529082526001929092019101612198565b505050509050919050565b6001600160a01b0381166000908152600f60209081526040918290208054835181840281018401909452808452606093928301828280156122f957602002820191906000526020600020905b8154815260200190600101908083116122e5575b50505050509050919050565b60006001600160e01b03198216637965db0b60e01b14806107685750610768826128fb565b60008061233683612571565b90506001600160a01b03811661076857604051637e27328960e01b81526004810184905260240161088f565b610d378383836001612920565b60008061237b84612571565b90506001600160a01b0383161561239757612397818486612a26565b6001600160a01b038116156123d5576123b4600085600080612920565b6001600160a01b038116600090815260036020526040902080546000190190555b6001600160a01b03851615612404576001600160a01b0385166000908152600360205260409020805460010190555b60008481526002602052604080822080546001600160a01b0319166001600160a01b0389811691821790925591518793918516917fddf252ad1be2c89b69c2b068fc378daa952ba7f163c4a11628f55a4df523b3ef91a4949350505050565b61246d8133612a8a565b50565b600061247c8383611477565b6124fc5760008381526007602090815260408083206001600160a01b03861684529091529020805460ff191660011790556124b43390565b6001600160a01b0316826001600160a01b0316847f2f8788117e7eff1d82e926ec794901d17c78024a50270940304540a733656f0d60405160405180910390a4506001610768565b506000610768565b60006125108383611477565b156124fc5760008381526007602090815260408083206001600160a01b0386168085529252808320805460ff1916905551339286917ff6391f5c32d9c69d2a47ea670b442974b53935d1edc7fd64eb21e047a839171b9190a4506001610768565b6000908152600a60205260409020600101546001600160a01b031690565b6002600854036125b257604051633ee5aeb560e01b815260040160405180910390fd5b6002600855565b6001600160a01b0382166125eb57604051630b61174360e31b81526001600160a01b038316600482015260240161088f565b6001600160a01b03838116600081815260056020908152604080832094871680845294825291829020805460ff191686151590811790915591519182527f17307eab39ab6107e8899845ad3d59bd9653f200f220920489ca2b5937696c31910160405180910390a3505050565b6001600160a01b0383163b1561277c57604051630a85bd0160e11b81526001600160a01b0384169063150b7a029061269a9088908890879087906004016139d1565b6020604051808303816000875af19250505080156126d5575060408051601f3d908101601f191682019092526126d291810190613a0e565b60015b61273e573d808015612703576040519150601f19603f3d011682016040523d82523d6000602084013e612708565b606091505b50805160000361273657604051633250574960e11b81526001600160a01b038516600482015260240161088f565b805160208201fd5b6001600160e01b03198116630a85bd0160e11b1461277a57604051633250574960e11b81526001600160a01b038516600482015260240161088f565b505b5050505050565b610865828260405180602001604052806000815250612ac3565b6001600160a01b0382166000908152600b6020526040812060018101549091036127c8574260018201555b4260028201556004810180549060006127e0836137b8565b9190505550505050565b60606127f58261232a565b506000828152600660205260408120805461280f90613752565b80601f016020809104026020016040519081016040528092919081815260200182805461283b90613752565b80156128885780601f1061285d57610100808354040283529160200191612888565b820191906000526020600020905b81548152906001019060200180831161286b57829003601f168201915b5050505050905060006128a660408051602081019091526000815290565b905080516000036128b8575092915050565b8151156128ea5780826040516020016128d2929190613a2b565b60405160208183030381529060405292505050919050565b6128f384612adb565b949350505050565b60006001600160e01b03198216632483248360e11b1480610768575061076882612b4f565b808061293457506001600160a01b03821615155b156129f65760006129448461232a565b90506001600160a01b038316158015906129705750826001600160a01b0316816001600160a01b031614155b801561298357506129818184612078565b155b156129ac5760405163a9fbf51f60e01b81526001600160a01b038416600482015260240161088f565b81156129f45783856001600160a01b0316826001600160a01b03167f8c5be1e5ebec7d5bd14f71427d1e84f3dd0314c0f7b2291e5b200ac8c7c3b92560405160405180910390a45b505b5050600090815260046020526040902080546001600160a01b0319166001600160a01b0392909216919091179055565b612a31838383612b9f565b610d37576001600160a01b038316612a5f57604051637e27328960e01b81526004810182905260240161088f565b60405163177e802f60e01b81526001600160a01b03831660048201526024810182905260440161088f565b612a948282611477565b6108655760405163e2517d3f60e01b81526001600160a01b03821660048201526024810183905260440161088f565b612acd8383612c02565b610d37336000858585612658565b6060612ae68261232a565b506000612afe60408051602081019091526000815290565b90506000815111612b1e5760405180602001604052806000815250611d2c565b80612b2884612c67565b604051602001612b39929190613a2b565b6040516020818303038152906040529392505050565b60006001600160e01b031982166380ac58cd60e01b1480612b8057506001600160e01b03198216635b5e139f60e01b145b8061076857506301ffc9a760e01b6001600160e01b0319831614610768565b60006001600160a01b038316158015906128f35750826001600160a01b0316846001600160a01b03161480612bd95750612bd98484612078565b806128f35750506000908152600460205260409020546001600160a01b03908116911614919050565b6001600160a01b038216612c2c57604051633250574960e11b81526000600482015260240161088f565b6000612c3a8383600061236f565b90506001600160a01b03811615610d37576040516339e3563760e11b81526000600482015260240161088f565b60606000612c7483612cfa565b600101905060008167ffffffffffffffff811115612c9457612c946130ec565b6040519080825280601f01601f191660200182016040528015612cbe576020820181803683370190505b5090508181016020015b600019016f181899199a1a9b1b9c1cb0b131b232b360811b600a86061a8153600a8504945084612cc857509392505050565b60008072184f03e93ff9f4daa797ed6e38ed64bf6a1f0160401b8310612d395772184f03e93ff9f4daa797ed6e38ed64bf6a1f0160401b830492506040015b6d04ee2d6d415b85acef81000000008310612d65576d04ee2d6d415b85acef8100000000830492506020015b662386f26fc100008310612d8357662386f26fc10000830492506010015b6305f5e1008310612d9b576305f5e100830492506008015b6127108310612daf57612710830492506004015b60648310612dc1576064830492506002015b600a83106107685760010192915050565b6001600160e01b03198116811461246d57600080fd5b600060208284031215612dfa57600080fd5b8135611d2c81612dd2565b80356001600160a01b0381168114612e1c57600080fd5b919050565b60008060408385031215612e3457600080fd5b612e3d83612e05565b946020939093013593505050565b60005b83811015612e66578181015183820152602001612e4e565b50506000910152565b60008151808452612e87816020860160208601612e4b565b601f01601f19169290920160200192915050565b602081526000611d2c6020830184612e6f565b600060208284031215612ec057600080fd5b5035919050565b600080600060608486031215612edc57600080fd5b612ee584612e05565b9250612ef360208501612e05565b9150604084013590509250925092565b60008060408385031215612f1657600080fd5b82359150612f2660208401612e05565b90509250929050565b634e487b7160e01b600052602160045260246000fd5b60088110612f5557612f55612f2f565b9052565b6000815160c08452612f6e60c0850182612e6f565b905060208301518482036020860152612f878282612e6f565b91505060408301518482036040860152612fa18282612e6f565b91505060608301518482036060860152612fbb8282612e6f565b9150506080830151608085015260a0830151151560a08501528091505092915050565b8d81526001600160a01b038d811660208301528c16604082015260006101a08c60608401528060808401526130158184018d612e6f565b90508a60a084015261302a60c084018b612f45565b8860e08401528761010084015261304661012084018815159052565b8281036101408401526130598187612e6f565b9050846101608401528281036101808401526130758185612f59565b9150509e9d5050505050505050505050505050565b6000602080830181845280855180835260408601915060408160051b870101925083870160005b828110156130df57603f198886030184526130cd858351612e6f565b945092850192908501906001016130b1565b5092979650505050505050565b634e487b7160e01b600052604160045260246000fd5b60405160c0810167ffffffffffffffff81118282101715613125576131256130ec565b60405290565b600067ffffffffffffffff80841115613146576131466130ec565b604051601f8501601f19908116603f0116810190828211818310171561316e5761316e6130ec565b8160405280935085815286868601111561318757600080fd5b858560208301376000602087830101525050509392505050565b600082601f8301126131b257600080fd5b611d2c8383356020850161312b565b600080600080608085870312156131d757600080fd5b6131e085612e05565b9350602085013592506040850135600481106131fb57600080fd5b9150606085013567ffffffffffffffff81111561321757600080fd5b613223878288016131a1565b91505092959194509250565b6000806040838503121561324257600080fd5b82359150602083013567ffffffffffffffff81111561326057600080fd5b61326c858286016131a1565b9150509250929050565b6060815260006132896060830186612e6f565b602083019490945250901515604090910152919050565b6000602082840312156132b257600080fd5b611d2c82612e05565b60048110612f5557612f55612f2f565b6132d581876132bb565b84602082015283604082015260a0606082015260006132f760a0830185612e6f565b90508260808301529695505050505050565b80358015158114612e1c57600080fd5b6000806040838503121561332c57600080fd5b61333583612e05565b9150612f2660208401613309565b6000806000806080858703121561335957600080fd5b61336285612e05565b935061337060208601612e05565b925060408501359150606085013567ffffffffffffffff81111561339357600080fd5b8501601f810187136133a457600080fd5b6132238782356020840161312b565b803560088110612e1c57600080fd5b600080600080600080600060e0888a0312156133dd57600080fd5b873567ffffffffffffffff808211156133f557600080fd5b9089019060c0828c03121561340957600080fd5b613411613102565b82358281111561342057600080fd5b61342c8d8286016131a1565b82525060208301358281111561344157600080fd5b61344d8d8286016131a1565b60208301525060408301358281111561346557600080fd5b6134718d8286016131a1565b60408301525060608301358281111561348957600080fd5b6134958d8286016131a1565b606083015250608083013560808201526134b160a08401613309565b60a0820152985060208a0135975060408a01359150808211156134d357600080fd5b6134df8b838c016131a1565b965060608a013595506134f460808b016133b3565b945060a08a0135935060c08a013591508082111561351157600080fd5b5061351e8a828b016131a1565b91505092959891949750929550565b6001600160a01b03861681526135466020820186612f45565b836040820152821515606082015260a0608082015260006118fb60a0830184612e6f565b60008060006060848603121561357f57600080fd5b8335925060208401359150604084013567ffffffffffffffff8111156135a457600080fd5b6135b0868287016131a1565b9150509250925092565b6000602082840312156135cc57600080fd5b813567ffffffffffffffff8111156135e357600080fd5b6128f3848285016131a1565b6000806040838503121561360257600080fd5b50508035926020909101359150565b60018060a01b03851681528360208201526080604082015260006136386080830185612e6f565b9050821515606083015295945050505050565b6000806040838503121561365e57600080fd5b61366783612e05565b9150612f2660208401612e05565b60006020808301818452808551808352604092508286019150828160051b87010184880160005b8381101561370057888303603f19018552815180516001600160a01b031684528781015188850152868101516080888601819052906136dd82870182612e6f565b60609384015115159690930195909552509487019492509086019060010161369c565b509098975050505050505050565b6020808252825182820181905260009190848201906040850190845b818110156137465783518352928401929184019160010161372a565b50909695505050505050565b600181811c9082168061376657607f821691505b60208210810361378657634e487b7160e01b600052602260045260246000fd5b50919050565b634e487b7160e01b600052603260045260246000fd5b634e487b7160e01b600052601160045260246000fd5b6000600182016137ca576137ca6137a2565b5060010190565b601f821115610d3757600081815260208120601f850160051c810160208610156137f85750805b601f850160051c820191505b8181101561277a57828155600101613804565b815167ffffffffffffffff811115613831576138316130ec565b6138458161383f8454613752565b846137d1565b602080601f83116001811461387a57600084156138625750858301515b600019600386901b1c1916600185901b17855561277a565b600085815260208120601f198616915b828110156138a95788860151825594840194600190910190840161388a565b50858210156138c75787850151600019600388901b60f8161c191681555b5050505050600190811b01905550565b604081016138e582856132bb565b8260208301529392505050565b6040815260006139056040830185612e6f565b905082151560208301529392505050565b60008251613928818460208701612e4b565b9190910192915050565b604081016139408285612f45565b82151560208301529392505050565b6060815260006139626060830186612e6f565b82810360208401526139748186612e6f565b915050826040830152949350505050565b8082028115828204841417610768576107686137a2565b6000826139b957634e487b7160e01b600052601260045260246000fd5b500490565b81810381811115610768576107686137a2565b6001600160a01b0385811682528416602082015260408101839052608060608201819052600090613a0490830184612e6f565b9695505050505050565b600060208284031215613a2057600080fd5b8151611d2c81612dd2565b60008351613a3d818460208801612e4b565b835190830190613a51818360208801612e4b565b0194935050505056fe4c6576656c325f526571756972696e675375627374616e7469616c537570706f72744c6576656c335f526571756972696e67566572795375627374616e7469616c537570706f7274a26469706673582212206ebc2539a16f9d8d03d5ef838a55a02ab13c5b53dca048d6085249222e6d9fa264736f6c63430008140033",
  "linkReferences": {},
  "deployedLinkReferences": {}
}