{
  "contractName": "MedicalRecordVaultXRPL",
  "abi": [
    {
      "inputs": [],
      "stateMutability": "nonpayable",
      "type": "constructor"
    },
    {
      "anonymous": false,
      "inputs": [
        {
          "indexed": true,
          "internalType": "bytes32",
          "name": "patientId",
          "type": "bytes32"
        },
        {
          "indexed": true,
          "internalType": "address",
          "name": "insurer",
          "type": "address"
        },
        {
          "indexed": false,
          "internalType": "uint256",
          "name": "amount",
          "type": "uint256"
        }
      ],
      "name": "Deposit",
      "type": "event"
    },
    {
      "anonymous": false,
      "inputs": [
        {
          "indexed": true,
          "internalType": "bytes32",
          "name": "patientId",
          "type": "bytes32"
        },
        {
          "indexed": true,
          "internalType": "uint8",
          "name": "kind",
          "type": "uint8"
        },
        {
          "indexed": false,
          "internalType": "address",
          "name": "accessor",
          "type": "address"
        }
      ],
      "name": "DocumentRead",
      "type": "event"
    },
    {
      "anonymous": false,
      "inputs": [
        {
          "indexed": true,
          "internalType": "bytes32",
          "name": "patientId",
          "type": "bytes32"
        },
        {
          "indexed": true,
          "internalType": "uint8",
          "name": "kind",
          "type": "uint8"
        },
        {
          "indexed": false,
          "internalType": "string",
          "name": "hashURI",
          "type": "string"
        },
        {
          "indexed": false,
          "internalType": "uint256",
          "name": "version",
          "type": "uint256"
        }
      ],
      "name": "DocumentUploaded",
      "type": "event"
    },
    {
      "anonymous": false,
      "inputs": [
        {
          "indexed": true,
          "internalType": "bytes32",
          "name": "patientId",
          "type": "bytes32"
        },
        {
          "indexed": true,
          "internalType": "address",
          "name": "insurer",
          "type": "address"
        }
      ],
      "name": "InsurerSet",
      "type": "event"
    },
    {
      "anonymous": false,
      "inputs": [
        {
          "indexed": true,
          "internalType": "bytes32",
          "name": "patientId",
          "type": "bytes32"
        },
        {
          "indexed": true,
          "internalType": "address",
          "name": "parent",
          "type": "address"
        }
      ],
      "name": "ParentSet",
      "type": "event"
    },
    {
      "anonymous": false,
      "inputs": [
        {
          "indexed": true,
          "internalType": "bytes32",
          "name": "patientId",
          "type": "bytes32"
        },
        {
          "indexed": true,
          "internalType": "address",
          "name": "who",
          "type": "address"
        },
        {
          "indexed": false,
          "internalType": "bool",
          "name": "allowed",
          "type": "bool"
        }
      ],
      "name": "ReadAccessGranted",
      "type": "event"
    },
    {
      "anonymous": false,
      "inputs": [
        {
          "indexed": true,
          "internalType": "bytes32",
          "name": "patientId",
          "type": "bytes32"
        },
        {
          "indexed": true,
          "internalType": "address",
          "name": "who",
          "type": "address"
        },
        {
          "indexed": false,
          "internalType": "bool",
          "name": "allowed",
          "type": "bool"
        }
      ],
      "name": "UploadAccessGranted",
      "type": "event"
    },
    {
      "anonymous": false,
      "inputs": [
        {
          "indexed": true,
          "internalType": "bytes32",
          "name": "patientId",
          "type": "bytes32"
        },
        {
          "indexed": true,
          "internalType": "uint8",
          "name": "kind",
          "type": "uint8"
        },
        {
          "indexed": true,
          "internalType": "address",
          "name": "insurer",
          "type": "address"
        },
        {
          "indexed": false,
          "internalType": "uint256",
          "name": "version",
          "type": "uint256"
        },
        {
          "indexed": false,
          "internalType": "uint256",
          "name": "amountWei",
          "type": "uint256"
        },
        {
          "indexed": false,
          "internalType": "bytes32",
          "name": "proofHash",
          "type": "bytes32"
        }
      ],
      "name": "UploadPaid",
      "type": "event"
    },
    {
      "anonymous": false,
      "inputs": [
        {
          "indexed": true,
          "internalType": "address",
          "name": "to",
          "type": "address"
        },
        {
          "indexed": false,
          "internalType": "uint256",
          "name": "amount",
          "type": "uint256"
        }
      ],
      "name": "Withdraw",
      "type": "event"
    },
    {
      "inputs": [
        {
          "internalType": "bytes32",
          "name": "",
          "type": "bytes32"
        },
        {
          "internalType": "address",
          "name": "",
          "type": "address"
        }
      ],
      "name": "canRead",
      "outputs": [
        {
          "internalType": "bool",
          "name": "",
          "type": "bool"
        }
      ],
      "stateMutability": "view",
      "type": "function"
    },
    {
      "inputs": [
        {
          "internalType": "bytes32",
          "name": "",
          "type": "bytes32"
        },
        {
          "internalType": "address",
          "name": "",
          "type": "address"
        }
      ],
      "name": "canUpload",
      "outputs": [
        {
          "internalType": "bool",
          "name": "",
          "type": "bool"
        }
      ],
      "stateMutability": "view",
      "type": "function"
    },
    {
      "inputs": [],
      "name": "fdc",
      "outputs": [
        {
          "internalType": "contract IFDC",
          "name": "",
          "type": "address"
        }
      ],
      "stateMutability": "view",
      "type": "function"
    },
    {
      "inputs": [],
      "name": "feeCollector",
      "outputs": [
        {
          "internalType": "address",
          "name": "",
          "type": "address"
        }
      ],
      "stateMutability": "view",
      "type": "function"
    },
    {
      "inputs": [
        {
          "internalType": "address",
          "name": "",
          "type": "address"
        }
      ],
      "name": "insurerBalances",
      "outputs": [
        {
          "internalType": "uint256",
          "name": "",
          "type": "uint256"
        }
      ],
      "stateMutability": "view",
      "type": "function"
    },
    {
      "inputs": [
        {
          "internalType": "bytes32",
          "name": "",
          "type": "bytes32"
        }
      ],
      "name": "insurerOf",
      "outputs": [
        {
          "internalType": "address",
          "name": "",
          "type": "address"
        }
      ],
      "stateMutability": "view",
      "type": "function"
    },
    {
      "inputs": [],
      "name": "owner",
      "outputs": [
        {
          "internalType": "address",
          "name": "",
          "type": "address"
        }
      ],
      "stateMutability": "view",
      "type": "function"
    },
    {
      "inputs": [
        {
          "internalType": "bytes32",
          "name": "",
          "type": "bytes32"
        },
        {
          "internalType": "uint8",
          "name": "",
          "type": "uint8"
        }
      ],
      "name": "paidVersion",
      "outputs": [
        {
          "internalType": "uint256",
          "name": "",
          "type": "uint256"
        }
      ],
      "stateMutability": "view",
      "type": "function"
    },
    {
      "inputs": [],
      "name": "uploadFeeWei",
      "outputs": [
        {
          "internalType": "uint256",
          "name": "",
          "type": "uint256"
        }
      ],
      "stateMutability": "view",
      "type": "function"
    },
    {
      "stateMutability": "payable",
      "type": "receive"
    },
    {
      "inputs": [
        {
          "internalType": "address",
          "name": "newOwner",
          "type": "address"
        }
      ],
      "name": "transferOwnership",
      "outputs": [],
      "stateMutability": "nonpayable",
      "type": "function"
    },
    {
      "inputs": [
        {
          "internalType": "bytes32",
          "name": "patientId",
          "type": "bytes32"
        },
        {
          "internalType": "address",
          "name": "parent",
          "type": "address"
        }
      ],
      "name": "setParent",
      "outputs": [],
      "stateMutability": "nonpayable",
      "type": "function"
    },
    {
      "inputs": [
        {
          "internalType": "bytes32",
          "name": "patientId",
          "type": "bytes32"
        },
        {
          "internalType": "address",
          "name": "insurer",
          "type": "address"
        }
      ],
      "name": "setInsurer",
      "outputs": [],
      "stateMutability": "nonpayable",
      "type": "function"
    },
    {
      "inputs": [
        {
          "internalType": "bytes32",
          "name": "patientId",
          "type": "bytes32"
        },
        {
          "internalType": "address",
          "name": "who",
          "type": "address"
        },
        {
          "internalType": "bool",
          "name": "allowed",
          "type": "bool"
        }
      ],
      "name": "grantRead",
      "outputs": [],
      "stateMutability": "nonpayable",
      "type": "function"
    },
    {
      "inputs": [
        {
          "internalType": "bytes32",
          "name": "patientId",
          "type": "bytes32"
        },
        {
          "internalType": "address",
          "name": "who",
          "type": "address"
        },
        {
          "internalType": "bool",
          "name": "allowed",
          "type": "bool"
        }
      ],
      "name": "grantUpload",
      "outputs": [],
      "stateMutability": "nonpayable",
      "type": "function"
    },
    {
      "inputs": [
        {
          "internalType": "uint256",
          "name": "feeWei",
          "type": "uint256"
        },
        {
          "internalType": "address",
          "name": "collector",
          "type": "address"
        }
      ],
      "name": "setUploadFee",
      "outputs": [],
      "stateMutability": "nonpayable",
      "type": "function"
    },
    {
      "inputs": [
        {
          "internalType": "address",
          "name": "verifier",
          "type": "address"
        }
      ],
      "name": "setFDC",
      "outputs": [],
      "stateMutability": "nonpayable",
      "type": "function"
    },
    {
      "inputs": [
        {
          "internalType": "bytes32",
          "name": "patientId",
          "type": "bytes32"
        }
      ],
      "name": "depositFor",
      "outputs": [],
      "stateMutability": "payable",
      "type": "function"
    },
    {
      "inputs": [
        {
          "internalType": "address payable",
          "name": "to",
          "type": "address"
        },
        {
          "internalType": "uint256",
          "name": "amount",
          "type": "uint256"
        }
      ],
      "name": "withdraw",
      "outputs": [],
      "stateMutability": "nonpayable",
      "type": "function"
    },
    {
      "inputs": [
        {
          "internalType": "bytes32",
          "name": "patientId",
          "type": "bytes32"
        },
        {
          "internalType": "uint8",
          "name": "kind",
          "type": "uint8"
        },
        {
          "internalType": "string",
          "name": "hashURI",
          "type": "string"
        }
      ],
      "name": "uploadDocumentDeduct",
      "outputs": [],
      "stateMutability": "nonpayable",
      "type": "function"
    },
    {
      "inputs": [
        {
          "internalType": "bytes32",
          "name": "patientId",
          "type": "bytes32"
        },
        {
          "internalType": "uint8",
          "name": "kind",
          "type": "uint8"
        },
        {
          "internalType": "string",
          "name": "hashURI",
          "type": "string"
        },
        {
          "internalType": "bytes",
          "name": "xrplProof",
          "type": "bytes"
        },
        {
          "internalType": "bytes32",
          "name": "statementId",
          "type": "bytes32"
        },
        {
          "internalType": "bytes32",
          "name": "proofId",
          "type": "bytes32"
        }
      ],
      "name": "uploadDocumentWithXRPLProof",
      "outputs": [],
      "stateMutability": "nonpayable",
      "type": "function"
    },
    {
      "inputs": [
        {
          "internalType": "bytes32",
          "name": "patientId",
          "type": "bytes32"
        },
        {
          "internalType": "uint8",
          "name": "kind",
          "type": "uint8"
        }
      ],
      "name": "getDocument",
      "outputs": [
        {
          "internalType": "string",
          "name": "hashURI",
          "type": "string"
        },
        {
          "internalType": "uint256",
          "name": "version",
          "type": "uint256"
        },
        {
          "internalType": "uint256",
          "name": "updatedAt",
          "type": "uint256"
        },
        {
          "internalType": "bytes32",
          "name": "paymentProof",
          "type": "bytes32"
        }
      ],
      "stateMutability": "nonpayable",
      "type": "function"
    },
    {
      "inputs": [
        {
          "internalType": "bytes32",
          "name": "patientId",
          "type": "bytes32"
        },
        {
          "internalType": "uint8",
          "name": "kind",
          "type": "uint8"
        }
      ],
      "name": "getDocMeta",
      "outputs": [
        {
          "internalType": "string",
          "name": "hashURI",
          "type": "string"
        },
        {
          "internalType": "uint256",
          "name": "version",
          "type": "uint256"
        },
        {
          "internalType": "uint256",
          "name": "updatedAt",
          "type": "uint256"
        },
        {
          "internalType": "bytes32",
          "name": "paymentProof",
          "type": "bytes32"
        }
      ],
      "stateMutability": "view",
      "type": "function"
    },
    {
      "inputs": [
        {
          "internalType": "bytes32",
          "name": "patientId",
          "type": "bytes32"
        }
      ],
      "name": "getRoles",
      "outputs": [
        {
          "internalType": "address",
          "name": "parent",
          "type": "address"
        },
        {
          "internalType": "address",
          "name": "insurer",
          "type": "address"
        }
      ],
      "stateMutability": "view",
      "type": "function"
    },
    {
      "inputs": [
        {
          "internalType": "bytes32",
          "name": "patientId",
          "type": "bytes32"
        },
        {
          "internalType": "uint8",
          "name": "kind",
          "type": "uint8"
        }
      ],
      "name": "getPaidVersion",
      "outputs": [
        {
          "internalType": "uint256",
          "name": "",
          "type": "uint256"
        }
      ],
      "stateMutability": "view",
      "type": "function"
    },
    {
      "inputs": [
        {
          "internalType": "bytes32",
          "name": "patientId",
          "type": "bytes32"
        },
        {
          "internalType": "address",
          "name": "who",
          "type": "address"
        }
      ],
      "name": "hasRead",
      "outputs": [
        {
          "internalType": "bool",
          "name": "",
          "type": "bool"
        }
      ],
      "stateMutability": "view",
      "type": "function"
    },
    {
      "inputs": [
        {
          "internalType": "bytes32",
          "name": "patientId",
          "type": "bytes32"
        },
        {
          "internalType": "address",
          "name": "who",
          "type": "address"
        }
      ],
      "name": "hasUpload",
      "outputs": [
        {
          "internalType": "bool",
          "name": "",
          "type": "bool"
        }
      ],
      "stateMutability": "view",
      "type": "function"
    }
  ],
  "bytecode": "0x6080604052655af3107a4000600655348015610019575f80fd5b505f8054336001600160a01b03199182168117835560078054909216179055611c4390819061004790395ff3fe60806040526004361061017d575f3560e01c806362c75cec116100cd578063c415b95c11610087578063e036286711610062578063e036286714610526578063e96544f71461053b578063f2fde38b1461055a578063f3fef3a314610579575f80fd5b8063c415b95c14610498578063cd98de85146104b7578063d538d665146104f0575f80fd5b806362c75cec146103db578063781404681461040a5780638da5cb5b1461042957806395820a04146104475780639bf77fb414610466578063b5574f2414610479575f80fd5b806336d9144d116101385780634ad938c4116101135780634ad938c41461035f57806358c193601461037e5780635919e8571461039d5780635c1dafb6146103bc575f80fd5b806336d9144d146102dc5780633d57efdb146103075780634a86a9fb14610340575f80fd5b80624e703c146101885780630b19b2ee146101ba578063116aa52f1461020657806322ebbb821461026d5780633275f21c1461029c57806333eed7d2146102bb575f80fd5b3661018457005b5f80fd5b348015610193575f80fd5b506101a76101a236600461176b565b610598565b6040519081526020015b60405180910390f35b3480156101c5575f80fd5b506101ee6101d4366004611795565b60026020525f90815260409020546001600160a01b031681565b6040516001600160a01b0390911681526020016101b1565b348015610211575f80fd5b5061024d610220366004611795565b5f9081526001602081815260408084209092015460029091529120546001600160a01b0391821692911690565b604080516001600160a01b039384168152929091166020830152016101b1565b348015610278575f80fd5b5061028c6102873660046117c3565b6105bb565b60405190151581526020016101b1565b3480156102a7575f80fd5b506009546101ee906001600160a01b031681565b3480156102c6575f80fd5b506102da6102d53660046117fe565b610626565b005b3480156102e7575f80fd5b506101a76102f636600461183d565b60056020525f908152604090205481565b348015610312575f80fd5b5061028c6103213660046117c3565b600460209081525f928352604080842090915290825290205460ff1681565b34801561034b575f80fd5b506102da61035a36600461189d565b610748565b34801561036a575f80fd5b506102da6103793660046117c3565b61098b565b348015610389575f80fd5b506102da61039836600461183d565b610a51565b3480156103a8575f80fd5b506102da6103b73660046117c3565b610a9c565b3480156103c7575f80fd5b5061028c6103d63660046117c3565b610b66565b3480156103e6575f80fd5b506103fa6103f536600461176b565b610bcf565b6040516101b1949392919061192f565b348015610415575f80fd5b506103fa61042436600461176b565b610ca4565b348015610434575f80fd5b505f546101ee906001600160a01b031681565b348015610452575f80fd5b506102da6104613660046117fe565b610eea565b6102da610474366004611795565b610ffd565b348015610484575f80fd5b506102da61049336600461198f565b611144565b3480156104a3575f80fd5b506007546101ee906001600160a01b031681565b3480156104c2575f80fd5b5061028c6104d13660046117c3565b600360209081525f928352604080842090915290825290205460ff1681565b3480156104fb575f80fd5b506101a761050a36600461176b565b600860209081525f928352604080842090915290825290205481565b348015610531575f80fd5b506101a760065481565b348015610546575f80fd5b506102da6105553660046117c3565b6113e4565b348015610565575f80fd5b506102da61057436600461183d565b61147b565b348015610584575f80fd5b506102da6105933660046119e5565b611508565b5f82815260086020908152604080832060ff851684529091529020545b92915050565b5f80546001600160a01b03838116911614806105f357505f83815260016020819052604090912001546001600160a01b038381169116145b8061061f57505f8381526004602090815260408083206001600160a01b038616845290915290205460ff165b9392505050565b5f838152600160208190526040909120015483906001600160a01b031633148061065957505f546001600160a01b031633145b61069d5760405162461bcd60e51b815260206004820152601060248201526f3737ba103830b932b73a17b7bbb732b960811b60448201526064015b60405180910390fd5b6001600160a01b0383166106dc5760405162461bcd60e51b8152600401610694906020808252600490820152637a65726f60e01b604082015260600190565b5f8481526004602090815260408083206001600160a01b03871680855290835292819020805460ff1916861515908117909155905190815286917f957369571b78690c0b9f7c7aa39a884a6988ebc1f9b6cd9af5afbcffd9fab7ab91015b60405180910390a350505050565b5f5488906001600160a01b031633148061077b57505f81815260016020819052604090912001546001600160a01b031633145b8061079e57505f81815260046020908152604080832033845290915290205460ff165b6107d95760405162461bcd60e51b815260206004820152600c60248201526b3737ba103ab83637b0b232b960a11b6044820152606401610694565b6009546001600160a01b031661081f5760405162461bcd60e51b815260206004820152600b60248201526a119110c81b9bdd081cd95d60aa1b6044820152606401610694565b600954604051636b40634160e01b81526001600160a01b0390911690636b4063419061085390889088908890600401611a37565b602060405180830381865afa15801561086e573d5f803e3d5ffd5b505050506040513d601f19601f820116820180604052508101906108929190611a5a565b6108d65760405162461bcd60e51b815260206004820152601560248201527434b73b30b634b2103830bcb6b2b73a10383937b7b360591b6044820152606401610694565b6108e28989898961162b565b5f89815260016020818152604080842060ff8d16808652908352818520938401548e86526008845282862082875280855283872091825560039095018890558e865260028452828620548287529484525482519081529283019490945281018590526001600160a01b0390911691908b907f8b2a089244ceb7f048433bc425218105218cfc8aafe3d1187287e26caa1f71909060600160405180910390a4505050505050505050565b5f546001600160a01b031633146109b45760405162461bcd60e51b815260040161069490611a75565b6001600160a01b0381166109f95760405162461bcd60e51b815260206004820152600c60248201526b696e7375726572207a65726f60a01b6044820152606401610694565b5f8281526002602052604080822080546001600160a01b0319166001600160a01b0385169081179091559051909184917f58759f6892baf88a17d4d0c1f5b3f08758cd8da2f0f826688c424288f3b5cad39190a35050565b5f546001600160a01b03163314610a7a5760405162461bcd60e51b815260040161069490611a75565b600980546001600160a01b0319166001600160a01b0392909216919091179055565b5f546001600160a01b03163314610ac55760405162461bcd60e51b815260040161069490611a75565b6001600160a01b038116610b095760405162461bcd60e51b815260206004820152600b60248201526a706172656e74207a65726f60a81b6044820152606401610694565b5f82815260016020819052604080832090910180546001600160a01b0319166001600160a01b0385169081179091559051909184917f5f96b0f8a81bcdead3d7d4b0e855f51419b5c9c03e504710626ef58572b854889190a35050565b5f80546001600160a01b0383811691161480610b9e57505f83815260016020819052604090912001546001600160a01b038381169116145b8061061f5750505f9182526003602090815260408084206001600160a01b0393909316845291905290205460ff1690565b5f82815260016020818152604080842060ff861685529091528220908101546002820154600383015483546060959485948594919384939192918490610c1490611a98565b80601f0160208091040260200160405190810160405280929190818152602001828054610c4090611a98565b8015610c8b5780601f10610c6257610100808354040283529160200191610c8b565b820191905f5260205f20905b815481529060010190602001808311610c6e57829003601f168201915b5050505050935094509450945094505092959194509250565b5f8054606091908190819086906001600160a01b0316331480610ce057505f81815260016020819052604090912001546001600160a01b031633145b80610d0357505f81815260036020908152604080832033845290915290205460ff165b610d3d5760405162461bcd60e51b815260206004820152600b60248201526a1b9bdd08185b1b1bddd95960aa1b6044820152606401610694565b600260ff87161115610d7c5760405162461bcd60e51b8152602060048201526008602482015267189859081ada5b9960c21b6044820152606401610694565b5f87815260016020818152604080842060ff8b16808652908352818520938401548c865260088452828620918652925290922054909111801590610dc357505f8160010154115b610e015760405162461bcd60e51b815260206004820152600f60248201526e756e70616964206f7220656d70747960881b6044820152606401610694565b60405133815260ff88169089907f074f075979d9759e37d7ae44786a6bc14281a51cd89a11a7efe7d94b8d98cb929060200160405180910390a3805f01816001015482600201548360030154838054610e5990611a98565b80601f0160208091040260200160405190810160405280929190818152602001828054610e8590611a98565b8015610ed05780601f10610ea757610100808354040283529160200191610ed0565b820191905f5260205f20905b815481529060010190602001808311610eb357829003601f168201915b505050505093509550955095509550505092959194509250565b5f838152600160208190526040909120015483906001600160a01b0316331480610f1d57505f546001600160a01b031633145b610f5c5760405162461bcd60e51b815260206004820152601060248201526f3737ba103830b932b73a17b7bbb732b960811b6044820152606401610694565b6001600160a01b038316610f9b5760405162461bcd60e51b8152600401610694906020808252600490820152637a65726f60e01b604082015260600190565b5f8481526003602090815260408083206001600160a01b03871680855290835292819020805460ff1916861515908117909155905190815286917fc17c5ee9c0cd27e2f22075876524827ee7b6efe1ebbbd8ca7b87efd3a721da1f910161073a565b5f818152600260205260409020546001600160a01b0316806110535760405162461bcd60e51b815260206004820152600f60248201526e1a5b9cdd5c995c881b9bdd081cd95d608a1b6044820152606401610694565b336001600160a01b0382161461109a5760405162461bcd60e51b815260206004820152600c60248201526b37b7363c9034b739bab932b960a11b6044820152606401610694565b5f34116110d45760405162461bcd60e51b81526020600482015260086024820152676e6f2076616c756560c01b6044820152606401610694565b6001600160a01b0381165f90815260056020526040812080543492906110fb908490611ad0565b90915550506040513481526001600160a01b0382169083907f182fa52899142d44ff5c45a6354d3b3e868d5b07db6a65580b39bd321bdaf8ac9060200160405180910390a35050565b5f5484906001600160a01b031633148061117757505f81815260016020819052604090912001546001600160a01b031633145b8061119a57505f81815260046020908152604080832033845290915290205460ff165b6111d55760405162461bcd60e51b815260206004820152600c60248201526b3737ba103ab83637b0b232b960a11b6044820152606401610694565b6111e18585858561162b565b5f858152600260205260409020546001600160a01b0316806112375760405162461bcd60e51b815260206004820152600f60248201526e1a5b9cdd5c995c881b9bdd081cd95d608a1b6044820152606401610694565b6006546001600160a01b0382165f9081526005602052604090205410156112965760405162461bcd60e51b8152602060048201526013602482015272696e73757265722062616c616e6365206c6f7760681b6044820152606401610694565b600680546001600160a01b038381165f9081526005602052604080822080549490940390935560075493549251909390911691908381818185875af1925050503d805f8114611300576040519150601f19603f3d011682016040523d82523d5f602084013e611305565b606091505b505090508061134c5760405162461bcd60e51b8152602060048201526013602482015272199959481d1c985b9cd9995c8819985a5b1959606a1b6044820152606401610694565b5f87815260016020818152604080842060ff8b16808652908352818520938401548c8652600884528286208287528452828620908155600390940185905592546006548251918252928101929092528101929092526001600160a01b0384169189907f8b2a089244ceb7f048433bc425218105218cfc8aafe3d1187287e26caa1f71909060600160405180910390a450505050505050565b5f546001600160a01b0316331461140d5760405162461bcd60e51b815260040161069490611a75565b6001600160a01b0381166114545760405162461bcd60e51b815260206004820152600e60248201526d636f6c6c6563746f72207a65726f60901b6044820152606401610694565b600691909155600780546001600160a01b0319166001600160a01b03909216919091179055565b5f546001600160a01b031633146114a45760405162461bcd60e51b815260040161069490611a75565b6001600160a01b0381166114e75760405162461bcd60e51b815260206004820152600a6024820152693d32b9379037bbb732b960b11b6044820152606401610694565b5f80546001600160a01b0319166001600160a01b0392909216919091179055565b5f546001600160a01b031633146115315760405162461bcd60e51b815260040161069490611a75565b6001600160a01b0382166115715760405162461bcd60e51b8152602060048201526007602482015266746f207a65726f60c81b6044820152606401610694565b804710156115b05760405162461bcd60e51b815260206004820152600c60248201526b1a5b9cdd59999a58da595b9d60a21b6044820152606401610694565b6040516001600160a01b0383169082156108fc029083905f818181858888f193505050501580156115e3573d5f803e3d5ffd5b50816001600160a01b03167f884edad9ce6fa2440d8a54cc123490eb96d2768479d49ff9c7366125a94243648260405161161f91815260200190565b60405180910390a25050565b5f84815260016020819052604090912001546001600160a01b03166116835760405162461bcd60e51b815260206004820152600e60248201526d1c185c995b9d081b9bdd081cd95d60921b6044820152606401610694565b600260ff841611156116c25760405162461bcd60e51b8152602060048201526008602482015267189859081ada5b9960c21b6044820152606401610694565b5f84815260016020908152604080832060ff871684529091529020806116e9838583611b51565b506001816001015f8282546116fe9190611ad0565b9091555050426002820155600181015460405160ff86169187917f06f6b1bfeb5b4ec123686e3e99b88f31ea983f9a90ad9ba8bf10f0fb29b47af4916117479188918891611a37565b60405180910390a35050505050565b803560ff81168114611766575f80fd5b919050565b5f806040838503121561177c575f80fd5b8235915061178c60208401611756565b90509250929050565b5f602082840312156117a5575f80fd5b5035919050565b6001600160a01b03811681146117c0575f80fd5b50565b5f80604083850312156117d4575f80fd5b8235915060208301356117e6816117ac565b809150509250929050565b80151581146117c0575f80fd5b5f805f60608486031215611810575f80fd5b833592506020840135611822816117ac565b91506040840135611832816117f1565b809150509250925092565b5f6020828403121561184d575f80fd5b813561061f816117ac565b5f8083601f840112611868575f80fd5b50813567ffffffffffffffff81111561187f575f80fd5b602083019150836020828501011115611896575f80fd5b9250929050565b5f805f805f805f8060c0898b0312156118b4575f80fd5b883597506118c460208a01611756565b9650604089013567ffffffffffffffff808211156118e0575f80fd5b6118ec8c838d01611858565b909850965060608b0135915080821115611904575f80fd5b506119118b828c01611858565b999c989b5096999598969760808701359660a0013595509350505050565b608081525f85518060808401525f5b8181101561195b57602081890181015160a086840101520161193e565b505f60a0828501015260a0601f19601f83011684010191505084602083015283604083015282606083015295945050505050565b5f805f80606085870312156119a2575f80fd5b843593506119b260208601611756565b9250604085013567ffffffffffffffff8111156119cd575f80fd5b6119d987828801611858565b95989497509550505050565b5f80604083850312156119f6575f80fd5b8235611a01816117ac565b946020939093013593505050565b81835281816020850137505f828201602090810191909152601f909101601f19169091010190565b604081525f611a4a604083018587611a0f565b9050826020830152949350505050565b5f60208284031215611a6a575f80fd5b815161061f816117f1565b6020808252600990820152683737ba1037bbb732b960b91b604082015260600190565b600181811c90821680611aac57607f821691505b602082108103611aca57634e487b7160e01b5f52602260045260245ffd5b50919050565b808201808211156105b557634e487b7160e01b5f52601160045260245ffd5b634e487b7160e01b5f52604160045260245ffd5b601f821115611b4c575f81815260208120601f850160051c81016020861015611b295750805b601f850160051c820191505b81811015611b4857828155600101611b35565b5050505b505050565b67ffffffffffffffff831115611b6957611b69611aef565b611b7d83611b778354611a98565b83611b03565b5f601f841160018114611bae575f8515611b975750838201355b5f19600387901b1c1916600186901b178355611c06565b5f83815260209020601f19861690835b82811015611bde5786850135825560209485019460019092019101611bbe565b5086821015611bfa575f1960f88860031b161c19848701351681555b505060018560011b0183555b505050505056fea26469706673582212206db91ad04817dc9c64edcbe288fe04c2fb95c1e64758a6fb80c4c08fa229e5f764736f6c63430008150033",
  "immutableReferences": {},
  "source": "// SPDX-License-Identifier: MIT\npragma solidity ^0.8.21;\n\n/**\n * MedicalRecordVaultXRPL (Flare EVM)\n * ----------------------------------\n * - Stores ONLY pointers (hash/CID/URI) to off-chain encrypted docs.\n * - Per patientId (bytes32): owner sets parent and insurer.\n * - Parent (or owner) grants READ and/or UPLOAD permissions to parties.\n * - Upload CHARGES insurer ONCE per version:\n *      A) Flare-deduct mode (contract subtracts from insurer deposit)\n *      B) XRPL+FDC mode (verify attested XRPL payment, then mark paid)\n * - Reads are FREE; UI shows UploadPaid event / stored proofHash as proof.\n *\n * SECURITY:\n * - Never store PII on-chain. Derive patientId off-chain (e.g., keccak256(MRN|salt)).\n * - hashURI must point to encrypted content (IPFS/S3).\n */\n\ninterface IFDC {\n    function verify(bytes calldata proof, bytes32 statementId) external view returns (bool);\n}\n\ncontract MedicalRecordVaultXRPL {\n    /*  Types  */\n    enum DocKind { Diagnosis, Referral, Intake } // 0,1,2\n\n    struct DocMeta {\n        string  hashURI;        // encrypted pointer\n        uint256 version;        // increments per upload\n        uint256 updatedAt;      // unix timestamp\n        bytes32 paymentProof;   // XRPL tx hash / attestation id; 0x0 for Flare-deduct\n    }\n\n    struct RecordSet {\n        mapping(uint8 => DocMeta) docs; // one DocMeta per kind\n        address parent;                 // guardian who grants permissions\n    }\n\n    /*  Events  */\n    event ParentSet(bytes32 indexed patientId, address indexed parent);\n    event InsurerSet(bytes32 indexed patientId, address indexed insurer);\n\n    event ReadAccessGranted(bytes32 indexed patientId, address indexed who, bool allowed);\n    event UploadAccessGranted(bytes32 indexed patientId, address indexed who, bool allowed);\n\n    event UploadPaid(\n        bytes32 indexed patientId,\n        uint8   indexed kind,\n        address indexed insurer,\n        uint256 version,\n        uint256 amountWei,\n        bytes32 proofHash\n    );\n\n    event DocumentUploaded(bytes32 indexed patientId, uint8 indexed kind, string hashURI, uint256 version);\n    event DocumentRead(bytes32 indexed patientId, uint8 indexed kind, address accessor);\n\n    event Deposit(bytes32 indexed patientId, address indexed insurer, uint256 amount);\n    event Withdraw(address indexed to, uint256 amount);\n\n    /*  Ownership  */\n    address public owner;\n    modifier onlyOwner() { require(msg.sender == owner, \"not owner\"); _; }\n\n    constructor() {\n        owner = msg.sender;\n        feeCollector = msg.sender;\n    }\n\n    function transferOwnership(address newOwner) external onlyOwner {\n        require(newOwner != address(0), \"zero owner\");\n        owner = newOwner;\n    }\n\n    /*  Storage  */\n    mapping(bytes32 => RecordSet) private records;                 // patient state\n    mapping(bytes32 => address)  public insurerOf;                 // patient -> insurer\n    mapping(bytes32 => mapping(address => bool)) public canRead;   // read ACL\n    mapping(bytes32 => mapping(address => bool)) public canUpload; // upload ACL\n\n    // Billing (Flare-deduct mode)\n    mapping(address => uint256) public insurerBalances; // deposits by insurer\n    uint256 public uploadFeeWei = 0.0001 ether;\n    address public feeCollector;\n\n    // Was latest version paid?\n    // patientId => kind => versionPaid\n    mapping(bytes32 => mapping(uint8 => uint256)) public paidVersion;\n\n    // Optional FDC verifier (for XRPL+FDC path)\n    IFDC public fdc;\n\n    /*  Modifiers  */\n    modifier onlyParentOrOwner(bytes32 patientId) {\n        require(msg.sender == records[patientId].parent || msg.sender == owner, \"not parent/owner\");\n        _;\n    }\n    modifier onlyUploader(bytes32 patientId) {\n        require(\n            msg.sender == owner ||\n            msg.sender == records[patientId].parent ||\n            canUpload[patientId][msg.sender],\n            \"not uploader\"\n        );\n        _;\n    }\n    modifier onlyReader(bytes32 patientId) {\n        require(\n            msg.sender == owner ||\n            msg.sender == records[patientId].parent ||\n            canRead[patientId][msg.sender],\n            \"not allowed\"\n        );\n        _;\n    }\n\n    /*  Admin / Setup  */\n    function setParent(bytes32 patientId, address parent) external onlyOwner {\n        require(parent != address(0), \"parent zero\");\n        records[patientId].parent = parent;\n        emit ParentSet(patientId, parent);\n    }\n\n    function setInsurer(bytes32 patientId, address insurer) external onlyOwner {\n        require(insurer != address(0), \"insurer zero\");\n        insurerOf[patientId] = insurer;\n        emit InsurerSet(patientId, insurer);\n    }\n\n    function grantRead(bytes32 patientId, address who, bool allowed) external onlyParentOrOwner(patientId) {\n        require(who != address(0), \"zero\");\n        canRead[patientId][who] = allowed;\n        emit ReadAccessGranted(patientId, who, allowed);\n    }\n\n    function grantUpload(bytes32 patientId, address who, bool allowed) external onlyParentOrOwner(patientId) {\n        require(who != address(0), \"zero\");\n        canUpload[patientId][who] = allowed;\n        emit UploadAccessGranted(patientId, who, allowed);\n    }\n\n    function setUploadFee(uint256 feeWei, address collector) external onlyOwner {\n        require(collector != address(0), \"collector zero\");\n        uploadFeeWei = feeWei;\n        feeCollector = collector;\n    }\n\n    function setFDC(address verifier) external onlyOwner {\n        fdc = IFDC(verifier);\n    }\n\n    /*  Funding (Flare-deduct)  */\n    function depositFor(bytes32 patientId) external payable {\n        address insurer = insurerOf[patientId];\n        require(insurer != address(0), \"insurer not set\");\n        require(msg.sender == insurer, \"only insurer\");\n        require(msg.value > 0, \"no value\");\n        insurerBalances[insurer] += msg.value;\n        emit Deposit(patientId, insurer, msg.value);\n    }\n\n    function withdraw(address payable to, uint256 amount) external onlyOwner {\n        require(to != address(0), \"to zero\");\n        require(address(this).balance >= amount, \"insufficient\");\n        to.transfer(amount);\n        emit Withdraw(to, amount);\n    }\n\n    /*  UPLOADS  */\n\n    /// Flare-deduct mode: contract deducts fee from insurer deposit.\n    function uploadDocumentDeduct(\n        bytes32 patientId,\n        uint8   kind,        // 0/1/2\n        string calldata hashURI\n    ) external onlyUploader(patientId) {\n        _writeDoc(patientId, kind, hashURI);\n\n        address insurer = insurerOf[patientId];\n        require(insurer != address(0), \"insurer not set\");\n        require(insurerBalances[insurer] >= uploadFeeWei, \"insurer balance low\");\n\n        unchecked { insurerBalances[insurer] -= uploadFeeWei; }\n        (bool ok,) = payable(feeCollector).call{value: uploadFeeWei}(\"\");\n        require(ok, \"fee transfer failed\");\n\n        paidVersion[patientId][kind] = records[patientId].docs[kind].version;\n        records[patientId].docs[kind].paymentProof = bytes32(0); // marker for Flare-deduct\n\n        emit UploadPaid(patientId, kind, insurer, paidVersion[patientId][kind], uploadFeeWei, bytes32(0));\n    }\n\n    /// XRPL + FDC mode: verify attested payment, then mark paid (no Flare deduction).\n    function uploadDocumentWithXRPLProof(\n        bytes32 patientId,\n        uint8   kind,\n        string calldata hashURI,\n        bytes  calldata xrplProof,\n        bytes32 statementId,\n        bytes32 proofId\n    ) external onlyUploader(patientId) {\n        require(address(fdc) != address(0), \"FDC not set\");\n        require(fdc.verify(xrplProof, statementId), \"invalid payment proof\");\n\n        _writeDoc(patientId, kind, hashURI);\n\n        paidVersion[patientId][kind] = records[patientId].docs[kind].version;\n        records[patientId].docs[kind].paymentProof = proofId;\n\n        emit UploadPaid(patientId, kind, insurerOf[patientId], paidVersion[patientId][kind], 0, proofId);\n    }\n\n    /// Internal write: increments version and stores URI/timestamp.\n    function _writeDoc(bytes32 patientId, uint8 kind, string calldata hashURI) internal {\n        require(records[patientId].parent != address(0), \"parent not set\");\n        require(kind <= uint8(DocKind.Intake), \"bad kind\");\n\n        DocMeta storage d = records[patientId].docs[kind];\n        d.hashURI  = hashURI;\n        d.version += 1;\n        d.updatedAt = block.timestamp;\n\n        emit DocumentUploaded(patientId, kind, hashURI, d.version);\n    }\n\n    /*  READ (free; requires paid)  */\n\n    function getDocument(bytes32 patientId, uint8 kind)\n        external\n        onlyReader(patientId)\n        returns (string memory hashURI, uint256 version, uint256 updatedAt, bytes32 paymentProof)\n    {\n        require(kind <= uint8(DocKind.Intake), \"bad kind\");\n        DocMeta storage d = records[patientId].docs[kind];\n        require(paidVersion[patientId][kind] >= d.version && d.version > 0, \"unpaid or empty\");\n\n        emit DocumentRead(patientId, kind, msg.sender);\n        return (d.hashURI, d.version, d.updatedAt, d.paymentProof);\n    }\n\n    /*  Small views (split to avoid deep stack)  */\n\n    /// Thin meta (no roles/paidVersion)  safe for UI\n    function getDocMeta(bytes32 patientId, uint8 kind)\n        external\n        view\n        returns (string memory hashURI, uint256 version, uint256 updatedAt, bytes32 paymentProof)\n    {\n        DocMeta storage d = records[patientId].docs[kind];\n        return (d.hashURI, d.version, d.updatedAt, d.paymentProof);\n    }\n\n    /// Roles (parent, insurer)\n    function getRoles(bytes32 patientId)\n        external\n        view\n        returns (address parent, address insurer)\n    {\n        return (records[patientId].parent, insurerOf[patientId]);\n    }\n\n    /// Which version is marked paid for this kind?\n    function getPaidVersion(bytes32 patientId, uint8 kind)\n        external\n        view\n        returns (uint256)\n    {\n        return paidVersion[patientId][kind];\n    }\n\n    /// Helpers for UI\n    function hasRead(bytes32 patientId, address who) external view returns (bool) {\n        return (who == owner || who == records[patientId].parent || canRead[patientId][who]);\n    }\n\n    function hasUpload(bytes32 patientId, address who) external view returns (bool) {\n        return (who == owner || who == records[patientId].parent || canUpload[patientId][who]);\n    }\n\n    receive() external payable {}\n}\n",
  "sourcePath": "/workspaces/Test_Hackathon/contracts/MedicalRecordVault.sol",
  "compiler": {
    "name": "solc",
    "version": "0.8.21+commit.d9974bed.Emscripten.clang"
  },
  "schemaVersion": "3.4.16",
  "updatedAt": "2025-09-20T02:10:47.968Z",
  "devdoc": {
    "kind": "dev",
    "methods": {},
    "version": 1
  },
  "userdoc": {
    "kind": "user",
    "methods": {
      "getDocMeta(bytes32,uint8)": {
        "notice": "Thin meta (no roles/paidVersion)  safe for UI"
      },
      "getPaidVersion(bytes32,uint8)": {
        "notice": "Which version is marked paid for this kind?"
      },
      "getRoles(bytes32)": {
        "notice": "Roles (parent, insurer)"
      },
      "hasRead(bytes32,address)": {
        "notice": "Helpers for UI"
      },
      "uploadDocumentDeduct(bytes32,uint8,string)": {
        "notice": "Flare-deduct mode: contract deducts fee from insurer deposit."
      },
      "uploadDocumentWithXRPLProof(bytes32,uint8,string,bytes,bytes32,bytes32)": {
        "notice": "XRPL + FDC mode: verify attested payment, then mark paid (no Flare deduction)."
      }
    },
    "version": 1
  }
}