{
  "contractName": "MedicalRecordVaultXRPL",
  "abi": [
    {
      "inputs": [],
      "stateMutability": "nonpayable",
      "type": "constructor"
    },
    {
      "anonymous": false,
      "inputs": [
        {
          "indexed": true,
          "internalType": "bytes32",
          "name": "patientId",
          "type": "bytes32"
        },
        {
          "indexed": true,
          "internalType": "uint8",
          "name": "kind",
          "type": "uint8"
        },
        {
          "indexed": false,
          "internalType": "address",
          "name": "accessor",
          "type": "address"
        }
      ],
      "name": "DocumentRead",
      "type": "event"
    },
    {
      "anonymous": false,
      "inputs": [
        {
          "indexed": true,
          "internalType": "bytes32",
          "name": "patientId",
          "type": "bytes32"
        },
        {
          "indexed": true,
          "internalType": "uint8",
          "name": "kind",
          "type": "uint8"
        },
        {
          "indexed": false,
          "internalType": "string",
          "name": "hashURI",
          "type": "string"
        },
        {
          "indexed": false,
          "internalType": "uint256",
          "name": "version",
          "type": "uint256"
        }
      ],
      "name": "DocumentUploaded",
      "type": "event"
    },
    {
      "anonymous": false,
      "inputs": [
        {
          "indexed": true,
          "internalType": "address",
          "name": "fdc",
          "type": "address"
        }
      ],
      "name": "FdcSet",
      "type": "event"
    },
    {
      "anonymous": false,
      "inputs": [
        {
          "indexed": false,
          "internalType": "uint256",
          "name": "feeUSDc",
          "type": "uint256"
        }
      ],
      "name": "FeesUpdated",
      "type": "event"
    },
    {
      "anonymous": false,
      "inputs": [
        {
          "indexed": true,
          "internalType": "address",
          "name": "ftso",
          "type": "address"
        }
      ],
      "name": "FtsoSet",
      "type": "event"
    },
    {
      "anonymous": false,
      "inputs": [
        {
          "indexed": true,
          "internalType": "bytes32",
          "name": "patientId",
          "type": "bytes32"
        },
        {
          "indexed": false,
          "internalType": "string",
          "name": "xrplAccount",
          "type": "string"
        },
        {
          "indexed": false,
          "internalType": "address",
          "name": "contact",
          "type": "address"
        }
      ],
      "name": "InsurerInfoSet",
      "type": "event"
    },
    {
      "anonymous": false,
      "inputs": [
        {
          "indexed": false,
          "internalType": "uint256",
          "name": "seconds_",
          "type": "uint256"
        }
      ],
      "name": "OracleStalenessUpdated",
      "type": "event"
    },
    {
      "anonymous": false,
      "inputs": [
        {
          "indexed": true,
          "internalType": "bytes32",
          "name": "patientId",
          "type": "bytes32"
        },
        {
          "indexed": true,
          "internalType": "uint8",
          "name": "kind",
          "type": "uint8"
        },
        {
          "indexed": false,
          "internalType": "uint256",
          "name": "version",
          "type": "uint256"
        },
        {
          "indexed": false,
          "internalType": "uint256",
          "name": "paidDrops",
          "type": "uint256"
        },
        {
          "indexed": false,
          "internalType": "bytes32",
          "name": "proofHash",
          "type": "bytes32"
        }
      ],
      "name": "UploadPaidXRPLXRP",
      "type": "event"
    },
    {
      "inputs": [],
      "name": "fdc",
      "outputs": [
        {
          "internalType": "contract IFDC",
          "name": "",
          "type": "address"
        }
      ],
      "stateMutability": "view",
      "type": "function"
    },
    {
      "inputs": [],
      "name": "ftso",
      "outputs": [
        {
          "internalType": "contract IFTSO",
          "name": "",
          "type": "address"
        }
      ],
      "stateMutability": "view",
      "type": "function"
    },
    {
      "inputs": [],
      "name": "maxOracleStaleness",
      "outputs": [
        {
          "internalType": "uint256",
          "name": "",
          "type": "uint256"
        }
      ],
      "stateMutability": "view",
      "type": "function"
    },
    {
      "inputs": [],
      "name": "owner",
      "outputs": [
        {
          "internalType": "address",
          "name": "",
          "type": "address"
        }
      ],
      "stateMutability": "view",
      "type": "function"
    },
    {
      "inputs": [
        {
          "internalType": "bytes32",
          "name": "",
          "type": "bytes32"
        },
        {
          "internalType": "uint8",
          "name": "",
          "type": "uint8"
        }
      ],
      "name": "paidVersion",
      "outputs": [
        {
          "internalType": "uint256",
          "name": "",
          "type": "uint256"
        }
      ],
      "stateMutability": "view",
      "type": "function"
    },
    {
      "inputs": [],
      "name": "uploadFeeUSDc",
      "outputs": [
        {
          "internalType": "uint256",
          "name": "",
          "type": "uint256"
        }
      ],
      "stateMutability": "view",
      "type": "function"
    },
    {
      "inputs": [
        {
          "internalType": "address",
          "name": "newOwner",
          "type": "address"
        }
      ],
      "name": "transferOwnership",
      "outputs": [],
      "stateMutability": "nonpayable",
      "type": "function"
    },
    {
      "inputs": [
        {
          "internalType": "address",
          "name": "verifier",
          "type": "address"
        }
      ],
      "name": "setFDC",
      "outputs": [],
      "stateMutability": "nonpayable",
      "type": "function"
    },
    {
      "inputs": [
        {
          "internalType": "address",
          "name": "oracle",
          "type": "address"
        }
      ],
      "name": "setFTSO",
      "outputs": [],
      "stateMutability": "nonpayable",
      "type": "function"
    },
    {
      "inputs": [
        {
          "internalType": "uint256",
          "name": "seconds_",
          "type": "uint256"
        }
      ],
      "name": "setMaxOracleStaleness",
      "outputs": [],
      "stateMutability": "nonpayable",
      "type": "function"
    },
    {
      "inputs": [
        {
          "internalType": "uint256",
          "name": "feeUSDc",
          "type": "uint256"
        }
      ],
      "name": "setUploadFeeUSDc",
      "outputs": [],
      "stateMutability": "nonpayable",
      "type": "function"
    },
    {
      "inputs": [
        {
          "internalType": "bytes32",
          "name": "patientId",
          "type": "bytes32"
        },
        {
          "internalType": "address",
          "name": "guardian_",
          "type": "address"
        }
      ],
      "name": "setGuardian",
      "outputs": [],
      "stateMutability": "nonpayable",
      "type": "function"
    },
    {
      "inputs": [
        {
          "internalType": "bytes32",
          "name": "patientId",
          "type": "bytes32"
        },
        {
          "internalType": "address",
          "name": "psychologist",
          "type": "address"
        }
      ],
      "name": "setPediatricPsychologist",
      "outputs": [],
      "stateMutability": "nonpayable",
      "type": "function"
    },
    {
      "inputs": [
        {
          "internalType": "bytes32",
          "name": "patientId",
          "type": "bytes32"
        },
        {
          "internalType": "string",
          "name": "xrplAccount",
          "type": "string"
        },
        {
          "internalType": "address",
          "name": "contact",
          "type": "address"
        }
      ],
      "name": "setInsurerInfo",
      "outputs": [],
      "stateMutability": "nonpayable",
      "type": "function"
    },
    {
      "inputs": [
        {
          "internalType": "bytes32",
          "name": "patientId",
          "type": "bytes32"
        }
      ],
      "name": "getInsurerInfo",
      "outputs": [
        {
          "internalType": "string",
          "name": "xrplAccount",
          "type": "string"
        },
        {
          "internalType": "address",
          "name": "contact",
          "type": "address"
        }
      ],
      "stateMutability": "view",
      "type": "function"
    },
    {
      "inputs": [
        {
          "internalType": "bytes32",
          "name": "patientId",
          "type": "bytes32"
        },
        {
          "internalType": "uint8",
          "name": "kind",
          "type": "uint8"
        },
        {
          "internalType": "string",
          "name": "hashURI",
          "type": "string"
        },
        {
          "internalType": "bytes",
          "name": "xrplProof",
          "type": "bytes"
        },
        {
          "internalType": "bytes32",
          "name": "statementId",
          "type": "bytes32"
        },
        {
          "internalType": "bytes32",
          "name": "proofId",
          "type": "bytes32"
        },
        {
          "internalType": "uint256",
          "name": "xrplPaidDrops",
          "type": "uint256"
        }
      ],
      "name": "uploadDocumentXRP",
      "outputs": [],
      "stateMutability": "nonpayable",
      "type": "function"
    },
    {
      "inputs": [
        {
          "internalType": "bytes32",
          "name": "patientId",
          "type": "bytes32"
        },
        {
          "internalType": "uint8",
          "name": "kind",
          "type": "uint8"
        }
      ],
      "name": "getDocument",
      "outputs": [
        {
          "internalType": "string",
          "name": "",
          "type": "string"
        },
        {
          "internalType": "uint256",
          "name": "",
          "type": "uint256"
        },
        {
          "internalType": "uint256",
          "name": "",
          "type": "uint256"
        },
        {
          "internalType": "bytes32",
          "name": "",
          "type": "bytes32"
        }
      ],
      "stateMutability": "nonpayable",
      "type": "function"
    },
    {
      "inputs": [
        {
          "internalType": "bytes32",
          "name": "patientId",
          "type": "bytes32"
        },
        {
          "internalType": "uint8",
          "name": "kind",
          "type": "uint8"
        }
      ],
      "name": "getDocMeta",
      "outputs": [
        {
          "internalType": "string",
          "name": "hashURI",
          "type": "string"
        },
        {
          "internalType": "uint256",
          "name": "version",
          "type": "uint256"
        },
        {
          "internalType": "uint256",
          "name": "updatedAt",
          "type": "uint256"
        },
        {
          "internalType": "bytes32",
          "name": "paymentProof",
          "type": "bytes32"
        },
        {
          "internalType": "uint256",
          "name": "paidUSDc",
          "type": "uint256"
        },
        {
          "internalType": "uint256",
          "name": "paidDrops",
          "type": "uint256"
        },
        {
          "internalType": "bytes32",
          "name": "currencyHash",
          "type": "bytes32"
        }
      ],
      "stateMutability": "view",
      "type": "function"
    },
    {
      "inputs": [],
      "name": "requiredXrpDrops",
      "outputs": [
        {
          "internalType": "uint256",
          "name": "drops",
          "type": "uint256"
        },
        {
          "internalType": "uint256",
          "name": "price",
          "type": "uint256"
        },
        {
          "internalType": "uint8",
          "name": "decimals",
          "type": "uint8"
        },
        {
          "internalType": "uint256",
          "name": "timestamp",
          "type": "uint256"
        }
      ],
      "stateMutability": "view",
      "type": "function"
    }
  ],
  "bytecode": "0x60806040526101f460065561025860075534801561001b575f80fd5b505f80546001600160a01b031916331790556118608061003a5f395ff3fe608060405234801561000f575f80fd5b506004361061011c575f3560e01c80638c9d41ce116100a9578063c1ae721c1161006e578063c1ae721c14610295578063d3674b18146102a8578063d538d665146102bb578063d8ba2f4d146102e5578063f2fde38b146102f8575f80fd5b80638c9d41ce1461023d5780638da5cb5b14610250578063935e548514610262578063971afafd14610279578063b510f66914610282575f80fd5b806358c19360116100ef57806358c19360146101ad57806362c75cec146101c057806371a265aa146101e6578063781404681461020757806378ea5ec51461022a575f80fd5b80630709f860146101205780630da0c0221461015a57806316a1d8b4146101855780633275f21c1461019a575b5f80fd5b61012861030b565b6040516101519493929190938452602084019290925260ff166040830152606082015260800190565b60405180910390f35b60055461016d906001600160a01b031681565b6040516001600160a01b039091168152602001610151565b610198610193366004611103565b610436565b005b60045461016d906001600160a01b031681565b6101986101bb36600461112d565b61048f565b6101d36101ce366004611157565b610501565b60405161015197969594939291906111c8565b6101f96101f436600461120b565b6105fa565b604051610151929190611222565b61021a610215366004611157565b6106b4565b604051610151949392919061124b565b61019861023836600461112d565b61086b565b61019861024b36600461120b565b6108dd565b5f5461016d906001600160a01b031681565b61026b60075481565b604051908152602001610151565b61026b60065481565b6101986102903660046112be565b610942565b6101986102a336600461120b565b610a55565b6101986102b6366004611103565b610ab3565b61026b6102c9366004611157565b600260209081525f928352604080842090915290825290205481565b6101986102f336600461135a565b610b0e565b61019861030636600461112d565b610c0b565b6005545f908190819081906001600160a01b031661035f5760405162461bcd60e51b815260206004820152600c60248201526b119514d3c81b9bdd081cd95d60a21b60448201526064015b60405180910390fd5b5f805f60055f9054906101000a90046001600160a01b03166001600160a01b031663d4fdd8726040518163ffffffff1660e01b8152600401606060405180830381865afa1580156103b2573d5f803e3d5ffd5b505050506040513d601f19601f820116820180604052508101906103d691906113b4565b9250925092505f831161041c5760405162461bcd60e51b815260206004820152600e60248201526d06f7261636c652070726963653d360941b6044820152606401610356565b6104296006548484610c98565b9792965090945092509050565b5f546001600160a01b0316331461045f5760405162461bcd60e51b8152600401610356906113ea565b5f9182526001602052604090912060020180546001600160a01b0319166001600160a01b03909216919091179055565b5f546001600160a01b031633146104b85760405162461bcd60e51b8152600401610356906113ea565b600480546001600160a01b0319166001600160a01b0383169081179091556040517fb13b6897f1078ad5cac6d8c947da22bcddc0cec9601e74d580711a8830a1abf6905f90a250565b60605f805f805f805f60015f8b81526020019081526020015f205f015f8a60ff1660ff1681526020019081526020015f209050805f018160010154826002015483600301548460050154856004015486600601548680546105619061140d565b80601f016020809104026020016040519081016040528092919081815260200182805461058d9061140d565b80156105d85780601f106105af576101008083540402835291602001916105d8565b820191905f5260205f20905b8154815290600101906020018083116105bb57829003601f168201915b5050505050965097509750975097509750975097505092959891949750929550565b5f81815260036020526040812060018101548154606093929182916001600160a01b0390911690829061062c9061140d565b80601f01602080910402602001604051908101604052809291908181526020018280546106589061140d565b80156106a35780601f1061067a576101008083540402835291602001916106a3565b820191905f5260205f20905b81548152906001019060200180831161068657829003601f168201915b505050505091509250925050915091565b60605f8080600260ff861611156106f85760405162461bcd60e51b8152602060048201526008602482015267189859081ada5b9960c21b6044820152606401610356565b5f86815260016020818152604080842060ff8a1685529091529091209081015415801590610745575060018101545f88815260026020908152604080832060ff8b16845290915290205410155b6107835760405162461bcd60e51b815260206004820152600f60248201526e756e70616964206f7220656d70747960881b6044820152606401610356565b60405133815260ff87169088907f074f075979d9759e37d7ae44786a6bc14281a51cd89a11a7efe7d94b8d98cb929060200160405180910390a3805f018160010154826002015483600301548380546107db9061140d565b80601f01602080910402602001604051908101604052809291908181526020018280546108079061140d565b80156108525780601f1061082957610100808354040283529160200191610852565b820191905f5260205f20905b81548152906001019060200180831161083557829003601f168201915b5050505050935094509450945094505092959194509250565b5f546001600160a01b031633146108945760405162461bcd60e51b8152600401610356906113ea565b600580546001600160a01b0319166001600160a01b0383169081179091556040517f78bf9ee573ab4ba0b227ab30e4d583f41e8312c1d584c36833c12d40e56d4364905f90a250565b5f546001600160a01b031633146109065760405162461bcd60e51b8152600401610356906113ea565b60078190556040518181527f6b25cf17c118911f118f91dff57adc2ad6e5ecee484181db518ddc86b9f6276b906020015b60405180910390a150565b61094a610cf6565b610955858585610d85565b5f61095e610e48565b9050808210156109a85760405162461bcd60e51b8152602060048201526015602482015274161494081c185e5b595b9d081d1bdbc81cdb585b1b605a1b6044820152606401610356565b6109b48a8a8a8a610f70565b5f8a815260016020818152604080842060ff8e16808652908352818520938401548f865260028452828620828752845282862081905560038501899055600485018890556005850186905560068501959095558151948552918401869052830186905290918c907f2bd495210f90c5947db19e2ed93f400539ce2f52b0211c7a52870d200104be059060600160405180910390a35050505050505050505050565b5f546001600160a01b03163314610a7e5760405162461bcd60e51b8152600401610356906113ea565b60068190556040518181527f9fe6eeb0f0541c644a56c67efeb872dbadd803a60b909d7dde1b35a3fe230b0e90602001610937565b5f546001600160a01b03163314610adc5760405162461bcd60e51b8152600401610356906113ea565b5f91825260016020819052604090922090910180546001600160a01b0319166001600160a01b03909216919091179055565b5f546001600160a01b03163314610b375760405162461bcd60e51b8152600401610356906113ea565b6040805160606020601f860181900402820181018352918101848152909182919086908690819085018382808284375f9201829052509385525050506001600160a01b03841660209283015286815260039091526040902081518190610b9d90826114a6565b5060209190910151600190910180546001600160a01b0319166001600160a01b0390921691909117905560405184907fc86d0bef5aeddb8c7ec8542de24cca163e26e7848acbd3332c181de00b680f9390610bfd9086908690869061158a565b60405180910390a250505050565b5f546001600160a01b03163314610c345760405162461bcd60e51b8152600401610356906113ea565b6001600160a01b038116610c775760405162461bcd60e51b815260206004820152600a6024820152693d32b9379037bbb732b960b11b6044820152606401610356565b5f80546001600160a01b0319166001600160a01b0392909216919091179055565b5f80610cab85662386f26fc100006115c9565b90505f610cba85856012611043565b90505f610cd8610cd284670de0b6b3a76400006115c9565b836110b0565b9050610ce98164e8d4a510006110b0565b93505050505b9392505050565b6004546001600160a01b0316610d3c5760405162461bcd60e51b815260206004820152600b60248201526a119110c81b9bdd081cd95d60aa1b6044820152606401610356565b6005546001600160a01b0316610d835760405162461bcd60e51b815260206004820152600c60248201526b119514d3c81b9bdd081cd95d60a21b6044820152606401610356565b565b60048054604051636b40634160e01b81526001600160a01b0390911691636b40634191610db891879187918791016115e0565b602060405180830381865afa158015610dd3573d5f803e3d5ffd5b505050506040513d601f19601f82011682018060405250810190610df79190611603565b610e435760405162461bcd60e51b815260206004820152601a60248201527f696e76616c6964205852504c207061796d656e742070726f6f660000000000006044820152606401610356565b505050565b5f805f8060055f9054906101000a90046001600160a01b03166001600160a01b031663d4fdd8726040518163ffffffff1660e01b8152600401606060405180830381865afa158015610e9c573d5f803e3d5ffd5b505050506040513d601f19601f82011682018060405250810190610ec091906113b4565b9250925092505f8311610f065760405162461bcd60e51b815260206004820152600e60248201526d06f7261636c652070726963653d360941b6044820152606401610356565b804210158015610f215750600754610f1e8242611622565b11155b610f5b5760405162461bcd60e51b815260206004820152600b60248201526a7072696365207374616c6560a81b6044820152606401610356565b610f686006548484610c98565b935050505090565b600260ff84161115610faf5760405162461bcd60e51b8152602060048201526008602482015267189859081ada5b9960c21b6044820152606401610356565b5f84815260016020908152604080832060ff87168452909152902080610fd6838583611635565b506001816001015f828254610feb91906116f1565b9091555050426002820155600181015460405160ff86169187917f06f6b1bfeb5b4ec123686e3e99b88f31ea983f9a90ad9ba8bf10f0fb29b47af49161103491889188916115e0565b60405180910390a35050505050565b5f8160ff168360ff1603611058575082610cef565b8160ff168360ff16106110895761106f8284611704565b61107a90600a6117fd565b611084908561180b565b6110a8565b6110938383611704565b61109e90600a6117fd565b6110a890856115c9565b949350505050565b5f82156110dd57816110c3600185611622565b6110cd919061180b565b6110d89060016116f1565b6110df565b5f5b90505b92915050565b80356001600160a01b03811681146110fe575f80fd5b919050565b5f8060408385031215611114575f80fd5b82359150611124602084016110e8565b90509250929050565b5f6020828403121561113d575f80fd5b6110df826110e8565b60ff81168114611154575f80fd5b50565b5f8060408385031215611168575f80fd5b82359150602083013561117a81611146565b809150509250929050565b5f81518084525f5b818110156111a95760208185018101518683018201520161118d565b505f602082860101526020601f19601f83011685010191505092915050565b60e081525f6111da60e083018a611185565b60208301989098525060408101959095526060850193909352608084019190915260a083015260c090910152919050565b5f6020828403121561121b575f80fd5b5035919050565b604081525f6112346040830185611185565b905060018060a01b03831660208301529392505050565b608081525f61125d6080830187611185565b6020830195909552506040810192909252606090910152919050565b5f8083601f840112611289575f80fd5b50813567ffffffffffffffff8111156112a0575f80fd5b6020830191508360208285010111156112b7575f80fd5b9250929050565b5f805f805f805f805f60e08a8c0312156112d6575f80fd5b8935985060208a01356112e881611146565b975060408a013567ffffffffffffffff80821115611304575f80fd5b6113108d838e01611279565b909950975060608c0135915080821115611328575f80fd5b506113358c828d01611279565b9a9d999c50979a9699979860808801359760a0810135975060c0013595509350505050565b5f805f806060858703121561136d575f80fd5b84359350602085013567ffffffffffffffff81111561138a575f80fd5b61139687828801611279565b90945092506113a99050604086016110e8565b905092959194509250565b5f805f606084860312156113c6575f80fd5b8351925060208401516113d881611146565b80925050604084015190509250925092565b6020808252600990820152683737ba1037bbb732b960b91b604082015260600190565b600181811c9082168061142157607f821691505b60208210810361143f57634e487b7160e01b5f52602260045260245ffd5b50919050565b634e487b7160e01b5f52604160045260245ffd5b601f821115610e43575f81815260208120601f850160051c8101602086101561147f5750805b601f850160051c820191505b8181101561149e5782815560010161148b565b505050505050565b815167ffffffffffffffff8111156114c0576114c0611445565b6114d4816114ce845461140d565b84611459565b602080601f831160018114611507575f84156114f05750858301515b5f19600386901b1c1916600185901b17855561149e565b5f85815260208120601f198616915b8281101561153557888601518255948401946001909101908401611516565b508582101561155257878501515f19600388901b60f8161c191681555b5050505050600190811b01905550565b81835281816020850137505f828201602090810191909152601f909101601f19169091010190565b604081525f61159d604083018587611562565b905060018060a01b0383166020830152949350505050565b634e487b7160e01b5f52601160045260245ffd5b80820281158282048414176110e2576110e26115b5565b604081525f6115f3604083018587611562565b9050826020830152949350505050565b5f60208284031215611613575f80fd5b81518015158114610cef575f80fd5b818103818111156110e2576110e26115b5565b67ffffffffffffffff83111561164d5761164d611445565b6116618361165b835461140d565b83611459565b5f601f841160018114611692575f851561167b5750838201355b5f19600387901b1c1916600186901b1783556116ea565b5f83815260209020601f19861690835b828110156116c257868501358255602094850194600190920191016116a2565b50868210156116de575f1960f88860031b161c19848701351681555b505060018560011b0183555b5050505050565b808201808211156110e2576110e26115b5565b60ff82811682821603908111156110e2576110e26115b5565b600181815b8085111561175757815f190482111561173d5761173d6115b5565b8085161561174a57918102915b93841c9390800290611722565b509250929050565b5f8261176d575060016110e2565b8161177957505f6110e2565b816001811461178f5760028114611799576117b5565b60019150506110e2565b60ff8411156117aa576117aa6115b5565b50506001821b6110e2565b5060208310610133831016604e8410600b84101617156117d8575081810a6110e2565b6117e2838361171d565b805f19048211156117f5576117f56115b5565b029392505050565b5f6110df60ff84168361175f565b5f8261182557634e487b7160e01b5f52601260045260245ffd5b50049056fea2646970667358221220355c51c30ac3c013054460f88693f51604932ee52bc21b8642419a9f733939e364736f6c63430008150033",
  "immutableReferences": {},
  "source": "// SPDX-License-Identifier: MIT\npragma solidity ^0.8.21;\n\n/**\n * MedicalRecordVaultXRPL (Coston2 / Flare EVM)\n * --------------------------------------------\n * - OPEN uploads and reads (no ACL). Patient / pediatric psychologist / anyone can use it.\n * - Every upload REQUIRES an XRPL payment proved by FDC; amount (drops) must cover USD fee via FTSO.\n * - Per-patient \"Insurer Portal\" metadata (xrplAccount, contact) for UI  does NOT gate anything.\n * - Only encrypted pointers (hash/CID/URI) are stored on-chain. No PII.\n *\n * Off-chain tip: derive patientId = keccak256(abi.encodePacked(MRN, \"|\", salt)).\n */\n\ninterface IFDC {\n    /// Verifies an XRPL payment proof tied to a statementId.\n    function verify(bytes calldata proof, bytes32 statementId) external view returns (bool);\n}\n\ninterface IFTSO {\n    /// Returns (XRP price in USD with `decimals`, decimals, timestamp)\n    function getXRPUSDPrice() external view returns (uint256 price, uint8 decimals, uint256 timestamp);\n}\n\ncontract MedicalRecordVaultXRPL {\n    /*  Types  */\n    enum DocKind { Diagnosis, Referral, Intake } // 0,1,2\n\n    struct DocMeta {\n        string  hashURI;        // encrypted pointer (IPFS/S3/etc.)\n        uint256 version;        // increments on each upload\n        uint256 updatedAt;      // unix timestamp\n\n        // Payment trace (XRPL path)\n        bytes32 paymentProof;   // proof id / hash attested by FDC\n        uint256 paidDrops;      // XRP drops paid (attested)\n        uint256 paidUSDc;       // kept 0 (we price via FTSO), kept for compatibility\n        bytes32 currencyHash;   // unused for XRP-only path (0)\n    }\n\n    struct RecordSet {\n        mapping(uint8 => DocMeta) docs;\n        // Optional metadata (NOT used for permissionspurely informational)\n        address guardian;\n        address pediatricPsychologist;\n    }\n\n    /// Per-patient Insurer Portal metadata (purely informational)\n    struct InsurerInfo { \n        string  xrplAccount;    // XRPL classic/X-address for display, memos, etc.\n        address contact;        // EVM contact (insurer ops wallet, optional)\n    }\n\n    /*  Events  */\n    event DocumentUploaded(bytes32 indexed patientId, uint8 indexed kind, string hashURI, uint256 version);\n    event DocumentRead(bytes32 indexed patientId, uint8 indexed kind, address accessor);\n\n    event UploadPaidXRPLXRP(\n        bytes32 indexed patientId,\n        uint8   indexed kind,\n        uint256 version,\n        uint256 paidDrops,\n        bytes32 proofHash\n    );\n\n    event FtsoSet(address indexed ftso);\n    event FdcSet(address indexed fdc);\n    event OracleStalenessUpdated(uint256 seconds_);\n    event FeesUpdated(uint256 feeUSDc);\n\n    // Insurer portal metadata events\n    event InsurerInfoSet(bytes32 indexed patientId, string xrplAccount, address contact);\n\n    /*  Ownership (for parameters only)  */\n    address public owner;\n    modifier onlyOwner() { require(msg.sender == owner, \"not owner\"); _; }\n\n    constructor() {\n        owner = msg.sender;\n    }\n\n    function transferOwnership(address newOwner) external onlyOwner {\n        require(newOwner != address(0), \"zero owner\");\n        owner = newOwner;\n    }\n\n    /*  Storage  */\n    mapping(bytes32 => RecordSet) private records;        // per-patient\n    mapping(bytes32 => mapping(uint8 => uint256)) public paidVersion; // patientId => kind => paid version\n\n    // Per-patient insurer portal metadata (NOT used for gating)\n    mapping(bytes32 => InsurerInfo) private insurerInfoOf;\n\n    // Pricing/oracle\n    IFDC  public fdc;\n    IFTSO public ftso;\n    uint256 public uploadFeeUSDc = 500;           // $5.00 in USD cents\n    uint256 public maxOracleStaleness = 10 minutes;\n\n    /*  Admin (parameters / optional metadata)  */\n    function setFDC(address verifier) external onlyOwner {\n        fdc = IFDC(verifier);\n        emit FdcSet(verifier);\n    }\n\n    function setFTSO(address oracle) external onlyOwner {\n        ftso = IFTSO(oracle);\n        emit FtsoSet(oracle);\n    }\n\n    function setMaxOracleStaleness(uint256 seconds_) external onlyOwner {\n        maxOracleStaleness = seconds_;\n        emit OracleStalenessUpdated(seconds_);\n    }\n\n    function setUploadFeeUSDc(uint256 feeUSDc) external onlyOwner {\n        uploadFeeUSDc = feeUSDc;\n        emit FeesUpdated(feeUSDc);\n    }\n\n    // Optional: purely informational tags for UI; NOT access control\n    function setGuardian(bytes32 patientId, address guardian_) external onlyOwner {\n        records[patientId].guardian = guardian_;\n    }\n\n    function setPediatricPsychologist(bytes32 patientId, address psychologist) external onlyOwner {\n        records[patientId].pediatricPsychologist = psychologist;\n    }\n\n    /*  Insurer Portal (metadata only)  */\n\n    /// Set per-patient insurer portal metadata (XRPL account string + EVM contact).\n    /// Owner-only to keep registry clean; change to guardian/owner if you prefer.\n    function setInsurerInfo(bytes32 patientId, string calldata xrplAccount, address contact) external onlyOwner {\n        insurerInfoOf[patientId] = InsurerInfo({ xrplAccount: xrplAccount, contact: contact });\n        emit InsurerInfoSet(patientId, xrplAccount, contact);\n    }\n\n    /// Read per-patient insurer portal metadata (for the frontend).\n    function getInsurerInfo(bytes32 patientId) external view returns (string memory xrplAccount, address contact) {\n        InsurerInfo storage i = insurerInfoOf[patientId];\n        return (i.xrplAccount, i.contact);\n    }\n\n    /*  UPLOAD (XRP proof required)  */\n\n    /// Single upload path: XRPL payment proof via FDC; amount in drops must cover USD fee via FTSO.\n    /// OPEN to anyone; no role checks.\n    function uploadDocumentXRP(\n        bytes32 patientId,\n        uint8   kind,              // 0/1/2\n        string calldata hashURI,   // encrypted pointer\n        bytes  calldata xrplProof, // opaque proof verified by FDC\n        bytes32 statementId,       // context-bound statement id\n        bytes32 proofId,           // identifier for logging\n        uint256 xrplPaidDrops      // amount paid (drops), attested by FDC off-chain\n    ) external {\n        _requireFdcAndFtso();\n        _verifyFDC(xrplProof, statementId);\n\n        // Enforce that XRPL payment in drops covers current USD fee.\n        uint256 requiredDrops = _requiredDrops();\n        require(xrplPaidDrops >= requiredDrops, \"XRP payment too small\");\n\n        // Write document and mark paid\n        _writeDoc(patientId, kind, hashURI);\n        DocMeta storage d = records[patientId].docs[kind];\n        paidVersion[patientId][kind] = d.version;\n        d.paymentProof = proofId;\n        d.paidDrops    = xrplPaidDrops;\n        d.paidUSDc     = 0;\n        d.currencyHash = bytes32(0);\n\n        emit UploadPaidXRPLXRP(patientId, kind, d.version, xrplPaidDrops, proofId);\n    }\n\n    /*  READ (open; requires paid)  */\n\n    function getDocument(bytes32 patientId, uint8 kind)\n        external\n        returns (string memory, uint256, uint256, bytes32)\n    {\n        require(kind <= uint8(DocKind.Intake), \"bad kind\");\n        DocMeta storage d = records[patientId].docs[kind];\n        require(d.version > 0 && paidVersion[patientId][kind] >= d.version, \"unpaid or empty\");\n        emit DocumentRead(patientId, kind, msg.sender);\n        return (d.hashURI, d.version, d.updatedAt, d.paymentProof);\n    }\n\n    /*  Views  */\n\n    function getDocMeta(bytes32 patientId, uint8 kind)\n        external\n        view\n        returns (string memory hashURI, uint256 version, uint256 updatedAt, bytes32 paymentProof, uint256 paidUSDc, uint256 paidDrops, bytes32 currencyHash)\n    {\n        DocMeta storage d = records[patientId].docs[kind];\n        return (d.hashURI, d.version, d.updatedAt, d.paymentProof, d.paidUSDc, d.paidDrops, d.currencyHash);\n    }\n\n    function requiredXrpDrops()\n        external\n        view\n        returns (uint256 drops, uint256 price, uint8 decimals, uint256 timestamp)\n    {\n        require(address(ftso) != address(0), \"FTSO not set\");\n        (uint256 px, uint8 dec, uint256 ts) = ftso.getXRPUSDPrice();\n        require(px > 0, \"oracle price=0\");\n        return (_requiredXrpDropsFromUSDc(uploadFeeUSDc, px, dec), px, dec, ts);\n    }\n\n    /*  Internals  */\n\n    function _requireFdcAndFtso() internal view {\n        require(address(fdc) != address(0), \"FDC not set\");\n        require(address(ftso) != address(0), \"FTSO not set\");\n    }\n\n    function _verifyFDC(bytes calldata xrplProof, bytes32 statementId) internal view {\n        require(fdc.verify(xrplProof, statementId), \"invalid XRPL payment proof\");\n    }\n\n    function _writeDoc(bytes32 patientId, uint8 kind, string calldata hashURI) internal {\n        require(kind <= uint8(DocKind.Intake), \"bad kind\");\n        DocMeta storage d = records[patientId].docs[kind];\n        d.hashURI  = hashURI;\n        d.version += 1;\n        d.updatedAt = block.timestamp;\n        emit DocumentUploaded(patientId, kind, hashURI, d.version);\n    }\n\n    function _requiredDrops() internal view returns (uint256) {\n        (uint256 px, uint8 dec, uint256 ts) = ftso.getXRPUSDPrice(); // USD per XRP\n        require(px > 0, \"oracle price=0\");\n        require(block.timestamp >= ts && block.timestamp - ts <= maxOracleStaleness, \"price stale\");\n        return _requiredXrpDropsFromUSDc(uploadFeeUSDc, px, dec);\n    }\n\n    /*  Math helpers  */\n\n    function _requiredXrpDropsFromUSDc(uint256 feeUSDc, uint256 price, uint8 priceDecimals) internal pure returns (uint256) {\n        // USD cents -> 18-dec USD\n        uint256 usdWad   = feeUSDc * 1e16;                    // $1.00 => 1e18\n        uint256 priceWad = _scaleDecimals(price, priceDecimals, 18); // USD per XRP in 18d\n        // required XRP (WAD) = ceil(usdWad / priceWad)\n        uint256 xrpWad   = _ceilDiv(usdWad * 1e18, priceWad);\n        // Convert XRP (18d) to drops: 1 XRP = 1e6 drops => 18 - 6 = 12\n        return _ceilDiv(xrpWad, 1e12);\n    }\n\n    function _scaleDecimals(uint256 x, uint8 fromDec, uint8 toDec) internal pure returns (uint256) {\n        if (fromDec == toDec) return x;\n        return (fromDec < toDec)\n            ? x * (10 ** (toDec - fromDec))\n            : x / (10 ** (fromDec - toDec));\n    }\n\n    function _ceilDiv(uint256 a, uint256 b) internal pure returns (uint256) {\n        return a == 0 ? 0 : 1 + ((a - 1) / b);\n    }\n}\n",
  "sourcePath": "/usr/Flare-x-XRPL-Hackathon/contracts/MedicalRecordVault.sol",
  "compiler": {
    "name": "solc",
    "version": "0.8.21+commit.d9974bed.Emscripten.clang"
  },
  "schemaVersion": "3.4.16",
  "updatedAt": "2025-09-21T09:30:54.004Z",
  "devdoc": {
    "kind": "dev",
    "methods": {},
    "version": 1
  },
  "userdoc": {
    "kind": "user",
    "methods": {
      "getInsurerInfo(bytes32)": {
        "notice": "Read per-patient insurer portal metadata (for the frontend)."
      },
      "setInsurerInfo(bytes32,string,address)": {
        "notice": "Set per-patient insurer portal metadata (XRPL account string + EVM contact). Owner-only to keep registry clean; change to guardian/owner if you prefer."
      },
      "uploadDocumentXRP(bytes32,uint8,string,bytes,bytes32,bytes32,uint256)": {
        "notice": "Single upload path: XRPL payment proof via FDC; amount in drops must cover USD fee via FTSO. OPEN to anyone; no role checks."
      }
    },
    "version": 1
  }
}