{
  "contractName": "MedicalRecordVaultXRPL",
  "abi": [
    {
      "inputs": [],
      "stateMutability": "nonpayable",
      "type": "constructor"
    },
    {
      "anonymous": false,
      "inputs": [
        {
          "indexed": true,
          "internalType": "bytes32",
          "name": "patientId",
          "type": "bytes32"
        },
        {
          "indexed": true,
          "internalType": "address",
          "name": "insurer",
          "type": "address"
        },
        {
          "indexed": false,
          "internalType": "uint256",
          "name": "amount",
          "type": "uint256"
        }
      ],
      "name": "Deposit",
      "type": "event"
    },
    {
      "anonymous": false,
      "inputs": [
        {
          "indexed": true,
          "internalType": "bytes32",
          "name": "patientId",
          "type": "bytes32"
        },
        {
          "indexed": true,
          "internalType": "uint8",
          "name": "kind",
          "type": "uint8"
        },
        {
          "indexed": false,
          "internalType": "address",
          "name": "accessor",
          "type": "address"
        }
      ],
      "name": "DocumentRead",
      "type": "event"
    },
    {
      "anonymous": false,
      "inputs": [
        {
          "indexed": true,
          "internalType": "bytes32",
          "name": "patientId",
          "type": "bytes32"
        },
        {
          "indexed": true,
          "internalType": "uint8",
          "name": "kind",
          "type": "uint8"
        },
        {
          "indexed": false,
          "internalType": "string",
          "name": "hashURI",
          "type": "string"
        },
        {
          "indexed": false,
          "internalType": "uint256",
          "name": "version",
          "type": "uint256"
        }
      ],
      "name": "DocumentUploaded",
      "type": "event"
    },
    {
      "anonymous": false,
      "inputs": [
        {
          "indexed": true,
          "internalType": "address",
          "name": "fdc",
          "type": "address"
        }
      ],
      "name": "FdcSet",
      "type": "event"
    },
    {
      "anonymous": false,
      "inputs": [
        {
          "indexed": false,
          "internalType": "uint256",
          "name": "feeWei",
          "type": "uint256"
        },
        {
          "indexed": false,
          "internalType": "uint256",
          "name": "feeUSDc",
          "type": "uint256"
        },
        {
          "indexed": false,
          "internalType": "address",
          "name": "collector",
          "type": "address"
        }
      ],
      "name": "FeesUpdated",
      "type": "event"
    },
    {
      "anonymous": false,
      "inputs": [
        {
          "indexed": true,
          "internalType": "address",
          "name": "ftso",
          "type": "address"
        }
      ],
      "name": "FtsoSet",
      "type": "event"
    },
    {
      "anonymous": false,
      "inputs": [
        {
          "indexed": true,
          "internalType": "bytes32",
          "name": "patientId",
          "type": "bytes32"
        },
        {
          "indexed": true,
          "internalType": "address",
          "name": "guardian",
          "type": "address"
        }
      ],
      "name": "GuardianSet",
      "type": "event"
    },
    {
      "anonymous": false,
      "inputs": [
        {
          "indexed": true,
          "internalType": "bytes32",
          "name": "patientId",
          "type": "bytes32"
        },
        {
          "indexed": true,
          "internalType": "address",
          "name": "insurer",
          "type": "address"
        }
      ],
      "name": "InsurerSet",
      "type": "event"
    },
    {
      "anonymous": false,
      "inputs": [
        {
          "indexed": false,
          "internalType": "uint256",
          "name": "price",
          "type": "uint256"
        },
        {
          "indexed": false,
          "internalType": "uint8",
          "name": "decimals",
          "type": "uint8"
        },
        {
          "indexed": false,
          "internalType": "uint256",
          "name": "timestamp",
          "type": "uint256"
        }
      ],
      "name": "OracleParams",
      "type": "event"
    },
    {
      "anonymous": false,
      "inputs": [
        {
          "indexed": false,
          "internalType": "uint256",
          "name": "maxStalenessSeconds",
          "type": "uint256"
        }
      ],
      "name": "OracleStalenessUpdated",
      "type": "event"
    },
    {
      "anonymous": false,
      "inputs": [
        {
          "indexed": true,
          "internalType": "bytes32",
          "name": "patientId",
          "type": "bytes32"
        },
        {
          "indexed": true,
          "internalType": "address",
          "name": "patient",
          "type": "address"
        }
      ],
      "name": "PatientSet",
      "type": "event"
    },
    {
      "anonymous": false,
      "inputs": [
        {
          "indexed": true,
          "internalType": "bytes32",
          "name": "patientId",
          "type": "bytes32"
        },
        {
          "indexed": false,
          "internalType": "bool",
          "name": "enabled",
          "type": "bool"
        }
      ],
      "name": "PatientUploadEnabled",
      "type": "event"
    },
    {
      "anonymous": false,
      "inputs": [
        {
          "indexed": true,
          "internalType": "bytes32",
          "name": "patientId",
          "type": "bytes32"
        },
        {
          "indexed": true,
          "internalType": "address",
          "name": "psychologist",
          "type": "address"
        }
      ],
      "name": "PsychologistSet",
      "type": "event"
    },
    {
      "anonymous": false,
      "inputs": [
        {
          "indexed": true,
          "internalType": "bytes32",
          "name": "patientId",
          "type": "bytes32"
        },
        {
          "indexed": true,
          "internalType": "address",
          "name": "who",
          "type": "address"
        },
        {
          "indexed": false,
          "internalType": "bool",
          "name": "allowed",
          "type": "bool"
        }
      ],
      "name": "ReadAccessGranted",
      "type": "event"
    },
    {
      "anonymous": false,
      "inputs": [
        {
          "indexed": true,
          "internalType": "bytes32",
          "name": "patientId",
          "type": "bytes32"
        },
        {
          "indexed": true,
          "internalType": "uint8",
          "name": "kind",
          "type": "uint8"
        },
        {
          "indexed": true,
          "internalType": "address",
          "name": "insurer",
          "type": "address"
        },
        {
          "indexed": false,
          "internalType": "uint256",
          "name": "version",
          "type": "uint256"
        },
        {
          "indexed": false,
          "internalType": "uint256",
          "name": "amountWei",
          "type": "uint256"
        }
      ],
      "name": "UploadPaidFLR",
      "type": "event"
    },
    {
      "anonymous": false,
      "inputs": [
        {
          "indexed": true,
          "internalType": "bytes32",
          "name": "patientId",
          "type": "bytes32"
        },
        {
          "indexed": true,
          "internalType": "uint8",
          "name": "kind",
          "type": "uint8"
        },
        {
          "indexed": true,
          "internalType": "address",
          "name": "insurer",
          "type": "address"
        },
        {
          "indexed": false,
          "internalType": "uint256",
          "name": "version",
          "type": "uint256"
        },
        {
          "indexed": false,
          "internalType": "uint256",
          "name": "paidUSDc",
          "type": "uint256"
        },
        {
          "indexed": false,
          "internalType": "bytes32",
          "name": "proofHash",
          "type": "bytes32"
        },
        {
          "indexed": false,
          "internalType": "bytes32",
          "name": "currencyHash",
          "type": "bytes32"
        }
      ],
      "name": "UploadPaidXRPLAny",
      "type": "event"
    },
    {
      "anonymous": false,
      "inputs": [
        {
          "indexed": true,
          "internalType": "bytes32",
          "name": "patientId",
          "type": "bytes32"
        },
        {
          "indexed": true,
          "internalType": "uint8",
          "name": "kind",
          "type": "uint8"
        },
        {
          "indexed": true,
          "internalType": "address",
          "name": "insurer",
          "type": "address"
        },
        {
          "indexed": false,
          "internalType": "uint256",
          "name": "version",
          "type": "uint256"
        },
        {
          "indexed": false,
          "internalType": "uint256",
          "name": "paidDrops",
          "type": "uint256"
        },
        {
          "indexed": false,
          "internalType": "bytes32",
          "name": "proofHash",
          "type": "bytes32"
        }
      ],
      "name": "UploadPaidXRPLXRP",
      "type": "event"
    },
    {
      "anonymous": false,
      "inputs": [
        {
          "indexed": true,
          "internalType": "address",
          "name": "to",
          "type": "address"
        },
        {
          "indexed": false,
          "internalType": "uint256",
          "name": "amount",
          "type": "uint256"
        }
      ],
      "name": "Withdraw",
      "type": "event"
    },
    {
      "inputs": [
        {
          "internalType": "bytes32",
          "name": "",
          "type": "bytes32"
        },
        {
          "internalType": "address",
          "name": "",
          "type": "address"
        }
      ],
      "name": "canRead",
      "outputs": [
        {
          "internalType": "bool",
          "name": "",
          "type": "bool"
        }
      ],
      "stateMutability": "view",
      "type": "function"
    },
    {
      "inputs": [],
      "name": "fdc",
      "outputs": [
        {
          "internalType": "contract IFDC",
          "name": "",
          "type": "address"
        }
      ],
      "stateMutability": "view",
      "type": "function"
    },
    {
      "inputs": [],
      "name": "feeCollector",
      "outputs": [
        {
          "internalType": "address",
          "name": "",
          "type": "address"
        }
      ],
      "stateMutability": "view",
      "type": "function"
    },
    {
      "inputs": [],
      "name": "ftso",
      "outputs": [
        {
          "internalType": "contract IFTSO",
          "name": "",
          "type": "address"
        }
      ],
      "stateMutability": "view",
      "type": "function"
    },
    {
      "inputs": [
        {
          "internalType": "address",
          "name": "",
          "type": "address"
        }
      ],
      "name": "insurerBalances",
      "outputs": [
        {
          "internalType": "uint256",
          "name": "",
          "type": "uint256"
        }
      ],
      "stateMutability": "view",
      "type": "function"
    },
    {
      "inputs": [
        {
          "internalType": "bytes32",
          "name": "",
          "type": "bytes32"
        }
      ],
      "name": "insurerOf",
      "outputs": [
        {
          "internalType": "address",
          "name": "",
          "type": "address"
        }
      ],
      "stateMutability": "view",
      "type": "function"
    },
    {
      "inputs": [],
      "name": "maxOracleStaleness",
      "outputs": [
        {
          "internalType": "uint256",
          "name": "",
          "type": "uint256"
        }
      ],
      "stateMutability": "view",
      "type": "function"
    },
    {
      "inputs": [],
      "name": "owner",
      "outputs": [
        {
          "internalType": "address",
          "name": "",
          "type": "address"
        }
      ],
      "stateMutability": "view",
      "type": "function"
    },
    {
      "inputs": [
        {
          "internalType": "bytes32",
          "name": "",
          "type": "bytes32"
        },
        {
          "internalType": "uint8",
          "name": "",
          "type": "uint8"
        }
      ],
      "name": "paidVersion",
      "outputs": [
        {
          "internalType": "uint256",
          "name": "",
          "type": "uint256"
        }
      ],
      "stateMutability": "view",
      "type": "function"
    },
    {
      "inputs": [],
      "name": "uploadFeeUSDc",
      "outputs": [
        {
          "internalType": "uint256",
          "name": "",
          "type": "uint256"
        }
      ],
      "stateMutability": "view",
      "type": "function"
    },
    {
      "inputs": [],
      "name": "uploadFeeWei",
      "outputs": [
        {
          "internalType": "uint256",
          "name": "",
          "type": "uint256"
        }
      ],
      "stateMutability": "view",
      "type": "function"
    },
    {
      "stateMutability": "payable",
      "type": "receive"
    },
    {
      "inputs": [
        {
          "internalType": "address",
          "name": "newOwner",
          "type": "address"
        }
      ],
      "name": "transferOwnership",
      "outputs": [],
      "stateMutability": "nonpayable",
      "type": "function"
    },
    {
      "inputs": [
        {
          "internalType": "bytes32",
          "name": "patientId",
          "type": "bytes32"
        },
        {
          "internalType": "address",
          "name": "guardian_",
          "type": "address"
        }
      ],
      "name": "setGuardian",
      "outputs": [],
      "stateMutability": "nonpayable",
      "type": "function"
    },
    {
      "inputs": [
        {
          "internalType": "bytes32",
          "name": "patientId",
          "type": "bytes32"
        },
        {
          "internalType": "address",
          "name": "psychologist",
          "type": "address"
        }
      ],
      "name": "setPediatricPsychologist",
      "outputs": [],
      "stateMutability": "nonpayable",
      "type": "function"
    },
    {
      "inputs": [
        {
          "internalType": "bytes32",
          "name": "patientId",
          "type": "bytes32"
        },
        {
          "internalType": "address",
          "name": "insurer",
          "type": "address"
        }
      ],
      "name": "setInsurer",
      "outputs": [],
      "stateMutability": "nonpayable",
      "type": "function"
    },
    {
      "inputs": [
        {
          "internalType": "bytes32",
          "name": "patientId",
          "type": "bytes32"
        },
        {
          "internalType": "address",
          "name": "patient",
          "type": "address"
        }
      ],
      "name": "setPatient",
      "outputs": [],
      "stateMutability": "nonpayable",
      "type": "function"
    },
    {
      "inputs": [
        {
          "internalType": "bytes32",
          "name": "patientId",
          "type": "bytes32"
        },
        {
          "internalType": "bool",
          "name": "enabled",
          "type": "bool"
        }
      ],
      "name": "enablePatientUpload",
      "outputs": [],
      "stateMutability": "nonpayable",
      "type": "function"
    },
    {
      "inputs": [
        {
          "internalType": "bytes32",
          "name": "patientId",
          "type": "bytes32"
        }
      ],
      "name": "registerAsPatient",
      "outputs": [],
      "stateMutability": "nonpayable",
      "type": "function"
    },
    {
      "inputs": [
        {
          "internalType": "bytes32",
          "name": "patientId",
          "type": "bytes32"
        },
        {
          "internalType": "address",
          "name": "who",
          "type": "address"
        },
        {
          "internalType": "bool",
          "name": "allowed",
          "type": "bool"
        }
      ],
      "name": "grantRead",
      "outputs": [],
      "stateMutability": "nonpayable",
      "type": "function"
    },
    {
      "inputs": [
        {
          "internalType": "uint256",
          "name": "feeWei",
          "type": "uint256"
        },
        {
          "internalType": "uint256",
          "name": "feeUSDc_",
          "type": "uint256"
        },
        {
          "internalType": "address",
          "name": "collector",
          "type": "address"
        }
      ],
      "name": "setUploadFees",
      "outputs": [],
      "stateMutability": "nonpayable",
      "type": "function"
    },
    {
      "inputs": [
        {
          "internalType": "address",
          "name": "verifier",
          "type": "address"
        }
      ],
      "name": "setFDC",
      "outputs": [],
      "stateMutability": "nonpayable",
      "type": "function"
    },
    {
      "inputs": [
        {
          "internalType": "address",
          "name": "oracle",
          "type": "address"
        }
      ],
      "name": "setFTSO",
      "outputs": [],
      "stateMutability": "nonpayable",
      "type": "function"
    },
    {
      "inputs": [
        {
          "internalType": "uint256",
          "name": "seconds_",
          "type": "uint256"
        }
      ],
      "name": "setMaxOracleStaleness",
      "outputs": [],
      "stateMutability": "nonpayable",
      "type": "function"
    },
    {
      "inputs": [
        {
          "internalType": "bytes32",
          "name": "patientId",
          "type": "bytes32"
        }
      ],
      "name": "depositFor",
      "outputs": [],
      "stateMutability": "payable",
      "type": "function"
    },
    {
      "inputs": [
        {
          "internalType": "address payable",
          "name": "to",
          "type": "address"
        },
        {
          "internalType": "uint256",
          "name": "amount",
          "type": "uint256"
        }
      ],
      "name": "withdraw",
      "outputs": [],
      "stateMutability": "nonpayable",
      "type": "function"
    },
    {
      "inputs": [
        {
          "internalType": "bytes32",
          "name": "patientId",
          "type": "bytes32"
        },
        {
          "internalType": "uint8",
          "name": "kind",
          "type": "uint8"
        },
        {
          "internalType": "string",
          "name": "hashURI",
          "type": "string"
        }
      ],
      "name": "uploadDocumentDeduct",
      "outputs": [],
      "stateMutability": "nonpayable",
      "type": "function"
    },
    {
      "inputs": [
        {
          "internalType": "bytes32",
          "name": "patientId",
          "type": "bytes32"
        },
        {
          "internalType": "uint8",
          "name": "kind",
          "type": "uint8"
        },
        {
          "internalType": "string",
          "name": "hashURI",
          "type": "string"
        },
        {
          "internalType": "bytes",
          "name": "xrplProof",
          "type": "bytes"
        },
        {
          "internalType": "bytes32",
          "name": "statementId",
          "type": "bytes32"
        },
        {
          "internalType": "bytes32",
          "name": "proofId",
          "type": "bytes32"
        },
        {
          "internalType": "uint256",
          "name": "attestedUSDc",
          "type": "uint256"
        },
        {
          "internalType": "bytes32",
          "name": "currencyHash",
          "type": "bytes32"
        }
      ],
      "name": "uploadDocumentWithXRPLAnyCurrency",
      "outputs": [],
      "stateMutability": "nonpayable",
      "type": "function"
    },
    {
      "inputs": [
        {
          "internalType": "bytes32",
          "name": "patientId",
          "type": "bytes32"
        },
        {
          "internalType": "uint8",
          "name": "kind",
          "type": "uint8"
        },
        {
          "internalType": "string",
          "name": "hashURI",
          "type": "string"
        },
        {
          "internalType": "bytes",
          "name": "xrplProof",
          "type": "bytes"
        },
        {
          "internalType": "bytes32",
          "name": "statementId",
          "type": "bytes32"
        },
        {
          "internalType": "bytes32",
          "name": "proofId",
          "type": "bytes32"
        },
        {
          "internalType": "uint256",
          "name": "xrplPaidDrops",
          "type": "uint256"
        }
      ],
      "name": "uploadDocumentWithXRPProof",
      "outputs": [],
      "stateMutability": "nonpayable",
      "type": "function"
    },
    {
      "inputs": [
        {
          "internalType": "bytes32",
          "name": "patientId",
          "type": "bytes32"
        },
        {
          "internalType": "uint8",
          "name": "kind",
          "type": "uint8"
        }
      ],
      "name": "getDocument",
      "outputs": [
        {
          "internalType": "string",
          "name": "",
          "type": "string"
        },
        {
          "internalType": "uint256",
          "name": "",
          "type": "uint256"
        },
        {
          "internalType": "uint256",
          "name": "",
          "type": "uint256"
        },
        {
          "internalType": "bytes32",
          "name": "",
          "type": "bytes32"
        }
      ],
      "stateMutability": "nonpayable",
      "type": "function"
    },
    {
      "inputs": [
        {
          "internalType": "bytes32",
          "name": "patientId",
          "type": "bytes32"
        },
        {
          "internalType": "uint8",
          "name": "kind",
          "type": "uint8"
        }
      ],
      "name": "getDocMeta",
      "outputs": [
        {
          "internalType": "string",
          "name": "hashURI",
          "type": "string"
        },
        {
          "internalType": "uint256",
          "name": "version",
          "type": "uint256"
        },
        {
          "internalType": "uint256",
          "name": "updatedAt",
          "type": "uint256"
        },
        {
          "internalType": "bytes32",
          "name": "paymentProof",
          "type": "bytes32"
        },
        {
          "internalType": "uint256",
          "name": "paidUSDc",
          "type": "uint256"
        },
        {
          "internalType": "uint256",
          "name": "paidDrops",
          "type": "uint256"
        },
        {
          "internalType": "bytes32",
          "name": "currencyHash",
          "type": "bytes32"
        }
      ],
      "stateMutability": "view",
      "type": "function"
    },
    {
      "inputs": [
        {
          "internalType": "bytes32",
          "name": "patientId",
          "type": "bytes32"
        },
        {
          "internalType": "uint8",
          "name": "kind",
          "type": "uint8"
        }
      ],
      "name": "getDocPayment",
      "outputs": [
        {
          "internalType": "uint256",
          "name": "paidUSDc",
          "type": "uint256"
        },
        {
          "internalType": "uint256",
          "name": "paidDrops",
          "type": "uint256"
        },
        {
          "internalType": "uint256",
          "name": "paidVersion_",
          "type": "uint256"
        },
        {
          "internalType": "bool",
          "name": "flareDeduct",
          "type": "bool"
        }
      ],
      "stateMutability": "view",
      "type": "function"
    },
    {
      "inputs": [
        {
          "internalType": "bytes32",
          "name": "patientId",
          "type": "bytes32"
        }
      ],
      "name": "getRoles",
      "outputs": [
        {
          "internalType": "address",
          "name": "guardian",
          "type": "address"
        },
        {
          "internalType": "address",
          "name": "pediatricPsychologist",
          "type": "address"
        },
        {
          "internalType": "address",
          "name": "insurer",
          "type": "address"
        },
        {
          "internalType": "address",
          "name": "patient",
          "type": "address"
        },
        {
          "internalType": "bool",
          "name": "patientCanUpload",
          "type": "bool"
        }
      ],
      "stateMutability": "view",
      "type": "function"
    },
    {
      "inputs": [
        {
          "internalType": "bytes32",
          "name": "patientId",
          "type": "bytes32"
        },
        {
          "internalType": "address",
          "name": "who",
          "type": "address"
        }
      ],
      "name": "hasRead",
      "outputs": [
        {
          "internalType": "bool",
          "name": "",
          "type": "bool"
        }
      ],
      "stateMutability": "view",
      "type": "function"
    },
    {
      "inputs": [
        {
          "internalType": "bytes32",
          "name": "patientId",
          "type": "bytes32"
        },
        {
          "internalType": "address",
          "name": "who",
          "type": "address"
        }
      ],
      "name": "canUploadForPatient",
      "outputs": [
        {
          "internalType": "bool",
          "name": "",
          "type": "bool"
        }
      ],
      "stateMutability": "view",
      "type": "function"
    },
    {
      "inputs": [
        {
          "internalType": "uint8",
          "name": "kind",
          "type": "uint8"
        }
      ],
      "name": "docKindName",
      "outputs": [
        {
          "internalType": "string",
          "name": "",
          "type": "string"
        }
      ],
      "stateMutability": "pure",
      "type": "function"
    },
    {
      "inputs": [],
      "name": "requiredXrpDrops",
      "outputs": [
        {
          "internalType": "uint256",
          "name": "drops",
          "type": "uint256"
        },
        {
          "internalType": "uint256",
          "name": "price",
          "type": "uint256"
        },
        {
          "internalType": "uint8",
          "name": "decimals",
          "type": "uint8"
        },
        {
          "internalType": "uint256",
          "name": "timestamp",
          "type": "uint256"
        }
      ],
      "stateMutability": "view",
      "type": "function"
    }
  ],
  "bytecode": "0x6080604052655af3107a40006005556101f4600755610258600b55348015610025575f80fd5b505f8054336001600160a01b03199182168117835560068054909216179055612da290819061005390395ff3fe60806040526004361061020a575f3560e01c80638a8d77f211610113578063cd98de851161009d578063ec8a826d1161006d578063ec8a826d14610713578063f2fde38b14610732578063f3fef3a314610751578063f4748bbb14610770578063f4e3d727146107b1575f80fd5b8063cd98de8514610670578063d3674b18146106a9578063d538d665146106c8578063e0362867146106fe575f80fd5b806395820a04116100e357806395820a04146105eb578063971afafd1461060a5780639bf77fb41461061f578063b5574f2414610632578063c415b95c14610651575f80fd5b80638a8d77f21461057a5780638c9d41ce146105995780638da5cb5b146105b8578063935e5485146105d6575f80fd5b8063545cb70f1161019457806362c75cec1161016457806362c75cec146104bc57806370e11c3b146104ee578063748fd8df1461050d578063781404681461052c57806378ea5ec51461055b575f80fd5b8063545cb70f1461043057806358c193601461044f5780635c1dafb61461046e5780635e18441b1461049d575f80fd5b806316a1d8b4116101da57806316a1d8b41461036c5780633275f21c1461038d57806336d9144d146103ac578063434760f7146103e55780634ad938c414610411575f80fd5b80630709f860146102155780630b19b2ee1461025b5780630da0c022146102a7578063116aa52f146102c6575f80fd5b3661021157005b5f80fd5b348015610220575f80fd5b506102296107d0565b6040516102529493929190938452602084019290925260ff166040830152606082015260800190565b60405180910390f35b348015610266575f80fd5b5061028f61027536600461255d565b60026020525f90815260409020546001600160a01b031681565b6040516001600160a01b039091168152602001610252565b3480156102b2575f80fd5b50600a5461028f906001600160a01b031681565b3480156102d1575f80fd5b506103316102e036600461255d565b5f908152600160208181526040808420808401546002808301549085529290952054939092526003909101546001600160a01b03938416949184169392831692811691600160a01b90910460ff1690565b604080516001600160a01b0396871681529486166020860152928516928401929092529092166060820152901515608082015260a001610252565b348015610377575f80fd5b5061038b61038636600461258b565b6108fb565b005b348015610398575f80fd5b5060095461028f906001600160a01b031681565b3480156103b7575f80fd5b506103d76103c63660046125b9565b60046020525f908152604090205481565b604051908152602001610252565b3480156103f0575f80fd5b506104046103ff3660046125e2565b6109c9565b6040516102529190612640565b34801561041c575f80fd5b5061038b61042b36600461258b565b610a74565b34801561043b575f80fd5b5061038b61044a36600461265f565b610b3a565b34801561045a575f80fd5b5061038b6104693660046125b9565b610c18565b348015610479575f80fd5b5061048d61048836600461258b565b610c8a565b6040519015158152602001610252565b3480156104a8575f80fd5b5061048d6104b736600461258b565b610cf7565b3480156104c7575f80fd5b506104db6104d6366004612682565b610d98565b60405161025297969594939291906126a5565b3480156104f9575f80fd5b5061038b6105083660046126e8565b610e91565b348015610518575f80fd5b5061038b610527366004612763565b610f70565b348015610537575f80fd5b5061054b610546366004612682565b6110a0565b6040516102529493929190612808565b348015610566575f80fd5b5061038b6105753660046125b9565b6112da565b348015610585575f80fd5b5061038b61059436600461258b565b61134c565b3480156105a4575f80fd5b5061038b6105b336600461255d565b611415565b3480156105c3575f80fd5b505f5461028f906001600160a01b031681565b3480156105e1575f80fd5b506103d7600b5481565b3480156105f6575f80fd5b5061038b610605366004612836565b611479565b348015610615575f80fd5b506103d760075481565b61038b61062d36600461255d565b611597565b34801561063d575f80fd5b5061038b61064c36600461286a565b6116de565b34801561065c575f80fd5b5060065461028f906001600160a01b031681565b34801561067b575f80fd5b5061048d61068a36600461258b565b600360209081525f928352604080842090915290825290205460ff1681565b3480156106b4575f80fd5b5061038b6106c336600461258b565b6119a0565b3480156106d3575f80fd5b506103d76106e2366004612682565b600860209081525f928352604080842090915290825290205481565b348015610709575f80fd5b506103d760055481565b34801561071e575f80fd5b5061038b61072d36600461255d565b611a6c565b34801561073d575f80fd5b5061038b61074c3660046125b9565b611b8d565b34801561075c575f80fd5b5061038b61076b3660046128c2565b611c1a565b34801561077b575f80fd5b5061078f61078a366004612682565b611d3d565b6040805194855260208501939093529183015215156060820152608001610252565b3480156107bc575f80fd5b5061038b6107cb3660046128ec565b611dac565b600a545f908190819081906001600160a01b03166108245760405162461bcd60e51b815260206004820152600c60248201526b119514d3c81b9bdd081cd95d60a21b60448201526064015b60405180910390fd5b5f805f600a5f9054906101000a90046001600160a01b03166001600160a01b031663d4fdd8726040518163ffffffff1660e01b8152600401606060405180830381865afa158015610877573d5f803e3d5ffd5b505050506040513d601f19601f8201168201806040525081019061089b9190612988565b9250925092505f83116108e15760405162461bcd60e51b815260206004820152600e60248201526d06f7261636c652070726963653d360941b604482015260640161081b565b6108ee6007548484611ecd565b9792965090945092509050565b5f546001600160a01b031633146109245760405162461bcd60e51b815260040161081b906129be565b6001600160a01b03811661096e5760405162461bcd60e51b815260206004820152601160248201527070737963686f6c6f67697374207a65726f60781b604482015260640161081b565b5f8281526001602052604080822060020180546001600160a01b0319166001600160a01b0385169081179091559051909184917f9bf5c7e7f912df9e1794b3fd8e5091ba871a1e082b3d965ad689b6c6982a56829190a35050565b606060ff82166109ff57505060408051808201909152601081526f2234b0b3b737b9b4b9902632ba3a32b960811b602082015290565b5f1960ff831601610a2e575050604080518082019091526008815267149959995c9c985b60c21b602082015290565b60011960ff831601610a5c575050604080518082019091526006815265496e74616b6560d01b602082015290565b60405162461bcd60e51b815260040161081b906129e1565b5f546001600160a01b03163314610a9d5760405162461bcd60e51b815260040161081b906129be565b6001600160a01b038116610ae25760405162461bcd60e51b815260206004820152600c60248201526b696e7375726572207a65726f60a01b604482015260640161081b565b5f8281526002602052604080822080546001600160a01b0319166001600160a01b0385169081179091559051909184917f58759f6892baf88a17d4d0c1f5b3f08758cd8da2f0f826688c424288f3b5cad39190a35050565b5f828152600160208190526040909120015482906001600160a01b0316331480610b6d57505f546001600160a01b031633145b610bae5760405162461bcd60e51b81526020600482015260126024820152713737ba1033bab0b93234b0b717b7bbb732b960711b604482015260640161081b565b5f83815260016020526040908190206003018054841515600160a01b0260ff60a01b199091161790555183907f01fc55d456362d2183c43591988ddcc38e68eef031f87962a8e7281bd153845890610c0b90851515815260200190565b60405180910390a2505050565b5f546001600160a01b03163314610c415760405162461bcd60e51b815260040161081b906129be565b600980546001600160a01b0319166001600160a01b0383169081179091556040517fb13b6897f1078ad5cac6d8c947da22bcddc0cec9601e74d580711a8830a1abf6905f90a250565b5f80546001600160a01b0383811691161480610cc257505f83815260016020819052604090912001546001600160a01b038381169116145b80610cee57505f8381526003602090815260408083206001600160a01b038616845290915290205460ff165b90505b92915050565b5f80546001600160a01b0390811690831603610d1557506001610cf1565b5f838152600160205260409020600201546001600160a01b0390811690831603610d4157506001610cf1565b5f83815260016020526040902060030154600160a01b900460ff168015610d8357505f838152600160205260409020600301546001600160a01b038381169116145b15610d9057506001610cf1565b505f92915050565b60605f805f805f805f60015f8b81526020019081526020015f205f015f8a60ff1660ff1681526020019081526020015f209050805f01816001015482600201548360030154846005015485600401548660060154868054610df890612a03565b80601f0160208091040260200160405190810160405280929190818152602001828054610e2490612a03565b8015610e6f5780601f10610e4657610100808354040283529160200191610e6f565b820191905f5260205f20905b815481529060010190602001808311610e5257829003601f168201915b5050505050965097509750975097509750975097505092959891949750929550565b5f546001600160a01b03163314610eba5760405162461bcd60e51b815260040161081b906129be565b6001600160a01b038116610f015760405162461bcd60e51b815260206004820152600e60248201526d636f6c6c6563746f72207a65726f60901b604482015260640161081b565b60058390556007829055600680546001600160a01b0319166001600160a01b0383169081179091556040805185815260208101859052908101919091527f660e7095066fd91b05cfad0851f3cefa62b4a62de319c3c13ef7db8982e785019060600160405180910390a1505050565b5f8a8152600160205260408120600301548b913391600160a01b900460ff168015610fb657505f838152600160205260409020600301546001600160a01b038381169116145b5f549091506001600160a01b0383811691161480610fef57505f838152600160205260409020600201546001600160a01b038381169116145b80610ff75750805b6110135760405162461bcd60e51b815260040161081b90612a3b565b61101b611f2b565b611026898989611f73565b6007548510156110785760405162461bcd60e51b815260206004820152601960248201527f555344206174746573746174696f6e20746f6f20736d616c6c00000000000000604482015260640161081b565b6110848d8d8d8d612037565b6110918d8d88888861219e565b50505050505050505050505050565b5f80546060919081908190869033906001600160a01b03168114806110e157505f82815260016020819052604090912001546001600160a01b038281169116145b8061110d57505f8281526003602090815260408083206001600160a01b038516845290915290205460ff165b6111475760405162461bcd60e51b815260206004820152600b60248201526a1b9bdd08185b1b1bddd95960aa1b604482015260640161081b565b600260ff8816111561116b5760405162461bcd60e51b815260040161081b906129e1565b5f88815260016020818152604080842060ff8c16808652908352818520938401548d8652600884528286209186529252909220549091118015906111b257505f8160010154115b6111f05760405162461bcd60e51b815260206004820152600f60248201526e756e70616964206f7220656d70747960881b604482015260640161081b565b60405133815260ff8916908a907f074f075979d9759e37d7ae44786a6bc14281a51cd89a11a7efe7d94b8d98cb929060200160405180910390a3805f0181600101548260020154836003015483805461124890612a03565b80601f016020809104026020016040519081016040528092919081815260200182805461127490612a03565b80156112bf5780601f10611296576101008083540402835291602001916112bf565b820191905f5260205f20905b8154815290600101906020018083116112a257829003601f168201915b50505050509350965096509650965050505092959194509250565b5f546001600160a01b031633146113035760405162461bcd60e51b815260040161081b906129be565b600a80546001600160a01b0319166001600160a01b0383169081179091556040517f78bf9ee573ab4ba0b227ab30e4d583f41e8312c1d584c36833c12d40e56d4364905f90a250565b5f546001600160a01b031633146113755760405162461bcd60e51b815260040161081b906129be565b6001600160a01b0381166113ba5760405162461bcd60e51b815260206004820152600c60248201526b70617469656e74207a65726f60a01b604482015260640161081b565b5f8281526001602052604080822060030180546001600160a01b0319166001600160a01b0385169081179091559051909184917f0488f515de5e4711cf36d202c3963f79af2031d6e54583f0d17dd9b475ca96d29190a35050565b5f546001600160a01b0316331461143e5760405162461bcd60e51b815260040161081b906129be565b600b8190556040518181527f6b25cf17c118911f118f91dff57adc2ad6e5ecee484181db518ddc86b9f6276b9060200160405180910390a150565b5f838152600160208190526040909120015483906001600160a01b03163314806114ac57505f546001600160a01b031633145b6114ed5760405162461bcd60e51b81526020600482015260126024820152713737ba1033bab0b93234b0b717b7bbb732b960711b604482015260640161081b565b6001600160a01b03831661152c5760405162461bcd60e51b815260040161081b906020808252600490820152637a65726f60e01b604082015260600190565b5f8481526003602090815260408083206001600160a01b03871680855290835292819020805460ff1916861515908117909155905190815286917fc17c5ee9c0cd27e2f22075876524827ee7b6efe1ebbbd8ca7b87efd3a721da1f910160405180910390a350505050565b5f818152600260205260409020546001600160a01b0316806115ed5760405162461bcd60e51b815260206004820152600f60248201526e1a5b9cdd5c995c881b9bdd081cd95d608a1b604482015260640161081b565b336001600160a01b038216146116345760405162461bcd60e51b815260206004820152600c60248201526b37b7363c9034b739bab932b960a11b604482015260640161081b565b5f341161166e5760405162461bcd60e51b81526020600482015260086024820152676e6f2076616c756560c01b604482015260640161081b565b6001600160a01b0381165f9081526004602052604081208054349290611695908490612a86565b90915550506040513481526001600160a01b0382169083907f182fa52899142d44ff5c45a6354d3b3e868d5b07db6a65580b39bd321bdaf8ac9060200160405180910390a35050565b5f8481526001602052604081206003015485913391600160a01b900460ff16801561172457505f838152600160205260409020600301546001600160a01b038381169116145b5f549091506001600160a01b038381169116148061175d57505f838152600160205260409020600201546001600160a01b038381169116145b806117655750805b6117815760405162461bcd60e51b815260040161081b90612a3b565b61178d87878787612037565b5f878152600260205260409020546001600160a01b0316806117e35760405162461bcd60e51b815260206004820152600f60248201526e1a5b9cdd5c995c881b9bdd081cd95d608a1b604482015260640161081b565b6005546001600160a01b0382165f9081526004602052604090205410156118425760405162461bcd60e51b8152602060048201526013602482015272696e73757265722062616c616e6365206c6f7760681b604482015260640161081b565b600580546001600160a01b038381165f9081526004602052604080822080549490940390935560065493549251909390911691908381818185875af1925050503d805f81146118ac576040519150601f19603f3d011682016040523d82523d5f602084013e6118b1565b606091505b50509050806118f85760405162461bcd60e51b8152602060048201526013602482015272199959481d1c985b9cd9995c8819985a5b1959606a1b604482015260640161081b565b5f89815260016020818152604080842060ff8d16808652908352818520938401548e8652600884528286208287528452828620819055600385018690556004850186905560058086018790556006860196909655945482519586529285019290925291926001600160a01b038616928d917f96c619c6279880ef0bdf34f43a4773c451716b194849307836486cd77717d31b910160405180910390a450505050505050505050565b5f546001600160a01b031633146119c95760405162461bcd60e51b815260040161081b906129be565b6001600160a01b038116611a0f5760405162461bcd60e51b815260206004820152600d60248201526c677561726469616e207a65726f60981b604482015260640161081b565b5f82815260016020819052604080832090910180546001600160a01b0319166001600160a01b0385169081179091559051909184917f8a6e856b2fab550a4c0c3f7a8b9efd3e0326dbb5b5d44a42fba4cb735c181b319190a35050565b5f818152600160205260409020600301546001600160a01b031615611ad35760405162461bcd60e51b815260206004820152601a60248201527f70617469656e7420616c72656164792072656769737465726564000000000000604482015260640161081b565b5f8181526001602081905260409091206003810180546001600160a01b0319163317905501546001600160a01b0316611b5e575f81815260016020818152604092839020600301805460ff60a01b1916600160a01b179055915190815282917f01fc55d456362d2183c43591988ddcc38e68eef031f87962a8e7281bd1538458910160405180910390a25b604051339082907f0488f515de5e4711cf36d202c3963f79af2031d6e54583f0d17dd9b475ca96d2905f90a350565b5f546001600160a01b03163314611bb65760405162461bcd60e51b815260040161081b906129be565b6001600160a01b038116611bf95760405162461bcd60e51b815260206004820152600a6024820152693d32b9379037bbb732b960b11b604482015260640161081b565b5f80546001600160a01b0319166001600160a01b0392909216919091179055565b5f546001600160a01b03163314611c435760405162461bcd60e51b815260040161081b906129be565b6001600160a01b038216611c835760405162461bcd60e51b8152602060048201526007602482015266746f207a65726f60c81b604482015260640161081b565b80471015611cc25760405162461bcd60e51b815260206004820152600c60248201526b1a5b9cdd59999a58da595b9d60a21b604482015260640161081b565b6040516001600160a01b0383169082156108fc029083905f818181858888f19350505050158015611cf5573d5f803e3d5ffd5b50816001600160a01b03167f884edad9ce6fa2440d8a54cc123490eb96d2768479d49ff9c7366125a942436482604051611d3191815260200190565b60405180910390a25050565b5f82815260016020908152604080832060ff851680855290835281842060058101546004820154888752600886528487209387529290945291842054600383015485948594859490939192909190158015611d9b57505f8460010154115b929a91995097509095509350505050565b5f898152600160205260408120600301548a913391600160a01b900460ff168015611df257505f838152600160205260409020600301546001600160a01b038381169116145b5f549091506001600160a01b0383811691161480611e2b57505f838152600160205260409020600201546001600160a01b038381169116145b80611e335750805b611e4f5760405162461bcd60e51b815260040161081b90612a3b565b611e5761225a565b611e62888888611f73565b5f611e6b6122e7565b905080851015611eb55760405162461bcd60e51b8152602060048201526015602482015274161494081c185e5b595b9d081d1bdbc81cdb585b1b605a1b604482015260640161081b565b611ec18d8d8d8d612037565b6110918d8d888861240f565b5f80611ee085662386f26fc10000612a99565b90505f611eef858560126124c3565b90505f611f0d611f0784670de0b6b3a7640000612a99565b83612530565b9050611f1e8164e8d4a51000612530565b93505050505b9392505050565b6009546001600160a01b0316611f715760405162461bcd60e51b815260206004820152600b60248201526a119110c81b9bdd081cd95d60aa1b604482015260640161081b565b565b600954604051636b40634160e01b81526001600160a01b0390911690636b40634190611fa790869086908690600401612ad8565b602060405180830381865afa158015611fc2573d5f803e3d5ffd5b505050506040513d601f19601f82011682018060405250810190611fe69190612afb565b6120325760405162461bcd60e51b815260206004820152601a60248201527f696e76616c6964205852504c207061796d656e742070726f6f66000000000000604482015260640161081b565b505050565b5f84815260016020819052604090912001546001600160a01b031615158061207757505f848152600160205260409020600201546001600160a01b031615155b8061209a57505f848152600160205260409020600301546001600160a01b031615155b6120e65760405162461bcd60e51b815260206004820152601e60248201527f70617469656e74207265636f7264206e6f7420696e697469616c697a65640000604482015260640161081b565b600260ff8416111561210a5760405162461bcd60e51b815260040161081b906129e1565b5f84815260016020908152604080832060ff87168452909152902080612131838583612b77565b506001816001015f8282546121469190612a86565b9091555050426002820155600181015460405160ff86169187917f06f6b1bfeb5b4ec123686e3e99b88f31ea983f9a90ad9ba8bf10f0fb29b47af49161218f9188918891612ad8565b60405180910390a35050505050565b5f85815260016020818152604080842060ff8916808652908352818520938401548a8652600884528286208287528452828620819055600385018990556004850186905560058501889055600685018790558a865260028452948290205482519586529285018790529084018790526060840185905291926001600160a01b03909116919088907ff6c3f8b09e4eb5edebf738a67866ad844c4aa02a23ece7f0fb434f684e78773f9060800160405180910390a4505050505050565b6009546001600160a01b03166122a05760405162461bcd60e51b815260206004820152600b60248201526a119110c81b9bdd081cd95d60aa1b604482015260640161081b565b600a546001600160a01b0316611f715760405162461bcd60e51b815260206004820152600c60248201526b119514d3c81b9bdd081cd95d60a21b604482015260640161081b565b5f805f80600a5f9054906101000a90046001600160a01b03166001600160a01b031663d4fdd8726040518163ffffffff1660e01b8152600401606060405180830381865afa15801561233b573d5f803e3d5ffd5b505050506040513d601f19601f8201168201806040525081019061235f9190612988565b9250925092505f83116123a55760405162461bcd60e51b815260206004820152600e60248201526d06f7261636c652070726963653d360941b604482015260640161081b565b8042101580156123c05750600b546123bd8242612c33565b11155b6123fa5760405162461bcd60e51b815260206004820152600b60248201526a7072696365207374616c6560a81b604482015260640161081b565b6124076007548484611ecd565b935050505090565b5f84815260016020818152604080842060ff88168086529083528185209384015489865260088452828620828752845282862081905560038501889055600485018790556005850186905560068501869055898652600284529482902054825195865292850186905290840186905291926001600160a01b03909116919087907f6f169f2460122d67bd49ad1d3130d3f76c39bf16ce6f4384785da306578f706f9060600160405180910390a45050505050565b5f8160ff168360ff16036124d8575082611f24565b8160ff168360ff1610612509576124ef8284612c46565b6124fa90600a612d3f565b6125049085612d4d565b612528565b6125138383612c46565b61251e90600a612d3f565b6125289085612a99565b949350505050565b5f8215610d905781612543600185612c33565b61254d9190612d4d565b612558906001612a86565b610cee565b5f6020828403121561256d575f80fd5b5035919050565b6001600160a01b0381168114612588575f80fd5b50565b5f806040838503121561259c575f80fd5b8235915060208301356125ae81612574565b809150509250929050565b5f602082840312156125c9575f80fd5b8135611f2481612574565b60ff81168114612588575f80fd5b5f602082840312156125f2575f80fd5b8135611f24816125d4565b5f81518084525f5b8181101561262157602081850181015186830182015201612605565b505f602082860101526020601f19601f83011685010191505092915050565b602081525f610cee60208301846125fd565b8015158114612588575f80fd5b5f8060408385031215612670575f80fd5b8235915060208301356125ae81612652565b5f8060408385031215612693575f80fd5b8235915060208301356125ae816125d4565b60e081525f6126b760e083018a6125fd565b60208301989098525060408101959095526060850193909352608084019190915260a083015260c090910152919050565b5f805f606084860312156126fa575f80fd5b8335925060208401359150604084013561271381612574565b809150509250925092565b5f8083601f84011261272e575f80fd5b50813567ffffffffffffffff811115612745575f80fd5b60208301915083602082850101111561275c575f80fd5b9250929050565b5f805f805f805f805f806101008b8d03121561277d575f80fd5b8a35995060208b013561278f816125d4565b985060408b013567ffffffffffffffff808211156127ab575f80fd5b6127b78e838f0161271e565b909a50985060608d01359150808211156127cf575f80fd5b506127dc8d828e0161271e565b9b9e9a9d50989b979a989960808901359860a0810135985060c0810135975060e0013595509350505050565b608081525f61281a60808301876125fd565b6020830195909552506040810192909252606090910152919050565b5f805f60608486031215612848575f80fd5b83359250602084013561285a81612574565b9150604084013561271381612652565b5f805f806060858703121561287d575f80fd5b84359350602085013561288f816125d4565b9250604085013567ffffffffffffffff8111156128aa575f80fd5b6128b68782880161271e565b95989497509550505050565b5f80604083850312156128d3575f80fd5b82356128de81612574565b946020939093013593505050565b5f805f805f805f805f60e08a8c031215612904575f80fd5b8935985060208a0135612916816125d4565b975060408a013567ffffffffffffffff80821115612932575f80fd5b61293e8d838e0161271e565b909950975060608c0135915080821115612956575f80fd5b506129638c828d0161271e565b9a9d999c50979a9699979860808801359760a0810135975060c0013595509350505050565b5f805f6060848603121561299a575f80fd5b8351925060208401516129ac816125d4565b80925050604084015190509250925092565b6020808252600990820152683737ba1037bbb732b960b91b604082015260600190565b602080825260089082015267189859081ada5b9960c21b604082015260600190565b600181811c90821680612a1757607f821691505b602082108103612a3557634e487b7160e01b5f52602260045260245ffd5b50919050565b60208082526017908201527f6e6f7420617574686f72697a65642075706c6f61646572000000000000000000604082015260600190565b634e487b7160e01b5f52601160045260245ffd5b80820180821115610cf157610cf1612a72565b8082028115828204841417610cf157610cf1612a72565b81835281816020850137505f828201602090810191909152601f909101601f19169091010190565b604081525f612aeb604083018587612ab0565b9050826020830152949350505050565b5f60208284031215612b0b575f80fd5b8151611f2481612652565b634e487b7160e01b5f52604160045260245ffd5b601f821115612032575f81815260208120601f850160051c81016020861015612b505750805b601f850160051c820191505b81811015612b6f57828155600101612b5c565b505050505050565b67ffffffffffffffff831115612b8f57612b8f612b16565b612ba383612b9d8354612a03565b83612b2a565b5f601f841160018114612bd4575f8515612bbd5750838201355b5f19600387901b1c1916600186901b178355612c2c565b5f83815260209020601f19861690835b82811015612c045786850135825560209485019460019092019101612be4565b5086821015612c20575f1960f88860031b161c19848701351681555b505060018560011b0183555b5050505050565b81810381811115610cf157610cf1612a72565b60ff8281168282160390811115610cf157610cf1612a72565b600181815b80851115612c9957815f1904821115612c7f57612c7f612a72565b80851615612c8c57918102915b93841c9390800290612c64565b509250929050565b5f82612caf57506001610cf1565b81612cbb57505f610cf1565b8160018114612cd15760028114612cdb57612cf7565b6001915050610cf1565b60ff841115612cec57612cec612a72565b50506001821b610cf1565b5060208310610133831016604e8410600b8410161715612d1a575081810a610cf1565b612d248383612c5f565b805f1904821115612d3757612d37612a72565b029392505050565b5f610cee60ff841683612ca1565b5f82612d6757634e487b7160e01b5f52601260045260245ffd5b50049056fea2646970667358221220107eab57d863efef3ffe6db5996d8edc4c5e78c63643c96ffacecee5ecb178d064736f6c63430008150033",
  "immutableReferences": {},
  "source": "// SPDX-License-Identifier: MIT\npragma solidity ^0.8.21;\n\n/**\n * MedicalRecordVaultXRPL (Flare EVM)\n * ----------------------------------\n * - Stores ONLY pointers (hash/CID/URI) to off-chain encrypted docs.\n * - Per patientId (bytes32): owner sets guardian, pediatricPsychologist, and insurer.\n * - Guardian grants READ permissions to parties.\n * - Pediatric Psychologist (or owner) uploads documents.\n *\n * Payment options for each upload (choose one):\n *   A) FLR-deduct: insurer deposits native FLR; contract deducts per upload.\n *   B) XRPL any-currency via FDC attestation: verify XRPL payment proof where the\n *      verifier attests the USD value paid (so insurer can pay in XRP or any IOU).\n *   C) (Optional legacy) XRPL + FTSO XRP pricing: verify XRPL proof + price XRP via FTSO.\n *\n * Reads are FREE (view). If you want an on-chain log, call getDocument (emits).\n *\n * SECURITY:\n * - Never store PII on-chain. Derive patientId off-chain (e.g., keccak256(MRN|salt)).\n * - hashURI must point to encrypted content (IPFS/S3) and be encrypted.\n *\n * NOTE:\n * - Refactored with helpers to avoid \"stack too deep\".\n */\n\ninterface IFDC {\n    /// Generic verification of an XRPL payment proof tied to a statement.\n    /// Your FDC implementation should bind `statementId` to the expected payer/beneficiary context.\n    function verify(bytes calldata proof, bytes32 statementId) external view returns (bool);\n}\n\n/// Optional: XRP oracle for XRP-only pricing path\ninterface IFTSO {\n    /// Returns (XRP price in USD with `decimals`, decimals, timestamp)\n    function getXRPUSDPrice() external view returns (uint256 price, uint8 decimals, uint256 timestamp);\n}\n\ncontract MedicalRecordVaultXRPL {\n    /*  Types  */\n    enum DocKind { Diagnosis, Referral, Intake } // 0,1,2\n\n    struct DocMeta {\n        string  hashURI;        // encrypted pointer\n        uint256 version;        // increments per upload\n        uint256 updatedAt;      // unix timestamp\n\n        // Payment trace\n        bytes32 paymentProof;   // XRPL proof id; 0x0 for FLR-deduct\n        uint256 paidDrops;      // For XRP pricing path (B-legacy); 0 for others\n        uint256 paidUSDc;       // For XRPL any-currency path; USD cents attested by FDC\n        bytes32 currencyHash;   // For info (any-currency path): keccak256(currencyCode|issuer)\n    }\n\n    struct RecordSet {\n        mapping(uint8 => DocMeta) docs; // one DocMeta per kind\n        address guardian;               // guardian who grants read permissions\n        address pediatricPsychologist;  // designated uploader (primary)\n        address patient;                // patient who can upload their own documents\n        bool patientCanUpload;          // flag to enable patient self-upload\n    }\n\n    /*  Events  */\n    event GuardianSet(bytes32 indexed patientId, address indexed guardian);\n    event PsychologistSet(bytes32 indexed patientId, address indexed psychologist);\n    event InsurerSet(bytes32 indexed patientId, address indexed insurer);\n    event PatientSet(bytes32 indexed patientId, address indexed patient);\n    event PatientUploadEnabled(bytes32 indexed patientId, bool enabled);\n\n    event ReadAccessGranted(bytes32 indexed patientId, address indexed who, bool allowed);\n\n    event UploadPaidFLR(bytes32 indexed patientId, uint8 indexed kind, address indexed insurer, uint256 version, uint256 amountWei);\n    event UploadPaidXRPLAny(\n        bytes32 indexed patientId,\n        uint8   indexed kind,\n        address indexed insurer,\n        uint256 version,\n        uint256 paidUSDc,\n        bytes32 proofHash,\n        bytes32 currencyHash\n    );\n    event UploadPaidXRPLXRP(\n        bytes32 indexed patientId,\n        uint8   indexed kind,\n        address indexed insurer,\n        uint256 version,\n        uint256 paidDrops,\n        bytes32 proofHash\n    );\n\n    event DocumentUploaded(bytes32 indexed patientId, uint8 indexed kind, string hashURI, uint256 version);\n    event DocumentRead(bytes32 indexed patientId, uint8 indexed kind, address accessor);\n\n    event Deposit(bytes32 indexed patientId, address indexed insurer, uint256 amount);\n    event Withdraw(address indexed to, uint256 amount);\n\n    event FtsoSet(address indexed ftso);\n    event FdcSet(address indexed fdc);\n    event OracleParams(uint256 price, uint8 decimals, uint256 timestamp);\n    event FeesUpdated(uint256 feeWei, uint256 feeUSDc, address collector);\n    event OracleStalenessUpdated(uint256 maxStalenessSeconds);\n\n    /*  Ownership  */\n    address public owner;\n    modifier onlyOwner() { require(msg.sender == owner, \"not owner\"); _; }\n\n    constructor() {\n        owner = msg.sender;\n        feeCollector = msg.sender;\n    }\n\n    function transferOwnership(address newOwner) external onlyOwner {\n        require(newOwner != address(0), \"zero owner\");\n        owner = newOwner;\n    }\n\n    /*  Storage  */\n    mapping(bytes32 => RecordSet) private records;                 // patient state\n    mapping(bytes32 => address)  public insurerOf;                 // patient -> insurer\n    mapping(bytes32 => mapping(address => bool)) public canRead;   // read ACL\n\n    // Billing (FLR-deduct)\n    mapping(address => uint256) public insurerBalances; // deposits by insurer\n    uint256 public uploadFeeWei = 0.0001 ether;\n    address public feeCollector;\n\n    // XRPL path: fee in USD cents (converted or attested)\n    uint256 public uploadFeeUSDc = 500; // $5.00 default\n\n    // Latest version paid: patientId => kind => version\n    mapping(bytes32 => mapping(uint8 => uint256)) public paidVersion;\n\n    // Oracles/verifiers\n    IFDC  public fdc;\n    IFTSO public ftso;                       // optional (for XRP-only pricing path)\n    uint256 public maxOracleStaleness = 10 minutes;\n\n    /*  Modifiers  */\n    modifier onlyGuardianOrOwner(bytes32 patientId) {\n        require(msg.sender == records[patientId].guardian || msg.sender == owner, \"not guardian/owner\");\n        _;\n    }\n    modifier onlyUploader(bytes32 patientId) {\n        // Multiple authorized uploaders: owner, pediatric psychologist, or patient (if enabled)\n        address s = msg.sender;\n        bool isPatientUploader = records[patientId].patientCanUpload &&\n                                 s == records[patientId].patient;\n        require(\n            s == owner ||\n            s == records[patientId].pediatricPsychologist ||\n            isPatientUploader,\n            \"not authorized uploader\"\n        );\n        _;\n    }\n    modifier onlyReader(bytes32 patientId) {\n        address s = msg.sender;\n        require(\n            s == owner || s == records[patientId].guardian || canRead[patientId][s],\n            \"not allowed\"\n        );\n        _;\n    }\n\n    /*  Admin / Setup  */\n    function setGuardian(bytes32 patientId, address guardian_) external onlyOwner {\n        require(guardian_ != address(0), \"guardian zero\");\n        records[patientId].guardian = guardian_;\n        emit GuardianSet(patientId, guardian_);\n    }\n\n    function setPediatricPsychologist(bytes32 patientId, address psychologist) external onlyOwner {\n        require(psychologist != address(0), \"psychologist zero\");\n        records[patientId].pediatricPsychologist = psychologist;\n        emit PsychologistSet(patientId, psychologist);\n    }\n\n    function setInsurer(bytes32 patientId, address insurer) external onlyOwner {\n        require(insurer != address(0), \"insurer zero\");\n        insurerOf[patientId] = insurer;\n        emit InsurerSet(patientId, insurer);\n    }\n\n    function setPatient(bytes32 patientId, address patient) external onlyOwner {\n        require(patient != address(0), \"patient zero\");\n        records[patientId].patient = patient;\n        emit PatientSet(patientId, patient);\n    }\n\n    function enablePatientUpload(bytes32 patientId, bool enabled) external onlyGuardianOrOwner(patientId) {\n        records[patientId].patientCanUpload = enabled;\n        emit PatientUploadEnabled(patientId, enabled);\n    }\n\n    function registerAsPatient(bytes32 patientId) external {\n        require(records[patientId].patient == address(0), \"patient already registered\");\n\n        // Auto-set the caller as patient and enable upload if no guardian is set\n        records[patientId].patient = msg.sender;\n\n        // If no guardian is set, patient can auto-enable their upload permission\n        if (records[patientId].guardian == address(0)) {\n            records[patientId].patientCanUpload = true;\n            emit PatientUploadEnabled(patientId, true);\n        }\n\n        emit PatientSet(patientId, msg.sender);\n    }\n\n    function grantRead(bytes32 patientId, address who, bool allowed) external onlyGuardianOrOwner(patientId) {\n        require(who != address(0), \"zero\");\n        canRead[patientId][who] = allowed;\n        emit ReadAccessGranted(patientId, who, allowed);\n    }\n\n    function setUploadFees(uint256 feeWei, uint256 feeUSDc_, address collector) external onlyOwner {\n        require(collector != address(0), \"collector zero\");\n        uploadFeeWei = feeWei;\n        uploadFeeUSDc = feeUSDc_;\n        feeCollector = collector;\n        emit FeesUpdated(feeWei, feeUSDc_, collector);\n    }\n\n    function setFDC(address verifier) external onlyOwner {\n        fdc = IFDC(verifier);\n        emit FdcSet(verifier);\n    }\n\n    function setFTSO(address oracle) external onlyOwner {\n        ftso = IFTSO(oracle);\n        emit FtsoSet(oracle);\n    }\n\n    function setMaxOracleStaleness(uint256 seconds_) external onlyOwner {\n        maxOracleStaleness = seconds_;\n        emit OracleStalenessUpdated(seconds_);\n    }\n\n    /*  Funding (FLR-deduct)  */\n    function depositFor(bytes32 patientId) external payable {\n        address insurer = insurerOf[patientId];\n        require(insurer != address(0), \"insurer not set\");\n        require(msg.sender == insurer, \"only insurer\");\n        require(msg.value > 0, \"no value\");\n        insurerBalances[insurer] += msg.value;\n        emit Deposit(patientId, insurer, msg.value);\n    }\n\n    function withdraw(address payable to, uint256 amount) external onlyOwner {\n        require(to != address(0), \"to zero\");\n        require(address(this).balance >= amount, \"insufficient\");\n        to.transfer(amount);\n        emit Withdraw(to, amount);\n    }\n\n    /*  UPLOADS  */\n\n    /// A) FLR-deduct mode: contract deducts fee from insurer deposit.\n    function uploadDocumentDeduct(\n        bytes32 patientId,\n        uint8   kind,        // 0/1/2\n        string calldata hashURI\n    ) external onlyUploader(patientId) {\n        _writeDoc(patientId, kind, hashURI);\n\n        address insurer = insurerOf[patientId];\n        require(insurer != address(0), \"insurer not set\");\n        require(insurerBalances[insurer] >= uploadFeeWei, \"insurer balance low\");\n\n        unchecked { insurerBalances[insurer] -= uploadFeeWei; }\n        (bool ok,) = payable(feeCollector).call{value: uploadFeeWei}(\"\");\n        require(ok, \"fee transfer failed\");\n\n        DocMeta storage d = records[patientId].docs[kind];\n        paidVersion[patientId][kind] = d.version;\n        d.paymentProof = bytes32(0); // FLR-deduct marker\n        d.paidDrops    = 0;\n        d.paidUSDc     = 0;\n        d.currencyHash = bytes32(0);\n\n        emit UploadPaidFLR(patientId, kind, insurer, d.version, uploadFeeWei);\n    }\n\n    /// B) XRPL any-currency path via FDC attestation of USD value.\n    /// - `xrplProof` + `statementId` are verified by FDC.\n    /// - `attestedUSDc` is the USD cents paid (any XRPL currency) attested by the verifier.\n    /// - `currencyHash` is informational: keccak256(abi.encodePacked(currencyCode, \"|\", issuerAddressOnXRPL))\n    function uploadDocumentWithXRPLAnyCurrency(\n        bytes32 patientId,\n        uint8   kind,\n        string calldata hashURI,\n        bytes  calldata xrplProof,\n        bytes32 statementId,\n        bytes32 proofId,\n        uint256 attestedUSDc,\n        bytes32 currencyHash\n    ) external onlyUploader(patientId) {\n        _requireFdc();                         // preflight\n        _verifyFDC(xrplProof, statementId);    // 1) attestation valid\n        require(attestedUSDc >= uploadFeeUSDc, \"USD attestation too small\");\n\n        _writeDoc(patientId, kind, hashURI);  // 2) write + mark paid\n        _setXRPLAnyCurrencyPayment(patientId, kind, proofId, attestedUSDc, currencyHash);\n    }\n\n    function _setXRPLAnyCurrencyPayment(\n        bytes32 patientId,\n        uint8 kind,\n        bytes32 proofId,\n        uint256 attestedUSDc,\n        bytes32 currencyHash\n    ) internal {\n        DocMeta storage d = records[patientId].docs[kind];\n        paidVersion[patientId][kind] = d.version;\n        d.paymentProof = proofId;\n        d.paidDrops    = 0;\n        d.paidUSDc     = attestedUSDc;\n        d.currencyHash = currencyHash;\n\n        emit UploadPaidXRPLAny(patientId, kind, insurerOf[patientId], d.version, attestedUSDc, proofId, currencyHash);\n    }\n\n    /// C) (Legacy/optional) XRPL + FDC + FTSO (XRP-only priced in USD via oracle).\n    /// xrplPaidDrops = amount (in drops; 1 XRP = 1e6 drops) attested by FDC.\n    function uploadDocumentWithXRPProof(\n        bytes32 patientId,\n        uint8   kind,\n        string calldata hashURI,\n        bytes  calldata xrplProof,\n        bytes32 statementId,\n        bytes32 proofId,\n        uint256 xrplPaidDrops\n    ) external onlyUploader(patientId) {\n        _requireFdcAndFtso();                         // preflight checks\n        _verifyFDC(xrplProof, statementId);           // 1) attestation valid\n        uint256 requiredDrops = _requiredDrops();     // 2) price from oracle -> required drops\n        require(xrplPaidDrops >= requiredDrops, \"XRP payment too small\");\n\n        _writeDoc(patientId, kind, hashURI);         // 3) write + mark paid\n        _setXRPPayment(patientId, kind, proofId, xrplPaidDrops);\n    }\n\n    function _setXRPPayment(bytes32 patientId, uint8 kind, bytes32 proofId, uint256 xrplPaidDrops) internal {\n        DocMeta storage d = records[patientId].docs[kind];\n        paidVersion[patientId][kind] = d.version;\n        d.paymentProof = proofId;\n        d.paidDrops    = xrplPaidDrops;\n        d.paidUSDc     = 0;\n        d.currencyHash = bytes32(0);\n\n        emit UploadPaidXRPLXRP(patientId, kind, insurerOf[patientId], d.version, xrplPaidDrops, proofId);\n    }\n\n    /*  Internal helpers  */\n\n    function _requireFdc() internal view {\n        require(address(fdc) != address(0), \"FDC not set\");\n    }\n\n    function _requireFdcAndFtso() internal view {\n        require(address(fdc) != address(0), \"FDC not set\");\n        require(address(ftso) != address(0), \"FTSO not set\");\n    }\n\n    function _verifyFDC(bytes calldata xrplProof, bytes32 statementId) internal view {\n        require(fdc.verify(xrplProof, statementId), \"invalid XRPL payment proof\");\n    }\n\n    /// Pull oracle, check staleness, emit params, and return required drops for current uploadFeeUSDc\n    function _requiredDrops() internal view returns (uint256) {\n        (uint256 px, uint8 dec, uint256 ts) = ftso.getXRPUSDPrice();\n        require(px > 0, \"oracle price=0\");\n        require(block.timestamp >= ts && block.timestamp - ts <= maxOracleStaleness, \"price stale\");\n        return _requiredXrpDropsFromUSDc(uploadFeeUSDc, px, dec);\n    }\n\n    /// Internal write: increments version and stores URI/timestamp.\n    function _writeDoc(bytes32 patientId, uint8 kind, string calldata hashURI) internal {\n        // Ensure basic patient record exists (either through admin setup or patient self-registration)\n        require(\n            records[patientId].guardian != address(0) ||\n            records[patientId].pediatricPsychologist != address(0) ||\n            records[patientId].patient != address(0),\n            \"patient record not initialized\"\n        );\n        require(kind <= uint8(DocKind.Intake), \"bad kind\");\n\n        DocMeta storage d = records[patientId].docs[kind];\n        d.hashURI  = hashURI;\n        d.version += 1;\n        d.updatedAt = block.timestamp;\n\n        emit DocumentUploaded(patientId, kind, hashURI, d.version);\n    }\n\n    /*  READ (free; requires paid)  */\n\n    function getDocument(bytes32 patientId, uint8 kind)\n        external\n        onlyReader(patientId)\n        returns (string memory, uint256, uint256, bytes32)\n    {\n        require(kind <= uint8(DocKind.Intake), \"bad kind\");\n        DocMeta storage d = records[patientId].docs[kind];\n        require(paidVersion[patientId][kind] >= d.version && d.version > 0, \"unpaid or empty\");\n        emit DocumentRead(patientId, kind, msg.sender);\n        return (d.hashURI, d.version, d.updatedAt, d.paymentProof);\n    }\n\n    /*  Views & helpers  */\n\n    function getDocMeta(bytes32 patientId, uint8 kind)\n        external\n        view\n        returns (string memory hashURI, uint256 version, uint256 updatedAt, bytes32 paymentProof, uint256 paidUSDc, uint256 paidDrops, bytes32 currencyHash)\n    {\n        DocMeta storage d = records[patientId].docs[kind];\n        return (d.hashURI, d.version, d.updatedAt, d.paymentProof, d.paidUSDc, d.paidDrops, d.currencyHash);\n    }\n\n    function getDocPayment(bytes32 patientId, uint8 kind)\n        external\n        view\n        returns (uint256 paidUSDc, uint256 paidDrops, uint256 paidVersion_, bool flareDeduct)\n    {\n        DocMeta storage d = records[patientId].docs[kind];\n        return (d.paidUSDc, d.paidDrops, paidVersion[patientId][kind], d.paymentProof == bytes32(0) && d.version > 0);\n    }\n\n    function getRoles(bytes32 patientId)\n        external\n        view\n        returns (address guardian, address pediatricPsychologist, address insurer, address patient, bool patientCanUpload)\n    {\n        return (\n            records[patientId].guardian,\n            records[patientId].pediatricPsychologist,\n            insurerOf[patientId],\n            records[patientId].patient,\n            records[patientId].patientCanUpload\n        );\n    }\n\n    function hasRead(bytes32 patientId, address who) external view returns (bool) {\n        return (who == owner || who == records[patientId].guardian || canRead[patientId][who]);\n    }\n\n    function canUploadForPatient(bytes32 patientId, address who) external view returns (bool) {\n        if (who == owner) return true;\n        if (who == records[patientId].pediatricPsychologist) return true;\n        if (records[patientId].patientCanUpload && who == records[patientId].patient) return true;\n        return false;\n    }\n\n    /// Human-readable document kind names\n    function docKindName(uint8 kind) public pure returns (string memory) {\n        if (kind == uint8(DocKind.Diagnosis)) return \"Diagnosis Letter\";\n        if (kind == uint8(DocKind.Referral))  return \"Referral\";\n        if (kind == uint8(DocKind.Intake))    return \"Intake\";\n        revert(\"bad kind\");\n    }\n\n    /// View: required XRP (in drops) for the current USD-cents fee (oracle path)\n    function requiredXrpDrops()\n        external\n        view\n        returns (uint256 drops, uint256 price, uint8 decimals, uint256 timestamp)\n    {\n        require(address(ftso) != address(0), \"FTSO not set\");\n        (uint256 px, uint8 dec, uint256 ts) = ftso.getXRPUSDPrice();\n        require(px > 0, \"oracle price=0\");\n        return (_requiredXrpDropsFromUSDc(uploadFeeUSDc, px, dec), px, dec, ts);\n    }\n\n    /*  Math  */\n\n    function _requiredXrpDropsFromUSDc(uint256 feeUSDc, uint256 price, uint8 priceDecimals) internal pure returns (uint256) {\n        // Convert USD cents to 18-decimal USD (WAD): USDc * 1e16\n        uint256 usdWad = feeUSDc * 1e16;                 // $1.00 => 1e18\n        uint256 priceWad = _scaleDecimals(price, priceDecimals, 18); // USD per XRP (18d)\n        // required XRP (WAD) = ceil(usdWad / priceWad) with 18-dec precision\n        uint256 xrpWad = _ceilDiv(usdWad * 1e18, priceWad);\n        // 1 XRP = 1e6 drops => drops = ceil(xrpWad / 1e12)\n        return _ceilDiv(xrpWad, 1e12);\n    }\n\n    function _scaleDecimals(uint256 x, uint8 fromDec, uint8 toDec) internal pure returns (uint256) {\n        if (fromDec == toDec) return x;\n        return (fromDec < toDec)\n            ? x * (10 ** (toDec - fromDec))\n            : x / (10 ** (fromDec - toDec));\n    }\n\n    function _ceilDiv(uint256 a, uint256 b) internal pure returns (uint256) {\n        return a == 0 ? 0 : 1 + ((a - 1) / b);\n    }\n\n    receive() external payable {}\n}\n",
  "sourcePath": "E:\\EasyAHackathon\\contracts\\MedicalRecordVault.sol",
  "compiler": {
    "name": "solc",
    "version": "0.8.21+commit.d9974bed.Emscripten.clang"
  },
  "schemaVersion": "3.4.16",
  "updatedAt": "2025-09-21T12:57:44.972Z",
  "devdoc": {
    "kind": "dev",
    "methods": {},
    "version": 1
  },
  "userdoc": {
    "kind": "user",
    "methods": {
      "docKindName(uint8)": {
        "notice": "Human-readable document kind names"
      },
      "requiredXrpDrops()": {
        "notice": "View: required XRP (in drops) for the current USD-cents fee (oracle path)"
      },
      "uploadDocumentDeduct(bytes32,uint8,string)": {
        "notice": "A) FLR-deduct mode: contract deducts fee from insurer deposit."
      },
      "uploadDocumentWithXRPLAnyCurrency(bytes32,uint8,string,bytes,bytes32,bytes32,uint256,bytes32)": {
        "notice": "B) XRPL any-currency path via FDC attestation of USD value. - `xrplProof` + `statementId` are verified by FDC. - `attestedUSDc` is the USD cents paid (any XRPL currency) attested by the verifier. - `currencyHash` is informational: keccak256(abi.encodePacked(currencyCode, \"|\", issuerAddressOnXRPL))"
      },
      "uploadDocumentWithXRPProof(bytes32,uint8,string,bytes,bytes32,bytes32,uint256)": {
        "notice": "C) (Legacy/optional) XRPL + FDC + FTSO (XRP-only priced in USD via oracle). xrplPaidDrops = amount (in drops; 1 XRP = 1e6 drops) attested by FDC."
      }
    },
    "version": 1
  }
}