{
  "contractName": "MedicalRecordVaultWithRealFDC",
  "abi": [
    {
      "inputs": [],
      "stateMutability": "nonpayable",
      "type": "constructor"
    },
    {
      "anonymous": false,
      "inputs": [
        {
          "indexed": true,
          "internalType": "bytes32",
          "name": "chargeId",
          "type": "bytes32"
        },
        {
          "indexed": true,
          "internalType": "bytes32",
          "name": "patientId",
          "type": "bytes32"
        },
        {
          "indexed": true,
          "internalType": "bytes32",
          "name": "hospitalId",
          "type": "bytes32"
        },
        {
          "indexed": false,
          "internalType": "bytes32",
          "name": "insurerId",
          "type": "bytes32"
        },
        {
          "indexed": false,
          "internalType": "enum MedicalRecordVaultWithRealFDC.ServiceType",
          "name": "serviceType",
          "type": "uint8"
        },
        {
          "indexed": false,
          "internalType": "uint256",
          "name": "amountUSD",
          "type": "uint256"
        },
        {
          "indexed": false,
          "internalType": "uint256",
          "name": "amountDrops",
          "type": "uint256"
        }
      ],
      "name": "ChargeCreated",
      "type": "event"
    },
    {
      "anonymous": false,
      "inputs": [
        {
          "indexed": true,
          "internalType": "bytes32",
          "name": "chargeId",
          "type": "bytes32"
        },
        {
          "indexed": true,
          "internalType": "enum MedicalRecordVaultWithRealFDC.ChargeStatus",
          "name": "oldStatus",
          "type": "uint8"
        },
        {
          "indexed": true,
          "internalType": "enum MedicalRecordVaultWithRealFDC.ChargeStatus",
          "name": "newStatus",
          "type": "uint8"
        },
        {
          "indexed": false,
          "internalType": "uint256",
          "name": "timestamp",
          "type": "uint256"
        }
      ],
      "name": "ChargeStatusUpdated",
      "type": "event"
    },
    {
      "anonymous": false,
      "inputs": [
        {
          "indexed": true,
          "internalType": "bytes32",
          "name": "patientId",
          "type": "bytes32"
        },
        {
          "indexed": true,
          "internalType": "uint8",
          "name": "kind",
          "type": "uint8"
        },
        {
          "indexed": false,
          "internalType": "address",
          "name": "accessor",
          "type": "address"
        }
      ],
      "name": "DocumentRead",
      "type": "event"
    },
    {
      "anonymous": false,
      "inputs": [
        {
          "indexed": true,
          "internalType": "bytes32",
          "name": "patientId",
          "type": "bytes32"
        },
        {
          "indexed": true,
          "internalType": "uint8",
          "name": "kind",
          "type": "uint8"
        },
        {
          "indexed": false,
          "internalType": "string",
          "name": "hashURI",
          "type": "string"
        },
        {
          "indexed": false,
          "internalType": "uint256",
          "name": "version",
          "type": "uint256"
        }
      ],
      "name": "DocumentUploaded",
      "type": "event"
    },
    {
      "anonymous": false,
      "inputs": [
        {
          "indexed": true,
          "internalType": "bytes32",
          "name": "chargeId",
          "type": "bytes32"
        },
        {
          "indexed": true,
          "internalType": "bytes32",
          "name": "fdcRequestId",
          "type": "bytes32"
        },
        {
          "indexed": false,
          "internalType": "bytes32",
          "name": "attestationType",
          "type": "bytes32"
        },
        {
          "indexed": false,
          "internalType": "uint256",
          "name": "fee",
          "type": "uint256"
        }
      ],
      "name": "FdcAttestationRequested",
      "type": "event"
    },
    {
      "anonymous": false,
      "inputs": [
        {
          "indexed": true,
          "internalType": "bytes32",
          "name": "hospitalId",
          "type": "bytes32"
        },
        {
          "indexed": false,
          "internalType": "string",
          "name": "name",
          "type": "string"
        },
        {
          "indexed": false,
          "internalType": "string",
          "name": "xrplAccount",
          "type": "string"
        },
        {
          "indexed": false,
          "internalType": "address",
          "name": "contact",
          "type": "address"
        }
      ],
      "name": "HospitalRegistered",
      "type": "event"
    },
    {
      "anonymous": false,
      "inputs": [
        {
          "indexed": true,
          "internalType": "bytes32",
          "name": "insurerId",
          "type": "bytes32"
        },
        {
          "indexed": true,
          "internalType": "bytes32",
          "name": "patientId",
          "type": "bytes32"
        },
        {
          "indexed": false,
          "internalType": "string",
          "name": "xrplAccount",
          "type": "string"
        },
        {
          "indexed": false,
          "internalType": "address",
          "name": "contact",
          "type": "address"
        }
      ],
      "name": "InsuranceRegistered",
      "type": "event"
    },
    {
      "anonymous": false,
      "inputs": [
        {
          "indexed": true,
          "internalType": "bytes32",
          "name": "chargeId",
          "type": "bytes32"
        },
        {
          "indexed": true,
          "internalType": "bytes32",
          "name": "fromParty",
          "type": "bytes32"
        },
        {
          "indexed": true,
          "internalType": "bytes32",
          "name": "toParty",
          "type": "bytes32"
        },
        {
          "indexed": false,
          "internalType": "uint256",
          "name": "amount",
          "type": "uint256"
        },
        {
          "indexed": false,
          "internalType": "bytes32",
          "name": "xrplTxHash",
          "type": "bytes32"
        },
        {
          "indexed": false,
          "internalType": "bytes32",
          "name": "fdcProof",
          "type": "bytes32"
        }
      ],
      "name": "PaymentProcessed",
      "type": "event"
    },
    {
      "anonymous": false,
      "inputs": [
        {
          "indexed": true,
          "internalType": "bytes32",
          "name": "txId",
          "type": "bytes32"
        },
        {
          "indexed": true,
          "internalType": "enum MedicalRecordVaultWithRealFDC.TransactionType",
          "name": "txType",
          "type": "uint8"
        },
        {
          "indexed": true,
          "internalType": "bytes32",
          "name": "fromParty",
          "type": "bytes32"
        },
        {
          "indexed": false,
          "internalType": "bytes32",
          "name": "toParty",
          "type": "bytes32"
        },
        {
          "indexed": false,
          "internalType": "uint256",
          "name": "amount",
          "type": "uint256"
        },
        {
          "indexed": false,
          "internalType": "bytes32",
          "name": "xrplTxHash",
          "type": "bytes32"
        }
      ],
      "name": "TransactionRecorded",
      "type": "event"
    },
    {
      "anonymous": false,
      "inputs": [
        {
          "indexed": true,
          "internalType": "bytes32",
          "name": "patientId",
          "type": "bytes32"
        },
        {
          "indexed": true,
          "internalType": "uint8",
          "name": "kind",
          "type": "uint8"
        },
        {
          "indexed": false,
          "internalType": "uint256",
          "name": "version",
          "type": "uint256"
        },
        {
          "indexed": false,
          "internalType": "uint256",
          "name": "paidDrops",
          "type": "uint256"
        },
        {
          "indexed": false,
          "internalType": "bytes32",
          "name": "proofHash",
          "type": "bytes32"
        }
      ],
      "name": "UploadPaidXRPLXRP",
      "type": "event"
    },
    {
      "inputs": [
        {
          "internalType": "bytes32",
          "name": "",
          "type": "bytes32"
        }
      ],
      "name": "chargeToFdcRequest",
      "outputs": [
        {
          "internalType": "bytes32",
          "name": "",
          "type": "bytes32"
        }
      ],
      "stateMutability": "view",
      "type": "function"
    },
    {
      "inputs": [
        {
          "internalType": "bytes32",
          "name": "",
          "type": "bytes32"
        }
      ],
      "name": "charges",
      "outputs": [
        {
          "internalType": "bytes32",
          "name": "chargeId",
          "type": "bytes32"
        },
        {
          "internalType": "bytes32",
          "name": "patientId",
          "type": "bytes32"
        },
        {
          "internalType": "bytes32",
          "name": "hospitalId",
          "type": "bytes32"
        },
        {
          "internalType": "bytes32",
          "name": "insurerId",
          "type": "bytes32"
        },
        {
          "internalType": "enum MedicalRecordVaultWithRealFDC.ServiceType",
          "name": "serviceType",
          "type": "uint8"
        },
        {
          "internalType": "string",
          "name": "description",
          "type": "string"
        },
        {
          "internalType": "uint256",
          "name": "amountUSD",
          "type": "uint256"
        },
        {
          "internalType": "uint256",
          "name": "amountDrops",
          "type": "uint256"
        },
        {
          "internalType": "enum MedicalRecordVaultWithRealFDC.ChargeStatus",
          "name": "status",
          "type": "uint8"
        },
        {
          "internalType": "bytes32",
          "name": "fdcRequestId",
          "type": "bytes32"
        },
        {
          "internalType": "bytes32",
          "name": "xrplProof",
          "type": "bytes32"
        },
        {
          "internalType": "uint256",
          "name": "createdAt",
          "type": "uint256"
        },
        {
          "internalType": "uint256",
          "name": "updatedAt",
          "type": "uint256"
        },
        {
          "internalType": "string",
          "name": "metadata",
          "type": "string"
        }
      ],
      "stateMutability": "view",
      "type": "function"
    },
    {
      "inputs": [
        {
          "internalType": "bytes32",
          "name": "",
          "type": "bytes32"
        }
      ],
      "name": "fdcRequestToCharge",
      "outputs": [
        {
          "internalType": "bytes32",
          "name": "",
          "type": "bytes32"
        }
      ],
      "stateMutability": "view",
      "type": "function"
    },
    {
      "inputs": [
        {
          "internalType": "bytes32",
          "name": "",
          "type": "bytes32"
        }
      ],
      "name": "hospitalChargeCount",
      "outputs": [
        {
          "internalType": "uint256",
          "name": "",
          "type": "uint256"
        }
      ],
      "stateMutability": "view",
      "type": "function"
    },
    {
      "inputs": [
        {
          "internalType": "bytes32",
          "name": "",
          "type": "bytes32"
        },
        {
          "internalType": "uint256",
          "name": "",
          "type": "uint256"
        }
      ],
      "name": "hospitalCharges",
      "outputs": [
        {
          "internalType": "bytes32",
          "name": "",
          "type": "bytes32"
        }
      ],
      "stateMutability": "view",
      "type": "function"
    },
    {
      "inputs": [
        {
          "internalType": "bytes32",
          "name": "",
          "type": "bytes32"
        }
      ],
      "name": "hospitals",
      "outputs": [
        {
          "internalType": "string",
          "name": "name",
          "type": "string"
        },
        {
          "internalType": "string",
          "name": "xrplAccount",
          "type": "string"
        },
        {
          "internalType": "address",
          "name": "contact",
          "type": "address"
        },
        {
          "internalType": "bool",
          "name": "isRegistered",
          "type": "bool"
        },
        {
          "internalType": "uint256",
          "name": "totalCharges",
          "type": "uint256"
        },
        {
          "internalType": "uint256",
          "name": "registeredAt",
          "type": "uint256"
        }
      ],
      "stateMutability": "view",
      "type": "function"
    },
    {
      "inputs": [
        {
          "internalType": "bytes32",
          "name": "",
          "type": "bytes32"
        },
        {
          "internalType": "uint256",
          "name": "",
          "type": "uint256"
        }
      ],
      "name": "insuranceCharges",
      "outputs": [
        {
          "internalType": "bytes32",
          "name": "",
          "type": "bytes32"
        }
      ],
      "stateMutability": "view",
      "type": "function"
    },
    {
      "inputs": [
        {
          "internalType": "bytes32",
          "name": "",
          "type": "bytes32"
        }
      ],
      "name": "insurancePaymentCount",
      "outputs": [
        {
          "internalType": "uint256",
          "name": "",
          "type": "uint256"
        }
      ],
      "stateMutability": "view",
      "type": "function"
    },
    {
      "inputs": [],
      "name": "maxOracleStaleness",
      "outputs": [
        {
          "internalType": "uint256",
          "name": "",
          "type": "uint256"
        }
      ],
      "stateMutability": "view",
      "type": "function"
    },
    {
      "inputs": [],
      "name": "owner",
      "outputs": [
        {
          "internalType": "address",
          "name": "",
          "type": "address"
        }
      ],
      "stateMutability": "view",
      "type": "function"
    },
    {
      "inputs": [
        {
          "internalType": "bytes32",
          "name": "",
          "type": "bytes32"
        },
        {
          "internalType": "uint8",
          "name": "",
          "type": "uint8"
        }
      ],
      "name": "paidVersion",
      "outputs": [
        {
          "internalType": "uint256",
          "name": "",
          "type": "uint256"
        }
      ],
      "stateMutability": "view",
      "type": "function"
    },
    {
      "inputs": [
        {
          "internalType": "bytes32",
          "name": "",
          "type": "bytes32"
        },
        {
          "internalType": "uint256",
          "name": "",
          "type": "uint256"
        }
      ],
      "name": "patientCharges",
      "outputs": [
        {
          "internalType": "bytes32",
          "name": "",
          "type": "bytes32"
        }
      ],
      "stateMutability": "view",
      "type": "function"
    },
    {
      "inputs": [
        {
          "internalType": "bytes32",
          "name": "",
          "type": "bytes32"
        },
        {
          "internalType": "uint256",
          "name": "",
          "type": "uint256"
        }
      ],
      "name": "patientTransactions",
      "outputs": [
        {
          "internalType": "bytes32",
          "name": "",
          "type": "bytes32"
        }
      ],
      "stateMutability": "view",
      "type": "function"
    },
    {
      "inputs": [],
      "name": "totalCharges",
      "outputs": [
        {
          "internalType": "uint256",
          "name": "",
          "type": "uint256"
        }
      ],
      "stateMutability": "view",
      "type": "function"
    },
    {
      "inputs": [],
      "name": "totalTransactions",
      "outputs": [
        {
          "internalType": "uint256",
          "name": "",
          "type": "uint256"
        }
      ],
      "stateMutability": "view",
      "type": "function"
    },
    {
      "inputs": [
        {
          "internalType": "bytes32",
          "name": "",
          "type": "bytes32"
        }
      ],
      "name": "transactions",
      "outputs": [
        {
          "internalType": "bytes32",
          "name": "txId",
          "type": "bytes32"
        },
        {
          "internalType": "enum MedicalRecordVaultWithRealFDC.TransactionType",
          "name": "txType",
          "type": "uint8"
        },
        {
          "internalType": "bytes32",
          "name": "fromParty",
          "type": "bytes32"
        },
        {
          "internalType": "bytes32",
          "name": "toParty",
          "type": "bytes32"
        },
        {
          "internalType": "bytes32",
          "name": "relatedId",
          "type": "bytes32"
        },
        {
          "internalType": "uint256",
          "name": "amount",
          "type": "uint256"
        },
        {
          "internalType": "bytes32",
          "name": "xrplTxHash",
          "type": "bytes32"
        },
        {
          "internalType": "bytes32",
          "name": "fdcProof",
          "type": "bytes32"
        },
        {
          "internalType": "uint256",
          "name": "timestamp",
          "type": "uint256"
        },
        {
          "internalType": "string",
          "name": "notes",
          "type": "string"
        }
      ],
      "stateMutability": "view",
      "type": "function"
    },
    {
      "inputs": [],
      "name": "uploadFeeUSDc",
      "outputs": [
        {
          "internalType": "uint256",
          "name": "",
          "type": "uint256"
        }
      ],
      "stateMutability": "view",
      "type": "function"
    },
    {
      "stateMutability": "payable",
      "type": "receive"
    },
    {
      "inputs": [
        {
          "internalType": "address",
          "name": "newOwner",
          "type": "address"
        }
      ],
      "name": "transferOwnership",
      "outputs": [],
      "stateMutability": "nonpayable",
      "type": "function"
    },
    {
      "inputs": [],
      "name": "getFlareContractRegistry",
      "outputs": [
        {
          "internalType": "contract IFlareContractRegistry",
          "name": "",
          "type": "address"
        }
      ],
      "stateMutability": "pure",
      "type": "function"
    },
    {
      "inputs": [],
      "name": "getFdcHub",
      "outputs": [
        {
          "internalType": "contract IFdcHub",
          "name": "",
          "type": "address"
        }
      ],
      "stateMutability": "view",
      "type": "function"
    },
    {
      "inputs": [],
      "name": "getFdcVerification",
      "outputs": [
        {
          "internalType": "contract IFdcVerification",
          "name": "",
          "type": "address"
        }
      ],
      "stateMutability": "view",
      "type": "function"
    },
    {
      "inputs": [],
      "name": "getFtsoV2",
      "outputs": [
        {
          "internalType": "contract IFtsoV2",
          "name": "",
          "type": "address"
        }
      ],
      "stateMutability": "view",
      "type": "function"
    },
    {
      "inputs": [
        {
          "internalType": "bytes32",
          "name": "hospitalId",
          "type": "bytes32"
        },
        {
          "internalType": "string",
          "name": "name",
          "type": "string"
        },
        {
          "internalType": "string",
          "name": "xrplAccount",
          "type": "string"
        },
        {
          "internalType": "address",
          "name": "contact",
          "type": "address"
        }
      ],
      "name": "registerHospital",
      "outputs": [],
      "stateMutability": "nonpayable",
      "type": "function"
    },
    {
      "inputs": [
        {
          "internalType": "bytes32",
          "name": "patientId",
          "type": "bytes32"
        },
        {
          "internalType": "bytes32",
          "name": "insurerId",
          "type": "bytes32"
        },
        {
          "internalType": "string",
          "name": "xrplAccount",
          "type": "string"
        },
        {
          "internalType": "address",
          "name": "contact",
          "type": "address"
        }
      ],
      "name": "registerInsuranceForPatient",
      "outputs": [],
      "stateMutability": "nonpayable",
      "type": "function"
    },
    {
      "inputs": [
        {
          "internalType": "bytes32",
          "name": "chargeId",
          "type": "bytes32"
        },
        {
          "internalType": "bytes32",
          "name": "patientId",
          "type": "bytes32"
        },
        {
          "internalType": "bytes32",
          "name": "hospitalId",
          "type": "bytes32"
        },
        {
          "internalType": "bytes32",
          "name": "insurerId",
          "type": "bytes32"
        },
        {
          "internalType": "enum MedicalRecordVaultWithRealFDC.ServiceType",
          "name": "serviceType",
          "type": "uint8"
        },
        {
          "internalType": "string",
          "name": "description",
          "type": "string"
        },
        {
          "internalType": "uint256",
          "name": "amountUSD",
          "type": "uint256"
        },
        {
          "internalType": "string",
          "name": "metadata",
          "type": "string"
        }
      ],
      "name": "createHospitalCharge",
      "outputs": [],
      "stateMutability": "payable",
      "type": "function"
    },
    {
      "inputs": [
        {
          "internalType": "bytes32",
          "name": "chargeId",
          "type": "bytes32"
        }
      ],
      "name": "submitFdcAttestationRequest",
      "outputs": [],
      "stateMutability": "payable",
      "type": "function"
    },
    {
      "inputs": [
        {
          "internalType": "bytes32",
          "name": "chargeId",
          "type": "bytes32"
        },
        {
          "components": [
            {
              "internalType": "bytes32",
              "name": "merkleRoot",
              "type": "bytes32"
            },
            {
              "internalType": "bytes32[]",
              "name": "merkleProof",
              "type": "bytes32[]"
            },
            {
              "internalType": "bytes",
              "name": "data",
              "type": "bytes"
            }
          ],
          "internalType": "struct IFdcVerification.Proof",
          "name": "fdcProof",
          "type": "tuple"
        },
        {
          "internalType": "bytes32",
          "name": "xrplTxHash",
          "type": "bytes32"
        },
        {
          "internalType": "uint256",
          "name": "paidDrops",
          "type": "uint256"
        }
      ],
      "name": "processPaymentWithFdcProof",
      "outputs": [],
      "stateMutability": "nonpayable",
      "type": "function"
    },
    {
      "inputs": [
        {
          "internalType": "bytes32",
          "name": "patientId",
          "type": "bytes32"
        },
        {
          "internalType": "uint8",
          "name": "kind",
          "type": "uint8"
        },
        {
          "internalType": "string",
          "name": "hashURI",
          "type": "string"
        },
        {
          "components": [
            {
              "internalType": "bytes32",
              "name": "merkleRoot",
              "type": "bytes32"
            },
            {
              "internalType": "bytes32[]",
              "name": "merkleProof",
              "type": "bytes32[]"
            },
            {
              "internalType": "bytes",
              "name": "data",
              "type": "bytes"
            }
          ],
          "internalType": "struct IFdcVerification.Proof",
          "name": "fdcProof",
          "type": "tuple"
        },
        {
          "internalType": "bytes32",
          "name": "proofId",
          "type": "bytes32"
        },
        {
          "internalType": "uint256",
          "name": "xrplPaidDrops",
          "type": "uint256"
        }
      ],
      "name": "uploadDocumentWithFdcProof",
      "outputs": [],
      "stateMutability": "nonpayable",
      "type": "function"
    },
    {
      "inputs": [],
      "name": "getXrpUsdPrice",
      "outputs": [
        {
          "internalType": "uint256",
          "name": "price",
          "type": "uint256"
        },
        {
          "internalType": "uint64",
          "name": "timestamp",
          "type": "uint64"
        },
        {
          "internalType": "uint8",
          "name": "decimals",
          "type": "uint8"
        }
      ],
      "stateMutability": "view",
      "type": "function"
    },
    {
      "inputs": [],
      "name": "requiredXrpDrops",
      "outputs": [
        {
          "internalType": "uint256",
          "name": "drops",
          "type": "uint256"
        },
        {
          "internalType": "uint256",
          "name": "price",
          "type": "uint256"
        },
        {
          "internalType": "uint8",
          "name": "decimals",
          "type": "uint8"
        },
        {
          "internalType": "uint256",
          "name": "timestamp",
          "type": "uint256"
        }
      ],
      "stateMutability": "view",
      "type": "function"
    },
    {
      "inputs": [
        {
          "internalType": "bytes32",
          "name": "chargeId",
          "type": "bytes32"
        }
      ],
      "name": "getCharge",
      "outputs": [
        {
          "components": [
            {
              "internalType": "bytes32",
              "name": "chargeId",
              "type": "bytes32"
            },
            {
              "internalType": "bytes32",
              "name": "patientId",
              "type": "bytes32"
            },
            {
              "internalType": "bytes32",
              "name": "hospitalId",
              "type": "bytes32"
            },
            {
              "internalType": "bytes32",
              "name": "insurerId",
              "type": "bytes32"
            },
            {
              "internalType": "enum MedicalRecordVaultWithRealFDC.ServiceType",
              "name": "serviceType",
              "type": "uint8"
            },
            {
              "internalType": "string",
              "name": "description",
              "type": "string"
            },
            {
              "internalType": "uint256",
              "name": "amountUSD",
              "type": "uint256"
            },
            {
              "internalType": "uint256",
              "name": "amountDrops",
              "type": "uint256"
            },
            {
              "internalType": "enum MedicalRecordVaultWithRealFDC.ChargeStatus",
              "name": "status",
              "type": "uint8"
            },
            {
              "internalType": "bytes32",
              "name": "fdcRequestId",
              "type": "bytes32"
            },
            {
              "internalType": "bytes32",
              "name": "xrplProof",
              "type": "bytes32"
            },
            {
              "internalType": "uint256",
              "name": "createdAt",
              "type": "uint256"
            },
            {
              "internalType": "uint256",
              "name": "updatedAt",
              "type": "uint256"
            },
            {
              "internalType": "string",
              "name": "metadata",
              "type": "string"
            }
          ],
          "internalType": "struct MedicalRecordVaultWithRealFDC.MedicalCharge",
          "name": "",
          "type": "tuple"
        }
      ],
      "stateMutability": "view",
      "type": "function"
    },
    {
      "inputs": [
        {
          "internalType": "bytes32",
          "name": "patientId",
          "type": "bytes32"
        }
      ],
      "name": "getPatientCharges",
      "outputs": [
        {
          "internalType": "bytes32[]",
          "name": "",
          "type": "bytes32[]"
        }
      ],
      "stateMutability": "view",
      "type": "function"
    },
    {
      "inputs": [
        {
          "internalType": "bytes32",
          "name": "hospitalId",
          "type": "bytes32"
        }
      ],
      "name": "getHospitalCharges",
      "outputs": [
        {
          "internalType": "bytes32[]",
          "name": "",
          "type": "bytes32[]"
        }
      ],
      "stateMutability": "view",
      "type": "function"
    },
    {
      "inputs": [
        {
          "internalType": "bytes32",
          "name": "insurerId",
          "type": "bytes32"
        }
      ],
      "name": "getInsuranceCharges",
      "outputs": [
        {
          "internalType": "bytes32[]",
          "name": "",
          "type": "bytes32[]"
        }
      ],
      "stateMutability": "view",
      "type": "function"
    },
    {
      "inputs": [
        {
          "internalType": "bytes32",
          "name": "patientId",
          "type": "bytes32"
        }
      ],
      "name": "getPatientTransactionHistory",
      "outputs": [
        {
          "internalType": "bytes32[]",
          "name": "",
          "type": "bytes32[]"
        }
      ],
      "stateMutability": "view",
      "type": "function"
    },
    {
      "inputs": [
        {
          "internalType": "bytes32",
          "name": "txId",
          "type": "bytes32"
        }
      ],
      "name": "getTransaction",
      "outputs": [
        {
          "components": [
            {
              "internalType": "bytes32",
              "name": "txId",
              "type": "bytes32"
            },
            {
              "internalType": "enum MedicalRecordVaultWithRealFDC.TransactionType",
              "name": "txType",
              "type": "uint8"
            },
            {
              "internalType": "bytes32",
              "name": "fromParty",
              "type": "bytes32"
            },
            {
              "internalType": "bytes32",
              "name": "toParty",
              "type": "bytes32"
            },
            {
              "internalType": "bytes32",
              "name": "relatedId",
              "type": "bytes32"
            },
            {
              "internalType": "uint256",
              "name": "amount",
              "type": "uint256"
            },
            {
              "internalType": "bytes32",
              "name": "xrplTxHash",
              "type": "bytes32"
            },
            {
              "internalType": "bytes32",
              "name": "fdcProof",
              "type": "bytes32"
            },
            {
              "internalType": "uint256",
              "name": "timestamp",
              "type": "uint256"
            },
            {
              "internalType": "string",
              "name": "notes",
              "type": "string"
            }
          ],
          "internalType": "struct MedicalRecordVaultWithRealFDC.TransactionRecord",
          "name": "",
          "type": "tuple"
        }
      ],
      "stateMutability": "view",
      "type": "function"
    },
    {
      "inputs": [
        {
          "internalType": "bytes32",
          "name": "hospitalId",
          "type": "bytes32"
        }
      ],
      "name": "getHospitalInfo",
      "outputs": [
        {
          "components": [
            {
              "internalType": "string",
              "name": "name",
              "type": "string"
            },
            {
              "internalType": "string",
              "name": "xrplAccount",
              "type": "string"
            },
            {
              "internalType": "address",
              "name": "contact",
              "type": "address"
            },
            {
              "internalType": "bool",
              "name": "isRegistered",
              "type": "bool"
            },
            {
              "internalType": "uint256",
              "name": "totalCharges",
              "type": "uint256"
            },
            {
              "internalType": "uint256",
              "name": "registeredAt",
              "type": "uint256"
            }
          ],
          "internalType": "struct MedicalRecordVaultWithRealFDC.HospitalInfo",
          "name": "",
          "type": "tuple"
        }
      ],
      "stateMutability": "view",
      "type": "function"
    },
    {
      "inputs": [],
      "name": "getSystemStats",
      "outputs": [
        {
          "internalType": "uint256",
          "name": "_totalCharges",
          "type": "uint256"
        },
        {
          "internalType": "uint256",
          "name": "_totalTransactions",
          "type": "uint256"
        },
        {
          "internalType": "uint256",
          "name": "_registeredHospitals",
          "type": "uint256"
        },
        {
          "internalType": "uint256",
          "name": "_activeInsurers",
          "type": "uint256"
        }
      ],
      "stateMutability": "view",
      "type": "function"
    },
    {
      "inputs": [
        {
          "internalType": "bytes32",
          "name": "patientId",
          "type": "bytes32"
        }
      ],
      "name": "getPatientStats",
      "outputs": [
        {
          "internalType": "uint256",
          "name": "totalDocuments",
          "type": "uint256"
        },
        {
          "internalType": "uint256",
          "name": "totalChargesReceived",
          "type": "uint256"
        },
        {
          "internalType": "uint256",
          "name": "totalTransactions",
          "type": "uint256"
        },
        {
          "internalType": "uint256",
          "name": "totalAmountCharged",
          "type": "uint256"
        }
      ],
      "stateMutability": "view",
      "type": "function"
    },
    {
      "inputs": [
        {
          "internalType": "bytes32",
          "name": "patientId",
          "type": "bytes32"
        },
        {
          "internalType": "uint8",
          "name": "kind",
          "type": "uint8"
        }
      ],
      "name": "getDocument",
      "outputs": [
        {
          "internalType": "string",
          "name": "",
          "type": "string"
        },
        {
          "internalType": "uint256",
          "name": "",
          "type": "uint256"
        },
        {
          "internalType": "uint256",
          "name": "",
          "type": "uint256"
        },
        {
          "internalType": "bytes32",
          "name": "",
          "type": "bytes32"
        }
      ],
      "stateMutability": "nonpayable",
      "type": "function"
    },
    {
      "inputs": [
        {
          "internalType": "bytes32",
          "name": "patientId",
          "type": "bytes32"
        }
      ],
      "name": "getInsurerInfo",
      "outputs": [
        {
          "internalType": "string",
          "name": "xrplAccount",
          "type": "string"
        },
        {
          "internalType": "address",
          "name": "contact",
          "type": "address"
        }
      ],
      "stateMutability": "view",
      "type": "function"
    },
    {
      "inputs": [
        {
          "internalType": "uint256",
          "name": "seconds_",
          "type": "uint256"
        }
      ],
      "name": "setMaxOracleStaleness",
      "outputs": [],
      "stateMutability": "nonpayable",
      "type": "function"
    },
    {
      "inputs": [
        {
          "internalType": "uint256",
          "name": "feeUSDc",
          "type": "uint256"
        }
      ],
      "name": "setUploadFeeUSDc",
      "outputs": [],
      "stateMutability": "nonpayable",
      "type": "function"
    }
  ],
  "bytecode": "0x60806040526101f460115561025860125534801561001b575f80fd5b505f80546001600160a01b0319163317905561408a8061003a5f395ff3fe608060405260043610610257575f3560e01c8063809103011161013f578063b9a60038116100b3578063d1ce59a711610078578063d1ce59a71461079b578063d538d665146107b4578063e57cb3ac146107ea578063f0ec455a14610809578063f2fde38b14610843578063ffe6f08a14610862575f80fd5b8063b9a6003814610715578063bb8a9f131461072a578063c1ae721c14610749578063c3e57b4414610768578063d1784efc1461077c575f80fd5b8063935e548511610104578063935e548514610679578063971afafd1461068e578063ade64e4b146106a3578063b505dde5146106b7578063b78eda95146106d6578063b8f4ba1b14610701575f80fd5b806380910301146105df57806384234c0c146105fe57806384ed77241461061d5780638c9d41ce1461063c5780638da5cb5b1461065b575f80fd5b806334809afc116101d65780635b5a49cf1161019b5780635b5a49cf146104d7578063642f2eaf146105035780636e2c575f1461053857806371a265aa14610564578063781404681461059157806378bb0dad146105c0575f80fd5b806334809afc146104125780634aae13ca1461044c5780634aded48f146104785780635ab770ca146104b15780635ac4ffba146104c4575f80fd5b806316373acc1161021c57806316373acc146103685780631d5fc8c714610387578063226a3197146103b2578063300d4bdb146103d157806333baf630146103e6575f80fd5b80630392d0951461026257806304f692f7146102835780630709f860146102c7578063096453281461030457806312f58a631461033d575f80fd5b3661025e57005b5f80fd5b34801561026d575f80fd5b5061028161027c3660046131ce565b610893565b005b34801561028e575f80fd5b506102a261029d36600461325f565b610a6a565b6040805194855260208501939093529183015260608201526080015b60405180910390f35b3480156102d2575f80fd5b506102db610b91565b6040516102be9493929190938452602084019290925260ff166040830152606082015260800190565b34801561030f575f80fd5b5061032f61031e36600461325f565b60106020525f908152604090205481565b6040519081526020016102be565b348015610348575f80fd5b5061032f61035736600461325f565b600f6020525f908152604090205481565b348015610373575f80fd5b5061028161038236600461328a565b610c07565b348015610392575f80fd5b5061032f6103a136600461325f565b600b6020525f908152604090205481565b3480156103bd575f80fd5b5061032f6103cc36600461330f565b610e07565b3480156103dc575f80fd5b5061032f600d5481565b3480156103f1575f80fd5b5061040561040036600461325f565b610e32565b6040516102be919061332f565b34801561041d575f80fd5b5073ad67fe66660fb8dfe9d6b1b4240d8650e30f60195b6040516001600160a01b0390911681526020016102be565b348015610457575f80fd5b5061046b61046636600461325f565b610e91565b6040516102be91906133dd565b348015610483575f80fd5b5061049761049236600461325f565b61100b565b6040516102be9e9d9c9b9a99989796959493929190613488565b6102816104bf366004613520565b61118f565b6102816104d236600461325f565b611589565b3480156104e2575f80fd5b506104f66104f136600461325f565b61161d565b6040516102be91906135d0565b34801561050e575f80fd5b5061052261051d36600461325f565b6117d4565b6040516102be9a99989796959493929190613647565b348015610543575f80fd5b5061055761055236600461325f565b6118b6565b6040516102be91906136aa565b34801561056f575f80fd5b5061058361057e36600461325f565b611ade565b6040516102be92919061378a565b34801561059c575f80fd5b506105b06105ab3660046137b3565b611b98565b6040516102be94939291906137e1565b3480156105cb575f80fd5b506102816105da36600461380f565b611d4f565b3480156105ea575f80fd5b5061032f6105f936600461330f565b6120cf565b348015610609575f80fd5b5061040561061836600461325f565b6120e8565b348015610628575f80fd5b50610281610637366004613861565b612145565b348015610647575f80fd5b5061028161065636600461325f565b612262565b348015610666575f80fd5b505f54610434906001600160a01b031681565b348015610684575f80fd5b5061032f60125481565b348015610699575f80fd5b5061032f60115481565b3480156106ae575f80fd5b50610434612290565b3480156106c2575f80fd5b506104056106d136600461325f565b61238c565b3480156106e1575f80fd5b5061032f6106f036600461325f565b600c6020525f908152604090205481565b34801561070c575f80fd5b506104346123e9565b348015610720575f80fd5b5061032f600e5481565b348015610735575f80fd5b5061032f61074436600461330f565b6124ca565b348015610754575f80fd5b5061028161076336600461325f565b6124e3565b348015610773575f80fd5b50610434612511565b348015610787575f80fd5b5061032f61079636600461330f565b6125f2565b3480156107a6575f80fd5b50600d54600e545f806102a2565b3480156107bf575f80fd5b5061032f6107ce3660046137b3565b600260209081525f928352604080842090915290825290205481565b3480156107f5575f80fd5b5061040561080436600461325f565b61260b565b348015610814575f80fd5b5061081d612668565b604080519384526001600160401b03909216602084015260ff16908201526060016102be565b34801561084e575f80fd5b5061028161085d3660046138c6565b6126f3565b34801561086d575f80fd5b5061088161087c36600461325f565b612780565b6040516102be969594939291906138e1565b5f61089c612290565b60405163eaff84a960e01b81529091506001600160a01b0382169063eaff84a9906108cb90879060040161399d565b602060405180830381865afa1580156108e6573d5f803e3d5ffd5b505050506040513d601f19601f8201168201806040525081019061090a9190613a40565b61094f5760405162461bcd60e51b815260206004820152601160248201527024b73b30b634b21023222190383937b7b360791b60448201526064015b60405180910390fd5b5f6109586128cf565b9050808310156109a25760405162461bcd60e51b8152602060048201526015602482015274161494081c185e5b595b9d081d1bdbc81cdb585b1b605a1b6044820152606401610946565b6109ae898989896128e0565b5f89815260016020818152604080842060ff8d16808652908352818520938401548e86526002845282862091865292528320819055600382018790556004820186905560058201839055600682019290925590610a12908b908b9087898d8d6129a4565b60018101546040805191825260208201869052810186905260ff8a16908b907f2bd495210f90c5947db19e2ed93f400539ce2f52b0211c7a52870d200104be059060600160405180910390a350505050505050505050565b5f805f805f805b600260ff821611610abf575f87815260016020818152604080842060ff86168552909152909120015415610aad5781610aa981613a73565b9250505b80610ab781613a8b565b915050610a71565b505f86815260076020908152604080832080548251818502810185019093528083529192909190830182828015610b1357602002820191905f5260205f20905b815481526020019060010190808311610aff575b505050505090505f805b8251811015610b735760055f848381518110610b3b57610b3b613aa9565b602002602001015181526020019081526020015f206006015482610b5f9190613abd565b915080610b6b81613a73565b915050610b1d565b5090515f978852600a60205260409097205491979195509350915050565b5f805f805f805f610ba0612668565b9250925092505f8311610be55760405162461bcd60e51b815260206004820152600d60248201526c496e76616c696420707269636560981b6044820152606401610946565b610bf26011548483612a7b565b9792965094506001600160401b031692509050565b5f546001600160a01b03163314610c305760405162461bcd60e51b815260040161094690613ad0565b5f86815260046020526040902060020154600160a01b900460ff1615610c985760405162461bcd60e51b815260206004820152601b60248201527f486f73706974616c20616c7265616479207265676973746572656400000000006044820152606401610946565b6040518060c0016040528086868080601f0160208091040260200160405190810160405280939291908181526020018383808284375f92019190915250505090825250604080516020601f8701819004810282018101909252858152918101919086908690819084018382808284375f9201829052509385525050506001600160a01b03841660208084019190915260016040808501919091526060840183905242608090940193909352898252600490522081518190610d599082613b83565b5060208201516001820190610d6e9082613b83565b5060408281015160028301805460608601511515600160a01b026001600160a81b03199091166001600160a01b03909316929092179190911790556080830151600383015560a0909201516004909101555186907f37fa71cdd0367c8880e8b34fff5af8da83951bef8acce652ee9a80d2f914b5cd90610df79088908890889088908890613c3e565b60405180910390a2505050505050565b6009602052815f5260405f208181548110610e20575f80fd5b905f5260205f20015f91509150505481565b5f81815260096020908152604091829020805483518184028101840190945280845260609392830182828015610e8557602002820191905f5260205f20905b815481526020019060010190808311610e71575b50505050509050919050565b6040805161014080820183525f808352602080840182905283850182905260608085018390526080850183905260a0850183905260c0850183905260e08501839052610100850183905261012085015285825260068152908490208451928301909452835482526001840154929391929083019060ff166003811115610f1957610f19613372565b6003811115610f2a57610f2a613372565b815260200160028201548152602001600382015481526020016004820154815260200160058201548152602001600682015481526020016007820154815260200160088201548152602001600982018054610f8490613b07565b80601f0160208091040260200160405190810160405280929190818152602001828054610fb090613b07565b8015610ffb5780601f10610fd257610100808354040283529160200191610ffb565b820191905f5260205f20905b815481529060010190602001808311610fde57829003601f168201915b5050505050815250509050919050565b600560208190525f9182526040909120805460018201546002830154600384015460048501549585018054949693959294919360ff16929161104c90613b07565b80601f016020809104026020016040519081016040528092919081815260200182805461107890613b07565b80156110c35780601f1061109a576101008083540402835291602001916110c3565b820191905f5260205f20905b8154815290600101906020018083116110a657829003601f168201915b505050505090806006015490806007015490806008015f9054906101000a900460ff169080600901549080600a01549080600b01549080600c01549080600d01805461110e90613b07565b80601f016020809104026020016040519081016040528092919081815260200182805461113a90613b07565b80156111855780601f1061115c57610100808354040283529160200191611185565b820191905f5260205f20905b81548152906001019060200180831161116857829003601f168201915b505050505090508e565b5f88815260046020526040902060020154600160a01b900460ff166111f65760405162461bcd60e51b815260206004820152601760248201527f486f73706974616c206e6f7420726567697374657265640000000000000000006044820152606401610946565b5f8a815260056020526040902054156112515760405162461bcd60e51b815260206004820152601860248201527f43686172676520494420616c72656164792065786973747300000000000000006044820152606401610946565b5f83116112a05760405162461bcd60e51b815260206004820152601d60248201527f416d6f756e74206d7573742062652067726561746572207468616e20300000006044820152606401610946565b5f6112aa84612ad9565b9050604051806101c001604052808c81526020018b81526020018a81526020018981526020018860058111156112e2576112e2613372565b815260200187878080601f0160208091040260200160405190810160405280939291908181526020018383808284375f920182905250938552505050602082018790526040820184905260609091019081526020015f801b81526020015f801b815260200142815260200142815260200184848080601f0160208091040260200160405190810160405280939291908181526020018383808284375f9201829052509390945250508d81526005602081815260409283902085518155908501516001808301919091559285015160028201556060850151600382015560808501516004820180549295509093909260ff199092169184908111156113e8576113e8613372565b021790555060a082015160058201906114019082613b83565b5060c0820151600682015560e0820151600782015561010082015160088201805460ff1916600183600481111561143a5761143a613372565b02179055506101208201516009820155610140820151600a820155610160820151600b820155610180820151600c8201556101a0820151600d8201906114809082613b83565b5050505f8a8152600760209081526040808320805460018181018355918552838520018f90558c84526008835281842080548083018255908552838520018f90558b845260098352908320805491820181558352908220018c9055600d8054916114e983613a73565b90915550505f89815260046020526040812060030180549161150a83613a73565b90915550505f898152600f6020526040812080549161152883613a73565b9190505550888a8c7fd09aed5e15604513c5cfccad797743faf850dcdb0d8f824c2aaed077467a37598b8b89876040516115659493929190613c7f565b60405180910390a4341561157c5761157c8b612b99565b5050505050505050505050565b5f818152600560205260409020546115b35760405162461bcd60e51b815260040161094690613ca5565b5f81815260056020526040902060090154156116115760405162461bcd60e51b815260206004820152601d60248201527f464443207265717565737420616c7265616479207375626d69747465640000006044820152606401610946565b61161a81612b99565b50565b61165d6040518060c0016040528060608152602001606081526020015f6001600160a01b031681526020015f151581526020015f81526020015f81525090565b5f8281526004602052604090819020815160c0810190925280548290829061168490613b07565b80601f01602080910402602001604051908101604052809291908181526020018280546116b090613b07565b80156116fb5780601f106116d2576101008083540402835291602001916116fb565b820191905f5260205f20905b8154815290600101906020018083116116de57829003601f168201915b5050505050815260200160018201805461171490613b07565b80601f016020809104026020016040519081016040528092919081815260200182805461174090613b07565b801561178b5780601f106117625761010080835404028352916020019161178b565b820191905f5260205f20905b81548152906001019060200180831161176e57829003601f168201915b505050918352505060028201546001600160a01b0381166020830152600160a01b900460ff16151560408201526003820154606082015260049091015460809091015292915050565b6006602052805f5260405f205f91509050805f015490806001015f9054906101000a900460ff169080600201549080600301549080600401549080600501549080600601549080600701549080600801549080600901805461183590613b07565b80601f016020809104026020016040519081016040528092919081815260200182805461186190613b07565b80156118ac5780601f10611883576101008083540402835291602001916118ac565b820191905f5260205f20905b81548152906001019060200180831161188f57829003601f168201915b505050505090508a565b611929604080516101c0810182525f8082526020820181905291810182905260608082018390526080820183905260a082015260c0810182905260e081018290529061010082019081526020015f80191681526020015f80191681526020015f81526020015f8152602001606081525090565b5f828152600560205260409020546119535760405162461bcd60e51b815260040161094690613ca5565b60055f8381526020019081526020015f20604051806101c00160405290815f8201548152602001600182015481526020016002820154815260200160038201548152602001600482015f9054906101000a900460ff1660058111156119ba576119ba613372565b60058111156119cb576119cb613372565b81526020016005820180546119df90613b07565b80601f0160208091040260200160405190810160405280929190818152602001828054611a0b90613b07565b8015611a565780601f10611a2d57610100808354040283529160200191611a56565b820191905f5260205f20905b815481529060010190602001808311611a3957829003601f168201915b50505091835250506006820154602082015260078201546040820152600882015460609091019060ff166004811115611a9157611a91613372565b6004811115611aa257611aa2613372565b815260200160098201548152602001600a8201548152602001600b8201548152602001600c8201548152602001600d82018054610f8490613b07565b5f81815260036020526040812060018101548154606093929182916001600160a01b03909116908290611b1090613b07565b80601f0160208091040260200160405190810160405280929190818152602001828054611b3c90613b07565b8015611b875780601f10611b5e57610100808354040283529160200191611b87565b820191905f5260205f20905b815481529060010190602001808311611b6a57829003601f168201915b505050505091509250925050915091565b60605f8080600260ff86161115611bdc5760405162461bcd60e51b8152602060048201526008602482015267189859081ada5b9960c21b6044820152606401610946565b5f86815260016020818152604080842060ff8a1685529091529091209081015415801590611c29575060018101545f88815260026020908152604080832060ff8b16845290915290205410155b611c675760405162461bcd60e51b815260206004820152600f60248201526e756e70616964206f7220656d70747960881b6044820152606401610946565b60405133815260ff87169088907f074f075979d9759e37d7ae44786a6bc14281a51cd89a11a7efe7d94b8d98cb929060200160405180910390a3805f01816001015482600201548360030154838054611cbf90613b07565b80601f0160208091040260200160405190810160405280929190818152602001828054611ceb90613b07565b8015611d365780601f10611d0d57610100808354040283529160200191611d36565b820191905f5260205f20905b815481529060010190602001808311611d1957829003601f168201915b5050505050935094509450945094505092959194509250565b5f84815260056020526040902054611d795760405162461bcd60e51b815260040161094690613ca5565b5f8481526005602052604081206008015460ff166004811115611d9e57611d9e613372565b14611de05760405162461bcd60e51b8152602060048201526012602482015271436861726765206e6f742070656e64696e6760701b6044820152606401610946565b5f84815260056020526040902060090154611e3d5760405162461bcd60e51b815260206004820152601e60248201527f4e6f20464443207265717565737420666f7220746869732063686172676500006044820152606401610946565b5f611e46612290565b60405163eaff84a960e01b81529091506001600160a01b0382169063eaff84a990611e7590879060040161399d565b602060405180830381865afa158015611e90573d5f803e3d5ffd5b505050506040513d601f19601f82011682018060405250810190611eb49190613a40565b611ef45760405162461bcd60e51b815260206004820152601160248201527024b73b30b634b21023222190383937b7b360791b6044820152606401610946565b5f8581526005602052604090206007810154831015611f4c5760405162461bcd60e51b8152602060048201526014602482015273125b9cdd59999a58da595b9d081c185e5b595b9d60621b6044820152606401610946565b60088101805460ff19811660021790915560405160ff90911690611f7490879060200161399d565b60408051808303601f190181528282528051602091820120600a86015542600c86018190559083018a905290820187905260608201525f9060800160405160208183030381529060405280519060200120905061200081600285600301548660020154875f01548a8c8a600a015460405180606001604052806022815260200161403360229139612e73565b60038301545f90815260106020526040812080549161201e83613a73565b909155506002905082600481111561203857612038613372565b897f735a48529dc88599b5d06cb5dcece2df1fbe8fc286839deea75e058d8f152f734260405161206a91815260200190565b60405180910390a460028301546003840154600a85015460408051898152602081018b9052908101919091528a907f93810e2f750373049917793c448e55a07feeeb490a059861548403dea0d092a09060600160405180910390a45050505050505050565b6007602052815f5260405f208181548110610e20575f80fd5b5f81815260086020908152604091829020805483518184028101840190945280845260609392830182828015610e8557602002820191905f5260205f2090815481526020019060010190808311610e715750505050509050919050565b5f546001600160a01b0316331461216e5760405162461bcd60e51b815260040161094690613ad0565b604051806060016040528084848080601f0160208091040260200160405190810160405280939291908181526020018383808284375f9201829052509385525050506001600160a01b03841660208084019190915260016040938401528882526003905220815181906121e19082613b83565b506020820151600190910180546040938401511515600160a01b026001600160a81b03199091166001600160a01b039093169290921791909117905551859085907f395f3017a2b5bed18b75ca98826debb482a9ce45bc3800a9332830dd73fafec69061225390879087908790613cd4565b60405180910390a35050505050565b5f546001600160a01b0316331461228b5760405162461bcd60e51b815260040161094690613ad0565b601255565b5f8073ad67fe66660fb8dfe9d6b1b4240d8650e30f601960405163413b07e560e11b815260206004820152600f60248201526e233231ab32b934b334b1b0ba34b7b760891b60448201526001600160a01b0391909116906382760fca90606401602060405180830381865afa15801561230b573d5f803e3d5ffd5b505050506040513d601f19601f8201168201806040525081019061232f9190613cff565b90506001600160a01b0381166123875760405162461bcd60e51b815260206004820152601960248201527f466463566572696669636174696f6e206e6f7420666f756e64000000000000006044820152606401610946565b919050565b5f81815260076020908152604091829020805483518184028101840190945280845260609392830182828015610e8557602002820191905f5260205f2090815481526020019060010190808311610e715750505050509050919050565b5f8073ad67fe66660fb8dfe9d6b1b4240d8650e30f601960405163413b07e560e11b8152602060048201526006602482015265233231a43ab160d11b60448201526001600160a01b0391909116906382760fca90606401602060405180830381865afa15801561245b573d5f803e3d5ffd5b505050506040513d601f19601f8201168201806040525081019061247f9190613cff565b90506001600160a01b0381166123875760405162461bcd60e51b815260206004820152601060248201526f119918d21d58881b9bdd08199bdd5b9960821b6044820152606401610946565b6008602052815f5260405f208181548110610e20575f80fd5b5f546001600160a01b0316331461250c5760405162461bcd60e51b815260040161094690613ad0565b601155565b5f8073ad67fe66660fb8dfe9d6b1b4240d8650e30f601960405163413b07e560e11b8152602060048201526006602482015265233a39b7ab1960d11b60448201526001600160a01b0391909116906382760fca90606401602060405180830381865afa158015612583573d5f803e3d5ffd5b505050506040513d601f19601f820116820180604052508101906125a79190613cff565b90506001600160a01b0381166123875760405162461bcd60e51b815260206004820152601060248201526f119d1cdbd58c881b9bdd08199bdd5b9960821b6044820152606401610946565b600a602052815f5260405f208181548110610e20575f80fd5b5f818152600a6020908152604091829020805483518184028101840190945280845260609392830182828015610e8557602002820191905f5260205f2090815481526020019060010190808311610e715750505050509050919050565b5f805f80612674612511565b60405163a908f02160e01b8152661614940bd554d160ca1b60048201529091506001600160a01b0382169063a908f02190602401606060405180830381865afa1580156126c3573d5f803e3d5ffd5b505050506040513d601f19601f820116820180604052508101906126e79190613d1a565b93509350935050909192565b5f546001600160a01b0316331461271c5760405162461bcd60e51b815260040161094690613ad0565b6001600160a01b03811661275f5760405162461bcd60e51b815260206004820152600a6024820152693d32b9379037bbb732b960b11b6044820152606401610946565b5f80546001600160a01b0319166001600160a01b0392909216919091179055565b60046020525f908152604090208054819061279a90613b07565b80601f01602080910402602001604051908101604052809291908181526020018280546127c690613b07565b80156128115780601f106127e857610100808354040283529160200191612811565b820191905f5260205f20905b8154815290600101906020018083116127f457829003601f168201915b50505050509080600101805461282690613b07565b80601f016020809104026020016040519081016040528092919081815260200182805461285290613b07565b801561289d5780601f106128745761010080835404028352916020019161289d565b820191905f5260205f20905b81548152906001019060200180831161288057829003601f168201915b505050506002830154600384015460049094015492936001600160a01b03821693600160a01b90920460ff1692509086565b5f6128db601154612ad9565b905090565b600260ff8416111561291f5760405162461bcd60e51b8152602060048201526008602482015267189859081ada5b9960c21b6044820152606401610946565b5f84815260016020908152604080832060ff87168452909152902080612946838583613d65565b506001816001015f82825461295b9190613abd565b9091555050426002820155600181015460405160ff86169187917f06f6b1bfeb5b4ec123686e3e99b88f31ea983f9a90ad9ba8bf10f0fb29b47af4916122539188918891613e20565b60405162646f6360e81b6020820152602381018890526001600160f81b031960f888901b166043820152604481018690524260648201525f9060840160408051601f19818403018152908290528051602091820120925030915f91612a23918c918c910191825260f81b6001600160f81b031916602082015260210190565b604051602081830303815290604052805190602001209050612a6f835f8c85858c5f801b8d8d8d604051602001612a5b929190613e43565b604051602081830303815290604052612e73565b50505050505050505050565b5f80612a8e85662386f26fc10000613e86565b90505f612a9d858560126130c1565b90505f612abb612ab584670de0b6b3a7640000613e86565b8361312e565b9050612acc8164e8d4a5100061312e565b93505050505b9392505050565b5f805f80612ae5612668565b9250925092505f8311612b2e5760405162461bcd60e51b8152602060048201526011602482015270496e76616c69642058525020707269636560781b6044820152606401610946565b601254612b44906001600160401b038416613abd565b421115612b855760405162461bcd60e51b815260206004820152600f60248201526e507269636520746f6f207374616c6560881b6044820152606401610946565b612b90858483612a7b565b95945050505050565b5f81815260056020526040812090612baf6123e9565b60405163c541a29760e01b81527f719cb0253ef697889326e5c9d983af70a0f2deb8ac984ecb066be7c2a1c51f9360048201529091505f906001600160a01b0383169063c541a29790602401602060405180830381865afa158015612c16573d5f803e3d5ffd5b505050506040513d601f19601f82011682018060405250810190612c3a9190613e9d565b905080341015612c835760405162461bcd60e51b8152602060048201526014602482015273496e73756666696369656e74204644432066656560601b6044820152606401610946565b5f60405180608001604052807f719cb0253ef697889326e5c9d983af70a0f2deb8ac984ecb066be7c2a1c51f9381526020017fe10d74f4b5ec141068a0aa87ef37c8d69520c8222844d843206a4ce022008c058152602001855f0154866007015487600201548860030154604051602001612d17949392919093845260208401929092526040830152606082015260800190565b60405160208183030381529060405281526020018381525090505f836001600160a01b031663782d474684846040518363ffffffff1660e01b8152600401612d5f9190613eb4565b60206040518083038185885af1158015612d7b573d5f803e3d5ffd5b50505050506040513d601f19601f82011682018060405250810190612da09190613e9d565b6009860181905542600c808801919091555f828152600b602090815260408083208b90558a83529281529082902083905581517f719cb0253ef697889326e5c9d983af70a0f2deb8ac984ecb066be7c2a1c51f938152908101869052919250829188917fe0ab548ad109de3d4819400972bfcc185733e61e3742a1ae3271c234d545d31f910160405180910390a382341115612e6b57336108fc612e448534613ef9565b6040518115909202915f818181858888f19350505050158015612e69573d5f803e3d5ffd5b505b505050505050565b6040518061014001604052808a8152602001896003811115612e9757612e97613372565b81526020018881526020018781526020018681526020018581526020018481526020018381526020014281526020018281525060065f8b81526020019081526020015f205f820151815f01556020820151816001015f6101000a81548160ff02191690836003811115612f0c57612f0c613372565b021790555060408201516002820155606082015160038201556080820151600482015560a0820151600582015560c0820151600682015560e0820151600782015561010082015160088201556101208201516009820190612f6d9082613b83565b505f9150612f789050565b886003811115612f8a57612f8a613372565b1480612fa757506003886003811115612fa557612fa5613372565b145b15612fd1575f878152600a602090815260408220805460018101825590835291200189905561304c565b6002886003811115612fe557612fe5613372565b14806130025750600188600381111561300057613000613372565b145b1561304c575f858152600560205260409020600101541561304c575f8581526005602090815260408083206001908101548452600a83529083208054918201815583529120018990555b600e8054905f61305b83613a73565b91905055508688600381111561307357613073613372565b60408051898152602081018890529081018690528b907faaf61d329957079ffbfe3711ef8a5db751c8958aa5c9a606dde9e9bd2b0de9219060600160405180910390a4505050505050505050565b5f8160ff168360ff16036130d6575082612ad2565b8160ff168360ff1610613107576130ed8284613f0c565b6130f890600a614005565b6131029085614013565b613126565b6131118383613f0c565b61311c90600a614005565b6131269085613e86565b949350505050565b5f821561315b5781613141600185613ef9565b61314b9190614013565b613156906001613abd565b61315d565b5f5b90505b92915050565b60ff8116811461161a575f80fd5b5f8083601f840112613184575f80fd5b5081356001600160401b0381111561319a575f80fd5b6020830191508360208285010111156131b1575f80fd5b9250929050565b5f606082840312156131c8575f80fd5b50919050565b5f805f805f805f60c0888a0312156131e4575f80fd5b8735965060208801356131f681613166565b955060408801356001600160401b0380821115613211575f80fd5b61321d8b838c01613174565b909750955060608a0135915080821115613235575f80fd5b506132428a828b016131b8565b9350506080880135915060a0880135905092959891949750929550565b5f6020828403121561326f575f80fd5b5035919050565b6001600160a01b038116811461161a575f80fd5b5f805f805f806080878903121561329f575f80fd5b8635955060208701356001600160401b03808211156132bc575f80fd5b6132c88a838b01613174565b909750955060408901359150808211156132e0575f80fd5b506132ed89828a01613174565b909450925050606087013561330181613276565b809150509295509295509295565b5f8060408385031215613320575f80fd5b50508035926020909101359150565b602080825282518282018190525f9190848201906040850190845b818110156133665783518352928401929184019160010161334a565b50909695505050505050565b634e487b7160e01b5f52602160045260245ffd5b6004811061339657613396613372565b9052565b5f81518084525f5b818110156133be576020818501810151868301820152016133a2565b505f602082860101526020601f19601f83011685010191505092915050565b60208152815160208201525f60208301516133fb6040840182613386565b506040830151606083015260608301516080830152608083015160a083015260a083015160c083015260c083015160e083015260e083015161010081818501528085015191505061012081818501528085015191505061014080818501525061312661016084018261339a565b6006811061339657613396613372565b6005811061339657613396613372565b8e81528d60208201528c60408201528b60608201526134aa608082018c613468565b6101c060a08201525f6134c16101c083018c61339a565b8a60c08401528960e08401526134db61010084018a613478565b876101208401528661014084015285610160840152846101808401528281036101a084015261350a818561339a565b9150509f9e505050505050505050505050505050565b5f805f805f805f805f806101008b8d03121561353a575f80fd5b8a35995060208b0135985060408b0135975060608b0135965060808b013560068110613564575f80fd5b955060a08b01356001600160401b038082111561357f575f80fd5b61358b8e838f01613174565b909750955060c08d0135945060e08d01359150808211156135aa575f80fd5b506135b78d828e01613174565b915080935050809150509295989b9194979a5092959850565b602081525f825160c060208401526135eb60e084018261339a565b90506020840151601f19848303016040850152613608828261339a565b91505060018060a01b036040850151166060840152606084015115156080840152608084015160a084015260a084015160c08401528091505092915050565b5f6101408c835261365b602084018d613386565b8a60408401528960608401528860808401528760a08401528660c08401528560e084015284610100840152806101208401526136998184018561339a565b9d9c50505050505050505050505050565b60208152815160208201526020820151604082015260408201516060820152606082015160808201525f60808301516136e660a0840182613468565b5060a08301516101c08060c08501526137036101e085018361339a565b915060c085015160e085015260e085015161010081818701528087015191505061012061373281870183613478565b8601516101408681019190915286015161016080870191909152860151610180808701919091528601516101a080870191909152860151858403601f1901838701529050613780838261339a565b9695505050505050565b604081525f61379c604083018561339a565b905060018060a01b03831660208301529392505050565b5f80604083850312156137c4575f80fd5b8235915060208301356137d681613166565b809150509250929050565b608081525f6137f3608083018761339a565b6020830195909552506040810192909252606090910152919050565b5f805f8060808587031215613822575f80fd5b8435935060208501356001600160401b0381111561383e575f80fd5b61384a878288016131b8565b949794965050505060408301359260600135919050565b5f805f805f60808688031215613875575f80fd5b853594506020860135935060408601356001600160401b03811115613898575f80fd5b6138a488828901613174565b90945092505060608601356138b881613276565b809150509295509295909350565b5f602082840312156138d6575f80fd5b8135612ad281613276565b60c081525f6138f360c083018961339a565b8281036020840152613905818961339a565b6001600160a01b0397909716604084015250509215156060840152608083019190915260a09091015292915050565b5f808335601e19843603018112613949575f80fd5b83016020810192503590506001600160401b03811115613967575f80fd5b8036038213156131b1575f80fd5b81835281816020850137505f828201602090810191909152601f909101601f19169091010190565b60208152813560208201525f6020830135601e198436030181126139bf575f80fd5b83016020810190356001600160401b038111156139da575f80fd5b8060051b8036038313156139ec575f80fd5b60606040860152608085018290526001600160fb1b03821115613a0d575f80fd5b808360a087013784019150613a2790506040850185613934565b608085840301606086015261378060a084018284613975565b5f60208284031215613a50575f80fd5b81518015158114612ad2575f80fd5b634e487b7160e01b5f52601160045260245ffd5b5f60018201613a8457613a84613a5f565b5060010190565b5f60ff821660ff8103613aa057613aa0613a5f565b60010192915050565b634e487b7160e01b5f52603260045260245ffd5b8082018082111561316057613160613a5f565b6020808252600990820152683737ba1037bbb732b960b91b604082015260600190565b634e487b7160e01b5f52604160045260245ffd5b600181811c90821680613b1b57607f821691505b6020821081036131c857634e487b7160e01b5f52602260045260245ffd5b601f821115613b7e575f81815260208120601f850160051c81016020861015613b5f5750805b601f850160051c820191505b81811015612e6b57828155600101613b6b565b505050565b81516001600160401b03811115613b9c57613b9c613af3565b613bb081613baa8454613b07565b84613b39565b602080601f831160018114613be3575f8415613bcc5750858301515b5f19600386901b1c1916600185901b178555612e6b565b5f85815260208120601f198616915b82811015613c1157888601518255948401946001909101908401613bf2565b5085821015613c2e57878501515f19600388901b60f8161c191681555b5050505050600190811b01905550565b606081525f613c51606083018789613975565b8281036020840152613c64818688613975565b91505060018060a01b03831660408301529695505050505050565b84815260808101613c936020830186613468565b60408201939093526060015292915050565b60208082526015908201527410da185c99d948191bd95cc81b9bdd08195e1a5cdd605a1b604082015260600190565b604081525f613ce7604083018587613975565b905060018060a01b0383166020830152949350505050565b5f60208284031215613d0f575f80fd5b8151612ad281613276565b5f805f60608486031215613d2c575f80fd5b8351925060208401516001600160401b0381168114613d49575f80fd5b6040850151909250613d5a81613166565b809150509250925092565b6001600160401b03831115613d7c57613d7c613af3565b613d9083613d8a8354613b07565b83613b39565b5f601f841160018114613dc1575f8515613daa5750838201355b5f19600387901b1c1916600186901b178355613e19565b5f83815260209020601f19861690835b82811015613df15786850135825560209485019460019092019101613dd1565b5086821015613e0d575f1960f88860031b161c19848701351681555b505060018560011b0183555b5050505050565b604081525f613e33604083018587613975565b9050826020830152949350505050565b7f446f63756d656e742075706c6f6164207665726966696564207669612046444381526101d160f51b6020820152818360228301375f9101602201908152919050565b808202811582820484141761316057613160613a5f565b5f60208284031215613ead575f80fd5b5051919050565b6020815281516020820152602082015160408201525f604083015160806060840152613ee360a084018261339a565b9050606084015160808401528091505092915050565b8181038181111561316057613160613a5f565b60ff828116828216039081111561316057613160613a5f565b600181815b80851115613f5f57815f1904821115613f4557613f45613a5f565b80851615613f5257918102915b93841c9390800290613f2a565b509250929050565b5f82613f7557506001613160565b81613f8157505f613160565b8160018114613f975760028114613fa157613fbd565b6001915050613160565b60ff841115613fb257613fb2613a5f565b50506001821b613160565b5060208310610133831016604e8410600b8410161715613fe0575081810a613160565b613fea8383613f25565b805f1904821115613ffd57613ffd613a5f565b029392505050565b5f61315d60ff841683613f67565b5f8261402d57634e487b7160e01b5f52601260045260245ffd5b50049056fe496e737572616e6365207061796d656e742076657269666965642076696120464443a2646970667358221220554c79d5798cf1f3a377130d2137854ced874e9f065a09ccd26192e95fca990964736f6c63430008150033",
  "immutableReferences": {},
  "source": "// SPDX-License-Identifier: MIT\npragma solidity ^0.8.21;\n\nimport \"./FlareContractRegistry.sol\";\n\n/**\n * MedicalRecordVaultWithRealFDC (Coston2 / Flare EVM)\n * ---------------------------------------------------\n * Enhanced medical vault with REAL Flare FDC integration:\n * - Uses actual Flare Contract Registry for dynamic contract resolution\n * - Real FDC Hub for XRPL payment attestations\n * - Real FTSO v2 for price feeds\n * - Hospital billing system with patient-insurance mapping\n * - Complete transaction history tracking\n * - Multi-party transaction recording (Patient  Hospital  Insurance)\n */\n\ninterface IFtsoV2 {\n    /**\n     * Returns the current price for a given feed ID\n     * @param _feedId Feed identifier (e.g., \"FLR/USD\", \"XRP/USD\")\n     * @return _price Price value\n     * @return _timestamp Price timestamp\n     * @return _decimals Price decimals\n     */\n    function getCurrentPrice(bytes21 _feedId) external view returns (uint256 _price, uint64 _timestamp, uint8 _decimals);\n\n    /**\n     * Returns the latest price and its publishing time for a given feed ID\n     * @param _feedId Feed identifier\n     * @return _price Price value\n     * @return _publishTime Publishing timestamp\n     * @return _decimals Price decimals\n     */\n    function getLatestPrice(bytes21 _feedId) external view returns (uint256 _price, uint64 _publishTime, uint8 _decimals);\n}\n\ncontract MedicalRecordVaultWithRealFDC {\n    /*  Constants  */\n\n    // Flare Contract Registry (same address on all Flare networks)\n    address constant FLARE_CONTRACT_REGISTRY = 0xaD67FE66660Fb8dFE9d6b1b4240d8650e30F6019;\n\n    // Feed IDs for FTSO v2\n    bytes21 constant XRP_USD_FEED_ID = bytes21(\"XRP/USD\");\n    bytes21 constant FLR_USD_FEED_ID = bytes21(\"FLR/USD\");\n\n    // FDC attestation types\n    bytes32 constant XRPL_PAYMENT_ATTESTATION = keccak256(\"XRPLPaymentAttestation\");\n\n    /*  Types  */\n    enum DocKind { Diagnosis, Referral, Intake } // 0,1,2\n    enum ServiceType { Consultation, Diagnosis, Treatment, Emergency, Procedure, Other } // 0,1,2,3,4,5\n    enum ChargeStatus { Pending, Approved, Paid, Disputed, Rejected } // 0,1,2,3,4\n    enum TransactionType { DocumentUpload, HospitalCharge, InsurancePayment, PatientPayment } // 0,1,2,3\n\n    struct DocMeta {\n        string  hashURI;        // encrypted pointer (IPFS/S3/etc.)\n        uint256 version;        // increments on each upload\n        uint256 updatedAt;      // unix timestamp\n        bytes32 paymentProof;   // proof id / hash attested by FDC\n        uint256 paidDrops;      // XRP drops paid (attested)\n        uint256 paidUSDc;       // kept 0 (we price via FTSO)\n        bytes32 currencyHash;   // unused for XRP-only path (0)\n    }\n\n    struct RecordSet {\n        mapping(uint8 => DocMeta) docs;\n        address guardian;\n        address pediatricPsychologist;\n    }\n\n    struct InsurerInfo {\n        string  xrplAccount;    // XRPL classic/X-address\n        address contact;        // EVM contact address\n        bool isActive;          // Whether insurer is active\n    }\n\n    struct HospitalInfo {\n        string name;\n        string xrplAccount;     // Hospital's XRPL wallet\n        address contact;        // Hospital's EVM address\n        bool isRegistered;      // Registration status\n        uint256 totalCharges;   // Total charges submitted\n        uint256 registeredAt;   // Registration timestamp\n    }\n\n    struct MedicalCharge {\n        bytes32 chargeId;       // Unique charge identifier\n        bytes32 patientId;      // Patient identifier (hashed)\n        bytes32 hospitalId;     // Hospital identifier\n        bytes32 insurerId;      // Insurance provider identifier\n        ServiceType serviceType; // Type of medical service\n        string description;     // Service description\n        uint256 amountUSD;      // Amount in USD cents\n        uint256 amountDrops;    // Amount in XRP drops\n        ChargeStatus status;    // Current status\n        bytes32 fdcRequestId;   // FDC attestation request ID\n        bytes32 xrplProof;      // XRPL payment proof\n        uint256 createdAt;      // Creation timestamp\n        uint256 updatedAt;      // Last update timestamp\n        string metadata;        // Additional metadata (JSON)\n    }\n\n    struct TransactionRecord {\n        bytes32 txId;           // Unique transaction ID\n        TransactionType txType; // Type of transaction\n        bytes32 fromParty;      // Source party (patient/hospital/insurance)\n        bytes32 toParty;        // Destination party\n        bytes32 relatedId;      // Related charge/document ID\n        uint256 amount;         // Amount in drops\n        bytes32 xrplTxHash;     // XRPL transaction hash\n        bytes32 fdcProof;       // FDC verification proof\n        uint256 timestamp;      // Transaction timestamp\n        string notes;           // Additional notes\n    }\n\n    /*  Events  */\n    event DocumentUploaded(bytes32 indexed patientId, uint8 indexed kind, string hashURI, uint256 version);\n    event DocumentRead(bytes32 indexed patientId, uint8 indexed kind, address accessor);\n\n    event HospitalRegistered(bytes32 indexed hospitalId, string name, string xrplAccount, address contact);\n    event InsuranceRegistered(bytes32 indexed insurerId, bytes32 indexed patientId, string xrplAccount, address contact);\n\n    event ChargeCreated(\n        bytes32 indexed chargeId,\n        bytes32 indexed patientId,\n        bytes32 indexed hospitalId,\n        bytes32 insurerId,\n        ServiceType serviceType,\n        uint256 amountUSD,\n        uint256 amountDrops\n    );\n\n    event FdcAttestationRequested(\n        bytes32 indexed chargeId,\n        bytes32 indexed fdcRequestId,\n        bytes32 attestationType,\n        uint256 fee\n    );\n\n    event ChargeStatusUpdated(\n        bytes32 indexed chargeId,\n        ChargeStatus indexed oldStatus,\n        ChargeStatus indexed newStatus,\n        uint256 timestamp\n    );\n\n    event PaymentProcessed(\n        bytes32 indexed chargeId,\n        bytes32 indexed fromParty,\n        bytes32 indexed toParty,\n        uint256 amount,\n        bytes32 xrplTxHash,\n        bytes32 fdcProof\n    );\n\n    event TransactionRecorded(\n        bytes32 indexed txId,\n        TransactionType indexed txType,\n        bytes32 indexed fromParty,\n        bytes32 toParty,\n        uint256 amount,\n        bytes32 xrplTxHash\n    );\n\n    event UploadPaidXRPLXRP(\n        bytes32 indexed patientId,\n        uint8   indexed kind,\n        uint256 version,\n        uint256 paidDrops,\n        bytes32 proofHash\n    );\n\n    /*  Storage  */\n    address public owner;\n\n    // Document storage (existing functionality)\n    mapping(bytes32 => RecordSet) private records;\n    mapping(bytes32 => mapping(uint8 => uint256)) public paidVersion;\n    mapping(bytes32 => InsurerInfo) private insurerInfoOf;\n\n    // Hospital billing system\n    mapping(bytes32 => HospitalInfo) public hospitals;           // hospitalId => HospitalInfo\n    mapping(bytes32 => MedicalCharge) public charges;            // chargeId => MedicalCharge\n    mapping(bytes32 => TransactionRecord) public transactions;   // txId => TransactionRecord\n\n    // Relationship mappings\n    mapping(bytes32 => bytes32[]) public patientCharges;         // patientId => chargeId[]\n    mapping(bytes32 => bytes32[]) public hospitalCharges;        // hospitalId => chargeId[]\n    mapping(bytes32 => bytes32[]) public insuranceCharges;       // insurerId => chargeId[]\n    mapping(bytes32 => bytes32[]) public patientTransactions;    // patientId => txId[]\n\n    // FDC request tracking\n    mapping(bytes32 => bytes32) public fdcRequestToCharge;       // fdcRequestId => chargeId\n    mapping(bytes32 => bytes32) public chargeToFdcRequest;       // chargeId => fdcRequestId\n\n    // Counters for statistics\n    uint256 public totalCharges;\n    uint256 public totalTransactions;\n    mapping(bytes32 => uint256) public hospitalChargeCount;\n    mapping(bytes32 => uint256) public insurancePaymentCount;\n\n    // Settings\n    uint256 public uploadFeeUSDc = 500;           // $5.00 in USD cents for document uploads\n    uint256 public maxOracleStaleness = 10 minutes;\n\n    modifier onlyOwner() { require(msg.sender == owner, \"not owner\"); _; }\n\n    constructor() {\n        owner = msg.sender;\n    }\n\n    function transferOwnership(address newOwner) external onlyOwner {\n        require(newOwner != address(0), \"zero owner\");\n        owner = newOwner;\n    }\n\n    /*  Real Flare Contract Access  */\n\n    function getFlareContractRegistry() public pure returns (IFlareContractRegistry) {\n        return IFlareContractRegistry(FLARE_CONTRACT_REGISTRY);\n    }\n\n    function getFdcHub() public view returns (IFdcHub) {\n        address fdcHubAddress = getFlareContractRegistry().getContractAddressByName(\"FdcHub\");\n        require(fdcHubAddress != address(0), \"FdcHub not found\");\n        return IFdcHub(fdcHubAddress);\n    }\n\n    function getFdcVerification() public view returns (IFdcVerification) {\n        address fdcVerificationAddress = getFlareContractRegistry().getContractAddressByName(\"FdcVerification\");\n        require(fdcVerificationAddress != address(0), \"FdcVerification not found\");\n        return IFdcVerification(fdcVerificationAddress);\n    }\n\n    function getFtsoV2() public view returns (IFtsoV2) {\n        address ftsoV2Address = getFlareContractRegistry().getContractAddressByName(\"FtsoV2\");\n        require(ftsoV2Address != address(0), \"FtsoV2 not found\");\n        return IFtsoV2(ftsoV2Address);\n    }\n\n    /*  Hospital Registration  */\n\n    function registerHospital(\n        bytes32 hospitalId,\n        string calldata name,\n        string calldata xrplAccount,\n        address contact\n    ) external onlyOwner {\n        require(!hospitals[hospitalId].isRegistered, \"Hospital already registered\");\n\n        hospitals[hospitalId] = HospitalInfo({\n            name: name,\n            xrplAccount: xrplAccount,\n            contact: contact,\n            isRegistered: true,\n            totalCharges: 0,\n            registeredAt: block.timestamp\n        });\n\n        emit HospitalRegistered(hospitalId, name, xrplAccount, contact);\n    }\n\n    /*  Insurance Registration  */\n\n    function registerInsuranceForPatient(\n        bytes32 patientId,\n        bytes32 insurerId,\n        string calldata xrplAccount,\n        address contact\n    ) external onlyOwner {\n        insurerInfoOf[patientId] = InsurerInfo({\n            xrplAccount: xrplAccount,\n            contact: contact,\n            isActive: true\n        });\n\n        emit InsuranceRegistered(insurerId, patientId, xrplAccount, contact);\n    }\n\n    /*  Hospital Billing Functions  */\n\n    function createHospitalCharge(\n        bytes32 chargeId,\n        bytes32 patientId,\n        bytes32 hospitalId,\n        bytes32 insurerId,\n        ServiceType serviceType,\n        string calldata description,\n        uint256 amountUSD,\n        string calldata metadata\n    ) external payable {\n        require(hospitals[hospitalId].isRegistered, \"Hospital not registered\");\n        require(charges[chargeId].chargeId == bytes32(0), \"Charge ID already exists\");\n        require(amountUSD > 0, \"Amount must be greater than 0\");\n\n        // Calculate XRP amount using real FTSO v2\n        uint256 requiredDrops = _calculateRequiredDropsFromFTSO(amountUSD);\n\n        // Create charge record\n        charges[chargeId] = MedicalCharge({\n            chargeId: chargeId,\n            patientId: patientId,\n            hospitalId: hospitalId,\n            insurerId: insurerId,\n            serviceType: serviceType,\n            description: description,\n            amountUSD: amountUSD,\n            amountDrops: requiredDrops,\n            status: ChargeStatus.Pending,\n            fdcRequestId: bytes32(0),\n            xrplProof: bytes32(0),\n            createdAt: block.timestamp,\n            updatedAt: block.timestamp,\n            metadata: metadata\n        });\n\n        // Update mappings\n        patientCharges[patientId].push(chargeId);\n        hospitalCharges[hospitalId].push(chargeId);\n        insuranceCharges[insurerId].push(chargeId);\n\n        // Update counters\n        totalCharges++;\n        hospitals[hospitalId].totalCharges++;\n        hospitalChargeCount[hospitalId]++;\n\n        emit ChargeCreated(chargeId, patientId, hospitalId, insurerId, serviceType, amountUSD, requiredDrops);\n\n        // Optionally, auto-submit FDC attestation request if fee is provided\n        if (msg.value > 0) {\n            _submitFdcAttestationRequest(chargeId);\n        }\n    }\n\n    function submitFdcAttestationRequest(bytes32 chargeId) external payable {\n        require(charges[chargeId].chargeId != bytes32(0), \"Charge does not exist\");\n        require(charges[chargeId].fdcRequestId == bytes32(0), \"FDC request already submitted\");\n\n        _submitFdcAttestationRequest(chargeId);\n    }\n\n    function _submitFdcAttestationRequest(bytes32 chargeId) internal {\n        MedicalCharge storage charge = charges[chargeId];\n\n        // Get FDC Hub\n        IFdcHub fdcHub = getFdcHub();\n\n        // Get required fee\n        uint256 requiredFee = fdcHub.getAttestationFee(XRPL_PAYMENT_ATTESTATION);\n        require(msg.value >= requiredFee, \"Insufficient FDC fee\");\n\n        // Create attestation request for XRPL payment verification\n        IFdcHub.AttestationRequest memory request = IFdcHub.AttestationRequest({\n            attestationType: XRPL_PAYMENT_ATTESTATION,\n            sourceId: keccak256(\"XRPL_MAINNET\"), // or appropriate source\n            requestBody: abi.encode(charge.chargeId, charge.amountDrops, charge.hospitalId, charge.insurerId),\n            fee: requiredFee\n        });\n\n        // Submit to FDC Hub\n        bytes32 fdcRequestId = fdcHub.requestAttestation{value: requiredFee}(request);\n\n        // Update charge with FDC request ID\n        charge.fdcRequestId = fdcRequestId;\n        charge.updatedAt = block.timestamp;\n\n        // Store mappings\n        fdcRequestToCharge[fdcRequestId] = chargeId;\n        chargeToFdcRequest[chargeId] = fdcRequestId;\n\n        emit FdcAttestationRequested(chargeId, fdcRequestId, XRPL_PAYMENT_ATTESTATION, requiredFee);\n\n        // Refund excess fee\n        if (msg.value > requiredFee) {\n            payable(msg.sender).transfer(msg.value - requiredFee);\n        }\n    }\n\n    function processPaymentWithFdcProof(\n        bytes32 chargeId,\n        IFdcVerification.Proof calldata fdcProof,\n        bytes32 xrplTxHash,\n        uint256 paidDrops\n    ) external {\n        require(charges[chargeId].chargeId != bytes32(0), \"Charge does not exist\");\n        require(charges[chargeId].status == ChargeStatus.Pending, \"Charge not pending\");\n        require(charges[chargeId].fdcRequestId != bytes32(0), \"No FDC request for this charge\");\n\n        // Verify FDC proof using real FDC Verification contract\n        IFdcVerification fdcVerification = getFdcVerification();\n        require(fdcVerification.verifyAttestation(fdcProof), \"Invalid FDC proof\");\n\n        MedicalCharge storage charge = charges[chargeId];\n        require(paidDrops >= charge.amountDrops, \"Insufficient payment\");\n\n        // Update charge status\n        ChargeStatus oldStatus = charge.status;\n        charge.status = ChargeStatus.Paid;\n        charge.xrplProof = keccak256(abi.encode(fdcProof));\n        charge.updatedAt = block.timestamp;\n\n        // Create transaction record\n        bytes32 txId = keccak256(abi.encodePacked(chargeId, xrplTxHash, block.timestamp));\n        _recordTransaction(\n            txId,\n            TransactionType.InsurancePayment,\n            charge.insurerId,\n            charge.hospitalId,\n            charge.chargeId,\n            paidDrops,\n            xrplTxHash,\n            charge.xrplProof,\n            \"Insurance payment verified via FDC\"\n        );\n\n        // Update insurance payment counter\n        insurancePaymentCount[charge.insurerId]++;\n\n        emit ChargeStatusUpdated(chargeId, oldStatus, ChargeStatus.Paid, block.timestamp);\n        emit PaymentProcessed(chargeId, charge.insurerId, charge.hospitalId, paidDrops, xrplTxHash, charge.xrplProof);\n    }\n\n    /*  Document Upload (Enhanced with Real FDC)  */\n\n    function uploadDocumentWithFdcProof(\n        bytes32 patientId,\n        uint8   kind,\n        string calldata hashURI,\n        IFdcVerification.Proof calldata fdcProof,\n        bytes32 proofId,\n        uint256 xrplPaidDrops\n    ) external {\n        // Verify FDC proof using real FDC Verification contract\n        IFdcVerification fdcVerification = getFdcVerification();\n        require(fdcVerification.verifyAttestation(fdcProof), \"Invalid FDC proof\");\n\n        uint256 requiredDrops = _requiredDropsFromFTSO();\n        require(xrplPaidDrops >= requiredDrops, \"XRP payment too small\");\n\n        _writeDoc(patientId, kind, hashURI);\n        DocMeta storage d = records[patientId].docs[kind];\n        paidVersion[patientId][kind] = d.version;\n        d.paymentProof = proofId;\n        d.paidDrops    = xrplPaidDrops;\n        d.paidUSDc     = 0;\n        d.currencyHash = bytes32(0);\n\n        // Record transaction for document upload (simplified to avoid stack depth)\n        _recordDocumentUploadWithFdc(patientId, kind, d.version, xrplPaidDrops, proofId, hashURI);\n\n        emit UploadPaidXRPLXRP(patientId, kind, d.version, xrplPaidDrops, proofId);\n    }\n\n    /*  Real FTSO Integration  */\n\n    function getXrpUsdPrice() public view returns (uint256 price, uint64 timestamp, uint8 decimals) {\n        IFtsoV2 ftsoV2 = getFtsoV2();\n        return ftsoV2.getCurrentPrice(XRP_USD_FEED_ID);\n    }\n\n    function _calculateRequiredDropsFromFTSO(uint256 amountUSDc) internal view returns (uint256) {\n        (uint256 price, uint64 timestamp, uint8 decimals) = getXrpUsdPrice();\n        require(price > 0, \"Invalid XRP price\");\n        require(block.timestamp <= timestamp + maxOracleStaleness, \"Price too stale\");\n\n        return _requiredXrpDropsFromUSDc(amountUSDc, price, decimals);\n    }\n\n    function _requiredDropsFromFTSO() internal view returns (uint256) {\n        return _calculateRequiredDropsFromFTSO(uploadFeeUSDc);\n    }\n\n    function requiredXrpDrops()\n        external\n        view\n        returns (uint256 drops, uint256 price, uint8 decimals, uint256 timestamp)\n    {\n        (uint256 px, uint64 ts, uint8 dec) = getXrpUsdPrice();\n        require(px > 0, \"Invalid price\");\n        return (_requiredXrpDropsFromUSDc(uploadFeeUSDc, px, dec), px, dec, uint256(ts));\n    }\n\n    /*  Query Functions  */\n\n    function getCharge(bytes32 chargeId) external view returns (MedicalCharge memory) {\n        require(charges[chargeId].chargeId != bytes32(0), \"Charge does not exist\");\n        return charges[chargeId];\n    }\n\n    function getPatientCharges(bytes32 patientId) external view returns (bytes32[] memory) {\n        return patientCharges[patientId];\n    }\n\n    function getHospitalCharges(bytes32 hospitalId) external view returns (bytes32[] memory) {\n        return hospitalCharges[hospitalId];\n    }\n\n    function getInsuranceCharges(bytes32 insurerId) external view returns (bytes32[] memory) {\n        return insuranceCharges[insurerId];\n    }\n\n    function getPatientTransactionHistory(bytes32 patientId) external view returns (bytes32[] memory) {\n        return patientTransactions[patientId];\n    }\n\n    function getTransaction(bytes32 txId) external view returns (TransactionRecord memory) {\n        return transactions[txId];\n    }\n\n    function getHospitalInfo(bytes32 hospitalId) external view returns (HospitalInfo memory) {\n        return hospitals[hospitalId];\n    }\n\n    function getSystemStats() external view returns (\n        uint256 _totalCharges,\n        uint256 _totalTransactions,\n        uint256 _registeredHospitals,\n        uint256 _activeInsurers\n    ) {\n        return (totalCharges, totalTransactions, 0, 0); // Simplified for now\n    }\n\n    function getPatientStats(bytes32 patientId) external view returns (\n        uint256 totalDocuments,\n        uint256 totalChargesReceived,\n        uint256 totalTransactions,\n        uint256 totalAmountCharged\n    ) {\n        // Count documents for patient\n        uint256 docCount = 0;\n        for (uint8 i = 0; i <= uint8(DocKind.Intake); i++) {\n            if (records[patientId].docs[i].version > 0) {\n                docCount++;\n            }\n        }\n\n        bytes32[] memory chargeIds = patientCharges[patientId];\n        uint256 totalAmount = 0;\n        for (uint256 i = 0; i < chargeIds.length; i++) {\n            totalAmount += charges[chargeIds[i]].amountUSD;\n        }\n\n        return (\n            docCount,\n            chargeIds.length,\n            patientTransactions[patientId].length,\n            totalAmount\n        );\n    }\n\n    /*  Existing Document Functions  */\n\n    function getDocument(bytes32 patientId, uint8 kind)\n        external\n        returns (string memory, uint256, uint256, bytes32)\n    {\n        require(kind <= uint8(DocKind.Intake), \"bad kind\");\n        DocMeta storage d = records[patientId].docs[kind];\n        require(d.version > 0 && paidVersion[patientId][kind] >= d.version, \"unpaid or empty\");\n        emit DocumentRead(patientId, kind, msg.sender);\n        return (d.hashURI, d.version, d.updatedAt, d.paymentProof);\n    }\n\n    function getInsurerInfo(bytes32 patientId) external view returns (string memory xrplAccount, address contact) {\n        InsurerInfo storage i = insurerInfoOf[patientId];\n        return (i.xrplAccount, i.contact);\n    }\n\n    /*  Admin Functions  */\n\n    function setMaxOracleStaleness(uint256 seconds_) external onlyOwner {\n        maxOracleStaleness = seconds_;\n    }\n\n    function setUploadFeeUSDc(uint256 feeUSDc) external onlyOwner {\n        uploadFeeUSDc = feeUSDc;\n    }\n\n    /*  Internal Functions  */\n\n    function _recordDocumentUploadWithFdc(\n        bytes32 patientId,\n        uint8 kind,\n        uint256 version,\n        uint256 xrplPaidDrops,\n        bytes32 proofId,\n        string calldata hashURI\n    ) internal {\n        bytes32 txId = keccak256(abi.encodePacked(\"doc\", patientId, kind, version, block.timestamp));\n        bytes32 contractAddr = bytes32(uint256(uint160(address(this))));\n        bytes32 docId = keccak256(abi.encodePacked(patientId, kind));\n\n        _recordTransaction(\n            txId,\n            TransactionType.DocumentUpload,\n            patientId,\n            contractAddr,\n            docId,\n            xrplPaidDrops,\n            bytes32(0),\n            proofId,\n            string(abi.encodePacked(\"Document upload verified via FDC: \", hashURI))\n        );\n    }\n\n    function _recordTransaction(\n        bytes32 txId,\n        TransactionType txType,\n        bytes32 fromParty,\n        bytes32 toParty,\n        bytes32 relatedId,\n        uint256 amount,\n        bytes32 xrplTxHash,\n        bytes32 fdcProof,\n        string memory notes\n    ) internal {\n        transactions[txId] = TransactionRecord({\n            txId: txId,\n            txType: txType,\n            fromParty: fromParty,\n            toParty: toParty,\n            relatedId: relatedId,\n            amount: amount,\n            xrplTxHash: xrplTxHash,\n            fdcProof: fdcProof,\n            timestamp: block.timestamp,\n            notes: notes\n        });\n\n        // Add to patient transaction history\n        if (txType == TransactionType.DocumentUpload || txType == TransactionType.PatientPayment) {\n            patientTransactions[fromParty].push(txId);\n        } else if (txType == TransactionType.InsurancePayment || txType == TransactionType.HospitalCharge) {\n            // For medical charges, link to patient via charge lookup\n            if (charges[relatedId].patientId != bytes32(0)) {\n                patientTransactions[charges[relatedId].patientId].push(txId);\n            }\n        }\n\n        totalTransactions++;\n        emit TransactionRecorded(txId, txType, fromParty, toParty, amount, xrplTxHash);\n    }\n\n    function _writeDoc(bytes32 patientId, uint8 kind, string calldata hashURI) internal {\n        require(kind <= uint8(DocKind.Intake), \"bad kind\");\n        DocMeta storage d = records[patientId].docs[kind];\n        d.hashURI  = hashURI;\n        d.version += 1;\n        d.updatedAt = block.timestamp;\n        emit DocumentUploaded(patientId, kind, hashURI, d.version);\n    }\n\n    function _requiredXrpDropsFromUSDc(uint256 feeUSDc, uint256 price, uint8 priceDecimals) internal pure returns (uint256) {\n        uint256 usdWad   = feeUSDc * 1e16;\n        uint256 priceWad = _scaleDecimals(price, priceDecimals, 18);\n        uint256 xrpWad   = _ceilDiv(usdWad * 1e18, priceWad);\n        return _ceilDiv(xrpWad, 1e12);\n    }\n\n    function _scaleDecimals(uint256 x, uint8 fromDec, uint8 toDec) internal pure returns (uint256) {\n        if (fromDec == toDec) return x;\n        return (fromDec < toDec)\n            ? x * (10 ** (toDec - fromDec))\n            : x / (10 ** (fromDec - toDec));\n    }\n\n    function _ceilDiv(uint256 a, uint256 b) internal pure returns (uint256) {\n        return a == 0 ? 0 : 1 + ((a - 1) / b);\n    }\n\n    /*  Fallback for receiving FDC fees  */\n    receive() external payable {\n        // Allow contract to receive ETH for FDC fees\n    }\n}",
  "sourcePath": "/usr/Flare-x-XRPL-Hackathon/contracts/MedicalRecordVaultWithRealFDC.sol",
  "compiler": {
    "name": "solc",
    "version": "0.8.21+commit.d9974bed.Emscripten.clang"
  },
  "schemaVersion": "3.4.16",
  "updatedAt": "2025-09-21T09:30:54.125Z",
  "devdoc": {
    "kind": "dev",
    "methods": {},
    "version": 1
  },
  "userdoc": {
    "kind": "user",
    "methods": {},
    "version": 1
  }
}