{
  "contractName": "MedicalRecordVaultWithBilling",
  "abi": [
    {
      "inputs": [],
      "stateMutability": "nonpayable",
      "type": "constructor"
    },
    {
      "anonymous": false,
      "inputs": [
        {
          "indexed": true,
          "internalType": "bytes32",
          "name": "chargeId",
          "type": "bytes32"
        },
        {
          "indexed": true,
          "internalType": "bytes32",
          "name": "patientId",
          "type": "bytes32"
        },
        {
          "indexed": true,
          "internalType": "bytes32",
          "name": "hospitalId",
          "type": "bytes32"
        },
        {
          "indexed": false,
          "internalType": "bytes32",
          "name": "insurerId",
          "type": "bytes32"
        },
        {
          "indexed": false,
          "internalType": "enum MedicalRecordVaultWithBilling.ServiceType",
          "name": "serviceType",
          "type": "uint8"
        },
        {
          "indexed": false,
          "internalType": "uint256",
          "name": "amountUSD",
          "type": "uint256"
        },
        {
          "indexed": false,
          "internalType": "uint256",
          "name": "amountDrops",
          "type": "uint256"
        }
      ],
      "name": "ChargeCreated",
      "type": "event"
    },
    {
      "anonymous": false,
      "inputs": [
        {
          "indexed": true,
          "internalType": "bytes32",
          "name": "chargeId",
          "type": "bytes32"
        },
        {
          "indexed": true,
          "internalType": "enum MedicalRecordVaultWithBilling.ChargeStatus",
          "name": "oldStatus",
          "type": "uint8"
        },
        {
          "indexed": true,
          "internalType": "enum MedicalRecordVaultWithBilling.ChargeStatus",
          "name": "newStatus",
          "type": "uint8"
        },
        {
          "indexed": false,
          "internalType": "uint256",
          "name": "timestamp",
          "type": "uint256"
        }
      ],
      "name": "ChargeStatusUpdated",
      "type": "event"
    },
    {
      "anonymous": false,
      "inputs": [
        {
          "indexed": true,
          "internalType": "bytes32",
          "name": "patientId",
          "type": "bytes32"
        },
        {
          "indexed": true,
          "internalType": "uint8",
          "name": "kind",
          "type": "uint8"
        },
        {
          "indexed": false,
          "internalType": "address",
          "name": "accessor",
          "type": "address"
        }
      ],
      "name": "DocumentRead",
      "type": "event"
    },
    {
      "anonymous": false,
      "inputs": [
        {
          "indexed": true,
          "internalType": "bytes32",
          "name": "patientId",
          "type": "bytes32"
        },
        {
          "indexed": true,
          "internalType": "uint8",
          "name": "kind",
          "type": "uint8"
        },
        {
          "indexed": false,
          "internalType": "string",
          "name": "hashURI",
          "type": "string"
        },
        {
          "indexed": false,
          "internalType": "uint256",
          "name": "version",
          "type": "uint256"
        }
      ],
      "name": "DocumentUploaded",
      "type": "event"
    },
    {
      "anonymous": false,
      "inputs": [
        {
          "indexed": true,
          "internalType": "bytes32",
          "name": "hospitalId",
          "type": "bytes32"
        },
        {
          "indexed": false,
          "internalType": "string",
          "name": "name",
          "type": "string"
        },
        {
          "indexed": false,
          "internalType": "string",
          "name": "xrplAccount",
          "type": "string"
        },
        {
          "indexed": false,
          "internalType": "address",
          "name": "contact",
          "type": "address"
        }
      ],
      "name": "HospitalRegistered",
      "type": "event"
    },
    {
      "anonymous": false,
      "inputs": [
        {
          "indexed": true,
          "internalType": "bytes32",
          "name": "insurerId",
          "type": "bytes32"
        },
        {
          "indexed": true,
          "internalType": "bytes32",
          "name": "patientId",
          "type": "bytes32"
        },
        {
          "indexed": false,
          "internalType": "string",
          "name": "xrplAccount",
          "type": "string"
        },
        {
          "indexed": false,
          "internalType": "address",
          "name": "contact",
          "type": "address"
        }
      ],
      "name": "InsuranceRegistered",
      "type": "event"
    },
    {
      "anonymous": false,
      "inputs": [
        {
          "indexed": true,
          "internalType": "bytes32",
          "name": "chargeId",
          "type": "bytes32"
        },
        {
          "indexed": true,
          "internalType": "bytes32",
          "name": "fromParty",
          "type": "bytes32"
        },
        {
          "indexed": true,
          "internalType": "bytes32",
          "name": "toParty",
          "type": "bytes32"
        },
        {
          "indexed": false,
          "internalType": "uint256",
          "name": "amount",
          "type": "uint256"
        },
        {
          "indexed": false,
          "internalType": "bytes32",
          "name": "xrplTxHash",
          "type": "bytes32"
        },
        {
          "indexed": false,
          "internalType": "bytes32",
          "name": "fdcProof",
          "type": "bytes32"
        }
      ],
      "name": "PaymentProcessed",
      "type": "event"
    },
    {
      "anonymous": false,
      "inputs": [
        {
          "indexed": true,
          "internalType": "bytes32",
          "name": "txId",
          "type": "bytes32"
        },
        {
          "indexed": true,
          "internalType": "enum MedicalRecordVaultWithBilling.TransactionType",
          "name": "txType",
          "type": "uint8"
        },
        {
          "indexed": true,
          "internalType": "bytes32",
          "name": "fromParty",
          "type": "bytes32"
        },
        {
          "indexed": false,
          "internalType": "bytes32",
          "name": "toParty",
          "type": "bytes32"
        },
        {
          "indexed": false,
          "internalType": "uint256",
          "name": "amount",
          "type": "uint256"
        },
        {
          "indexed": false,
          "internalType": "bytes32",
          "name": "xrplTxHash",
          "type": "bytes32"
        }
      ],
      "name": "TransactionRecorded",
      "type": "event"
    },
    {
      "anonymous": false,
      "inputs": [
        {
          "indexed": true,
          "internalType": "bytes32",
          "name": "patientId",
          "type": "bytes32"
        },
        {
          "indexed": true,
          "internalType": "uint8",
          "name": "kind",
          "type": "uint8"
        },
        {
          "indexed": false,
          "internalType": "uint256",
          "name": "version",
          "type": "uint256"
        },
        {
          "indexed": false,
          "internalType": "uint256",
          "name": "paidDrops",
          "type": "uint256"
        },
        {
          "indexed": false,
          "internalType": "bytes32",
          "name": "proofHash",
          "type": "bytes32"
        }
      ],
      "name": "UploadPaidXRPLXRP",
      "type": "event"
    },
    {
      "inputs": [
        {
          "internalType": "bytes32",
          "name": "",
          "type": "bytes32"
        }
      ],
      "name": "charges",
      "outputs": [
        {
          "internalType": "bytes32",
          "name": "chargeId",
          "type": "bytes32"
        },
        {
          "internalType": "bytes32",
          "name": "patientId",
          "type": "bytes32"
        },
        {
          "internalType": "bytes32",
          "name": "hospitalId",
          "type": "bytes32"
        },
        {
          "internalType": "bytes32",
          "name": "insurerId",
          "type": "bytes32"
        },
        {
          "internalType": "enum MedicalRecordVaultWithBilling.ServiceType",
          "name": "serviceType",
          "type": "uint8"
        },
        {
          "internalType": "string",
          "name": "description",
          "type": "string"
        },
        {
          "internalType": "uint256",
          "name": "amountUSD",
          "type": "uint256"
        },
        {
          "internalType": "uint256",
          "name": "amountDrops",
          "type": "uint256"
        },
        {
          "internalType": "enum MedicalRecordVaultWithBilling.ChargeStatus",
          "name": "status",
          "type": "uint8"
        },
        {
          "internalType": "bytes32",
          "name": "xrplProof",
          "type": "bytes32"
        },
        {
          "internalType": "uint256",
          "name": "createdAt",
          "type": "uint256"
        },
        {
          "internalType": "uint256",
          "name": "updatedAt",
          "type": "uint256"
        },
        {
          "internalType": "string",
          "name": "metadata",
          "type": "string"
        }
      ],
      "stateMutability": "view",
      "type": "function"
    },
    {
      "inputs": [],
      "name": "fdc",
      "outputs": [
        {
          "internalType": "contract IFDC",
          "name": "",
          "type": "address"
        }
      ],
      "stateMutability": "view",
      "type": "function"
    },
    {
      "inputs": [],
      "name": "ftso",
      "outputs": [
        {
          "internalType": "contract IFTSO",
          "name": "",
          "type": "address"
        }
      ],
      "stateMutability": "view",
      "type": "function"
    },
    {
      "inputs": [
        {
          "internalType": "bytes32",
          "name": "",
          "type": "bytes32"
        }
      ],
      "name": "hospitalChargeCount",
      "outputs": [
        {
          "internalType": "uint256",
          "name": "",
          "type": "uint256"
        }
      ],
      "stateMutability": "view",
      "type": "function"
    },
    {
      "inputs": [
        {
          "internalType": "bytes32",
          "name": "",
          "type": "bytes32"
        },
        {
          "internalType": "uint256",
          "name": "",
          "type": "uint256"
        }
      ],
      "name": "hospitalCharges",
      "outputs": [
        {
          "internalType": "bytes32",
          "name": "",
          "type": "bytes32"
        }
      ],
      "stateMutability": "view",
      "type": "function"
    },
    {
      "inputs": [
        {
          "internalType": "bytes32",
          "name": "",
          "type": "bytes32"
        }
      ],
      "name": "hospitals",
      "outputs": [
        {
          "internalType": "string",
          "name": "name",
          "type": "string"
        },
        {
          "internalType": "string",
          "name": "xrplAccount",
          "type": "string"
        },
        {
          "internalType": "address",
          "name": "contact",
          "type": "address"
        },
        {
          "internalType": "bool",
          "name": "isRegistered",
          "type": "bool"
        },
        {
          "internalType": "uint256",
          "name": "totalCharges",
          "type": "uint256"
        },
        {
          "internalType": "uint256",
          "name": "registeredAt",
          "type": "uint256"
        }
      ],
      "stateMutability": "view",
      "type": "function"
    },
    {
      "inputs": [
        {
          "internalType": "bytes32",
          "name": "",
          "type": "bytes32"
        },
        {
          "internalType": "uint256",
          "name": "",
          "type": "uint256"
        }
      ],
      "name": "insuranceCharges",
      "outputs": [
        {
          "internalType": "bytes32",
          "name": "",
          "type": "bytes32"
        }
      ],
      "stateMutability": "view",
      "type": "function"
    },
    {
      "inputs": [
        {
          "internalType": "bytes32",
          "name": "",
          "type": "bytes32"
        }
      ],
      "name": "insurancePaymentCount",
      "outputs": [
        {
          "internalType": "uint256",
          "name": "",
          "type": "uint256"
        }
      ],
      "stateMutability": "view",
      "type": "function"
    },
    {
      "inputs": [],
      "name": "maxOracleStaleness",
      "outputs": [
        {
          "internalType": "uint256",
          "name": "",
          "type": "uint256"
        }
      ],
      "stateMutability": "view",
      "type": "function"
    },
    {
      "inputs": [],
      "name": "owner",
      "outputs": [
        {
          "internalType": "address",
          "name": "",
          "type": "address"
        }
      ],
      "stateMutability": "view",
      "type": "function"
    },
    {
      "inputs": [
        {
          "internalType": "bytes32",
          "name": "",
          "type": "bytes32"
        },
        {
          "internalType": "uint8",
          "name": "",
          "type": "uint8"
        }
      ],
      "name": "paidVersion",
      "outputs": [
        {
          "internalType": "uint256",
          "name": "",
          "type": "uint256"
        }
      ],
      "stateMutability": "view",
      "type": "function"
    },
    {
      "inputs": [
        {
          "internalType": "bytes32",
          "name": "",
          "type": "bytes32"
        },
        {
          "internalType": "uint256",
          "name": "",
          "type": "uint256"
        }
      ],
      "name": "patientCharges",
      "outputs": [
        {
          "internalType": "bytes32",
          "name": "",
          "type": "bytes32"
        }
      ],
      "stateMutability": "view",
      "type": "function"
    },
    {
      "inputs": [
        {
          "internalType": "bytes32",
          "name": "",
          "type": "bytes32"
        },
        {
          "internalType": "uint256",
          "name": "",
          "type": "uint256"
        }
      ],
      "name": "patientTransactions",
      "outputs": [
        {
          "internalType": "bytes32",
          "name": "",
          "type": "bytes32"
        }
      ],
      "stateMutability": "view",
      "type": "function"
    },
    {
      "inputs": [],
      "name": "totalCharges",
      "outputs": [
        {
          "internalType": "uint256",
          "name": "",
          "type": "uint256"
        }
      ],
      "stateMutability": "view",
      "type": "function"
    },
    {
      "inputs": [],
      "name": "totalTransactions",
      "outputs": [
        {
          "internalType": "uint256",
          "name": "",
          "type": "uint256"
        }
      ],
      "stateMutability": "view",
      "type": "function"
    },
    {
      "inputs": [
        {
          "internalType": "bytes32",
          "name": "",
          "type": "bytes32"
        }
      ],
      "name": "transactions",
      "outputs": [
        {
          "internalType": "bytes32",
          "name": "txId",
          "type": "bytes32"
        },
        {
          "internalType": "enum MedicalRecordVaultWithBilling.TransactionType",
          "name": "txType",
          "type": "uint8"
        },
        {
          "internalType": "bytes32",
          "name": "fromParty",
          "type": "bytes32"
        },
        {
          "internalType": "bytes32",
          "name": "toParty",
          "type": "bytes32"
        },
        {
          "internalType": "bytes32",
          "name": "relatedId",
          "type": "bytes32"
        },
        {
          "internalType": "uint256",
          "name": "amount",
          "type": "uint256"
        },
        {
          "internalType": "bytes32",
          "name": "xrplTxHash",
          "type": "bytes32"
        },
        {
          "internalType": "bytes32",
          "name": "fdcProof",
          "type": "bytes32"
        },
        {
          "internalType": "uint256",
          "name": "timestamp",
          "type": "uint256"
        },
        {
          "internalType": "string",
          "name": "notes",
          "type": "string"
        }
      ],
      "stateMutability": "view",
      "type": "function"
    },
    {
      "inputs": [],
      "name": "uploadFeeUSDc",
      "outputs": [
        {
          "internalType": "uint256",
          "name": "",
          "type": "uint256"
        }
      ],
      "stateMutability": "view",
      "type": "function"
    },
    {
      "inputs": [
        {
          "internalType": "address",
          "name": "newOwner",
          "type": "address"
        }
      ],
      "name": "transferOwnership",
      "outputs": [],
      "stateMutability": "nonpayable",
      "type": "function"
    },
    {
      "inputs": [
        {
          "internalType": "bytes32",
          "name": "hospitalId",
          "type": "bytes32"
        },
        {
          "internalType": "string",
          "name": "name",
          "type": "string"
        },
        {
          "internalType": "string",
          "name": "xrplAccount",
          "type": "string"
        },
        {
          "internalType": "address",
          "name": "contact",
          "type": "address"
        }
      ],
      "name": "registerHospital",
      "outputs": [],
      "stateMutability": "nonpayable",
      "type": "function"
    },
    {
      "inputs": [
        {
          "internalType": "bytes32",
          "name": "hospitalId",
          "type": "bytes32"
        },
        {
          "internalType": "string",
          "name": "name",
          "type": "string"
        },
        {
          "internalType": "string",
          "name": "xrplAccount",
          "type": "string"
        },
        {
          "internalType": "address",
          "name": "contact",
          "type": "address"
        }
      ],
      "name": "updateHospitalInfo",
      "outputs": [],
      "stateMutability": "nonpayable",
      "type": "function"
    },
    {
      "inputs": [
        {
          "internalType": "bytes32",
          "name": "patientId",
          "type": "bytes32"
        },
        {
          "internalType": "bytes32",
          "name": "insurerId",
          "type": "bytes32"
        },
        {
          "internalType": "string",
          "name": "xrplAccount",
          "type": "string"
        },
        {
          "internalType": "address",
          "name": "contact",
          "type": "address"
        }
      ],
      "name": "registerInsuranceForPatient",
      "outputs": [],
      "stateMutability": "nonpayable",
      "type": "function"
    },
    {
      "inputs": [
        {
          "internalType": "bytes32",
          "name": "chargeId",
          "type": "bytes32"
        },
        {
          "internalType": "bytes32",
          "name": "patientId",
          "type": "bytes32"
        },
        {
          "internalType": "bytes32",
          "name": "hospitalId",
          "type": "bytes32"
        },
        {
          "internalType": "bytes32",
          "name": "insurerId",
          "type": "bytes32"
        },
        {
          "internalType": "enum MedicalRecordVaultWithBilling.ServiceType",
          "name": "serviceType",
          "type": "uint8"
        },
        {
          "internalType": "string",
          "name": "description",
          "type": "string"
        },
        {
          "internalType": "uint256",
          "name": "amountUSD",
          "type": "uint256"
        },
        {
          "internalType": "string",
          "name": "metadata",
          "type": "string"
        }
      ],
      "name": "createHospitalCharge",
      "outputs": [],
      "stateMutability": "nonpayable",
      "type": "function"
    },
    {
      "inputs": [
        {
          "internalType": "bytes32",
          "name": "chargeId",
          "type": "bytes32"
        },
        {
          "internalType": "bytes",
          "name": "xrplProof",
          "type": "bytes"
        },
        {
          "internalType": "bytes32",
          "name": "statementId",
          "type": "bytes32"
        },
        {
          "internalType": "bytes32",
          "name": "xrplTxHash",
          "type": "bytes32"
        },
        {
          "internalType": "uint256",
          "name": "paidDrops",
          "type": "uint256"
        }
      ],
      "name": "processPaymentWithXRPL",
      "outputs": [],
      "stateMutability": "nonpayable",
      "type": "function"
    },
    {
      "inputs": [
        {
          "internalType": "bytes32",
          "name": "chargeId",
          "type": "bytes32"
        },
        {
          "internalType": "enum MedicalRecordVaultWithBilling.ChargeStatus",
          "name": "newStatus",
          "type": "uint8"
        }
      ],
      "name": "updateChargeStatus",
      "outputs": [],
      "stateMutability": "nonpayable",
      "type": "function"
    },
    {
      "inputs": [
        {
          "internalType": "bytes32",
          "name": "patientId",
          "type": "bytes32"
        },
        {
          "internalType": "uint8",
          "name": "kind",
          "type": "uint8"
        },
        {
          "internalType": "string",
          "name": "hashURI",
          "type": "string"
        },
        {
          "internalType": "bytes",
          "name": "xrplProof",
          "type": "bytes"
        },
        {
          "internalType": "bytes32",
          "name": "statementId",
          "type": "bytes32"
        },
        {
          "internalType": "bytes32",
          "name": "proofId",
          "type": "bytes32"
        },
        {
          "internalType": "uint256",
          "name": "xrplPaidDrops",
          "type": "uint256"
        }
      ],
      "name": "uploadDocumentXRP",
      "outputs": [],
      "stateMutability": "nonpayable",
      "type": "function"
    },
    {
      "inputs": [
        {
          "internalType": "bytes32",
          "name": "chargeId",
          "type": "bytes32"
        }
      ],
      "name": "getCharge",
      "outputs": [
        {
          "components": [
            {
              "internalType": "bytes32",
              "name": "chargeId",
              "type": "bytes32"
            },
            {
              "internalType": "bytes32",
              "name": "patientId",
              "type": "bytes32"
            },
            {
              "internalType": "bytes32",
              "name": "hospitalId",
              "type": "bytes32"
            },
            {
              "internalType": "bytes32",
              "name": "insurerId",
              "type": "bytes32"
            },
            {
              "internalType": "enum MedicalRecordVaultWithBilling.ServiceType",
              "name": "serviceType",
              "type": "uint8"
            },
            {
              "internalType": "string",
              "name": "description",
              "type": "string"
            },
            {
              "internalType": "uint256",
              "name": "amountUSD",
              "type": "uint256"
            },
            {
              "internalType": "uint256",
              "name": "amountDrops",
              "type": "uint256"
            },
            {
              "internalType": "enum MedicalRecordVaultWithBilling.ChargeStatus",
              "name": "status",
              "type": "uint8"
            },
            {
              "internalType": "bytes32",
              "name": "xrplProof",
              "type": "bytes32"
            },
            {
              "internalType": "uint256",
              "name": "createdAt",
              "type": "uint256"
            },
            {
              "internalType": "uint256",
              "name": "updatedAt",
              "type": "uint256"
            },
            {
              "internalType": "string",
              "name": "metadata",
              "type": "string"
            }
          ],
          "internalType": "struct MedicalRecordVaultWithBilling.MedicalCharge",
          "name": "",
          "type": "tuple"
        }
      ],
      "stateMutability": "view",
      "type": "function"
    },
    {
      "inputs": [
        {
          "internalType": "bytes32",
          "name": "patientId",
          "type": "bytes32"
        }
      ],
      "name": "getPatientCharges",
      "outputs": [
        {
          "internalType": "bytes32[]",
          "name": "",
          "type": "bytes32[]"
        }
      ],
      "stateMutability": "view",
      "type": "function"
    },
    {
      "inputs": [
        {
          "internalType": "bytes32",
          "name": "hospitalId",
          "type": "bytes32"
        }
      ],
      "name": "getHospitalCharges",
      "outputs": [
        {
          "internalType": "bytes32[]",
          "name": "",
          "type": "bytes32[]"
        }
      ],
      "stateMutability": "view",
      "type": "function"
    },
    {
      "inputs": [
        {
          "internalType": "bytes32",
          "name": "insurerId",
          "type": "bytes32"
        }
      ],
      "name": "getInsuranceCharges",
      "outputs": [
        {
          "internalType": "bytes32[]",
          "name": "",
          "type": "bytes32[]"
        }
      ],
      "stateMutability": "view",
      "type": "function"
    },
    {
      "inputs": [
        {
          "internalType": "bytes32",
          "name": "patientId",
          "type": "bytes32"
        }
      ],
      "name": "getPatientTransactionHistory",
      "outputs": [
        {
          "internalType": "bytes32[]",
          "name": "",
          "type": "bytes32[]"
        }
      ],
      "stateMutability": "view",
      "type": "function"
    },
    {
      "inputs": [
        {
          "internalType": "bytes32",
          "name": "txId",
          "type": "bytes32"
        }
      ],
      "name": "getTransaction",
      "outputs": [
        {
          "components": [
            {
              "internalType": "bytes32",
              "name": "txId",
              "type": "bytes32"
            },
            {
              "internalType": "enum MedicalRecordVaultWithBilling.TransactionType",
              "name": "txType",
              "type": "uint8"
            },
            {
              "internalType": "bytes32",
              "name": "fromParty",
              "type": "bytes32"
            },
            {
              "internalType": "bytes32",
              "name": "toParty",
              "type": "bytes32"
            },
            {
              "internalType": "bytes32",
              "name": "relatedId",
              "type": "bytes32"
            },
            {
              "internalType": "uint256",
              "name": "amount",
              "type": "uint256"
            },
            {
              "internalType": "bytes32",
              "name": "xrplTxHash",
              "type": "bytes32"
            },
            {
              "internalType": "bytes32",
              "name": "fdcProof",
              "type": "bytes32"
            },
            {
              "internalType": "uint256",
              "name": "timestamp",
              "type": "uint256"
            },
            {
              "internalType": "string",
              "name": "notes",
              "type": "string"
            }
          ],
          "internalType": "struct MedicalRecordVaultWithBilling.TransactionRecord",
          "name": "",
          "type": "tuple"
        }
      ],
      "stateMutability": "view",
      "type": "function"
    },
    {
      "inputs": [
        {
          "internalType": "bytes32",
          "name": "hospitalId",
          "type": "bytes32"
        }
      ],
      "name": "getHospitalInfo",
      "outputs": [
        {
          "components": [
            {
              "internalType": "string",
              "name": "name",
              "type": "string"
            },
            {
              "internalType": "string",
              "name": "xrplAccount",
              "type": "string"
            },
            {
              "internalType": "address",
              "name": "contact",
              "type": "address"
            },
            {
              "internalType": "bool",
              "name": "isRegistered",
              "type": "bool"
            },
            {
              "internalType": "uint256",
              "name": "totalCharges",
              "type": "uint256"
            },
            {
              "internalType": "uint256",
              "name": "registeredAt",
              "type": "uint256"
            }
          ],
          "internalType": "struct MedicalRecordVaultWithBilling.HospitalInfo",
          "name": "",
          "type": "tuple"
        }
      ],
      "stateMutability": "view",
      "type": "function"
    },
    {
      "inputs": [
        {
          "internalType": "enum MedicalRecordVaultWithBilling.ChargeStatus",
          "name": "status",
          "type": "uint8"
        }
      ],
      "name": "getChargesByStatus",
      "outputs": [
        {
          "internalType": "bytes32[]",
          "name": "",
          "type": "bytes32[]"
        }
      ],
      "stateMutability": "view",
      "type": "function"
    },
    {
      "inputs": [],
      "name": "getSystemStats",
      "outputs": [
        {
          "internalType": "uint256",
          "name": "_totalCharges",
          "type": "uint256"
        },
        {
          "internalType": "uint256",
          "name": "_totalTransactions",
          "type": "uint256"
        },
        {
          "internalType": "uint256",
          "name": "_registeredHospitals",
          "type": "uint256"
        },
        {
          "internalType": "uint256",
          "name": "_activeInsurers",
          "type": "uint256"
        }
      ],
      "stateMutability": "view",
      "type": "function"
    },
    {
      "inputs": [
        {
          "internalType": "bytes32",
          "name": "patientId",
          "type": "bytes32"
        }
      ],
      "name": "getPatientStats",
      "outputs": [
        {
          "internalType": "uint256",
          "name": "totalDocuments",
          "type": "uint256"
        },
        {
          "internalType": "uint256",
          "name": "totalChargesReceived",
          "type": "uint256"
        },
        {
          "internalType": "uint256",
          "name": "totalTransactions",
          "type": "uint256"
        },
        {
          "internalType": "uint256",
          "name": "totalAmountCharged",
          "type": "uint256"
        }
      ],
      "stateMutability": "view",
      "type": "function"
    },
    {
      "inputs": [
        {
          "internalType": "bytes32",
          "name": "patientId",
          "type": "bytes32"
        },
        {
          "internalType": "uint8",
          "name": "kind",
          "type": "uint8"
        }
      ],
      "name": "getDocument",
      "outputs": [
        {
          "internalType": "string",
          "name": "",
          "type": "string"
        },
        {
          "internalType": "uint256",
          "name": "",
          "type": "uint256"
        },
        {
          "internalType": "uint256",
          "name": "",
          "type": "uint256"
        },
        {
          "internalType": "bytes32",
          "name": "",
          "type": "bytes32"
        }
      ],
      "stateMutability": "nonpayable",
      "type": "function"
    },
    {
      "inputs": [
        {
          "internalType": "bytes32",
          "name": "patientId",
          "type": "bytes32"
        },
        {
          "internalType": "uint8",
          "name": "kind",
          "type": "uint8"
        }
      ],
      "name": "getDocMeta",
      "outputs": [
        {
          "internalType": "string",
          "name": "hashURI",
          "type": "string"
        },
        {
          "internalType": "uint256",
          "name": "version",
          "type": "uint256"
        },
        {
          "internalType": "uint256",
          "name": "updatedAt",
          "type": "uint256"
        },
        {
          "internalType": "bytes32",
          "name": "paymentProof",
          "type": "bytes32"
        },
        {
          "internalType": "uint256",
          "name": "paidUSDc",
          "type": "uint256"
        },
        {
          "internalType": "uint256",
          "name": "paidDrops",
          "type": "uint256"
        },
        {
          "internalType": "bytes32",
          "name": "currencyHash",
          "type": "bytes32"
        }
      ],
      "stateMutability": "view",
      "type": "function"
    },
    {
      "inputs": [
        {
          "internalType": "bytes32",
          "name": "patientId",
          "type": "bytes32"
        }
      ],
      "name": "getInsurerInfo",
      "outputs": [
        {
          "internalType": "string",
          "name": "xrplAccount",
          "type": "string"
        },
        {
          "internalType": "address",
          "name": "contact",
          "type": "address"
        }
      ],
      "stateMutability": "view",
      "type": "function"
    },
    {
      "inputs": [
        {
          "internalType": "address",
          "name": "verifier",
          "type": "address"
        }
      ],
      "name": "setFDC",
      "outputs": [],
      "stateMutability": "nonpayable",
      "type": "function"
    },
    {
      "inputs": [
        {
          "internalType": "address",
          "name": "oracle",
          "type": "address"
        }
      ],
      "name": "setFTSO",
      "outputs": [],
      "stateMutability": "nonpayable",
      "type": "function"
    },
    {
      "inputs": [
        {
          "internalType": "uint256",
          "name": "seconds_",
          "type": "uint256"
        }
      ],
      "name": "setMaxOracleStaleness",
      "outputs": [],
      "stateMutability": "nonpayable",
      "type": "function"
    },
    {
      "inputs": [
        {
          "internalType": "uint256",
          "name": "feeUSDc",
          "type": "uint256"
        }
      ],
      "name": "setUploadFeeUSDc",
      "outputs": [],
      "stateMutability": "nonpayable",
      "type": "function"
    },
    {
      "inputs": [],
      "name": "requiredXrpDrops",
      "outputs": [
        {
          "internalType": "uint256",
          "name": "drops",
          "type": "uint256"
        },
        {
          "internalType": "uint256",
          "name": "price",
          "type": "uint256"
        },
        {
          "internalType": "uint8",
          "name": "decimals",
          "type": "uint8"
        },
        {
          "internalType": "uint256",
          "name": "timestamp",
          "type": "uint256"
        }
      ],
      "stateMutability": "view",
      "type": "function"
    }
  ],
  "bytecode": "0x60806040526101f460115561025860125534801561001b575f80fd5b505f80546001600160a01b03191633179055613d6d8061003a5f395ff3fe608060405234801561000f575f80fd5b5060043610610260575f3560e01c8063781404681161014b578063b9a60038116100bf578063d1ce59a711610084578063d1ce59a714610611578063d538d6651461061e578063e57cb3ac14610648578063f2fde38b1461065b578063f41184931461066e578063ffe6f08a14610681575f80fd5b8063b9a60038146105bc578063bb8a9f13146105c5578063c1ae721c146105d8578063d15c2f5b146105eb578063d1784efc146105fe575f80fd5b80638c9d41ce116101105780638c9d41ce1461055f5780638da5cb5b14610572578063935e548514610584578063971afafd1461058d578063b505dde514610596578063b510f669146105a9575f80fd5b806378140468146104f057806378ea5ec514610513578063809103011461052657806384234c0c1461053957806384ed77241461054c575f80fd5b806333baf630116101e25780635b5a49cf116101a75780635b5a49cf1461042d57806362c75cec1461044d578063642f2eaf146104735780636b3c86f31461049c5780636e2c575f146104af57806371a265aa146104cf575f80fd5b806333baf6301461039b5780634aae13ca146103bb5780634aded48f146103db57806358c19360146104075780635ab770ca1461041a575f80fd5b806316373acc1161022857806316373acc14610344578063226a3197146103595780632fef259f1461036c578063300d4bdb1461037f5780633275f21c14610388575f80fd5b806304f692f7146102645780630709f8601461029c57806309645328146102cd5780630da0c022146102fa57806312f58a6314610325575b5f80fd5b610277610272366004612eda565b6106a6565b6040805194855260208501939093529183015260608201526080015b60405180910390f35b6102a46107cd565b6040516102939493929190938452602084019290925260ff166040830152606082015260800190565b6102ec6102db366004612eda565b600e6020525f908152604090205481565b604051908152602001610293565b60105461030d906001600160a01b031681565b6040516001600160a01b039091168152602001610293565b6102ec610333366004612eda565b600d6020525f908152604090205481565b610357610352366004612f51565b6108bc565b005b6102ec610367366004612fd4565b610abc565b61035761037a366004612ff4565b610ae7565b6102ec600b5481565b600f5461030d906001600160a01b031681565b6103ae6103a9366004612eda565b610d5a565b6040516102939190613055565b6103ce6103c9366004612eda565b610db9565b6040516102939190613103565b6103ee6103e9366004612eda565b610f33565b6040516102939d9c9b9a999897969594939291906131ae565b61035761041536600461323f565b6110b1565b610357610428366004613258565b6110fc565b61044061043b366004612eda565b6114ce565b6040516102939190613309565b61046061045b366004613391565b611685565b60405161029397969594939291906133bf565b610486610481366004612eda565b61177e565b6040516102939a99989796959493929190613402565b6103576104aa366004613473565b611860565b6104c26104bd366004612eda565b611954565b604051610293919061349d565b6104e26104dd366004612eda565b611b69565b604051610293929190613570565b6105036104fe366004613391565b611c23565b6040516102939493929190613599565b61035761052136600461323f565b611dda565b6102ec610534366004612fd4565b611e25565b6103ae610547366004612eda565b611e3e565b61035761055a3660046135c7565b611e9b565b61035761056d366004612eda565b611fb8565b5f5461030d906001600160a01b031681565b6102ec60125481565b6102ec60115481565b6103ae6105a4366004612eda565b611fe6565b6103576105b736600461362a565b612043565b6102ec600c5481565b6102ec6105d3366004612fd4565b612172565b6103576105e6366004612eda565b61218b565b6103ae6105f93660046136c6565b6121b9565b6102ec61060c366004612fd4565b612364565b600b54600c545f80610277565b6102ec61062c366004613391565b600260209081525f928352604080842090915290825290205481565b6103ae610656366004612eda565b61237d565b61035761066936600461323f565b6123da565b61035761067c366004612f51565b612467565b61069461068f366004612eda565b612543565b604051610293969594939291906136df565b5f805f805f805b600260ff8216116106fb575f87815260016020818152604080842060ff861685529091529091200154156106e957816106e581613746565b9250505b806106f38161375e565b9150506106ad565b505f8681526007602090815260408083208054825181850281018501909352808352919290919083018282801561074f57602002820191905f5260205f20905b81548152602001906001019080831161073b575b505050505090505f805b82518110156107af5760055f8483815181106107775761077761377c565b602002602001015181526020019081526020015f20600601548261079b9190613790565b9150806107a781613746565b915050610759565b5090515f978852600a60205260409097205491979195509350915050565b6010545f908190819081906001600160a01b03166108065760405162461bcd60e51b81526004016107fd906137a3565b60405180910390fd5b5f805f60105f9054906101000a90046001600160a01b03166001600160a01b031663d4fdd8726040518163ffffffff1660e01b8152600401606060405180830381865afa158015610859573d5f803e3d5ffd5b505050506040513d601f19601f8201168201806040525081019061087d91906137c9565b9250925092505f83116108a25760405162461bcd60e51b81526004016107fd906137ff565b6108af6011548484612692565b9792965090945092509050565b5f546001600160a01b031633146108e55760405162461bcd60e51b81526004016107fd90613827565b5f86815260046020526040902060020154600160a01b900460ff161561094d5760405162461bcd60e51b815260206004820152601b60248201527f486f73706974616c20616c72656164792072656769737465726564000000000060448201526064016107fd565b6040518060c0016040528086868080601f0160208091040260200160405190810160405280939291908181526020018383808284375f92019190915250505090825250604080516020601f8701819004810282018101909252858152918101919086908690819084018382808284375f9201829052509385525050506001600160a01b03841660208084019190915260016040808501919091526060840183905242608090940193909352898252600490522081518190610a0e90826138e3565b5060208201516001820190610a2390826138e3565b5060408281015160028301805460608601511515600160a01b026001600160a81b03199091166001600160a01b03909316929092179190911790556080830151600383015560a0909201516004909101555186907f37fa71cdd0367c8880e8b34fff5af8da83951bef8acce652ee9a80d2f914b5cd90610aac90889088908890889088906139c7565b60405180910390a2505050505050565b6009602052815f5260405f208181548110610ad5575f80fd5b905f5260205f20015f91509150505481565b5f86815260056020526040902054610b115760405162461bcd60e51b81526004016107fd90613a08565b5f8681526005602052604081206008015460ff166004811115610b3657610b36613098565b14610b785760405162461bcd60e51b8152602060048201526012602482015271436861726765206e6f742070656e64696e6760701b60448201526064016107fd565b610b806126f0565b610b8b858585612760565b5f8681526005602052604090206007810154821015610be35760405162461bcd60e51b8152602060048201526014602482015273125b9cdd59999a58da595b9d081c185e5b595b9d60621b60448201526064016107fd565b60088101805460ff19811660021790915560405160ff90911690610c0a9088908890613a37565b60408051918290038220600985015542600b8501819055602083018b905290820186905260608201525f90608001604051602081830303815290604052805190602001209050610c8981600285600301548660020154875f0154898b8a60090154604051806060016040528060268152602001613d1260269139612824565b60038301545f908152600e60205260408120805491610ca783613746565b9091555060029050826004811115610cc157610cc1613098565b8a7f735a48529dc88599b5d06cb5dcece2df1fbe8fc286839deea75e058d8f152f7342604051610cf391815260200190565b60405180910390a460028301546003840154600985015460408051888152602081018a9052908101919091528b907f93810e2f750373049917793c448e55a07feeeb490a059861548403dea0d092a0906060015b60405180910390a4505050505050505050565b5f81815260096020908152604091829020805483518184028101840190945280845260609392830182828015610dad57602002820191905f5260205f20905b815481526020019060010190808311610d99575b50505050509050919050565b6040805161014080820183525f808352602080840182905283850182905260608085018390526080850183905260a0850183905260c0850183905260e08501839052610100850183905261012085015285825260068152908490208451928301909452835482526001840154929391929083019060ff166003811115610e4157610e41613098565b6003811115610e5257610e52613098565b815260200160028201548152602001600382015481526020016004820154815260200160058201548152602001600682015481526020016007820154815260200160088201548152602001600982018054610eac9061385e565b80601f0160208091040260200160405190810160405280929190818152602001828054610ed89061385e565b8015610f235780601f10610efa57610100808354040283529160200191610f23565b820191905f5260205f20905b815481529060010190602001808311610f0657829003601f168201915b5050505050815250509050919050565b600560208190525f9182526040909120805460018201546002830154600384015460048501549585018054949693959294919360ff169291610f749061385e565b80601f0160208091040260200160405190810160405280929190818152602001828054610fa09061385e565b8015610feb5780601f10610fc257610100808354040283529160200191610feb565b820191905f5260205f20905b815481529060010190602001808311610fce57829003601f168201915b505050505090806006015490806007015490806008015f9054906101000a900460ff169080600901549080600a01549080600b01549080600c0180546110309061385e565b80601f016020809104026020016040519081016040528092919081815260200182805461105c9061385e565b80156110a75780601f1061107e576101008083540402835291602001916110a7565b820191905f5260205f20905b81548152906001019060200180831161108a57829003601f168201915b505050505090508d565b5f546001600160a01b031633146110da5760405162461bcd60e51b81526004016107fd90613827565b600f80546001600160a01b0319166001600160a01b0392909216919091179055565b5f88815260046020526040902060020154600160a01b900460ff1661115d5760405162461bcd60e51b8152602060048201526017602482015276121bdcdc1a5d185b081b9bdd081c9959da5cdd195c9959604a1b60448201526064016107fd565b5f8a815260056020526040902054156111b85760405162461bcd60e51b815260206004820152601860248201527f43686172676520494420616c726561647920657869737473000000000000000060448201526064016107fd565b5f83116112075760405162461bcd60e51b815260206004820152601d60248201527f416d6f756e74206d7573742062652067726561746572207468616e203000000060448201526064016107fd565b5f61121184612a64565b9050604051806101a001604052808c81526020018b81526020018a815260200189815260200188600581111561124957611249613098565b815260200187878080601f0160208091040260200160405190810160405280939291908181526020018383808284375f920182905250938552505050602082018790526040820184905260609091019081526020015f801b815260200142815260200142815260200184848080601f0160208091040260200160405190810160405280939291908181526020018383808284375f9201829052509390945250508d81526005602081815260409283902085518155908501516001808301919091559285015160028201556060850151600382015560808501516004820180549295509093909260ff1990921691849081111561134757611347613098565b021790555060a0820151600582019061136090826138e3565b5060c0820151600682015560e0820151600782015561010082015160088201805460ff1916600183600481111561139957611399613098565b02179055506101208201516009820155610140820151600a820155610160820151600b820155610180820151600c8201906113d490826138e3565b5050505f8a8152600760209081526040808320805460018181018355918552838520018f90558c84526008835281842080548083018255908552838520018f90558b845260098352908320805491820181558352908220018c9055600b80549161143d83613746565b90915550505f89815260046020526040812060030180549161145e83613746565b90915550505f898152600d6020526040812080549161147c83613746565b9190505550888a8c7fd09aed5e15604513c5cfccad797743faf850dcdb0d8f824c2aaed077467a37598b8b89876040516114b99493929190613a46565b60405180910390a45050505050505050505050565b61150e6040518060c0016040528060608152602001606081526020015f6001600160a01b031681526020015f151581526020015f81526020015f81525090565b5f8281526004602052604090819020815160c081019092528054829082906115359061385e565b80601f01602080910402602001604051908101604052809291908181526020018280546115619061385e565b80156115ac5780601f10611583576101008083540402835291602001916115ac565b820191905f5260205f20905b81548152906001019060200180831161158f57829003601f168201915b505050505081526020016001820180546115c59061385e565b80601f01602080910402602001604051908101604052809291908181526020018280546115f19061385e565b801561163c5780601f106116135761010080835404028352916020019161163c565b820191905f5260205f20905b81548152906001019060200180831161161f57829003601f168201915b505050918352505060028201546001600160a01b0381166020830152600160a01b900460ff16151560408201526003820154606082015260049091015460809091015292915050565b60605f805f805f805f60015f8b81526020019081526020015f205f015f8a60ff1660ff1681526020019081526020015f209050805f018160010154826002015483600301548460050154856004015486600601548680546116e59061385e565b80601f01602080910402602001604051908101604052809291908181526020018280546117119061385e565b801561175c5780601f106117335761010080835404028352916020019161175c565b820191905f5260205f20905b81548152906001019060200180831161173f57829003601f168201915b5050505050965097509750975097509750975097505092959891949750929550565b6006602052805f5260405f205f91509050805f015490806001015f9054906101000a900460ff16908060020154908060030154908060040154908060050154908060060154908060070154908060080154908060090180546117df9061385e565b80601f016020809104026020016040519081016040528092919081815260200182805461180b9061385e565b80156118565780601f1061182d57610100808354040283529160200191611856565b820191905f5260205f20905b81548152906001019060200180831161183957829003601f168201915b505050505090508a565b5f546001600160a01b031633146118895760405162461bcd60e51b81526004016107fd90613827565b5f828152600560205260409020546118b35760405162461bcd60e51b81526004016107fd90613a08565b5f82815260056020526040902060088101805460ff811691849160ff191660018360048111156118e5576118e5613098565b021790555042600b83015582600481111561190257611902613098565b81600481111561191457611914613098565b857f735a48529dc88599b5d06cb5dcece2df1fbe8fc286839deea75e058d8f152f734260405161194691815260200190565b60405180910390a450505050565b6119be604080516101a0810182525f8082526020820181905291810182905260608082018390526080820183905260a082015260c0810182905260e081018290529061010082019081526020015f80191681526020015f81526020015f8152602001606081525090565b5f828152600560205260409020546119e85760405162461bcd60e51b81526004016107fd90613a08565b60055f8381526020019081526020015f20604051806101a00160405290815f8201548152602001600182015481526020016002820154815260200160038201548152602001600482015f9054906101000a900460ff166005811115611a4f57611a4f613098565b6005811115611a6057611a60613098565b8152602001600582018054611a749061385e565b80601f0160208091040260200160405190810160405280929190818152602001828054611aa09061385e565b8015611aeb5780601f10611ac257610100808354040283529160200191611aeb565b820191905f5260205f20905b815481529060010190602001808311611ace57829003601f168201915b50505091835250506006820154602082015260078201546040820152600882015460609091019060ff166004811115611b2657611b26613098565b6004811115611b3757611b37613098565b815260200160098201548152602001600a8201548152602001600b8201548152602001600c82018054610eac9061385e565b5f81815260036020526040812060018101548154606093929182916001600160a01b03909116908290611b9b9061385e565b80601f0160208091040260200160405190810160405280929190818152602001828054611bc79061385e565b8015611c125780601f10611be957610100808354040283529160200191611c12565b820191905f5260205f20905b815481529060010190602001808311611bf557829003601f168201915b505050505091509250925050915091565b60605f8080600260ff86161115611c675760405162461bcd60e51b8152602060048201526008602482015267189859081ada5b9960c21b60448201526064016107fd565b5f86815260016020818152604080842060ff8a1685529091529091209081015415801590611cb4575060018101545f88815260026020908152604080832060ff8b16845290915290205410155b611cf25760405162461bcd60e51b815260206004820152600f60248201526e756e70616964206f7220656d70747960881b60448201526064016107fd565b60405133815260ff87169088907f074f075979d9759e37d7ae44786a6bc14281a51cd89a11a7efe7d94b8d98cb929060200160405180910390a3805f01816001015482600201548360030154838054611d4a9061385e565b80601f0160208091040260200160405190810160405280929190818152602001828054611d769061385e565b8015611dc15780601f10611d9857610100808354040283529160200191611dc1565b820191905f5260205f20905b815481529060010190602001808311611da457829003601f168201915b5050505050935094509450945094505092959194509250565b5f546001600160a01b03163314611e035760405162461bcd60e51b81526004016107fd90613827565b601080546001600160a01b0319166001600160a01b0392909216919091179055565b6007602052815f5260405f208181548110610ad5575f80fd5b5f81815260086020908152604091829020805483518184028101840190945280845260609392830182828015610dad57602002820191905f5260205f2090815481526020019060010190808311610d995750505050509050919050565b5f546001600160a01b03163314611ec45760405162461bcd60e51b81526004016107fd90613827565b604051806060016040528084848080601f0160208091040260200160405190810160405280939291908181526020018383808284375f9201829052509385525050506001600160a01b0384166020808401919091526001604093840152888252600390522081518190611f3790826138e3565b506020820151600190910180546040938401511515600160a01b026001600160a81b03199091166001600160a01b039093169290921791909117905551859085907f395f3017a2b5bed18b75ca98826debb482a9ce45bc3800a9332830dd73fafec690611fa990879087908790613a6c565b60405180910390a35050505050565b5f546001600160a01b03163314611fe15760405162461bcd60e51b81526004016107fd90613827565b601255565b5f81815260076020908152604091829020805483518184028101840190945280845260609392830182828015610dad57602002820191905f5260205f2090815481526020019060010190808311610d995750505050509050919050565b61204b6126f0565b612056858585612760565b5f61205f612b93565b9050808210156120a95760405162461bcd60e51b8152602060048201526015602482015274161494081c185e5b595b9d081d1bdbc81cdb585b1b605a1b60448201526064016107fd565b6120b58a8a8a8a612c9a565b5f8a815260016020818152604080842060ff8e16808652908352818520938401548f86526002845282862091865292528320819055600382018690556004820185905560058201839055600682019290925590612119908c908c9086888e8e612d5e565b60018101546040805191825260208201859052810185905260ff8b16908c907f2bd495210f90c5947db19e2ed93f400539ce2f52b0211c7a52870d200104be059060600160405180910390a35050505050505050505050565b6008602052815f5260405f208181548110610ad5575f80fd5b5f546001600160a01b031633146121b45760405162461bcd60e51b81526004016107fd90613827565b601155565b60605f600b5467ffffffffffffffff8111156121d7576121d761384a565b604051908082528060200260200182016040528015612200578160200160208202803683370190505b5090505f60015b600b5481116122c1576040516563686172676560d01b6020820152602681018290525f9060460160405160208183030381529060405280519060200120905085600481111561225857612258613098565b5f8281526005602052604090206008015460ff16600481111561227d5761227d613098565b036122ae57808484815181106122955761229561377c565b6020908102919091010152826122aa81613746565b9350505b50806122b981613746565b915050612207565b505f8167ffffffffffffffff8111156122dc576122dc61384a565b604051908082528060200260200182016040528015612305578160200160208202803683370190505b5090505f5b8281101561235b578381815181106123245761232461377c565b602002602001015182828151811061233e5761233e61377c565b60209081029190910101528061235381613746565b91505061230a565b50949350505050565b600a602052815f5260405f208181548110610ad5575f80fd5b5f818152600a6020908152604091829020805483518184028101840190945280845260609392830182828015610dad57602002820191905f5260205f2090815481526020019060010190808311610d995750505050509050919050565b5f546001600160a01b031633146124035760405162461bcd60e51b81526004016107fd90613827565b6001600160a01b0381166124465760405162461bcd60e51b815260206004820152600a6024820152693d32b9379037bbb732b960b11b60448201526064016107fd565b5f80546001600160a01b0319166001600160a01b0392909216919091179055565b5f546001600160a01b031633146124905760405162461bcd60e51b81526004016107fd90613827565b5f86815260046020526040902060020154600160a01b900460ff166124f15760405162461bcd60e51b8152602060048201526017602482015276121bdcdc1a5d185b081b9bdd081c9959da5cdd195c9959604a1b60448201526064016107fd565b5f8681526004602052604090208061250a868883613a97565b506001810161251a848683613a97565b5060020180546001600160a01b0319166001600160a01b03929092169190911790555050505050565b60046020525f908152604090208054819061255d9061385e565b80601f01602080910402602001604051908101604052809291908181526020018280546125899061385e565b80156125d45780601f106125ab576101008083540402835291602001916125d4565b820191905f5260205f20905b8154815290600101906020018083116125b757829003601f168201915b5050505050908060010180546125e99061385e565b80601f01602080910402602001604051908101604052809291908181526020018280546126159061385e565b80156126605780601f1061263757610100808354040283529160200191612660565b820191905f5260205f20905b81548152906001019060200180831161264357829003601f168201915b505050506002830154600384015460049094015492936001600160a01b03821693600160a01b90920460ff1692509086565b5f806126a585662386f26fc10000613b53565b90505f6126b485856012612e35565b90505f6126d26126cc84670de0b6b3a7640000613b53565b83612ea2565b90506126e38164e8d4a51000612ea2565b93505050505b9392505050565b600f546001600160a01b03166127365760405162461bcd60e51b815260206004820152600b60248201526a119110c81b9bdd081cd95d60aa1b60448201526064016107fd565b6010546001600160a01b031661275e5760405162461bcd60e51b81526004016107fd906137a3565b565b600f54604051636b40634160e01b81526001600160a01b0390911690636b4063419061279490869086908690600401613b6a565b602060405180830381865afa1580156127af573d5f803e3d5ffd5b505050506040513d601f19601f820116820180604052508101906127d39190613b8d565b61281f5760405162461bcd60e51b815260206004820152601a60248201527f696e76616c6964205852504c207061796d656e742070726f6f6600000000000060448201526064016107fd565b505050565b6040518061014001604052808a815260200189600381111561284857612848613098565b81526020018881526020018781526020018681526020018581526020018481526020018381526020014281526020018281525060065f8b81526020019081526020015f205f820151815f01556020820151816001015f6101000a81548160ff021916908360038111156128bd576128bd613098565b021790555060408201516002820155606082015160038201556080820151600482015560a0820151600582015560c0820151600682015560e082015160078201556101008201516008820155610120820151600982019061291e90826138e3565b505f91506129299050565b88600381111561293b5761293b613098565b14806129585750600388600381111561295657612956613098565b145b15612982575f878152600a60209081526040822080546001810182559083529120018990556129fd565b600288600381111561299657612996613098565b14806129b3575060018860038111156129b1576129b1613098565b145b156129fd575f85815260056020526040902060010154156129fd575f8581526005602090815260408083206001908101548452600a83529083208054918201815583529120018990555b600c8054905f612a0c83613746565b919050555086886003811115612a2457612a24613098565b60408051898152602081018890529081018690528b907faaf61d329957079ffbfe3711ef8a5db751c8958aa5c9a606dde9e9bd2b0de92190606001610d47565b6010545f906001600160a01b0316612a8e5760405162461bcd60e51b81526004016107fd906137a3565b5f805f60105f9054906101000a90046001600160a01b03166001600160a01b031663d4fdd8726040518163ffffffff1660e01b8152600401606060405180830381865afa158015612ae1573d5f803e3d5ffd5b505050506040513d601f19601f82011682018060405250810190612b0591906137c9565b9250925092505f8311612b2a5760405162461bcd60e51b81526004016107fd906137ff565b804210158015612b455750601254612b428242613bac565b11155b612b7f5760405162461bcd60e51b815260206004820152600b60248201526a7072696365207374616c6560a81b60448201526064016107fd565b612b8a858484612692565b95945050505050565b5f805f8060105f9054906101000a90046001600160a01b03166001600160a01b031663d4fdd8726040518163ffffffff1660e01b8152600401606060405180830381865afa158015612be7573d5f803e3d5ffd5b505050506040513d601f19601f82011682018060405250810190612c0b91906137c9565b9250925092505f8311612c305760405162461bcd60e51b81526004016107fd906137ff565b804210158015612c4b5750601254612c488242613bac565b11155b612c855760405162461bcd60e51b815260206004820152600b60248201526a7072696365207374616c6560a81b60448201526064016107fd565b612c926011548484612692565b935050505090565b600260ff84161115612cd95760405162461bcd60e51b8152602060048201526008602482015267189859081ada5b9960c21b60448201526064016107fd565b5f84815260016020908152604080832060ff87168452909152902080612d00838583613a97565b506001816001015f828254612d159190613790565b9091555050426002820155600181015460405160ff86169187917f06f6b1bfeb5b4ec123686e3e99b88f31ea983f9a90ad9ba8bf10f0fb29b47af491611fa99188918891613b6a565b60405162646f6360e81b6020820152602381018890526001600160f81b031960f888901b166043820152604481018690524260648201525f9060840160408051601f19818403018152908290528051602091820120925030915f91612ddd918c918c910191825260f81b6001600160f81b031916602082015260210190565b604051602081830303815290604052805190602001209050612e29835f8c85858c5f801b8d8d8d604051602001612e15929190613bbf565b604051602081830303815290604052612824565b50505050505050505050565b5f8160ff168360ff1603612e4a5750826126e9565b8160ff168360ff1610612e7b57612e618284613beb565b612e6c90600a613ce4565b612e769085613cf2565b612e9a565b612e858383613beb565b612e9090600a613ce4565b612e9a9085613b53565b949350505050565b5f8215612ecf5781612eb5600185613bac565b612ebf9190613cf2565b612eca906001613790565b612ed1565b5f5b90505b92915050565b5f60208284031215612eea575f80fd5b5035919050565b5f8083601f840112612f01575f80fd5b50813567ffffffffffffffff811115612f18575f80fd5b602083019150836020828501011115612f2f575f80fd5b9250929050565b80356001600160a01b0381168114612f4c575f80fd5b919050565b5f805f805f8060808789031215612f66575f80fd5b86359550602087013567ffffffffffffffff80821115612f84575f80fd5b612f908a838b01612ef1565b90975095506040890135915080821115612fa8575f80fd5b50612fb589828a01612ef1565b9094509250612fc8905060608801612f36565b90509295509295509295565b5f8060408385031215612fe5575f80fd5b50508035926020909101359150565b5f805f805f8060a08789031215613009575f80fd5b86359550602087013567ffffffffffffffff811115613026575f80fd5b61303289828a01612ef1565b979a90995096976040810135976060820135975060809091013595509350505050565b602080825282518282018190525f9190848201906040850190845b8181101561308c57835183529284019291840191600101613070565b50909695505050505050565b634e487b7160e01b5f52602160045260245ffd5b600481106130bc576130bc613098565b9052565b5f81518084525f5b818110156130e4576020818501810151868301820152016130c8565b505f602082860101526020601f19601f83011685010191505092915050565b60208152815160208201525f602083015161312160408401826130ac565b506040830151606083015260608301516080830152608083015160a083015260a083015160c083015260c083015160e083015260e0830151610100818185015280850151915050610120818185015280850151915050610140808185015250612e9a6101608401826130c0565b600681106130bc576130bc613098565b600581106130bc576130bc613098565b5f6101a08f83528e60208401528d60408401528c60608401526131d4608084018d61318e565b8060a08401526131e68184018c6130c0565b90508960c08401528860e084015261320261010084018961319e565b86610120840152856101408401528461016084015282810361018084015261322a81856130c0565b9150509e9d5050505050505050505050505050565b5f6020828403121561324f575f80fd5b612ed182612f36565b5f805f805f805f805f806101008b8d031215613272575f80fd5b8a35995060208b0135985060408b0135975060608b0135965060808b01356006811061329c575f80fd5b955060a08b013567ffffffffffffffff808211156132b8575f80fd5b6132c48e838f01612ef1565b909750955060c08d0135945060e08d01359150808211156132e3575f80fd5b506132f08d828e01612ef1565b915080935050809150509295989b9194979a5092959850565b602081525f825160c0602084015261332460e08401826130c0565b90506020840151601f1984830301604085015261334182826130c0565b91505060018060a01b036040850151166060840152606084015115156080840152608084015160a084015260a084015160c08401528091505092915050565b60ff8116811461338e575f80fd5b50565b5f80604083850312156133a2575f80fd5b8235915060208301356133b481613380565b809150509250929050565b60e081525f6133d160e083018a6130c0565b60208301989098525060408101959095526060850193909352608084019190915260a083015260c090910152919050565b5f6101408c8352613416602084018d6130ac565b8a60408401528960608401528860808401528760a08401528660c08401528560e08401528461010084015280610120840152613454818401856130c0565b9d9c50505050505050505050505050565b803560058110612f4c575f80fd5b5f8060408385031215613484575f80fd5b8235915061349460208401613465565b90509250929050565b60208152815160208201526020820151604082015260408201516060820152606082015160808201525f60808301516134d960a084018261318e565b5060a08301516101a08060c08501526134f66101c08501836130c0565b915060c085015160e085015260e08501516101008181870152808701519150506101206135258187018361319e565b860151610140868101919091528601516101608087019190915286015161018080870191909152860151858403601f190183870152905061356683826130c0565b9695505050505050565b604081525f61358260408301856130c0565b905060018060a01b03831660208301529392505050565b608081525f6135ab60808301876130c0565b6020830195909552506040810192909252606090910152919050565b5f805f805f608086880312156135db575f80fd5b8535945060208601359350604086013567ffffffffffffffff8111156135ff575f80fd5b61360b88828901612ef1565b909450925061361e905060608701612f36565b90509295509295909350565b5f805f805f805f805f60e08a8c031215613642575f80fd5b8935985060208a013561365481613380565b975060408a013567ffffffffffffffff80821115613670575f80fd5b61367c8d838e01612ef1565b909950975060608c0135915080821115613694575f80fd5b506136a18c828d01612ef1565b9a9d999c50979a9699979860808801359760a0810135975060c0013595509350505050565b5f602082840312156136d6575f80fd5b612ed182613465565b60c081525f6136f160c08301896130c0565b828103602084015261370381896130c0565b6001600160a01b0397909716604084015250509215156060840152608083019190915260a09091015292915050565b634e487b7160e01b5f52601160045260245ffd5b5f6001820161375757613757613732565b5060010190565b5f60ff821660ff810361377357613773613732565b60010192915050565b634e487b7160e01b5f52603260045260245ffd5b80820180821115612ed457612ed4613732565b6020808252600c908201526b119514d3c81b9bdd081cd95d60a21b604082015260600190565b5f805f606084860312156137db575f80fd5b8351925060208401516137ed81613380565b80925050604084015190509250925092565b6020808252600e908201526d06f7261636c652070726963653d360941b604082015260600190565b6020808252600990820152683737ba1037bbb732b960b91b604082015260600190565b634e487b7160e01b5f52604160045260245ffd5b600181811c9082168061387257607f821691505b60208210810361389057634e487b7160e01b5f52602260045260245ffd5b50919050565b601f82111561281f575f81815260208120601f850160051c810160208610156138bc5750805b601f850160051c820191505b818110156138db578281556001016138c8565b505050505050565b815167ffffffffffffffff8111156138fd576138fd61384a565b6139118161390b845461385e565b84613896565b602080601f831160018114613944575f841561392d5750858301515b5f19600386901b1c1916600185901b1785556138db565b5f85815260208120601f198616915b8281101561397257888601518255948401946001909101908401613953565b508582101561398f57878501515f19600388901b60f8161c191681555b5050505050600190811b01905550565b81835281816020850137505f828201602090810191909152601f909101601f19169091010190565b606081525f6139da60608301878961399f565b82810360208401526139ed81868861399f565b91505060018060a01b03831660408301529695505050505050565b60208082526015908201527410da185c99d948191bd95cc81b9bdd08195e1a5cdd605a1b604082015260600190565b818382375f9101908152919050565b84815260808101613a5a602083018661318e565b60408201939093526060015292915050565b604081525f613a7f60408301858761399f565b905060018060a01b0383166020830152949350505050565b67ffffffffffffffff831115613aaf57613aaf61384a565b613ac383613abd835461385e565b83613896565b5f601f841160018114613af4575f8515613add5750838201355b5f19600387901b1c1916600186901b178355613b4c565b5f83815260209020601f19861690835b82811015613b245786850135825560209485019460019092019101613b04565b5086821015613b40575f1960f88860031b161c19848701351681555b505060018560011b0183555b5050505050565b8082028115828204841417612ed457612ed4613732565b604081525f613b7d60408301858761399f565b9050826020830152949350505050565b5f60208284031215613b9d575f80fd5b815180151581146126e9575f80fd5b81810381811115612ed457612ed4613732565b7002237b1bab6b2b73a103ab83637b0b21d1607d1b8152818360118301375f9101601101908152919050565b60ff8281168282160390811115612ed457612ed4613732565b600181815b80851115613c3e57815f1904821115613c2457613c24613732565b80851615613c3157918102915b93841c9390800290613c09565b509250929050565b5f82613c5457506001612ed4565b81613c6057505f612ed4565b8160018114613c765760028114613c8057613c9c565b6001915050612ed4565b60ff841115613c9157613c91613732565b50506001821b612ed4565b5060208310610133831016604e8410600b8410161715613cbf575081810a612ed4565b613cc98383613c04565b805f1904821115613cdc57613cdc613732565b029392505050565b5f612ed160ff841683613c46565b5f82613d0c57634e487b7160e01b5f52601260045260245ffd5b50049056fe496e737572616e6365207061796d656e7420666f72206d65646963616c207365727669636573a264697066735822122048639a2536c2a0308ba1303c677cfb288dfcccfdcf99fdd57cf8cf846c080f3f64736f6c63430008150033",
  "immutableReferences": {},
  "source": "// SPDX-License-Identifier: MIT\npragma solidity ^0.8.21;\n\n/**\n * MedicalRecordVaultWithBilling (Coston2 / Flare EVM)\n * ---------------------------------------------------\n * Enhanced medical vault with hospital billing functionality:\n * - Document storage with XRPL payment verification via FDC\n * - Hospital billing system with patient-insurance mapping\n * - Complete transaction history tracking\n * - Multi-party transaction recording (Patient  Hospital  Insurance)\n * - FTSO oracle integration for real-time pricing\n */\n\ninterface IFDC {\n    /// Verifies an XRPL payment proof tied to a statementId.\n    function verify(bytes calldata proof, bytes32 statementId) external view returns (bool);\n}\n\ninterface IFTSO {\n    /// Returns (XRP price in USD with `decimals`, decimals, timestamp)\n    function getXRPUSDPrice() external view returns (uint256 price, uint8 decimals, uint256 timestamp);\n}\n\ncontract MedicalRecordVaultWithBilling {\n    /*  Types  */\n    enum DocKind { Diagnosis, Referral, Intake } // 0,1,2\n    enum ServiceType { Consultation, Diagnosis, Treatment, Emergency, Procedure, Other } // 0,1,2,3,4,5\n    enum ChargeStatus { Pending, Approved, Paid, Disputed, Rejected } // 0,1,2,3,4\n    enum TransactionType { DocumentUpload, HospitalCharge, InsurancePayment, PatientPayment } // 0,1,2,3\n\n    struct DocMeta {\n        string  hashURI;        // encrypted pointer (IPFS/S3/etc.)\n        uint256 version;        // increments on each upload\n        uint256 updatedAt;      // unix timestamp\n        bytes32 paymentProof;   // proof id / hash attested by FDC\n        uint256 paidDrops;      // XRP drops paid (attested)\n        uint256 paidUSDc;       // kept 0 (we price via FTSO)\n        bytes32 currencyHash;   // unused for XRP-only path (0)\n    }\n\n    struct RecordSet {\n        mapping(uint8 => DocMeta) docs;\n        address guardian;\n        address pediatricPsychologist;\n    }\n\n    struct InsurerInfo {\n        string  xrplAccount;    // XRPL classic/X-address\n        address contact;        // EVM contact address\n        bool isActive;          // Whether insurer is active\n    }\n\n    struct HospitalInfo {\n        string name;\n        string xrplAccount;     // Hospital's XRPL wallet\n        address contact;        // Hospital's EVM address\n        bool isRegistered;      // Registration status\n        uint256 totalCharges;   // Total charges submitted\n        uint256 registeredAt;   // Registration timestamp\n    }\n\n    struct MedicalCharge {\n        bytes32 chargeId;       // Unique charge identifier\n        bytes32 patientId;      // Patient identifier (hashed)\n        bytes32 hospitalId;     // Hospital identifier\n        bytes32 insurerId;      // Insurance provider identifier\n        ServiceType serviceType; // Type of medical service\n        string description;     // Service description\n        uint256 amountUSD;      // Amount in USD cents\n        uint256 amountDrops;    // Amount in XRP drops\n        ChargeStatus status;    // Current status\n        bytes32 xrplProof;      // XRPL payment proof\n        uint256 createdAt;      // Creation timestamp\n        uint256 updatedAt;      // Last update timestamp\n        string metadata;        // Additional metadata (JSON)\n    }\n\n    struct TransactionRecord {\n        bytes32 txId;           // Unique transaction ID\n        TransactionType txType; // Type of transaction\n        bytes32 fromParty;      // Source party (patient/hospital/insurance)\n        bytes32 toParty;        // Destination party\n        bytes32 relatedId;      // Related charge/document ID\n        uint256 amount;         // Amount in drops\n        bytes32 xrplTxHash;     // XRPL transaction hash\n        bytes32 fdcProof;       // FDC verification proof\n        uint256 timestamp;      // Transaction timestamp\n        string notes;           // Additional notes\n    }\n\n    /*  Events  */\n    event DocumentUploaded(bytes32 indexed patientId, uint8 indexed kind, string hashURI, uint256 version);\n    event DocumentRead(bytes32 indexed patientId, uint8 indexed kind, address accessor);\n\n    event HospitalRegistered(bytes32 indexed hospitalId, string name, string xrplAccount, address contact);\n    event InsuranceRegistered(bytes32 indexed insurerId, bytes32 indexed patientId, string xrplAccount, address contact);\n\n    event ChargeCreated(\n        bytes32 indexed chargeId,\n        bytes32 indexed patientId,\n        bytes32 indexed hospitalId,\n        bytes32 insurerId,\n        ServiceType serviceType,\n        uint256 amountUSD,\n        uint256 amountDrops\n    );\n\n    event ChargeStatusUpdated(\n        bytes32 indexed chargeId,\n        ChargeStatus indexed oldStatus,\n        ChargeStatus indexed newStatus,\n        uint256 timestamp\n    );\n\n    event PaymentProcessed(\n        bytes32 indexed chargeId,\n        bytes32 indexed fromParty,\n        bytes32 indexed toParty,\n        uint256 amount,\n        bytes32 xrplTxHash,\n        bytes32 fdcProof\n    );\n\n    event TransactionRecorded(\n        bytes32 indexed txId,\n        TransactionType indexed txType,\n        bytes32 indexed fromParty,\n        bytes32 toParty,\n        uint256 amount,\n        bytes32 xrplTxHash\n    );\n\n    event UploadPaidXRPLXRP(\n        bytes32 indexed patientId,\n        uint8   indexed kind,\n        uint256 version,\n        uint256 paidDrops,\n        bytes32 proofHash\n    );\n\n    /*  Storage  */\n    address public owner;\n\n    // Document storage (existing functionality)\n    mapping(bytes32 => RecordSet) private records;\n    mapping(bytes32 => mapping(uint8 => uint256)) public paidVersion;\n    mapping(bytes32 => InsurerInfo) private insurerInfoOf;\n\n    // Hospital billing system\n    mapping(bytes32 => HospitalInfo) public hospitals;           // hospitalId => HospitalInfo\n    mapping(bytes32 => MedicalCharge) public charges;            // chargeId => MedicalCharge\n    mapping(bytes32 => TransactionRecord) public transactions;   // txId => TransactionRecord\n\n    // Relationship mappings\n    mapping(bytes32 => bytes32[]) public patientCharges;         // patientId => chargeId[]\n    mapping(bytes32 => bytes32[]) public hospitalCharges;        // hospitalId => chargeId[]\n    mapping(bytes32 => bytes32[]) public insuranceCharges;       // insurerId => chargeId[]\n    mapping(bytes32 => bytes32[]) public patientTransactions;    // patientId => txId[]\n\n    // Counters for statistics\n    uint256 public totalCharges;\n    uint256 public totalTransactions;\n    mapping(bytes32 => uint256) public hospitalChargeCount;\n    mapping(bytes32 => uint256) public insurancePaymentCount;\n\n    // Oracle and pricing\n    IFDC  public fdc;\n    IFTSO public ftso;\n    uint256 public uploadFeeUSDc = 500;           // $5.00 in USD cents for document uploads\n    uint256 public maxOracleStaleness = 10 minutes;\n\n    modifier onlyOwner() { require(msg.sender == owner, \"not owner\"); _; }\n\n    constructor() {\n        owner = msg.sender;\n    }\n\n    function transferOwnership(address newOwner) external onlyOwner {\n        require(newOwner != address(0), \"zero owner\");\n        owner = newOwner;\n    }\n\n    /*  Hospital Registration  */\n\n    function registerHospital(\n        bytes32 hospitalId,\n        string calldata name,\n        string calldata xrplAccount,\n        address contact\n    ) external onlyOwner {\n        require(!hospitals[hospitalId].isRegistered, \"Hospital already registered\");\n\n        hospitals[hospitalId] = HospitalInfo({\n            name: name,\n            xrplAccount: xrplAccount,\n            contact: contact,\n            isRegistered: true,\n            totalCharges: 0,\n            registeredAt: block.timestamp\n        });\n\n        emit HospitalRegistered(hospitalId, name, xrplAccount, contact);\n    }\n\n    function updateHospitalInfo(\n        bytes32 hospitalId,\n        string calldata name,\n        string calldata xrplAccount,\n        address contact\n    ) external onlyOwner {\n        require(hospitals[hospitalId].isRegistered, \"Hospital not registered\");\n\n        HospitalInfo storage hospital = hospitals[hospitalId];\n        hospital.name = name;\n        hospital.xrplAccount = xrplAccount;\n        hospital.contact = contact;\n    }\n\n    /*  Insurance Registration  */\n\n    function registerInsuranceForPatient(\n        bytes32 patientId,\n        bytes32 insurerId,\n        string calldata xrplAccount,\n        address contact\n    ) external onlyOwner {\n        insurerInfoOf[patientId] = InsurerInfo({\n            xrplAccount: xrplAccount,\n            contact: contact,\n            isActive: true\n        });\n\n        emit InsuranceRegistered(insurerId, patientId, xrplAccount, contact);\n    }\n\n    /*  Hospital Billing Functions  */\n\n    function createHospitalCharge(\n        bytes32 chargeId,\n        bytes32 patientId,\n        bytes32 hospitalId,\n        bytes32 insurerId,\n        ServiceType serviceType,\n        string calldata description,\n        uint256 amountUSD,\n        string calldata metadata\n    ) external {\n        require(hospitals[hospitalId].isRegistered, \"Hospital not registered\");\n        require(charges[chargeId].chargeId == bytes32(0), \"Charge ID already exists\");\n        require(amountUSD > 0, \"Amount must be greater than 0\");\n\n        // Calculate XRP amount using FTSO oracle\n        uint256 requiredDrops = _calculateRequiredDrops(amountUSD);\n\n        // Create charge record\n        charges[chargeId] = MedicalCharge({\n            chargeId: chargeId,\n            patientId: patientId,\n            hospitalId: hospitalId,\n            insurerId: insurerId,\n            serviceType: serviceType,\n            description: description,\n            amountUSD: amountUSD,\n            amountDrops: requiredDrops,\n            status: ChargeStatus.Pending,\n            xrplProof: bytes32(0),\n            createdAt: block.timestamp,\n            updatedAt: block.timestamp,\n            metadata: metadata\n        });\n\n        // Update mappings\n        patientCharges[patientId].push(chargeId);\n        hospitalCharges[hospitalId].push(chargeId);\n        insuranceCharges[insurerId].push(chargeId);\n\n        // Update counters\n        totalCharges++;\n        hospitals[hospitalId].totalCharges++;\n        hospitalChargeCount[hospitalId]++;\n\n        emit ChargeCreated(chargeId, patientId, hospitalId, insurerId, serviceType, amountUSD, requiredDrops);\n    }\n\n    function processPaymentWithXRPL(\n        bytes32 chargeId,\n        bytes calldata xrplProof,\n        bytes32 statementId,\n        bytes32 xrplTxHash,\n        uint256 paidDrops\n    ) external {\n        require(charges[chargeId].chargeId != bytes32(0), \"Charge does not exist\");\n        require(charges[chargeId].status == ChargeStatus.Pending, \"Charge not pending\");\n\n        _requireFdcAndFtso();\n        _verifyFDC(xrplProof, statementId);\n\n        MedicalCharge storage charge = charges[chargeId];\n        require(paidDrops >= charge.amountDrops, \"Insufficient payment\");\n\n        // Update charge status\n        ChargeStatus oldStatus = charge.status;\n        charge.status = ChargeStatus.Paid;\n        charge.xrplProof = keccak256(xrplProof);\n        charge.updatedAt = block.timestamp;\n\n        // Create transaction record\n        bytes32 txId = keccak256(abi.encodePacked(chargeId, xrplTxHash, block.timestamp));\n        _recordTransaction(\n            txId,\n            TransactionType.InsurancePayment,\n            charge.insurerId,\n            charge.hospitalId,\n            charge.chargeId,\n            paidDrops,\n            xrplTxHash,\n            charge.xrplProof,\n            \"Insurance payment for medical services\"\n        );\n\n        // Update insurance payment counter\n        insurancePaymentCount[charge.insurerId]++;\n\n        emit ChargeStatusUpdated(chargeId, oldStatus, ChargeStatus.Paid, block.timestamp);\n        emit PaymentProcessed(chargeId, charge.insurerId, charge.hospitalId, paidDrops, xrplTxHash, charge.xrplProof);\n    }\n\n    function updateChargeStatus(bytes32 chargeId, ChargeStatus newStatus) external onlyOwner {\n        require(charges[chargeId].chargeId != bytes32(0), \"Charge does not exist\");\n\n        MedicalCharge storage charge = charges[chargeId];\n        ChargeStatus oldStatus = charge.status;\n        charge.status = newStatus;\n        charge.updatedAt = block.timestamp;\n\n        emit ChargeStatusUpdated(chargeId, oldStatus, newStatus, block.timestamp);\n    }\n\n    /*  Transaction History  */\n\n    function _recordDocumentUpload(\n        bytes32 patientId,\n        uint8 kind,\n        uint256 version,\n        uint256 xrplPaidDrops,\n        bytes32 proofId,\n        string calldata hashURI\n    ) internal {\n        bytes32 txId = keccak256(abi.encodePacked(\"doc\", patientId, kind, version, block.timestamp));\n        bytes32 contractAddr = bytes32(uint256(uint160(address(this))));\n        bytes32 docId = keccak256(abi.encodePacked(patientId, kind));\n\n        _recordTransaction(\n            txId,\n            TransactionType.DocumentUpload,\n            patientId,\n            contractAddr,\n            docId,\n            xrplPaidDrops,\n            bytes32(0),\n            proofId,\n            string(abi.encodePacked(\"Document upload: \", hashURI))\n        );\n    }\n\n    function _recordTransaction(\n        bytes32 txId,\n        TransactionType txType,\n        bytes32 fromParty,\n        bytes32 toParty,\n        bytes32 relatedId,\n        uint256 amount,\n        bytes32 xrplTxHash,\n        bytes32 fdcProof,\n        string memory notes\n    ) internal {\n        transactions[txId] = TransactionRecord({\n            txId: txId,\n            txType: txType,\n            fromParty: fromParty,\n            toParty: toParty,\n            relatedId: relatedId,\n            amount: amount,\n            xrplTxHash: xrplTxHash,\n            fdcProof: fdcProof,\n            timestamp: block.timestamp,\n            notes: notes\n        });\n\n        // Add to patient transaction history\n        if (txType == TransactionType.DocumentUpload || txType == TransactionType.PatientPayment) {\n            patientTransactions[fromParty].push(txId);\n        } else if (txType == TransactionType.InsurancePayment || txType == TransactionType.HospitalCharge) {\n            // For medical charges, link to patient via charge lookup\n            if (charges[relatedId].patientId != bytes32(0)) {\n                patientTransactions[charges[relatedId].patientId].push(txId);\n            }\n        }\n\n        totalTransactions++;\n        emit TransactionRecorded(txId, txType, fromParty, toParty, amount, xrplTxHash);\n    }\n\n    /*  Document Upload (Enhanced)  */\n\n    function uploadDocumentXRP(\n        bytes32 patientId,\n        uint8   kind,\n        string calldata hashURI,\n        bytes  calldata xrplProof,\n        bytes32 statementId,\n        bytes32 proofId,\n        uint256 xrplPaidDrops\n    ) external {\n        _requireFdcAndFtso();\n        _verifyFDC(xrplProof, statementId);\n\n        uint256 requiredDrops = _requiredDrops();\n        require(xrplPaidDrops >= requiredDrops, \"XRP payment too small\");\n\n        _writeDoc(patientId, kind, hashURI);\n        DocMeta storage d = records[patientId].docs[kind];\n        paidVersion[patientId][kind] = d.version;\n        d.paymentProof = proofId;\n        d.paidDrops    = xrplPaidDrops;\n        d.paidUSDc     = 0;\n        d.currencyHash = bytes32(0);\n\n        // Record transaction for document upload (simplified to avoid stack depth)\n        _recordDocumentUpload(patientId, kind, d.version, xrplPaidDrops, proofId, hashURI);\n\n        emit UploadPaidXRPLXRP(patientId, kind, d.version, xrplPaidDrops, proofId);\n    }\n\n    /*  Query Functions  */\n\n    function getCharge(bytes32 chargeId) external view returns (MedicalCharge memory) {\n        require(charges[chargeId].chargeId != bytes32(0), \"Charge does not exist\");\n        return charges[chargeId];\n    }\n\n    function getPatientCharges(bytes32 patientId) external view returns (bytes32[] memory) {\n        return patientCharges[patientId];\n    }\n\n    function getHospitalCharges(bytes32 hospitalId) external view returns (bytes32[] memory) {\n        return hospitalCharges[hospitalId];\n    }\n\n    function getInsuranceCharges(bytes32 insurerId) external view returns (bytes32[] memory) {\n        return insuranceCharges[insurerId];\n    }\n\n    function getPatientTransactionHistory(bytes32 patientId) external view returns (bytes32[] memory) {\n        return patientTransactions[patientId];\n    }\n\n    function getTransaction(bytes32 txId) external view returns (TransactionRecord memory) {\n        return transactions[txId];\n    }\n\n    function getHospitalInfo(bytes32 hospitalId) external view returns (HospitalInfo memory) {\n        return hospitals[hospitalId];\n    }\n\n    function getChargesByStatus(ChargeStatus status) external view returns (bytes32[] memory) {\n        bytes32[] memory result = new bytes32[](totalCharges);\n        uint256 count = 0;\n\n        // This is a simplified implementation - in production you'd want pagination\n        for (uint256 i = 1; i <= totalCharges; i++) {\n            bytes32 chargeId = keccak256(abi.encodePacked(\"charge\", i));\n            if (charges[chargeId].status == status) {\n                result[count] = chargeId;\n                count++;\n            }\n        }\n\n        // Resize array to actual count\n        bytes32[] memory finalResult = new bytes32[](count);\n        for (uint256 i = 0; i < count; i++) {\n            finalResult[i] = result[i];\n        }\n\n        return finalResult;\n    }\n\n    /*  Statistics  */\n\n    function getSystemStats() external view returns (\n        uint256 _totalCharges,\n        uint256 _totalTransactions,\n        uint256 _registeredHospitals,\n        uint256 _activeInsurers\n    ) {\n        // Count registered hospitals (simplified - in production use a counter)\n        uint256 hospCount = 0;\n        uint256 insurerCount = 0;\n\n        return (totalCharges, totalTransactions, hospCount, insurerCount);\n    }\n\n    function getPatientStats(bytes32 patientId) external view returns (\n        uint256 totalDocuments,\n        uint256 totalChargesReceived,\n        uint256 totalTransactions,\n        uint256 totalAmountCharged\n    ) {\n        // Count documents for patient\n        uint256 docCount = 0;\n        for (uint8 i = 0; i <= uint8(DocKind.Intake); i++) {\n            if (records[patientId].docs[i].version > 0) {\n                docCount++;\n            }\n        }\n\n        bytes32[] memory chargeIds = patientCharges[patientId];\n        uint256 totalAmount = 0;\n        for (uint256 i = 0; i < chargeIds.length; i++) {\n            totalAmount += charges[chargeIds[i]].amountUSD;\n        }\n\n        return (\n            docCount,\n            chargeIds.length,\n            patientTransactions[patientId].length,\n            totalAmount\n        );\n    }\n\n    /*  Existing Document Functions  */\n\n    function getDocument(bytes32 patientId, uint8 kind)\n        external\n        returns (string memory, uint256, uint256, bytes32)\n    {\n        require(kind <= uint8(DocKind.Intake), \"bad kind\");\n        DocMeta storage d = records[patientId].docs[kind];\n        require(d.version > 0 && paidVersion[patientId][kind] >= d.version, \"unpaid or empty\");\n        emit DocumentRead(patientId, kind, msg.sender);\n        return (d.hashURI, d.version, d.updatedAt, d.paymentProof);\n    }\n\n    function getDocMeta(bytes32 patientId, uint8 kind)\n        external\n        view\n        returns (string memory hashURI, uint256 version, uint256 updatedAt, bytes32 paymentProof, uint256 paidUSDc, uint256 paidDrops, bytes32 currencyHash)\n    {\n        DocMeta storage d = records[patientId].docs[kind];\n        return (d.hashURI, d.version, d.updatedAt, d.paymentProof, d.paidUSDc, d.paidDrops, d.currencyHash);\n    }\n\n    function getInsurerInfo(bytes32 patientId) external view returns (string memory xrplAccount, address contact) {\n        InsurerInfo storage i = insurerInfoOf[patientId];\n        return (i.xrplAccount, i.contact);\n    }\n\n    /*  Oracle and Admin Functions  */\n\n    function setFDC(address verifier) external onlyOwner {\n        fdc = IFDC(verifier);\n    }\n\n    function setFTSO(address oracle) external onlyOwner {\n        ftso = IFTSO(oracle);\n    }\n\n    function setMaxOracleStaleness(uint256 seconds_) external onlyOwner {\n        maxOracleStaleness = seconds_;\n    }\n\n    function setUploadFeeUSDc(uint256 feeUSDc) external onlyOwner {\n        uploadFeeUSDc = feeUSDc;\n    }\n\n    function requiredXrpDrops()\n        external\n        view\n        returns (uint256 drops, uint256 price, uint8 decimals, uint256 timestamp)\n    {\n        require(address(ftso) != address(0), \"FTSO not set\");\n        (uint256 px, uint8 dec, uint256 ts) = ftso.getXRPUSDPrice();\n        require(px > 0, \"oracle price=0\");\n        return (_requiredXrpDropsFromUSDc(uploadFeeUSDc, px, dec), px, dec, ts);\n    }\n\n    /*  Internal Functions  */\n\n    function _requireFdcAndFtso() internal view {\n        require(address(fdc) != address(0), \"FDC not set\");\n        require(address(ftso) != address(0), \"FTSO not set\");\n    }\n\n    function _verifyFDC(bytes calldata xrplProof, bytes32 statementId) internal view {\n        require(fdc.verify(xrplProof, statementId), \"invalid XRPL payment proof\");\n    }\n\n    function _writeDoc(bytes32 patientId, uint8 kind, string calldata hashURI) internal {\n        require(kind <= uint8(DocKind.Intake), \"bad kind\");\n        DocMeta storage d = records[patientId].docs[kind];\n        d.hashURI  = hashURI;\n        d.version += 1;\n        d.updatedAt = block.timestamp;\n        emit DocumentUploaded(patientId, kind, hashURI, d.version);\n    }\n\n    function _requiredDrops() internal view returns (uint256) {\n        (uint256 px, uint8 dec, uint256 ts) = ftso.getXRPUSDPrice();\n        require(px > 0, \"oracle price=0\");\n        require(block.timestamp >= ts && block.timestamp - ts <= maxOracleStaleness, \"price stale\");\n        return _requiredXrpDropsFromUSDc(uploadFeeUSDc, px, dec);\n    }\n\n    function _calculateRequiredDrops(uint256 amountUSDc) internal view returns (uint256) {\n        require(address(ftso) != address(0), \"FTSO not set\");\n        (uint256 px, uint8 dec, uint256 ts) = ftso.getXRPUSDPrice();\n        require(px > 0, \"oracle price=0\");\n        require(block.timestamp >= ts && block.timestamp - ts <= maxOracleStaleness, \"price stale\");\n        return _requiredXrpDropsFromUSDc(amountUSDc, px, dec);\n    }\n\n    function _requiredXrpDropsFromUSDc(uint256 feeUSDc, uint256 price, uint8 priceDecimals) internal pure returns (uint256) {\n        uint256 usdWad   = feeUSDc * 1e16;\n        uint256 priceWad = _scaleDecimals(price, priceDecimals, 18);\n        uint256 xrpWad   = _ceilDiv(usdWad * 1e18, priceWad);\n        return _ceilDiv(xrpWad, 1e12);\n    }\n\n    function _scaleDecimals(uint256 x, uint8 fromDec, uint8 toDec) internal pure returns (uint256) {\n        if (fromDec == toDec) return x;\n        return (fromDec < toDec)\n            ? x * (10 ** (toDec - fromDec))\n            : x / (10 ** (fromDec - toDec));\n    }\n\n    function _ceilDiv(uint256 a, uint256 b) internal pure returns (uint256) {\n        return a == 0 ? 0 : 1 + ((a - 1) / b);\n    }\n}",
  "sourcePath": "/usr/Flare-x-XRPL-Hackathon/contracts/MedicalRecordVaultWithBilling.sol",
  "compiler": {
    "name": "solc",
    "version": "0.8.21+commit.d9974bed.Emscripten.clang"
  },
  "schemaVersion": "3.4.16",
  "updatedAt": "2025-09-21T09:30:54.045Z",
  "devdoc": {
    "kind": "dev",
    "methods": {},
    "version": 1
  },
  "userdoc": {
    "kind": "user",
    "methods": {},
    "version": 1
  }
}