{
  "contractName": "MedicalRecordVaultXRPL",
  "abi": [
    {
      "inputs": [],
      "stateMutability": "nonpayable",
      "type": "constructor"
    },
    {
      "anonymous": false,
      "inputs": [
        {
          "indexed": true,
          "internalType": "bytes32",
          "name": "patientId",
          "type": "bytes32"
        },
        {
          "indexed": true,
          "internalType": "address",
          "name": "insurer",
          "type": "address"
        },
        {
          "indexed": false,
          "internalType": "uint256",
          "name": "amount",
          "type": "uint256"
        }
      ],
      "name": "Deposit",
      "type": "event"
    },
    {
      "anonymous": false,
      "inputs": [
        {
          "indexed": true,
          "internalType": "bytes32",
          "name": "patientId",
          "type": "bytes32"
        },
        {
          "indexed": true,
          "internalType": "uint8",
          "name": "kind",
          "type": "uint8"
        },
        {
          "indexed": false,
          "internalType": "address",
          "name": "accessor",
          "type": "address"
        }
      ],
      "name": "DocumentRead",
      "type": "event"
    },
    {
      "anonymous": false,
      "inputs": [
        {
          "indexed": true,
          "internalType": "bytes32",
          "name": "patientId",
          "type": "bytes32"
        },
        {
          "indexed": true,
          "internalType": "uint8",
          "name": "kind",
          "type": "uint8"
        },
        {
          "indexed": false,
          "internalType": "string",
          "name": "hashURI",
          "type": "string"
        },
        {
          "indexed": false,
          "internalType": "uint256",
          "name": "version",
          "type": "uint256"
        }
      ],
      "name": "DocumentUploaded",
      "type": "event"
    },
    {
      "anonymous": false,
      "inputs": [
        {
          "indexed": true,
          "internalType": "address",
          "name": "fdc",
          "type": "address"
        }
      ],
      "name": "FdcSet",
      "type": "event"
    },
    {
      "anonymous": false,
      "inputs": [
        {
          "indexed": false,
          "internalType": "uint256",
          "name": "feeWei",
          "type": "uint256"
        },
        {
          "indexed": false,
          "internalType": "uint256",
          "name": "feeUSDc",
          "type": "uint256"
        },
        {
          "indexed": false,
          "internalType": "address",
          "name": "collector",
          "type": "address"
        }
      ],
      "name": "FeesUpdated",
      "type": "event"
    },
    {
      "anonymous": false,
      "inputs": [
        {
          "indexed": true,
          "internalType": "address",
          "name": "ftso",
          "type": "address"
        }
      ],
      "name": "FtsoSet",
      "type": "event"
    },
    {
      "anonymous": false,
      "inputs": [
        {
          "indexed": true,
          "internalType": "bytes32",
          "name": "patientId",
          "type": "bytes32"
        },
        {
          "indexed": true,
          "internalType": "address",
          "name": "guardian",
          "type": "address"
        }
      ],
      "name": "GuardianSet",
      "type": "event"
    },
    {
      "anonymous": false,
      "inputs": [
        {
          "indexed": true,
          "internalType": "bytes32",
          "name": "patientId",
          "type": "bytes32"
        },
        {
          "indexed": true,
          "internalType": "address",
          "name": "insurer",
          "type": "address"
        }
      ],
      "name": "InsurerSet",
      "type": "event"
    },
    {
      "anonymous": false,
      "inputs": [
        {
          "indexed": false,
          "internalType": "uint256",
          "name": "price",
          "type": "uint256"
        },
        {
          "indexed": false,
          "internalType": "uint8",
          "name": "decimals",
          "type": "uint8"
        },
        {
          "indexed": false,
          "internalType": "uint256",
          "name": "timestamp",
          "type": "uint256"
        }
      ],
      "name": "OracleParams",
      "type": "event"
    },
    {
      "anonymous": false,
      "inputs": [
        {
          "indexed": false,
          "internalType": "uint256",
          "name": "maxStalenessSeconds",
          "type": "uint256"
        }
      ],
      "name": "OracleStalenessUpdated",
      "type": "event"
    },
    {
      "anonymous": false,
      "inputs": [
        {
          "indexed": true,
          "internalType": "bytes32",
          "name": "patientId",
          "type": "bytes32"
        },
        {
          "indexed": true,
          "internalType": "address",
          "name": "psychologist",
          "type": "address"
        }
      ],
      "name": "PsychologistSet",
      "type": "event"
    },
    {
      "anonymous": false,
      "inputs": [
        {
          "indexed": true,
          "internalType": "bytes32",
          "name": "patientId",
          "type": "bytes32"
        },
        {
          "indexed": true,
          "internalType": "address",
          "name": "who",
          "type": "address"
        },
        {
          "indexed": false,
          "internalType": "bool",
          "name": "allowed",
          "type": "bool"
        }
      ],
      "name": "ReadAccessGranted",
      "type": "event"
    },
    {
      "anonymous": false,
      "inputs": [
        {
          "indexed": true,
          "internalType": "bytes32",
          "name": "patientId",
          "type": "bytes32"
        },
        {
          "indexed": true,
          "internalType": "uint8",
          "name": "kind",
          "type": "uint8"
        },
        {
          "indexed": true,
          "internalType": "address",
          "name": "insurer",
          "type": "address"
        },
        {
          "indexed": false,
          "internalType": "uint256",
          "name": "version",
          "type": "uint256"
        },
        {
          "indexed": false,
          "internalType": "uint256",
          "name": "amountWei",
          "type": "uint256"
        }
      ],
      "name": "UploadPaidFLR",
      "type": "event"
    },
    {
      "anonymous": false,
      "inputs": [
        {
          "indexed": true,
          "internalType": "bytes32",
          "name": "patientId",
          "type": "bytes32"
        },
        {
          "indexed": true,
          "internalType": "uint8",
          "name": "kind",
          "type": "uint8"
        },
        {
          "indexed": true,
          "internalType": "address",
          "name": "insurer",
          "type": "address"
        },
        {
          "indexed": false,
          "internalType": "uint256",
          "name": "version",
          "type": "uint256"
        },
        {
          "indexed": false,
          "internalType": "uint256",
          "name": "paidUSDc",
          "type": "uint256"
        },
        {
          "indexed": false,
          "internalType": "bytes32",
          "name": "proofHash",
          "type": "bytes32"
        },
        {
          "indexed": false,
          "internalType": "bytes32",
          "name": "currencyHash",
          "type": "bytes32"
        }
      ],
      "name": "UploadPaidXRPLAny",
      "type": "event"
    },
    {
      "anonymous": false,
      "inputs": [
        {
          "indexed": true,
          "internalType": "bytes32",
          "name": "patientId",
          "type": "bytes32"
        },
        {
          "indexed": true,
          "internalType": "uint8",
          "name": "kind",
          "type": "uint8"
        },
        {
          "indexed": true,
          "internalType": "address",
          "name": "insurer",
          "type": "address"
        },
        {
          "indexed": false,
          "internalType": "uint256",
          "name": "version",
          "type": "uint256"
        },
        {
          "indexed": false,
          "internalType": "uint256",
          "name": "paidDrops",
          "type": "uint256"
        },
        {
          "indexed": false,
          "internalType": "bytes32",
          "name": "proofHash",
          "type": "bytes32"
        }
      ],
      "name": "UploadPaidXRPLXRP",
      "type": "event"
    },
    {
      "anonymous": false,
      "inputs": [
        {
          "indexed": true,
          "internalType": "address",
          "name": "to",
          "type": "address"
        },
        {
          "indexed": false,
          "internalType": "uint256",
          "name": "amount",
          "type": "uint256"
        }
      ],
      "name": "Withdraw",
      "type": "event"
    },
    {
      "inputs": [
        {
          "internalType": "bytes32",
          "name": "",
          "type": "bytes32"
        },
        {
          "internalType": "address",
          "name": "",
          "type": "address"
        }
      ],
      "name": "canRead",
      "outputs": [
        {
          "internalType": "bool",
          "name": "",
          "type": "bool"
        }
      ],
      "stateMutability": "view",
      "type": "function",
      "constant": true
    },
    {
      "inputs": [],
      "name": "fdc",
      "outputs": [
        {
          "internalType": "contract IFDC",
          "name": "",
          "type": "address"
        }
      ],
      "stateMutability": "view",
      "type": "function",
      "constant": true
    },
    {
      "inputs": [],
      "name": "feeCollector",
      "outputs": [
        {
          "internalType": "address",
          "name": "",
          "type": "address"
        }
      ],
      "stateMutability": "view",
      "type": "function",
      "constant": true
    },
    {
      "inputs": [],
      "name": "ftso",
      "outputs": [
        {
          "internalType": "contract IFTSO",
          "name": "",
          "type": "address"
        }
      ],
      "stateMutability": "view",
      "type": "function",
      "constant": true
    },
    {
      "inputs": [
        {
          "internalType": "address",
          "name": "",
          "type": "address"
        }
      ],
      "name": "insurerBalances",
      "outputs": [
        {
          "internalType": "uint256",
          "name": "",
          "type": "uint256"
        }
      ],
      "stateMutability": "view",
      "type": "function",
      "constant": true
    },
    {
      "inputs": [
        {
          "internalType": "bytes32",
          "name": "",
          "type": "bytes32"
        }
      ],
      "name": "insurerOf",
      "outputs": [
        {
          "internalType": "address",
          "name": "",
          "type": "address"
        }
      ],
      "stateMutability": "view",
      "type": "function",
      "constant": true
    },
    {
      "inputs": [],
      "name": "maxOracleStaleness",
      "outputs": [
        {
          "internalType": "uint256",
          "name": "",
          "type": "uint256"
        }
      ],
      "stateMutability": "view",
      "type": "function",
      "constant": true
    },
    {
      "inputs": [],
      "name": "owner",
      "outputs": [
        {
          "internalType": "address",
          "name": "",
          "type": "address"
        }
      ],
      "stateMutability": "view",
      "type": "function",
      "constant": true
    },
    {
      "inputs": [
        {
          "internalType": "bytes32",
          "name": "",
          "type": "bytes32"
        },
        {
          "internalType": "uint8",
          "name": "",
          "type": "uint8"
        }
      ],
      "name": "paidVersion",
      "outputs": [
        {
          "internalType": "uint256",
          "name": "",
          "type": "uint256"
        }
      ],
      "stateMutability": "view",
      "type": "function",
      "constant": true
    },
    {
      "inputs": [],
      "name": "uploadFeeUSDc",
      "outputs": [
        {
          "internalType": "uint256",
          "name": "",
          "type": "uint256"
        }
      ],
      "stateMutability": "view",
      "type": "function",
      "constant": true
    },
    {
      "inputs": [],
      "name": "uploadFeeWei",
      "outputs": [
        {
          "internalType": "uint256",
          "name": "",
          "type": "uint256"
        }
      ],
      "stateMutability": "view",
      "type": "function",
      "constant": true
    },
    {
      "stateMutability": "payable",
      "type": "receive",
      "payable": true
    },
    {
      "inputs": [
        {
          "internalType": "address",
          "name": "newOwner",
          "type": "address"
        }
      ],
      "name": "transferOwnership",
      "outputs": [],
      "stateMutability": "nonpayable",
      "type": "function"
    },
    {
      "inputs": [
        {
          "internalType": "bytes32",
          "name": "patientId",
          "type": "bytes32"
        },
        {
          "internalType": "address",
          "name": "guardian_",
          "type": "address"
        }
      ],
      "name": "setGuardian",
      "outputs": [],
      "stateMutability": "nonpayable",
      "type": "function"
    },
    {
      "inputs": [
        {
          "internalType": "bytes32",
          "name": "patientId",
          "type": "bytes32"
        },
        {
          "internalType": "address",
          "name": "psychologist",
          "type": "address"
        }
      ],
      "name": "setPediatricPsychologist",
      "outputs": [],
      "stateMutability": "nonpayable",
      "type": "function"
    },
    {
      "inputs": [
        {
          "internalType": "bytes32",
          "name": "patientId",
          "type": "bytes32"
        },
        {
          "internalType": "address",
          "name": "insurer",
          "type": "address"
        }
      ],
      "name": "setInsurer",
      "outputs": [],
      "stateMutability": "nonpayable",
      "type": "function"
    },
    {
      "inputs": [
        {
          "internalType": "bytes32",
          "name": "patientId",
          "type": "bytes32"
        },
        {
          "internalType": "address",
          "name": "who",
          "type": "address"
        },
        {
          "internalType": "bool",
          "name": "allowed",
          "type": "bool"
        }
      ],
      "name": "grantRead",
      "outputs": [],
      "stateMutability": "nonpayable",
      "type": "function"
    },
    {
      "inputs": [
        {
          "internalType": "uint256",
          "name": "feeWei",
          "type": "uint256"
        },
        {
          "internalType": "uint256",
          "name": "feeUSDc_",
          "type": "uint256"
        },
        {
          "internalType": "address",
          "name": "collector",
          "type": "address"
        }
      ],
      "name": "setUploadFees",
      "outputs": [],
      "stateMutability": "nonpayable",
      "type": "function"
    },
    {
      "inputs": [
        {
          "internalType": "address",
          "name": "verifier",
          "type": "address"
        }
      ],
      "name": "setFDC",
      "outputs": [],
      "stateMutability": "nonpayable",
      "type": "function"
    },
    {
      "inputs": [
        {
          "internalType": "address",
          "name": "oracle",
          "type": "address"
        }
      ],
      "name": "setFTSO",
      "outputs": [],
      "stateMutability": "nonpayable",
      "type": "function"
    },
    {
      "inputs": [
        {
          "internalType": "uint256",
          "name": "seconds_",
          "type": "uint256"
        }
      ],
      "name": "setMaxOracleStaleness",
      "outputs": [],
      "stateMutability": "nonpayable",
      "type": "function"
    },
    {
      "inputs": [
        {
          "internalType": "bytes32",
          "name": "patientId",
          "type": "bytes32"
        }
      ],
      "name": "depositFor",
      "outputs": [],
      "stateMutability": "payable",
      "type": "function",
      "payable": true
    },
    {
      "inputs": [
        {
          "internalType": "address payable",
          "name": "to",
          "type": "address"
        },
        {
          "internalType": "uint256",
          "name": "amount",
          "type": "uint256"
        }
      ],
      "name": "withdraw",
      "outputs": [],
      "stateMutability": "nonpayable",
      "type": "function"
    },
    {
      "inputs": [
        {
          "internalType": "bytes32",
          "name": "patientId",
          "type": "bytes32"
        },
        {
          "internalType": "uint8",
          "name": "kind",
          "type": "uint8"
        },
        {
          "internalType": "string",
          "name": "hashURI",
          "type": "string"
        }
      ],
      "name": "uploadDocumentDeduct",
      "outputs": [],
      "stateMutability": "nonpayable",
      "type": "function"
    },
    {
      "inputs": [
        {
          "internalType": "bytes32",
          "name": "patientId",
          "type": "bytes32"
        },
        {
          "internalType": "uint8",
          "name": "kind",
          "type": "uint8"
        },
        {
          "internalType": "string",
          "name": "hashURI",
          "type": "string"
        },
        {
          "internalType": "bytes",
          "name": "xrplProof",
          "type": "bytes"
        },
        {
          "internalType": "bytes32",
          "name": "statementId",
          "type": "bytes32"
        },
        {
          "internalType": "bytes32",
          "name": "proofId",
          "type": "bytes32"
        },
        {
          "internalType": "uint256",
          "name": "attestedUSDc",
          "type": "uint256"
        },
        {
          "internalType": "bytes32",
          "name": "currencyHash",
          "type": "bytes32"
        }
      ],
      "name": "uploadDocumentWithXRPLAnyCurrency",
      "outputs": [],
      "stateMutability": "nonpayable",
      "type": "function"
    },
    {
      "inputs": [
        {
          "internalType": "bytes32",
          "name": "patientId",
          "type": "bytes32"
        },
        {
          "internalType": "uint8",
          "name": "kind",
          "type": "uint8"
        },
        {
          "internalType": "string",
          "name": "hashURI",
          "type": "string"
        },
        {
          "internalType": "bytes",
          "name": "xrplProof",
          "type": "bytes"
        },
        {
          "internalType": "bytes32",
          "name": "statementId",
          "type": "bytes32"
        },
        {
          "internalType": "bytes32",
          "name": "proofId",
          "type": "bytes32"
        },
        {
          "internalType": "uint256",
          "name": "xrplPaidDrops",
          "type": "uint256"
        }
      ],
      "name": "uploadDocumentWithXRPProof",
      "outputs": [],
      "stateMutability": "nonpayable",
      "type": "function"
    },
    {
      "inputs": [
        {
          "internalType": "bytes32",
          "name": "patientId",
          "type": "bytes32"
        },
        {
          "internalType": "uint8",
          "name": "kind",
          "type": "uint8"
        }
      ],
      "name": "getDocument",
      "outputs": [
        {
          "internalType": "string",
          "name": "",
          "type": "string"
        },
        {
          "internalType": "uint256",
          "name": "",
          "type": "uint256"
        },
        {
          "internalType": "uint256",
          "name": "",
          "type": "uint256"
        },
        {
          "internalType": "bytes32",
          "name": "",
          "type": "bytes32"
        }
      ],
      "stateMutability": "nonpayable",
      "type": "function"
    },
    {
      "inputs": [
        {
          "internalType": "bytes32",
          "name": "patientId",
          "type": "bytes32"
        },
        {
          "internalType": "uint8",
          "name": "kind",
          "type": "uint8"
        }
      ],
      "name": "getDocMeta",
      "outputs": [
        {
          "internalType": "string",
          "name": "hashURI",
          "type": "string"
        },
        {
          "internalType": "uint256",
          "name": "version",
          "type": "uint256"
        },
        {
          "internalType": "uint256",
          "name": "updatedAt",
          "type": "uint256"
        },
        {
          "internalType": "bytes32",
          "name": "paymentProof",
          "type": "bytes32"
        },
        {
          "internalType": "uint256",
          "name": "paidUSDc",
          "type": "uint256"
        },
        {
          "internalType": "uint256",
          "name": "paidDrops",
          "type": "uint256"
        },
        {
          "internalType": "bytes32",
          "name": "currencyHash",
          "type": "bytes32"
        }
      ],
      "stateMutability": "view",
      "type": "function",
      "constant": true
    },
    {
      "inputs": [
        {
          "internalType": "bytes32",
          "name": "patientId",
          "type": "bytes32"
        },
        {
          "internalType": "uint8",
          "name": "kind",
          "type": "uint8"
        }
      ],
      "name": "getDocPayment",
      "outputs": [
        {
          "internalType": "uint256",
          "name": "paidUSDc",
          "type": "uint256"
        },
        {
          "internalType": "uint256",
          "name": "paidDrops",
          "type": "uint256"
        },
        {
          "internalType": "uint256",
          "name": "paidVersion_",
          "type": "uint256"
        },
        {
          "internalType": "bool",
          "name": "flareDeduct",
          "type": "bool"
        }
      ],
      "stateMutability": "view",
      "type": "function",
      "constant": true
    },
    {
      "inputs": [
        {
          "internalType": "bytes32",
          "name": "patientId",
          "type": "bytes32"
        }
      ],
      "name": "getRoles",
      "outputs": [
        {
          "internalType": "address",
          "name": "guardian",
          "type": "address"
        },
        {
          "internalType": "address",
          "name": "pediatricPsychologist",
          "type": "address"
        },
        {
          "internalType": "address",
          "name": "insurer",
          "type": "address"
        }
      ],
      "stateMutability": "view",
      "type": "function",
      "constant": true
    },
    {
      "inputs": [
        {
          "internalType": "bytes32",
          "name": "patientId",
          "type": "bytes32"
        },
        {
          "internalType": "address",
          "name": "who",
          "type": "address"
        }
      ],
      "name": "hasRead",
      "outputs": [
        {
          "internalType": "bool",
          "name": "",
          "type": "bool"
        }
      ],
      "stateMutability": "view",
      "type": "function",
      "constant": true
    },
    {
      "inputs": [
        {
          "internalType": "uint8",
          "name": "kind",
          "type": "uint8"
        }
      ],
      "name": "docKindName",
      "outputs": [
        {
          "internalType": "string",
          "name": "",
          "type": "string"
        }
      ],
      "stateMutability": "pure",
      "type": "function",
      "constant": true
    },
    {
      "inputs": [],
      "name": "requiredXrpDrops",
      "outputs": [
        {
          "internalType": "uint256",
          "name": "drops",
          "type": "uint256"
        },
        {
          "internalType": "uint256",
          "name": "price",
          "type": "uint256"
        },
        {
          "internalType": "uint8",
          "name": "decimals",
          "type": "uint8"
        },
        {
          "internalType": "uint256",
          "name": "timestamp",
          "type": "uint256"
        }
      ],
      "stateMutability": "view",
      "type": "function",
      "constant": true
    }
  ],
  "bytecode": "0x6080604052655af3107a40006005556101f4600755610258600b55348015610025575f80fd5b505f8054336001600160a01b031991821681178355600680549092161790556128d290819061005390395ff3fe6080604052600436106101de575f3560e01c80638c9d41ce116100fd578063cd98de8511610092578063f2fde38b11610062578063f2fde38b1461065e578063f3fef3a31461067d578063f4748bbb1461069c578063f4e3d727146106dd575f80fd5b8063cd98de85146105bb578063d3674b18146105f4578063d538d66514610613578063e036286714610649575f80fd5b8063971afafd116100cd578063971afafd146105555780639bf77fb41461056a578063b5574f241461057d578063c415b95c1461059c575f80fd5b80638c9d41ce146104e45780638da5cb5b14610503578063935e54851461052157806395820a0414610536575f80fd5b80634ad938c41161017357806370e11c3b1161014357806370e11c3b14610458578063748fd8df14610477578063781404681461049657806378ea5ec5146104c5575f80fd5b80634ad938c4146103b957806358c19360146103d85780635c1dafb6146103f757806362c75cec14610426575f80fd5b806316a1d8b4116101ae57806316a1d8b4146103145780633275f21c1461033557806336d9144d14610354578063434760f71461038d575f80fd5b80630709f860146101e95780630b19b2ee1461022f5780630da0c0221461027b578063116aa52f1461029a575f80fd5b366101e557005b5f80fd5b3480156101f4575f80fd5b506101fd6106fc565b6040516102269493929190938452602084019290925260ff166040830152606082015260800190565b60405180910390f35b34801561023a575f80fd5b506102636102493660046120b7565b60026020525f90815260409020546001600160a01b031681565b6040516001600160a01b039091168152602001610226565b348015610286575f80fd5b50600a54610263906001600160a01b031681565b3480156102a5575f80fd5b506102ea6102b43660046120b7565b5f9081526001602081815260408084209283015460029384015493909252909220546001600160a01b0392831693918316921690565b604080516001600160a01b0394851681529284166020840152921691810191909152606001610226565b34801561031f575f80fd5b5061033361032e3660046120e5565b610827565b005b348015610340575f80fd5b50600954610263906001600160a01b031681565b34801561035f575f80fd5b5061037f61036e366004612113565b60046020525f908152604090205481565b604051908152602001610226565b348015610398575f80fd5b506103ac6103a736600461213c565b6108f5565b604051610226919061219a565b3480156103c4575f80fd5b506103336103d33660046120e5565b6109a0565b3480156103e3575f80fd5b506103336103f2366004612113565b610a66565b348015610402575f80fd5b506104166104113660046120e5565b610ad8565b6040519015158152602001610226565b348015610431575f80fd5b506104456104403660046121ac565b610b45565b60405161022697969594939291906121cf565b348015610463575f80fd5b50610333610472366004612212565b610c3e565b348015610482575f80fd5b5061033361049136600461228d565b610d1d565b3480156104a1575f80fd5b506104b56104b03660046121ac565b610ef7565b6040516102269493929190612332565b3480156104d0575f80fd5b506103336104df366004612113565b611131565b3480156104ef575f80fd5b506103336104fe3660046120b7565b6111a3565b34801561050e575f80fd5b505f54610263906001600160a01b031681565b34801561052c575f80fd5b5061037f600b5481565b348015610541575f80fd5b5061033361055036600461236d565b611207565b348015610560575f80fd5b5061037f60075481565b6103336105783660046120b7565b611325565b348015610588575f80fd5b506103336105973660046123a1565b61146c565b3480156105a7575f80fd5b50600654610263906001600160a01b031681565b3480156105c6575f80fd5b506104166105d53660046120e5565b600360209081525f928352604080842090915290825290205460ff1681565b3480156105ff575f80fd5b5061033361060e3660046120e5565b6116dd565b34801561061e575f80fd5b5061037f61062d3660046121ac565b600860209081525f928352604080842090915290825290205481565b348015610654575f80fd5b5061037f60055481565b348015610669575f80fd5b50610333610678366004612113565b6117a9565b348015610688575f80fd5b506103336106973660046123f9565b611836565b3480156106a7575f80fd5b506106bb6106b63660046121ac565b611959565b6040805194855260208501939093529183015215156060820152608001610226565b3480156106e8575f80fd5b506103336106f7366004612423565b6119c8565b600a545f908190819081906001600160a01b03166107505760405162461bcd60e51b815260206004820152600c60248201526b119514d3c81b9bdd081cd95d60a21b60448201526064015b60405180910390fd5b5f805f600a5f9054906101000a90046001600160a01b03166001600160a01b031663d4fdd8726040518163ffffffff1660e01b8152600401606060405180830381865afa1580156107a3573d5f803e3d5ffd5b505050506040513d601f19601f820116820180604052508101906107c791906124bf565b9250925092505f831161080d5760405162461bcd60e51b815260206004820152600e60248201526d06f7261636c652070726963653d360941b6044820152606401610747565b61081a6007548484611b87565b9792965090945092509050565b5f546001600160a01b031633146108505760405162461bcd60e51b8152600401610747906124f5565b6001600160a01b03811661089a5760405162461bcd60e51b815260206004820152601160248201527070737963686f6c6f67697374207a65726f60781b6044820152606401610747565b5f8281526001602052604080822060020180546001600160a01b0319166001600160a01b0385169081179091559051909184917f9bf5c7e7f912df9e1794b3fd8e5091ba871a1e082b3d965ad689b6c6982a56829190a35050565b606060ff821661092b57505060408051808201909152601081526f2234b0b3b737b9b4b9902632ba3a32b960811b602082015290565b5f1960ff83160161095a575050604080518082019091526008815267149959995c9c985b60c21b602082015290565b60011960ff831601610988575050604080518082019091526006815265496e74616b6560d01b602082015290565b60405162461bcd60e51b815260040161074790612518565b5f546001600160a01b031633146109c95760405162461bcd60e51b8152600401610747906124f5565b6001600160a01b038116610a0e5760405162461bcd60e51b815260206004820152600c60248201526b696e7375726572207a65726f60a01b6044820152606401610747565b5f8281526002602052604080822080546001600160a01b0319166001600160a01b0385169081179091559051909184917f58759f6892baf88a17d4d0c1f5b3f08758cd8da2f0f826688c424288f3b5cad39190a35050565b5f546001600160a01b03163314610a8f5760405162461bcd60e51b8152600401610747906124f5565b600980546001600160a01b0319166001600160a01b0383169081179091556040517fb13b6897f1078ad5cac6d8c947da22bcddc0cec9601e74d580711a8830a1abf6905f90a250565b5f80546001600160a01b0383811691161480610b1057505f83815260016020819052604090912001546001600160a01b038381169116145b80610b3c57505f8381526003602090815260408083206001600160a01b038616845290915290205460ff165b90505b92915050565b60605f805f805f805f60015f8b81526020019081526020015f205f015f8a60ff1660ff1681526020019081526020015f209050805f01816001015482600201548360030154846005015485600401548660060154868054610ba59061253a565b80601f0160208091040260200160405190810160405280929190818152602001828054610bd19061253a565b8015610c1c5780601f10610bf357610100808354040283529160200191610c1c565b820191905f5260205f20905b815481529060010190602001808311610bff57829003601f168201915b5050505050965097509750975097509750975097505092959891949750929550565b5f546001600160a01b03163314610c675760405162461bcd60e51b8152600401610747906124f5565b6001600160a01b038116610cae5760405162461bcd60e51b815260206004820152600e60248201526d636f6c6c6563746f72207a65726f60901b6044820152606401610747565b60058390556007829055600680546001600160a01b0319166001600160a01b0383169081179091556040805185815260208101859052908101919091527f660e7095066fd91b05cfad0851f3cefa62b4a62de319c3c13ef7db8982e785019060600160405180910390a1505050565b5f548a9033906001600160a01b0316811480610d5457505f828152600160205260409020600201546001600160a01b038281169116145b610d705760405162461bcd60e51b815260040161074790612572565b610d78611be5565b610d83888888611c2d565b600754841015610dd55760405162461bcd60e51b815260206004820152601960248201527f555344206174746573746174696f6e20746f6f20736d616c6c000000000000006044820152606401610747565b610de18c8c8c8c611cf1565b5f60015f8e81526020019081526020015f205f015f8d60ff1660ff1681526020019081526020015f209050806001015460085f8f81526020019081526020015f205f8e60ff1660ff1681526020019081526020015f20819055508581600301819055505f816004018190555084816005018190555083816006018190555060025f8e81526020019081526020015f205f9054906101000a90046001600160a01b03166001600160a01b03168c60ff168e7ff6c3f8b09e4eb5edebf738a67866ad844c4aa02a23ece7f0fb434f684e78773f8460010154898b8a604051610ee0949392919093845260208401929092526040830152606082015260800190565b60405180910390a450505050505050505050505050565b5f80546060919081908190869033906001600160a01b0316811480610f3857505f82815260016020819052604090912001546001600160a01b038281169116145b80610f6457505f8281526003602090815260408083206001600160a01b038516845290915290205460ff165b610f9e5760405162461bcd60e51b815260206004820152600b60248201526a1b9bdd08185b1b1bddd95960aa1b6044820152606401610747565b600260ff88161115610fc25760405162461bcd60e51b815260040161074790612518565b5f88815260016020818152604080842060ff8c16808652908352818520938401548d86526008845282862091865292529092205490911180159061100957505f8160010154115b6110475760405162461bcd60e51b815260206004820152600f60248201526e756e70616964206f7220656d70747960881b6044820152606401610747565b60405133815260ff8916908a907f074f075979d9759e37d7ae44786a6bc14281a51cd89a11a7efe7d94b8d98cb929060200160405180910390a3805f0181600101548260020154836003015483805461109f9061253a565b80601f01602080910402602001604051908101604052809291908181526020018280546110cb9061253a565b80156111165780601f106110ed57610100808354040283529160200191611116565b820191905f5260205f20905b8154815290600101906020018083116110f957829003601f168201915b50505050509350965096509650965050505092959194509250565b5f546001600160a01b0316331461115a5760405162461bcd60e51b8152600401610747906124f5565b600a80546001600160a01b0319166001600160a01b0383169081179091556040517f78bf9ee573ab4ba0b227ab30e4d583f41e8312c1d584c36833c12d40e56d4364905f90a250565b5f546001600160a01b031633146111cc5760405162461bcd60e51b8152600401610747906124f5565b600b8190556040518181527f6b25cf17c118911f118f91dff57adc2ad6e5ecee484181db518ddc86b9f6276b9060200160405180910390a150565b5f838152600160208190526040909120015483906001600160a01b031633148061123a57505f546001600160a01b031633145b61127b5760405162461bcd60e51b81526020600482015260126024820152713737ba1033bab0b93234b0b717b7bbb732b960711b6044820152606401610747565b6001600160a01b0383166112ba5760405162461bcd60e51b8152600401610747906020808252600490820152637a65726f60e01b604082015260600190565b5f8481526003602090815260408083206001600160a01b03871680855290835292819020805460ff1916861515908117909155905190815286917fc17c5ee9c0cd27e2f22075876524827ee7b6efe1ebbbd8ca7b87efd3a721da1f910160405180910390a350505050565b5f818152600260205260409020546001600160a01b03168061137b5760405162461bcd60e51b815260206004820152600f60248201526e1a5b9cdd5c995c881b9bdd081cd95d608a1b6044820152606401610747565b336001600160a01b038216146113c25760405162461bcd60e51b815260206004820152600c60248201526b37b7363c9034b739bab932b960a11b6044820152606401610747565b5f34116113fc5760405162461bcd60e51b81526020600482015260086024820152676e6f2076616c756560c01b6044820152606401610747565b6001600160a01b0381165f90815260046020526040812080543492906114239084906125b6565b90915550506040513481526001600160a01b0382169083907f182fa52899142d44ff5c45a6354d3b3e868d5b07db6a65580b39bd321bdaf8ac9060200160405180910390a35050565b5f54849033906001600160a01b03168114806114a357505f828152600160205260409020600201546001600160a01b038281169116145b6114bf5760405162461bcd60e51b815260040161074790612572565b6114cb86868686611cf1565b5f868152600260205260409020546001600160a01b0316806115215760405162461bcd60e51b815260206004820152600f60248201526e1a5b9cdd5c995c881b9bdd081cd95d608a1b6044820152606401610747565b6005546001600160a01b0382165f9081526004602052604090205410156115805760405162461bcd60e51b8152602060048201526013602482015272696e73757265722062616c616e6365206c6f7760681b6044820152606401610747565b600580546001600160a01b038381165f9081526004602052604080822080549490940390935560065493549251909390911691908381818185875af1925050503d805f81146115ea576040519150601f19603f3d011682016040523d82523d5f602084013e6115ef565b606091505b50509050806116365760405162461bcd60e51b8152602060048201526013602482015272199959481d1c985b9cd9995c8819985a5b1959606a1b6044820152606401610747565b5f88815260016020818152604080842060ff8c16808652908352818520938401548d8652600884528286208287528452828620819055600385018690556004850186905560058086018790556006860196909655945482519586529285019290925291926001600160a01b038616928c917f96c619c6279880ef0bdf34f43a4773c451716b194849307836486cd77717d31b910160405180910390a4505050505050505050565b5f546001600160a01b031633146117065760405162461bcd60e51b8152600401610747906124f5565b6001600160a01b03811661174c5760405162461bcd60e51b815260206004820152600d60248201526c677561726469616e207a65726f60981b6044820152606401610747565b5f82815260016020819052604080832090910180546001600160a01b0319166001600160a01b0385169081179091559051909184917f8a6e856b2fab550a4c0c3f7a8b9efd3e0326dbb5b5d44a42fba4cb735c181b319190a35050565b5f546001600160a01b031633146117d25760405162461bcd60e51b8152600401610747906124f5565b6001600160a01b0381166118155760405162461bcd60e51b815260206004820152600a6024820152693d32b9379037bbb732b960b11b6044820152606401610747565b5f80546001600160a01b0319166001600160a01b0392909216919091179055565b5f546001600160a01b0316331461185f5760405162461bcd60e51b8152600401610747906124f5565b6001600160a01b03821661189f5760405162461bcd60e51b8152602060048201526007602482015266746f207a65726f60c81b6044820152606401610747565b804710156118de5760405162461bcd60e51b815260206004820152600c60248201526b1a5b9cdd59999a58da595b9d60a21b6044820152606401610747565b6040516001600160a01b0383169082156108fc029083905f818181858888f19350505050158015611911573d5f803e3d5ffd5b50816001600160a01b03167f884edad9ce6fa2440d8a54cc123490eb96d2768479d49ff9c7366125a94243648260405161194d91815260200190565b60405180910390a25050565b5f82815260016020908152604080832060ff8516808552908352818420600581015460048201548887526008865284872093875292909452918420546003830154859485948594909391929091901580156119b757505f8460010154115b929a91995097509095509350505050565b5f54899033906001600160a01b03168114806119ff57505f828152600160205260409020600201546001600160a01b038281169116145b611a1b5760405162461bcd60e51b815260040161074790612572565b611a23611e60565b611a2e878787611c2d565b5f611a37611eed565b905080841015611a815760405162461bcd60e51b8152602060048201526015602482015274161494081c185e5b595b9d081d1bdbc81cdb585b1b605a1b6044820152606401610747565b611a8d8c8c8c8c611cf1565b5f60015f8e81526020019081526020015f205f015f8d60ff1660ff1681526020019081526020015f209050806001015460085f8f81526020019081526020015f205f8e60ff1660ff1681526020019081526020015f20819055508581600301819055508481600401819055505f81600501819055505f801b816006018190555060025f8e81526020019081526020015f205f9054906101000a90046001600160a01b03166001600160a01b03168c60ff168e7f6f169f2460122d67bd49ad1d3130d3f76c39bf16ce6f4384785da306578f706f8460010154898b604051610ee0939291909283526020830191909152604082015260600190565b5f80611b9a85662386f26fc100006125c9565b90505f611ba985856012612015565b90505f611bc7611bc184670de0b6b3a76400006125c9565b83612082565b9050611bd88164e8d4a51000612082565b93505050505b9392505050565b6009546001600160a01b0316611c2b5760405162461bcd60e51b815260206004820152600b60248201526a119110c81b9bdd081cd95d60aa1b6044820152606401610747565b565b600954604051636b40634160e01b81526001600160a01b0390911690636b40634190611c6190869086908690600401612608565b602060405180830381865afa158015611c7c573d5f803e3d5ffd5b505050506040513d601f19601f82011682018060405250810190611ca0919061262b565b611cec5760405162461bcd60e51b815260206004820152601a60248201527f696e76616c6964205852504c207061796d656e742070726f6f660000000000006044820152606401610747565b505050565b5f84815260016020819052604090912001546001600160a01b0316611d4b5760405162461bcd60e51b815260206004820152601060248201526f19dd585c991a585b881b9bdd081cd95d60821b6044820152606401610747565b5f848152600160205260409020600201546001600160a01b0316611da85760405162461bcd60e51b81526020600482015260146024820152731c1cde58da1bdb1bd9da5cdd081b9bdd081cd95d60621b6044820152606401610747565b600260ff84161115611dcc5760405162461bcd60e51b815260040161074790612518565b5f84815260016020908152604080832060ff87168452909152902080611df38385836126a7565b506001816001015f828254611e0891906125b6565b9091555050426002820155600181015460405160ff86169187917f06f6b1bfeb5b4ec123686e3e99b88f31ea983f9a90ad9ba8bf10f0fb29b47af491611e519188918891612608565b60405180910390a35050505050565b6009546001600160a01b0316611ea65760405162461bcd60e51b815260206004820152600b60248201526a119110c81b9bdd081cd95d60aa1b6044820152606401610747565b600a546001600160a01b0316611c2b5760405162461bcd60e51b815260206004820152600c60248201526b119514d3c81b9bdd081cd95d60a21b6044820152606401610747565b5f805f80600a5f9054906101000a90046001600160a01b03166001600160a01b031663d4fdd8726040518163ffffffff1660e01b8152600401606060405180830381865afa158015611f41573d5f803e3d5ffd5b505050506040513d601f19601f82011682018060405250810190611f6591906124bf565b9250925092505f8311611fab5760405162461bcd60e51b815260206004820152600e60248201526d06f7261636c652070726963653d360941b6044820152606401610747565b804210158015611fc65750600b54611fc38242612763565b11155b6120005760405162461bcd60e51b815260206004820152600b60248201526a7072696365207374616c6560a81b6044820152606401610747565b61200d6007548484611b87565b935050505090565b5f8160ff168360ff160361202a575082611bde565b8160ff168360ff161061205b576120418284612776565b61204c90600a61286f565b612056908561287d565b61207a565b6120658383612776565b61207090600a61286f565b61207a90856125c9565b949350505050565b5f82156120af5781612095600185612763565b61209f919061287d565b6120aa9060016125b6565b610b3c565b505f92915050565b5f602082840312156120c7575f80fd5b5035919050565b6001600160a01b03811681146120e2575f80fd5b50565b5f80604083850312156120f6575f80fd5b823591506020830135612108816120ce565b809150509250929050565b5f60208284031215612123575f80fd5b8135611bde816120ce565b60ff811681146120e2575f80fd5b5f6020828403121561214c575f80fd5b8135611bde8161212e565b5f81518084525f5b8181101561217b5760208185018101518683018201520161215f565b505f602082860101526020601f19601f83011685010191505092915050565b602081525f610b3c6020830184612157565b5f80604083850312156121bd575f80fd5b8235915060208301356121088161212e565b60e081525f6121e160e083018a612157565b60208301989098525060408101959095526060850193909352608084019190915260a083015260c090910152919050565b5f805f60608486031215612224575f80fd5b8335925060208401359150604084013561223d816120ce565b809150509250925092565b5f8083601f840112612258575f80fd5b50813567ffffffffffffffff81111561226f575f80fd5b602083019150836020828501011115612286575f80fd5b9250929050565b5f805f805f805f805f806101008b8d0312156122a7575f80fd5b8a35995060208b01356122b98161212e565b985060408b013567ffffffffffffffff808211156122d5575f80fd5b6122e18e838f01612248565b909a50985060608d01359150808211156122f9575f80fd5b506123068d828e01612248565b9b9e9a9d50989b979a989960808901359860a0810135985060c0810135975060e0013595509350505050565b608081525f6123446080830187612157565b6020830195909552506040810192909252606090910152919050565b80151581146120e2575f80fd5b5f805f6060848603121561237f575f80fd5b833592506020840135612391816120ce565b9150604084013561223d81612360565b5f805f80606085870312156123b4575f80fd5b8435935060208501356123c68161212e565b9250604085013567ffffffffffffffff8111156123e1575f80fd5b6123ed87828801612248565b95989497509550505050565b5f806040838503121561240a575f80fd5b8235612415816120ce565b946020939093013593505050565b5f805f805f805f805f60e08a8c03121561243b575f80fd5b8935985060208a013561244d8161212e565b975060408a013567ffffffffffffffff80821115612469575f80fd5b6124758d838e01612248565b909950975060608c013591508082111561248d575f80fd5b5061249a8c828d01612248565b9a9d999c50979a9699979860808801359760a0810135975060c0013595509350505050565b5f805f606084860312156124d1575f80fd5b8351925060208401516124e38161212e565b80925050604084015190509250925092565b6020808252600990820152683737ba1037bbb732b960b91b604082015260600190565b602080825260089082015267189859081ada5b9960c21b604082015260600190565b600181811c9082168061254e57607f821691505b60208210810361256c57634e487b7160e01b5f52602260045260245ffd5b50919050565b6020808252601690820152753737ba103839bcb1b437b637b3b4b9ba17b7bbb732b960511b604082015260600190565b634e487b7160e01b5f52601160045260245ffd5b80820180821115610b3f57610b3f6125a2565b8082028115828204841417610b3f57610b3f6125a2565b81835281816020850137505f828201602090810191909152601f909101601f19169091010190565b604081525f61261b6040830185876125e0565b9050826020830152949350505050565b5f6020828403121561263b575f80fd5b8151611bde81612360565b634e487b7160e01b5f52604160045260245ffd5b601f821115611cec575f81815260208120601f850160051c810160208610156126805750805b601f850160051c820191505b8181101561269f5782815560010161268c565b505050505050565b67ffffffffffffffff8311156126bf576126bf612646565b6126d3836126cd835461253a565b8361265a565b5f601f841160018114612704575f85156126ed5750838201355b5f19600387901b1c1916600186901b17835561275c565b5f83815260209020601f19861690835b828110156127345786850135825560209485019460019092019101612714565b5086821015612750575f1960f88860031b161c19848701351681555b505060018560011b0183555b5050505050565b81810381811115610b3f57610b3f6125a2565b60ff8281168282160390811115610b3f57610b3f6125a2565b600181815b808511156127c957815f19048211156127af576127af6125a2565b808516156127bc57918102915b93841c9390800290612794565b509250929050565b5f826127df57506001610b3f565b816127eb57505f610b3f565b8160018114612801576002811461280b57612827565b6001915050610b3f565b60ff84111561281c5761281c6125a2565b50506001821b610b3f565b5060208310610133831016604e8410600b841016171561284a575081810a610b3f565b612854838361278f565b805f1904821115612867576128676125a2565b029392505050565b5f610b3c60ff8416836127d1565b5f8261289757634e487b7160e01b5f52601260045260245ffd5b50049056fea26469706673582212206fb77f2540a2d1e08d16b008b06cf8aba1b6cd62a461610b67e4e6f7c2f66ad464736f6c63430008150033",
  "immutableReferences": {},
  "source": "// SPDX-License-Identifier: MIT\npragma solidity ^0.8.21;\n\n/**\n * MedicalRecordVaultXRPL (Flare EVM)\n * ----------------------------------\n * - Stores ONLY pointers (hash/CID/URI) to off-chain encrypted docs.\n * - Per patientId (bytes32): owner sets guardian, pediatricPsychologist, and insurer.\n * - Guardian grants READ permissions to parties.\n * - Pediatric Psychologist (or owner) uploads documents.\n *\n * Payment options for each upload (choose one):\n *   A) FLR-deduct: insurer deposits native FLR; contract deducts per upload.\n *   B) XRPL any-currency via FDC attestation: verify XRPL payment proof where the\n *      verifier attests the USD value paid (so insurer can pay in XRP or any IOU).\n *   C) (Optional legacy) XRPL + FTSO XRP pricing: verify XRPL proof + price XRP via FTSO.\n *\n * Reads are FREE (view). If you want an on-chain log, call getDocument (emits).\n *\n * SECURITY:\n * - Never store PII on-chain. Derive patientId off-chain (e.g., keccak256(MRN|salt)).\n * - hashURI must point to encrypted content (IPFS/S3) and be encrypted.\n *\n * NOTE:\n * - Refactored with helpers to avoid \"stack too deep\".\n */\n\ninterface IFDC {\n    /// Generic verification of an XRPL payment proof tied to a statement.\n    /// Your FDC implementation should bind `statementId` to the expected payer/beneficiary context.\n    function verify(bytes calldata proof, bytes32 statementId) external view returns (bool);\n}\n\n/// Optional: XRP oracle for XRP-only pricing path\ninterface IFTSO {\n    /// Returns (XRP price in USD with `decimals`, decimals, timestamp)\n    function getXRPUSDPrice() external view returns (uint256 price, uint8 decimals, uint256 timestamp);\n}\n\ncontract MedicalRecordVaultXRPL {\n    /*  Types  */\n    enum DocKind { Diagnosis, Referral, Intake } // 0,1,2\n\n    struct DocMeta {\n        string  hashURI;        // encrypted pointer\n        uint256 version;        // increments per upload\n        uint256 updatedAt;      // unix timestamp\n\n        // Payment trace\n        bytes32 paymentProof;   // XRPL proof id; 0x0 for FLR-deduct\n        uint256 paidDrops;      // For XRP pricing path (B-legacy); 0 for others\n        uint256 paidUSDc;       // For XRPL any-currency path; USD cents attested by FDC\n        bytes32 currencyHash;   // For info (any-currency path): keccak256(currencyCode|issuer)\n    }\n\n    struct RecordSet {\n        mapping(uint8 => DocMeta) docs; // one DocMeta per kind\n        address guardian;               // guardian who grants read permissions\n        address pediatricPsychologist;  // designated uploader (primary)\n    }\n\n    /*  Events  */\n    event GuardianSet(bytes32 indexed patientId, address indexed guardian);\n    event PsychologistSet(bytes32 indexed patientId, address indexed psychologist);\n    event InsurerSet(bytes32 indexed patientId, address indexed insurer);\n\n    event ReadAccessGranted(bytes32 indexed patientId, address indexed who, bool allowed);\n\n    event UploadPaidFLR(bytes32 indexed patientId, uint8 indexed kind, address indexed insurer, uint256 version, uint256 amountWei);\n    event UploadPaidXRPLAny(\n        bytes32 indexed patientId,\n        uint8   indexed kind,\n        address indexed insurer,\n        uint256 version,\n        uint256 paidUSDc,\n        bytes32 proofHash,\n        bytes32 currencyHash\n    );\n    event UploadPaidXRPLXRP(\n        bytes32 indexed patientId,\n        uint8   indexed kind,\n        address indexed insurer,\n        uint256 version,\n        uint256 paidDrops,\n        bytes32 proofHash\n    );\n\n    event DocumentUploaded(bytes32 indexed patientId, uint8 indexed kind, string hashURI, uint256 version);\n    event DocumentRead(bytes32 indexed patientId, uint8 indexed kind, address accessor);\n\n    event Deposit(bytes32 indexed patientId, address indexed insurer, uint256 amount);\n    event Withdraw(address indexed to, uint256 amount);\n\n    event FtsoSet(address indexed ftso);\n    event FdcSet(address indexed fdc);\n    event OracleParams(uint256 price, uint8 decimals, uint256 timestamp);\n    event FeesUpdated(uint256 feeWei, uint256 feeUSDc, address collector);\n    event OracleStalenessUpdated(uint256 maxStalenessSeconds);\n\n    /*  Ownership  */\n    address public owner;\n    modifier onlyOwner() { require(msg.sender == owner, \"not owner\"); _; }\n\n    constructor() {\n        owner = msg.sender;\n        feeCollector = msg.sender;\n    }\n\n    function transferOwnership(address newOwner) external onlyOwner {\n        require(newOwner != address(0), \"zero owner\");\n        owner = newOwner;\n    }\n\n    /*  Storage  */\n    mapping(bytes32 => RecordSet) private records;                 // patient state\n    mapping(bytes32 => address)  public insurerOf;                 // patient -> insurer\n    mapping(bytes32 => mapping(address => bool)) public canRead;   // read ACL\n\n    // Billing (FLR-deduct)\n    mapping(address => uint256) public insurerBalances; // deposits by insurer\n    uint256 public uploadFeeWei = 0.0001 ether;\n    address public feeCollector;\n\n    // XRPL path: fee in USD cents (converted or attested)\n    uint256 public uploadFeeUSDc = 500; // $5.00 default\n\n    // Latest version paid: patientId => kind => version\n    mapping(bytes32 => mapping(uint8 => uint256)) public paidVersion;\n\n    // Oracles/verifiers\n    IFDC  public fdc;\n    IFTSO public ftso;                       // optional (for XRP-only pricing path)\n    uint256 public maxOracleStaleness = 10 minutes;\n\n    /*  Modifiers  */\n    modifier onlyGuardianOrOwner(bytes32 patientId) {\n        require(msg.sender == records[patientId].guardian || msg.sender == owner, \"not guardian/owner\");\n        _;\n    }\n    modifier onlyUploader(bytes32 patientId) {\n        // Primary uploader is the pediatric psychologist; owner is allowed for admin ops/testing\n        address s = msg.sender;\n        require(\n            s == owner || s == records[patientId].pediatricPsychologist,\n            \"not psychologist/owner\"\n        );\n        _;\n    }\n    modifier onlyReader(bytes32 patientId) {\n        address s = msg.sender;\n        require(\n            s == owner || s == records[patientId].guardian || canRead[patientId][s],\n            \"not allowed\"\n        );\n        _;\n    }\n\n    /*  Admin / Setup  */\n    function setGuardian(bytes32 patientId, address guardian_) external onlyOwner {\n        require(guardian_ != address(0), \"guardian zero\");\n        records[patientId].guardian = guardian_;\n        emit GuardianSet(patientId, guardian_);\n    }\n\n    function setPediatricPsychologist(bytes32 patientId, address psychologist) external onlyOwner {\n        require(psychologist != address(0), \"psychologist zero\");\n        records[patientId].pediatricPsychologist = psychologist;\n        emit PsychologistSet(patientId, psychologist);\n    }\n\n    function setInsurer(bytes32 patientId, address insurer) external onlyOwner {\n        require(insurer != address(0), \"insurer zero\");\n        insurerOf[patientId] = insurer;\n        emit InsurerSet(patientId, insurer);\n    }\n\n    function grantRead(bytes32 patientId, address who, bool allowed) external onlyGuardianOrOwner(patientId) {\n        require(who != address(0), \"zero\");\n        canRead[patientId][who] = allowed;\n        emit ReadAccessGranted(patientId, who, allowed);\n    }\n\n    function setUploadFees(uint256 feeWei, uint256 feeUSDc_, address collector) external onlyOwner {\n        require(collector != address(0), \"collector zero\");\n        uploadFeeWei = feeWei;\n        uploadFeeUSDc = feeUSDc_;\n        feeCollector = collector;\n        emit FeesUpdated(feeWei, feeUSDc_, collector);\n    }\n\n    function setFDC(address verifier) external onlyOwner {\n        fdc = IFDC(verifier);\n        emit FdcSet(verifier);\n    }\n\n    function setFTSO(address oracle) external onlyOwner {\n        ftso = IFTSO(oracle);\n        emit FtsoSet(oracle);\n    }\n\n    function setMaxOracleStaleness(uint256 seconds_) external onlyOwner {\n        maxOracleStaleness = seconds_;\n        emit OracleStalenessUpdated(seconds_);\n    }\n\n    /*  Funding (FLR-deduct)  */\n    function depositFor(bytes32 patientId) external payable {\n        address insurer = insurerOf[patientId];\n        require(insurer != address(0), \"insurer not set\");\n        require(msg.sender == insurer, \"only insurer\");\n        require(msg.value > 0, \"no value\");\n        insurerBalances[insurer] += msg.value;\n        emit Deposit(patientId, insurer, msg.value);\n    }\n\n    function withdraw(address payable to, uint256 amount) external onlyOwner {\n        require(to != address(0), \"to zero\");\n        require(address(this).balance >= amount, \"insufficient\");\n        to.transfer(amount);\n        emit Withdraw(to, amount);\n    }\n\n    /*  UPLOADS  */\n\n    /// A) FLR-deduct mode: contract deducts fee from insurer deposit.\n    function uploadDocumentDeduct(\n        bytes32 patientId,\n        uint8   kind,        // 0/1/2\n        string calldata hashURI\n    ) external onlyUploader(patientId) {\n        _writeDoc(patientId, kind, hashURI);\n\n        address insurer = insurerOf[patientId];\n        require(insurer != address(0), \"insurer not set\");\n        require(insurerBalances[insurer] >= uploadFeeWei, \"insurer balance low\");\n\n        unchecked { insurerBalances[insurer] -= uploadFeeWei; }\n        (bool ok,) = payable(feeCollector).call{value: uploadFeeWei}(\"\");\n        require(ok, \"fee transfer failed\");\n\n        DocMeta storage d = records[patientId].docs[kind];\n        paidVersion[patientId][kind] = d.version;\n        d.paymentProof = bytes32(0); // FLR-deduct marker\n        d.paidDrops    = 0;\n        d.paidUSDc     = 0;\n        d.currencyHash = bytes32(0);\n\n        emit UploadPaidFLR(patientId, kind, insurer, d.version, uploadFeeWei);\n    }\n\n    /// B) XRPL any-currency path via FDC attestation of USD value.\n    /// - `xrplProof` + `statementId` are verified by FDC.\n    /// - `attestedUSDc` is the USD cents paid (any XRPL currency) attested by the verifier.\n    /// - `currencyHash` is informational: keccak256(abi.encodePacked(currencyCode, \"|\", issuerAddressOnXRPL))\n    function uploadDocumentWithXRPLAnyCurrency(\n        bytes32 patientId,\n        uint8   kind,\n        string calldata hashURI,\n        bytes  calldata xrplProof,\n        bytes32 statementId,\n        bytes32 proofId,\n        uint256 attestedUSDc,\n        bytes32 currencyHash\n    ) external onlyUploader(patientId) {\n        _requireFdc();                         // preflight\n        _verifyFDC(xrplProof, statementId);    // 1) attestation valid\n        require(attestedUSDc >= uploadFeeUSDc, \"USD attestation too small\");\n\n        _writeDoc(patientId, kind, hashURI);  // 2) write + mark paid\n        DocMeta storage d = records[patientId].docs[kind];\n        paidVersion[patientId][kind] = d.version;\n        d.paymentProof = proofId;\n        d.paidDrops    = 0;\n        d.paidUSDc     = attestedUSDc;\n        d.currencyHash = currencyHash;\n\n        emit UploadPaidXRPLAny(patientId, kind, insurerOf[patientId], d.version, attestedUSDc, proofId, currencyHash);\n    }\n\n    /// C) (Legacy/optional) XRPL + FDC + FTSO (XRP-only priced in USD via oracle).\n    /// xrplPaidDrops = amount (in drops; 1 XRP = 1e6 drops) attested by FDC.\n    function uploadDocumentWithXRPProof(\n        bytes32 patientId,\n        uint8   kind,\n        string calldata hashURI,\n        bytes  calldata xrplProof,\n        bytes32 statementId,\n        bytes32 proofId,\n        uint256 xrplPaidDrops\n    ) external onlyUploader(patientId) {\n        _requireFdcAndFtso();                         // preflight checks\n        _verifyFDC(xrplProof, statementId);           // 1) attestation valid\n        uint256 requiredDrops = _requiredDrops();     // 2) price from oracle -> required drops\n        require(xrplPaidDrops >= requiredDrops, \"XRP payment too small\");\n\n        _writeDoc(patientId, kind, hashURI);         // 3) write + mark paid\n        DocMeta storage d = records[patientId].docs[kind];\n        paidVersion[patientId][kind] = d.version;\n        d.paymentProof = proofId;\n        d.paidDrops    = xrplPaidDrops;\n        d.paidUSDc     = 0;\n        d.currencyHash = bytes32(0);\n\n        emit UploadPaidXRPLXRP(patientId, kind, insurerOf[patientId], d.version, xrplPaidDrops, proofId);\n    }\n\n    /*  Internal helpers  */\n\n    function _requireFdc() internal view {\n        require(address(fdc) != address(0), \"FDC not set\");\n    }\n\n    function _requireFdcAndFtso() internal view {\n        require(address(fdc) != address(0), \"FDC not set\");\n        require(address(ftso) != address(0), \"FTSO not set\");\n    }\n\n    function _verifyFDC(bytes calldata xrplProof, bytes32 statementId) internal view {\n        require(fdc.verify(xrplProof, statementId), \"invalid XRPL payment proof\");\n    }\n\n    /// Pull oracle, check staleness, emit params, and return required drops for current uploadFeeUSDc\n    function _requiredDrops() internal view returns (uint256) {\n        (uint256 px, uint8 dec, uint256 ts) = ftso.getXRPUSDPrice();\n        require(px > 0, \"oracle price=0\");\n        require(block.timestamp >= ts && block.timestamp - ts <= maxOracleStaleness, \"price stale\");\n        return _requiredXrpDropsFromUSDc(uploadFeeUSDc, px, dec);\n    }\n\n    /// Internal write: increments version and stores URI/timestamp.\n    function _writeDoc(bytes32 patientId, uint8 kind, string calldata hashURI) internal {\n        require(records[patientId].guardian != address(0), \"guardian not set\");\n        require(records[patientId].pediatricPsychologist != address(0), \"psychologist not set\");\n        require(kind <= uint8(DocKind.Intake), \"bad kind\");\n\n        DocMeta storage d = records[patientId].docs[kind];\n        d.hashURI  = hashURI;\n        d.version += 1;\n        d.updatedAt = block.timestamp;\n\n        emit DocumentUploaded(patientId, kind, hashURI, d.version);\n    }\n\n    /*  READ (free; requires paid)  */\n\n    function getDocument(bytes32 patientId, uint8 kind)\n        external\n        onlyReader(patientId)\n        returns (string memory, uint256, uint256, bytes32)\n    {\n        require(kind <= uint8(DocKind.Intake), \"bad kind\");\n        DocMeta storage d = records[patientId].docs[kind];\n        require(paidVersion[patientId][kind] >= d.version && d.version > 0, \"unpaid or empty\");\n        emit DocumentRead(patientId, kind, msg.sender);\n        return (d.hashURI, d.version, d.updatedAt, d.paymentProof);\n    }\n\n    /*  Views & helpers  */\n\n    function getDocMeta(bytes32 patientId, uint8 kind)\n        external\n        view\n        returns (string memory hashURI, uint256 version, uint256 updatedAt, bytes32 paymentProof, uint256 paidUSDc, uint256 paidDrops, bytes32 currencyHash)\n    {\n        DocMeta storage d = records[patientId].docs[kind];\n        return (d.hashURI, d.version, d.updatedAt, d.paymentProof, d.paidUSDc, d.paidDrops, d.currencyHash);\n    }\n\n    function getDocPayment(bytes32 patientId, uint8 kind)\n        external\n        view\n        returns (uint256 paidUSDc, uint256 paidDrops, uint256 paidVersion_, bool flareDeduct)\n    {\n        DocMeta storage d = records[patientId].docs[kind];\n        return (d.paidUSDc, d.paidDrops, paidVersion[patientId][kind], d.paymentProof == bytes32(0) && d.version > 0);\n    }\n\n    function getRoles(bytes32 patientId)\n        external\n        view\n        returns (address guardian, address pediatricPsychologist, address insurer)\n    {\n        return (records[patientId].guardian, records[patientId].pediatricPsychologist, insurerOf[patientId]);\n    }\n\n    function hasRead(bytes32 patientId, address who) external view returns (bool) {\n        return (who == owner || who == records[patientId].guardian || canRead[patientId][who]);\n    }\n\n    /// Human-readable document kind names\n    function docKindName(uint8 kind) public pure returns (string memory) {\n        if (kind == uint8(DocKind.Diagnosis)) return \"Diagnosis Letter\";\n        if (kind == uint8(DocKind.Referral))  return \"Referral\";\n        if (kind == uint8(DocKind.Intake))    return \"Intake\";\n        revert(\"bad kind\");\n    }\n\n    /// View: required XRP (in drops) for the current USD-cents fee (oracle path)\n    function requiredXrpDrops()\n        external\n        view\n        returns (uint256 drops, uint256 price, uint8 decimals, uint256 timestamp)\n    {\n        require(address(ftso) != address(0), \"FTSO not set\");\n        (uint256 px, uint8 dec, uint256 ts) = ftso.getXRPUSDPrice();\n        require(px > 0, \"oracle price=0\");\n        return (_requiredXrpDropsFromUSDc(uploadFeeUSDc, px, dec), px, dec, ts);\n    }\n\n    /*  Math  */\n\n    function _requiredXrpDropsFromUSDc(uint256 feeUSDc, uint256 price, uint8 priceDecimals) internal pure returns (uint256) {\n        // Convert USD cents to 18-decimal USD (WAD): USDc * 1e16\n        uint256 usdWad = feeUSDc * 1e16;                 // $1.00 => 1e18\n        uint256 priceWad = _scaleDecimals(price, priceDecimals, 18); // USD per XRP (18d)\n        // required XRP (WAD) = ceil(usdWad / priceWad) with 18-dec precision\n        uint256 xrpWad = _ceilDiv(usdWad * 1e18, priceWad);\n        // 1 XRP = 1e6 drops => drops = ceil(xrpWad / 1e12)\n        return _ceilDiv(xrpWad, 1e12);\n    }\n\n    function _scaleDecimals(uint256 x, uint8 fromDec, uint8 toDec) internal pure returns (uint256) {\n        if (fromDec == toDec) return x;\n        return (fromDec < toDec)\n            ? x * (10 ** (toDec - fromDec))\n            : x / (10 ** (fromDec - toDec));\n    }\n\n    function _ceilDiv(uint256 a, uint256 b) internal pure returns (uint256) {\n        return a == 0 ? 0 : 1 + ((a - 1) / b);\n    }\n\n    receive() external payable {}\n}\n",
  "sourcePath": "/workspaces/Flare-x-XRPL-Hackathon/contracts/MedicalRecordVault.sol",
  "compiler": {
    "name": "solc",
    "version": "0.8.21+commit.d9974bed.Emscripten.clang"
  },
  "schemaVersion": "3.4.16",
  "updatedAt": "2025-09-20T22:54:40.409Z",
  "networkType": "ethereum",
  "devdoc": {
    "kind": "dev",
    "methods": {},
    "version": 1
  },
  "userdoc": {
    "kind": "user",
    "methods": {
      "docKindName(uint8)": {
        "notice": "Human-readable document kind names"
      },
      "requiredXrpDrops()": {
        "notice": "View: required XRP (in drops) for the current USD-cents fee (oracle path)"
      },
      "uploadDocumentDeduct(bytes32,uint8,string)": {
        "notice": "A) FLR-deduct mode: contract deducts fee from insurer deposit."
      },
      "uploadDocumentWithXRPLAnyCurrency(bytes32,uint8,string,bytes,bytes32,bytes32,uint256,bytes32)": {
        "notice": "B) XRPL any-currency path via FDC attestation of USD value. - `xrplProof` + `statementId` are verified by FDC. - `attestedUSDc` is the USD cents paid (any XRPL currency) attested by the verifier. - `currencyHash` is informational: keccak256(abi.encodePacked(currencyCode, \"|\", issuerAddressOnXRPL))"
      },
      "uploadDocumentWithXRPProof(bytes32,uint8,string,bytes,bytes32,bytes32,uint256)": {
        "notice": "C) (Legacy/optional) XRPL + FDC + FTSO (XRP-only priced in USD via oracle). xrplPaidDrops = amount (in drops; 1 XRP = 1e6 drops) attested by FDC."
      }
    },
    "version": 1
  }
}