{
  "contractName": "MedicalRecordVaultXRPL",
  "abi": [
    {
      "inputs": [],
      "stateMutability": "nonpayable",
      "type": "constructor"
    },
    {
      "anonymous": false,
      "inputs": [
        {
          "indexed": true,
          "internalType": "bytes32",
          "name": "patientId",
          "type": "bytes32"
        },
        {
          "indexed": true,
          "internalType": "address",
          "name": "insurer",
          "type": "address"
        },
        {
          "indexed": false,
          "internalType": "uint256",
          "name": "amount",
          "type": "uint256"
        }
      ],
      "name": "Deposit",
      "type": "event"
    },
    {
      "anonymous": false,
      "inputs": [
        {
          "indexed": true,
          "internalType": "bytes32",
          "name": "patientId",
          "type": "bytes32"
        },
        {
          "indexed": true,
          "internalType": "uint8",
          "name": "kind",
          "type": "uint8"
        },
        {
          "indexed": false,
          "internalType": "address",
          "name": "accessor",
          "type": "address"
        }
      ],
      "name": "DocumentRead",
      "type": "event"
    },
    {
      "anonymous": false,
      "inputs": [
        {
          "indexed": true,
          "internalType": "bytes32",
          "name": "patientId",
          "type": "bytes32"
        },
        {
          "indexed": true,
          "internalType": "uint8",
          "name": "kind",
          "type": "uint8"
        },
        {
          "indexed": false,
          "internalType": "string",
          "name": "hashURI",
          "type": "string"
        },
        {
          "indexed": false,
          "internalType": "uint256",
          "name": "version",
          "type": "uint256"
        }
      ],
      "name": "DocumentUploaded",
      "type": "event"
    },
    {
      "anonymous": false,
      "inputs": [
        {
          "indexed": true,
          "internalType": "address",
          "name": "fdc",
          "type": "address"
        }
      ],
      "name": "FdcSet",
      "type": "event"
    },
    {
      "anonymous": false,
      "inputs": [
        {
          "indexed": false,
          "internalType": "uint256",
          "name": "feeWei",
          "type": "uint256"
        },
        {
          "indexed": false,
          "internalType": "uint256",
          "name": "feeUSDc",
          "type": "uint256"
        },
        {
          "indexed": false,
          "internalType": "address",
          "name": "collector",
          "type": "address"
        }
      ],
      "name": "FeesUpdated",
      "type": "event"
    },
    {
      "anonymous": false,
      "inputs": [
        {
          "indexed": true,
          "internalType": "address",
          "name": "ftso",
          "type": "address"
        }
      ],
      "name": "FtsoSet",
      "type": "event"
    },
    {
      "anonymous": false,
      "inputs": [
        {
          "indexed": true,
          "internalType": "bytes32",
          "name": "patientId",
          "type": "bytes32"
        },
        {
          "indexed": true,
          "internalType": "address",
          "name": "guardian",
          "type": "address"
        }
      ],
      "name": "GuardianSet",
      "type": "event"
    },
    {
      "anonymous": false,
      "inputs": [
        {
          "indexed": true,
          "internalType": "bytes32",
          "name": "patientId",
          "type": "bytes32"
        },
        {
          "indexed": true,
          "internalType": "address",
          "name": "insurer",
          "type": "address"
        }
      ],
      "name": "InsurerSet",
      "type": "event"
    },
    {
      "anonymous": false,
      "inputs": [
        {
          "indexed": false,
          "internalType": "uint256",
          "name": "price",
          "type": "uint256"
        },
        {
          "indexed": false,
          "internalType": "uint8",
          "name": "decimals",
          "type": "uint8"
        },
        {
          "indexed": false,
          "internalType": "uint256",
          "name": "timestamp",
          "type": "uint256"
        }
      ],
      "name": "OracleParams",
      "type": "event"
    },
    {
      "anonymous": false,
      "inputs": [
        {
          "indexed": false,
          "internalType": "uint256",
          "name": "maxStalenessSeconds",
          "type": "uint256"
        }
      ],
      "name": "OracleStalenessUpdated",
      "type": "event"
    },
    {
      "anonymous": false,
      "inputs": [
        {
          "indexed": true,
          "internalType": "bytes32",
          "name": "patientId",
          "type": "bytes32"
        },
        {
          "indexed": true,
          "internalType": "address",
          "name": "psychologist",
          "type": "address"
        }
      ],
      "name": "PsychologistSet",
      "type": "event"
    },
    {
      "anonymous": false,
      "inputs": [
        {
          "indexed": true,
          "internalType": "bytes32",
          "name": "patientId",
          "type": "bytes32"
        },
        {
          "indexed": true,
          "internalType": "uint8",
          "name": "kind",
          "type": "uint8"
        },
        {
          "indexed": true,
          "internalType": "address",
          "name": "insurer",
          "type": "address"
        },
        {
          "indexed": false,
          "internalType": "uint256",
          "name": "version",
          "type": "uint256"
        },
        {
          "indexed": false,
          "internalType": "uint256",
          "name": "amountWei",
          "type": "uint256"
        }
      ],
      "name": "UploadPaidFLR",
      "type": "event"
    },
    {
      "anonymous": false,
      "inputs": [
        {
          "indexed": true,
          "internalType": "bytes32",
          "name": "patientId",
          "type": "bytes32"
        },
        {
          "indexed": true,
          "internalType": "uint8",
          "name": "kind",
          "type": "uint8"
        },
        {
          "indexed": true,
          "internalType": "address",
          "name": "insurer",
          "type": "address"
        },
        {
          "indexed": false,
          "internalType": "uint256",
          "name": "version",
          "type": "uint256"
        },
        {
          "indexed": false,
          "internalType": "uint256",
          "name": "paidUSDc",
          "type": "uint256"
        },
        {
          "indexed": false,
          "internalType": "bytes32",
          "name": "proofHash",
          "type": "bytes32"
        },
        {
          "indexed": false,
          "internalType": "bytes32",
          "name": "currencyHash",
          "type": "bytes32"
        }
      ],
      "name": "UploadPaidXRPLAny",
      "type": "event"
    },
    {
      "anonymous": false,
      "inputs": [
        {
          "indexed": true,
          "internalType": "bytes32",
          "name": "patientId",
          "type": "bytes32"
        },
        {
          "indexed": true,
          "internalType": "uint8",
          "name": "kind",
          "type": "uint8"
        },
        {
          "indexed": true,
          "internalType": "address",
          "name": "insurer",
          "type": "address"
        },
        {
          "indexed": false,
          "internalType": "uint256",
          "name": "version",
          "type": "uint256"
        },
        {
          "indexed": false,
          "internalType": "uint256",
          "name": "paidDrops",
          "type": "uint256"
        },
        {
          "indexed": false,
          "internalType": "bytes32",
          "name": "proofHash",
          "type": "bytes32"
        }
      ],
      "name": "UploadPaidXRPLXRP",
      "type": "event"
    },
    {
      "anonymous": false,
      "inputs": [
        {
          "indexed": true,
          "internalType": "address",
          "name": "to",
          "type": "address"
        },
        {
          "indexed": false,
          "internalType": "uint256",
          "name": "amount",
          "type": "uint256"
        }
      ],
      "name": "Withdraw",
      "type": "event"
    },
    {
      "inputs": [],
      "name": "fdc",
      "outputs": [
        {
          "internalType": "contract IFDC",
          "name": "",
          "type": "address"
        }
      ],
      "stateMutability": "view",
      "type": "function"
    },
    {
      "inputs": [],
      "name": "feeCollector",
      "outputs": [
        {
          "internalType": "address",
          "name": "",
          "type": "address"
        }
      ],
      "stateMutability": "view",
      "type": "function"
    },
    {
      "inputs": [],
      "name": "ftso",
      "outputs": [
        {
          "internalType": "contract IFTSO",
          "name": "",
          "type": "address"
        }
      ],
      "stateMutability": "view",
      "type": "function"
    },
    {
      "inputs": [
        {
          "internalType": "address",
          "name": "",
          "type": "address"
        }
      ],
      "name": "insurerBalances",
      "outputs": [
        {
          "internalType": "uint256",
          "name": "",
          "type": "uint256"
        }
      ],
      "stateMutability": "view",
      "type": "function"
    },
    {
      "inputs": [
        {
          "internalType": "bytes32",
          "name": "",
          "type": "bytes32"
        }
      ],
      "name": "insurerOf",
      "outputs": [
        {
          "internalType": "address",
          "name": "",
          "type": "address"
        }
      ],
      "stateMutability": "view",
      "type": "function"
    },
    {
      "inputs": [],
      "name": "maxOracleStaleness",
      "outputs": [
        {
          "internalType": "uint256",
          "name": "",
          "type": "uint256"
        }
      ],
      "stateMutability": "view",
      "type": "function"
    },
    {
      "inputs": [],
      "name": "owner",
      "outputs": [
        {
          "internalType": "address",
          "name": "",
          "type": "address"
        }
      ],
      "stateMutability": "view",
      "type": "function"
    },
    {
      "inputs": [
        {
          "internalType": "bytes32",
          "name": "",
          "type": "bytes32"
        },
        {
          "internalType": "uint8",
          "name": "",
          "type": "uint8"
        }
      ],
      "name": "paidVersion",
      "outputs": [
        {
          "internalType": "uint256",
          "name": "",
          "type": "uint256"
        }
      ],
      "stateMutability": "view",
      "type": "function"
    },
    {
      "inputs": [],
      "name": "uploadFeeUSDc",
      "outputs": [
        {
          "internalType": "uint256",
          "name": "",
          "type": "uint256"
        }
      ],
      "stateMutability": "view",
      "type": "function"
    },
    {
      "inputs": [],
      "name": "uploadFeeWei",
      "outputs": [
        {
          "internalType": "uint256",
          "name": "",
          "type": "uint256"
        }
      ],
      "stateMutability": "view",
      "type": "function"
    },
    {
      "stateMutability": "payable",
      "type": "receive"
    },
    {
      "inputs": [
        {
          "internalType": "address",
          "name": "newOwner",
          "type": "address"
        }
      ],
      "name": "transferOwnership",
      "outputs": [],
      "stateMutability": "nonpayable",
      "type": "function"
    },
    {
      "inputs": [
        {
          "internalType": "bytes32",
          "name": "patientId",
          "type": "bytes32"
        },
        {
          "internalType": "address",
          "name": "guardian_",
          "type": "address"
        }
      ],
      "name": "setGuardian",
      "outputs": [],
      "stateMutability": "nonpayable",
      "type": "function"
    },
    {
      "inputs": [
        {
          "internalType": "bytes32",
          "name": "patientId",
          "type": "bytes32"
        },
        {
          "internalType": "address",
          "name": "psychologist",
          "type": "address"
        }
      ],
      "name": "setPediatricPsychologist",
      "outputs": [],
      "stateMutability": "nonpayable",
      "type": "function"
    },
    {
      "inputs": [
        {
          "internalType": "bytes32",
          "name": "patientId",
          "type": "bytes32"
        },
        {
          "internalType": "address",
          "name": "insurer",
          "type": "address"
        }
      ],
      "name": "setInsurer",
      "outputs": [],
      "stateMutability": "nonpayable",
      "type": "function"
    },
    {
      "inputs": [
        {
          "internalType": "uint256",
          "name": "feeWei",
          "type": "uint256"
        },
        {
          "internalType": "uint256",
          "name": "feeUSDc_",
          "type": "uint256"
        },
        {
          "internalType": "address",
          "name": "collector",
          "type": "address"
        }
      ],
      "name": "setUploadFees",
      "outputs": [],
      "stateMutability": "nonpayable",
      "type": "function"
    },
    {
      "inputs": [
        {
          "internalType": "address",
          "name": "verifier",
          "type": "address"
        }
      ],
      "name": "setFDC",
      "outputs": [],
      "stateMutability": "nonpayable",
      "type": "function"
    },
    {
      "inputs": [
        {
          "internalType": "address",
          "name": "oracle",
          "type": "address"
        }
      ],
      "name": "setFTSO",
      "outputs": [],
      "stateMutability": "nonpayable",
      "type": "function"
    },
    {
      "inputs": [
        {
          "internalType": "uint256",
          "name": "seconds_",
          "type": "uint256"
        }
      ],
      "name": "setMaxOracleStaleness",
      "outputs": [],
      "stateMutability": "nonpayable",
      "type": "function"
    },
    {
      "inputs": [
        {
          "internalType": "bytes32",
          "name": "patientId",
          "type": "bytes32"
        }
      ],
      "name": "depositFor",
      "outputs": [],
      "stateMutability": "payable",
      "type": "function"
    },
    {
      "inputs": [
        {
          "internalType": "address payable",
          "name": "to",
          "type": "address"
        },
        {
          "internalType": "uint256",
          "name": "amount",
          "type": "uint256"
        }
      ],
      "name": "withdraw",
      "outputs": [],
      "stateMutability": "nonpayable",
      "type": "function"
    },
    {
      "inputs": [
        {
          "internalType": "bytes32",
          "name": "patientId",
          "type": "bytes32"
        },
        {
          "internalType": "uint8",
          "name": "kind",
          "type": "uint8"
        },
        {
          "internalType": "string",
          "name": "hashURI",
          "type": "string"
        }
      ],
      "name": "uploadDocumentDeduct",
      "outputs": [],
      "stateMutability": "nonpayable",
      "type": "function"
    },
    {
      "inputs": [
        {
          "internalType": "bytes32",
          "name": "patientId",
          "type": "bytes32"
        },
        {
          "internalType": "uint8",
          "name": "kind",
          "type": "uint8"
        },
        {
          "internalType": "string",
          "name": "hashURI",
          "type": "string"
        },
        {
          "internalType": "bytes",
          "name": "xrplProof",
          "type": "bytes"
        },
        {
          "internalType": "bytes32",
          "name": "statementId",
          "type": "bytes32"
        },
        {
          "internalType": "bytes32",
          "name": "proofId",
          "type": "bytes32"
        },
        {
          "internalType": "uint256",
          "name": "attestedUSDc",
          "type": "uint256"
        },
        {
          "internalType": "bytes32",
          "name": "currencyHash",
          "type": "bytes32"
        }
      ],
      "name": "uploadDocumentWithXRPLAnyCurrency",
      "outputs": [],
      "stateMutability": "nonpayable",
      "type": "function"
    },
    {
      "inputs": [
        {
          "internalType": "bytes32",
          "name": "patientId",
          "type": "bytes32"
        },
        {
          "internalType": "uint8",
          "name": "kind",
          "type": "uint8"
        },
        {
          "internalType": "string",
          "name": "hashURI",
          "type": "string"
        },
        {
          "internalType": "bytes",
          "name": "xrplProof",
          "type": "bytes"
        },
        {
          "internalType": "bytes32",
          "name": "statementId",
          "type": "bytes32"
        },
        {
          "internalType": "bytes32",
          "name": "proofId",
          "type": "bytes32"
        },
        {
          "internalType": "uint256",
          "name": "xrplPaidDrops",
          "type": "uint256"
        }
      ],
      "name": "uploadDocumentWithXRPProof",
      "outputs": [],
      "stateMutability": "nonpayable",
      "type": "function"
    },
    {
      "inputs": [
        {
          "internalType": "bytes32",
          "name": "patientId",
          "type": "bytes32"
        },
        {
          "internalType": "uint8",
          "name": "kind",
          "type": "uint8"
        }
      ],
      "name": "getDocument",
      "outputs": [
        {
          "internalType": "string",
          "name": "",
          "type": "string"
        },
        {
          "internalType": "uint256",
          "name": "",
          "type": "uint256"
        },
        {
          "internalType": "uint256",
          "name": "",
          "type": "uint256"
        },
        {
          "internalType": "bytes32",
          "name": "",
          "type": "bytes32"
        }
      ],
      "stateMutability": "nonpayable",
      "type": "function"
    },
    {
      "inputs": [
        {
          "internalType": "bytes32",
          "name": "patientId",
          "type": "bytes32"
        },
        {
          "internalType": "uint8",
          "name": "kind",
          "type": "uint8"
        }
      ],
      "name": "getDocMeta",
      "outputs": [
        {
          "internalType": "string",
          "name": "hashURI",
          "type": "string"
        },
        {
          "internalType": "uint256",
          "name": "version",
          "type": "uint256"
        },
        {
          "internalType": "uint256",
          "name": "updatedAt",
          "type": "uint256"
        },
        {
          "internalType": "bytes32",
          "name": "paymentProof",
          "type": "bytes32"
        },
        {
          "internalType": "uint256",
          "name": "paidUSDc",
          "type": "uint256"
        },
        {
          "internalType": "uint256",
          "name": "paidDrops",
          "type": "uint256"
        },
        {
          "internalType": "bytes32",
          "name": "currencyHash",
          "type": "bytes32"
        }
      ],
      "stateMutability": "view",
      "type": "function"
    },
    {
      "inputs": [
        {
          "internalType": "bytes32",
          "name": "patientId",
          "type": "bytes32"
        }
      ],
      "name": "getRoles",
      "outputs": [
        {
          "internalType": "address",
          "name": "guardian",
          "type": "address"
        },
        {
          "internalType": "address",
          "name": "pediatricPsychologist",
          "type": "address"
        },
        {
          "internalType": "address",
          "name": "insurer",
          "type": "address"
        }
      ],
      "stateMutability": "view",
      "type": "function"
    },
    {
      "inputs": [
        {
          "internalType": "uint8",
          "name": "kind",
          "type": "uint8"
        }
      ],
      "name": "docKindName",
      "outputs": [
        {
          "internalType": "string",
          "name": "",
          "type": "string"
        }
      ],
      "stateMutability": "pure",
      "type": "function"
    },
    {
      "inputs": [],
      "name": "requiredXrpDrops",
      "outputs": [
        {
          "internalType": "uint256",
          "name": "drops",
          "type": "uint256"
        },
        {
          "internalType": "uint256",
          "name": "price",
          "type": "uint256"
        },
        {
          "internalType": "uint8",
          "name": "decimals",
          "type": "uint8"
        },
        {
          "internalType": "uint256",
          "name": "timestamp",
          "type": "uint256"
        }
      ],
      "stateMutability": "view",
      "type": "function"
    }
  ],
  "bytecode": "0x6080604052655af3107a40006004556101f4600655610258600a55348015610025575f80fd5b505f8054336001600160a01b0319918216811783556005805490921617905561228090819061005390395ff3fe6080604052600436106101b2575f3560e01c806378ea5ec5116100e7578063c415b95c11610087578063e036286711610062578063e036286714610596578063f2fde38b146105ab578063f3fef3a3146105ca578063f4e3d727146105e9575f80fd5b8063c415b95c14610522578063d3674b1814610541578063d538d66514610560575f80fd5b8063935e5485116100c2578063935e5485146104c6578063971afafd146104db5780639bf77fb4146104f0578063b5574f2414610503575f80fd5b806378ea5ec51461046a5780638c9d41ce146104895780638da5cb5b146104a8575f80fd5b8063434760f71161015257806362c75cec1161012d57806362c75cec146103cb57806370e11c3b146103fd578063748fd8df1461041c578063781404681461043b575f80fd5b8063434760f7146103615780634ad938c41461038d57806358c19360146103ac575f80fd5b8063116aa52f1161018d578063116aa52f1461026e57806316a1d8b4146102e85780633275f21c1461030957806336d9144d14610328575f80fd5b80630709f860146101bd5780630b19b2ee146102035780630da0c0221461024f575f80fd5b366101b957005b5f80fd5b3480156101c8575f80fd5b506101d1610608565b6040516101fa9493929190938452602084019290925260ff166040830152606082015260800190565b60405180910390f35b34801561020e575f80fd5b5061023761021d366004611ad2565b60026020525f90815260409020546001600160a01b031681565b6040516001600160a01b0390911681526020016101fa565b34801561025a575f80fd5b50600954610237906001600160a01b031681565b348015610279575f80fd5b506102be610288366004611ad2565b5f9081526001602081815260408084209283015460029384015493909252909220546001600160a01b0392831693918316921690565b604080516001600160a01b03948516815292841660208401529216918101919091526060016101fa565b3480156102f3575f80fd5b50610307610302366004611b00565b610733565b005b348015610314575f80fd5b50600854610237906001600160a01b031681565b348015610333575f80fd5b50610353610342366004611b2e565b60036020525f908152604090205481565b6040519081526020016101fa565b34801561036c575f80fd5b5061038061037b366004611b57565b610801565b6040516101fa9190611bb5565b348015610398575f80fd5b506103076103a7366004611b00565b6108ac565b3480156103b7575f80fd5b506103076103c6366004611b2e565b610972565b3480156103d6575f80fd5b506103ea6103e5366004611bc7565b6109e4565b6040516101fa9796959493929190611bea565b348015610408575f80fd5b50610307610417366004611c2d565b610add565b348015610427575f80fd5b50610307610436366004611ca8565b610bbc565b348015610446575f80fd5b5061045a610455366004611bc7565b610cef565b6040516101fa9493929190611d4d565b348015610475575f80fd5b50610307610484366004611b2e565b610e85565b348015610494575f80fd5b506103076104a3366004611ad2565b610ef7565b3480156104b3575f80fd5b505f54610237906001600160a01b031681565b3480156104d1575f80fd5b50610353600a5481565b3480156104e6575f80fd5b5061035360065481565b6103076104fe366004611ad2565b610f5b565b34801561050e575f80fd5b5061030761051d366004611d7b565b6110a2565b34801561052d575f80fd5b50600554610237906001600160a01b031681565b34801561054c575f80fd5b5061030761055b366004611b00565b6112be565b34801561056b575f80fd5b5061035361057a366004611bc7565b600760209081525f928352604080842090915290825290205481565b3480156105a1575f80fd5b5061035360045481565b3480156105b6575f80fd5b506103076105c5366004611b2e565b61138a565b3480156105d5575f80fd5b506103076105e4366004611dd3565b611417565b3480156105f4575f80fd5b50610307610603366004611dfd565b61153a565b6009545f908190819081906001600160a01b031661065c5760405162461bcd60e51b815260206004820152600c60248201526b119514d3c81b9bdd081cd95d60a21b60448201526064015b60405180910390fd5b5f805f60095f9054906101000a90046001600160a01b03166001600160a01b031663d4fdd8726040518163ffffffff1660e01b8152600401606060405180830381865afa1580156106af573d5f803e3d5ffd5b505050506040513d601f19601f820116820180604052508101906106d39190611e99565b9250925092505f83116107195760405162461bcd60e51b815260206004820152600e60248201526d06f7261636c652070726963653d360941b6044820152606401610653565b6107266006548484611656565b9792965090945092509050565b5f546001600160a01b0316331461075c5760405162461bcd60e51b815260040161065390611ecf565b6001600160a01b0381166107a65760405162461bcd60e51b815260206004820152601160248201527070737963686f6c6f67697374207a65726f60781b6044820152606401610653565b5f8281526001602052604080822060020180546001600160a01b0319166001600160a01b0385169081179091559051909184917f9bf5c7e7f912df9e1794b3fd8e5091ba871a1e082b3d965ad689b6c6982a56829190a35050565b606060ff821661083757505060408051808201909152601081526f2234b0b3b737b9b4b9902632ba3a32b960811b602082015290565b5f1960ff831601610866575050604080518082019091526008815267149959995c9c985b60c21b602082015290565b60011960ff831601610894575050604080518082019091526006815265496e74616b6560d01b602082015290565b60405162461bcd60e51b815260040161065390611ef2565b5f546001600160a01b031633146108d55760405162461bcd60e51b815260040161065390611ecf565b6001600160a01b03811661091a5760405162461bcd60e51b815260206004820152600c60248201526b696e7375726572207a65726f60a01b6044820152606401610653565b5f8281526002602052604080822080546001600160a01b0319166001600160a01b0385169081179091559051909184917f58759f6892baf88a17d4d0c1f5b3f08758cd8da2f0f826688c424288f3b5cad39190a35050565b5f546001600160a01b0316331461099b5760405162461bcd60e51b815260040161065390611ecf565b600880546001600160a01b0319166001600160a01b0383169081179091556040517fb13b6897f1078ad5cac6d8c947da22bcddc0cec9601e74d580711a8830a1abf6905f90a250565b60605f805f805f805f60015f8b81526020019081526020015f205f015f8a60ff1660ff1681526020019081526020015f209050805f01816001015482600201548360030154846005015485600401548660060154868054610a4490611f14565b80601f0160208091040260200160405190810160405280929190818152602001828054610a7090611f14565b8015610abb5780601f10610a9257610100808354040283529160200191610abb565b820191905f5260205f20905b815481529060010190602001808311610a9e57829003601f168201915b5050505050965097509750975097509750975097505092959891949750929550565b5f546001600160a01b03163314610b065760405162461bcd60e51b815260040161065390611ecf565b6001600160a01b038116610b4d5760405162461bcd60e51b815260206004820152600e60248201526d636f6c6c6563746f72207a65726f60901b6044820152606401610653565b60048390556006829055600580546001600160a01b0319166001600160a01b0383169081179091556040805185815260208101859052908101919091527f660e7095066fd91b05cfad0851f3cefa62b4a62de319c3c13ef7db8982e785019060600160405180910390a1505050565b610bc46116b4565b610bcf8686866116fc565b600654821015610c215760405162461bcd60e51b815260206004820152601960248201527f555344206174746573746174696f6e20746f6f20736d616c6c000000000000006044820152606401610653565b610c2d8a8a8a8a6117c0565b5f8a815260016020818152604080842060ff8e16808652908352818520938401548f8652600784528286208287528452828620819055600385018990556004850186905560058501889055600685018790558f865260028452948290205482519586529285018790529084018790526060840185905291926001600160a01b0390911691908d907ff6c3f8b09e4eb5edebf738a67866ad844c4aa02a23ece7f0fb434f684e78773f906080015b60405180910390a45050505050505050505050565b60605f8080600260ff86161115610d185760405162461bcd60e51b815260040161065390611ef2565b5f86815260016020818152604080842060ff8a16808652908352818520938401548b865260078452828620918652925290922054909111801590610d5f57505f8160010154115b610d9d5760405162461bcd60e51b815260206004820152600f60248201526e756e70616964206f7220656d70747960881b6044820152606401610653565b60405133815260ff87169088907f074f075979d9759e37d7ae44786a6bc14281a51cd89a11a7efe7d94b8d98cb929060200160405180910390a3805f01816001015482600201548360030154838054610df590611f14565b80601f0160208091040260200160405190810160405280929190818152602001828054610e2190611f14565b8015610e6c5780601f10610e4357610100808354040283529160200191610e6c565b820191905f5260205f20905b815481529060010190602001808311610e4f57829003601f168201915b5050505050935094509450945094505092959194509250565b5f546001600160a01b03163314610eae5760405162461bcd60e51b815260040161065390611ecf565b600980546001600160a01b0319166001600160a01b0383169081179091556040517f78bf9ee573ab4ba0b227ab30e4d583f41e8312c1d584c36833c12d40e56d4364905f90a250565b5f546001600160a01b03163314610f205760405162461bcd60e51b815260040161065390611ecf565b600a8190556040518181527f6b25cf17c118911f118f91dff57adc2ad6e5ecee484181db518ddc86b9f6276b9060200160405180910390a150565b5f818152600260205260409020546001600160a01b031680610fb15760405162461bcd60e51b815260206004820152600f60248201526e1a5b9cdd5c995c881b9bdd081cd95d608a1b6044820152606401610653565b336001600160a01b03821614610ff85760405162461bcd60e51b815260206004820152600c60248201526b37b7363c9034b739bab932b960a11b6044820152606401610653565b5f34116110325760405162461bcd60e51b81526020600482015260086024820152676e6f2076616c756560c01b6044820152606401610653565b6001600160a01b0381165f9081526003602052604081208054349290611059908490611f60565b90915550506040513481526001600160a01b0382169083907f182fa52899142d44ff5c45a6354d3b3e868d5b07db6a65580b39bd321bdaf8ac9060200160405180910390a35050565b6110ae848484846117c0565b5f848152600260205260409020546001600160a01b0316806111045760405162461bcd60e51b815260206004820152600f60248201526e1a5b9cdd5c995c881b9bdd081cd95d608a1b6044820152606401610653565b6004546001600160a01b0382165f9081526003602052604090205410156111635760405162461bcd60e51b8152602060048201526013602482015272696e73757265722062616c616e6365206c6f7760681b6044820152606401610653565b600480546001600160a01b038381165f9081526003602052604080822080549490940390935560055493549251909390911691908381818185875af1925050503d805f81146111cd576040519150601f19603f3d011682016040523d82523d5f602084013e6111d2565b606091505b50509050806112195760405162461bcd60e51b8152602060048201526013602482015272199959481d1c985b9cd9995c8819985a5b1959606a1b6044820152606401610653565b5f86815260016020818152604080842060ff8a16808652908352818520938401548b8652600784528286208287528452828620819055600385018690556004808601879055600586018790556006860196909655945482519586529285019290925291926001600160a01b038616928a917f96c619c6279880ef0bdf34f43a4773c451716b194849307836486cd77717d31b910160405180910390a450505050505050565b5f546001600160a01b031633146112e75760405162461bcd60e51b815260040161065390611ecf565b6001600160a01b03811661132d5760405162461bcd60e51b815260206004820152600d60248201526c677561726469616e207a65726f60981b6044820152606401610653565b5f82815260016020819052604080832090910180546001600160a01b0319166001600160a01b0385169081179091559051909184917f8a6e856b2fab550a4c0c3f7a8b9efd3e0326dbb5b5d44a42fba4cb735c181b319190a35050565b5f546001600160a01b031633146113b35760405162461bcd60e51b815260040161065390611ecf565b6001600160a01b0381166113f65760405162461bcd60e51b815260206004820152600a6024820152693d32b9379037bbb732b960b11b6044820152606401610653565b5f80546001600160a01b0319166001600160a01b0392909216919091179055565b5f546001600160a01b031633146114405760405162461bcd60e51b815260040161065390611ecf565b6001600160a01b0382166114805760405162461bcd60e51b8152602060048201526007602482015266746f207a65726f60c81b6044820152606401610653565b804710156114bf5760405162461bcd60e51b815260206004820152600c60248201526b1a5b9cdd59999a58da595b9d60a21b6044820152606401610653565b6040516001600160a01b0383169082156108fc029083905f818181858888f193505050501580156114f2573d5f803e3d5ffd5b50816001600160a01b03167f884edad9ce6fa2440d8a54cc123490eb96d2768479d49ff9c7366125a94243648260405161152e91815260200190565b60405180910390a25050565b611542611878565b61154d8585856116fc565b5f611556611905565b9050808210156115a05760405162461bcd60e51b8152602060048201526015602482015274161494081c185e5b595b9d081d1bdbc81cdb585b1b605a1b6044820152606401610653565b6115ac8a8a8a8a6117c0565b5f8a815260016020818152604080842060ff8e16808652908352818520938401548f8652600784528286208287528452828620819055600385018990556004850188905560058501869055600685018690558f8652600284529482902054825195865292850187905290840187905291926001600160a01b0390911691908d907f6f169f2460122d67bd49ad1d3130d3f76c39bf16ce6f4384785da306578f706f90606001610cda565b5f8061166985662386f26fc10000611f73565b90505f61167885856012611a2d565b90505f61169661169084670de0b6b3a7640000611f73565b83611a9a565b90506116a78164e8d4a51000611a9a565b93505050505b9392505050565b6008546001600160a01b03166116fa5760405162461bcd60e51b815260206004820152600b60248201526a119110c81b9bdd081cd95d60aa1b6044820152606401610653565b565b600854604051636b40634160e01b81526001600160a01b0390911690636b4063419061173090869086908690600401611fb2565b602060405180830381865afa15801561174b573d5f803e3d5ffd5b505050506040513d601f19601f8201168201806040525081019061176f9190611fd5565b6117bb5760405162461bcd60e51b815260206004820152601a60248201527f696e76616c6964205852504c207061796d656e742070726f6f660000000000006044820152606401610653565b505050565b600260ff841611156117e45760405162461bcd60e51b815260040161065390611ef2565b5f84815260016020908152604080832060ff8716845290915290208061180b838583612055565b506001816001015f8282546118209190611f60565b9091555050426002820155600181015460405160ff86169187917f06f6b1bfeb5b4ec123686e3e99b88f31ea983f9a90ad9ba8bf10f0fb29b47af4916118699188918891611fb2565b60405180910390a35050505050565b6008546001600160a01b03166118be5760405162461bcd60e51b815260206004820152600b60248201526a119110c81b9bdd081cd95d60aa1b6044820152606401610653565b6009546001600160a01b03166116fa5760405162461bcd60e51b815260206004820152600c60248201526b119514d3c81b9bdd081cd95d60a21b6044820152606401610653565b5f805f8060095f9054906101000a90046001600160a01b03166001600160a01b031663d4fdd8726040518163ffffffff1660e01b8152600401606060405180830381865afa158015611959573d5f803e3d5ffd5b505050506040513d601f19601f8201168201806040525081019061197d9190611e99565b9250925092505f83116119c35760405162461bcd60e51b815260206004820152600e60248201526d06f7261636c652070726963653d360941b6044820152606401610653565b8042101580156119de5750600a546119db8242612111565b11155b611a185760405162461bcd60e51b815260206004820152600b60248201526a7072696365207374616c6560a81b6044820152606401610653565b611a256006548484611656565b935050505090565b5f8160ff168360ff1603611a425750826116ad565b8160ff168360ff1610611a7357611a598284612124565b611a6490600a61221d565b611a6e908561222b565b611a92565b611a7d8383612124565b611a8890600a61221d565b611a929085611f73565b949350505050565b5f8215611ac75781611aad600185612111565b611ab7919061222b565b611ac2906001611f60565b611ac9565b5f5b90505b92915050565b5f60208284031215611ae2575f80fd5b5035919050565b6001600160a01b0381168114611afd575f80fd5b50565b5f8060408385031215611b11575f80fd5b823591506020830135611b2381611ae9565b809150509250929050565b5f60208284031215611b3e575f80fd5b81356116ad81611ae9565b60ff81168114611afd575f80fd5b5f60208284031215611b67575f80fd5b81356116ad81611b49565b5f81518084525f5b81811015611b9657602081850181015186830182015201611b7a565b505f602082860101526020601f19601f83011685010191505092915050565b602081525f611ac96020830184611b72565b5f8060408385031215611bd8575f80fd5b823591506020830135611b2381611b49565b60e081525f611bfc60e083018a611b72565b60208301989098525060408101959095526060850193909352608084019190915260a083015260c090910152919050565b5f805f60608486031215611c3f575f80fd5b83359250602084013591506040840135611c5881611ae9565b809150509250925092565b5f8083601f840112611c73575f80fd5b50813567ffffffffffffffff811115611c8a575f80fd5b602083019150836020828501011115611ca1575f80fd5b9250929050565b5f805f805f805f805f806101008b8d031215611cc2575f80fd5b8a35995060208b0135611cd481611b49565b985060408b013567ffffffffffffffff80821115611cf0575f80fd5b611cfc8e838f01611c63565b909a50985060608d0135915080821115611d14575f80fd5b50611d218d828e01611c63565b9b9e9a9d50989b979a989960808901359860a0810135985060c0810135975060e0013595509350505050565b608081525f611d5f6080830187611b72565b6020830195909552506040810192909252606090910152919050565b5f805f8060608587031215611d8e575f80fd5b843593506020850135611da081611b49565b9250604085013567ffffffffffffffff811115611dbb575f80fd5b611dc787828801611c63565b95989497509550505050565b5f8060408385031215611de4575f80fd5b8235611def81611ae9565b946020939093013593505050565b5f805f805f805f805f60e08a8c031215611e15575f80fd5b8935985060208a0135611e2781611b49565b975060408a013567ffffffffffffffff80821115611e43575f80fd5b611e4f8d838e01611c63565b909950975060608c0135915080821115611e67575f80fd5b50611e748c828d01611c63565b9a9d999c50979a9699979860808801359760a0810135975060c0013595509350505050565b5f805f60608486031215611eab575f80fd5b835192506020840151611ebd81611b49565b80925050604084015190509250925092565b6020808252600990820152683737ba1037bbb732b960b91b604082015260600190565b602080825260089082015267189859081ada5b9960c21b604082015260600190565b600181811c90821680611f2857607f821691505b602082108103611f4657634e487b7160e01b5f52602260045260245ffd5b50919050565b634e487b7160e01b5f52601160045260245ffd5b80820180821115611acc57611acc611f4c565b8082028115828204841417611acc57611acc611f4c565b81835281816020850137505f828201602090810191909152601f909101601f19169091010190565b604081525f611fc5604083018587611f8a565b9050826020830152949350505050565b5f60208284031215611fe5575f80fd5b815180151581146116ad575f80fd5b634e487b7160e01b5f52604160045260245ffd5b601f8211156117bb575f81815260208120601f850160051c8101602086101561202e5750805b601f850160051c820191505b8181101561204d5782815560010161203a565b505050505050565b67ffffffffffffffff83111561206d5761206d611ff4565b6120818361207b8354611f14565b83612008565b5f601f8411600181146120b2575f851561209b5750838201355b5f19600387901b1c1916600186901b17835561210a565b5f83815260209020601f19861690835b828110156120e257868501358255602094850194600190920191016120c2565b50868210156120fe575f1960f88860031b161c19848701351681555b505060018560011b0183555b5050505050565b81810381811115611acc57611acc611f4c565b60ff8281168282160390811115611acc57611acc611f4c565b600181815b8085111561217757815f190482111561215d5761215d611f4c565b8085161561216a57918102915b93841c9390800290612142565b509250929050565b5f8261218d57506001611acc565b8161219957505f611acc565b81600181146121af57600281146121b9576121d5565b6001915050611acc565b60ff8411156121ca576121ca611f4c565b50506001821b611acc565b5060208310610133831016604e8410600b84101617156121f8575081810a611acc565b612202838361213d565b805f190482111561221557612215611f4c565b029392505050565b5f611ac960ff84168361217f565b5f8261224557634e487b7160e01b5f52601260045260245ffd5b50049056fea2646970667358221220d956f4bf9d0c25c296606a37b17488bed23a893e63c11ebc93f198c8a89e38a164736f6c63430008150033",
  "immutableReferences": {},
  "source": "// SPDX-License-Identifier: MIT\npragma solidity ^0.8.21;\n\n/**\n * MedicalRecordVaultXRPL (Flare EVM)  no role/permission gating\n * --------------------------------------------------------------\n * - Stores ONLY pointers (hash/CID/URI) to off-chain encrypted docs.\n * - Roles (guardian/pediatricPsychologist/insurer) remain settable & viewable,\n *   but are NOT enforced for uploads/reads.\n *\n * Payment options for each upload (choose one):\n *   A) FLR-deduct: insurer deposits native FLR; contract deducts per upload.\n *   B) XRPL any-currency via FDC attestation: verifier attests USD cents paid.\n *   C) (Optional legacy) XRPL + FTSO XRP pricing: drops attested by FDC vs USD fee.\n *\n * SECURITY:\n * - Never store PII on-chain. Derive patientId off-chain (e.g., keccak256(MRN|salt)).\n * - hashURI must point to encrypted content.\n */\n\ninterface IFDC {\n    function verify(bytes calldata proof, bytes32 statementId) external view returns (bool);\n}\n\ninterface IFTSO {\n    function getXRPUSDPrice() external view returns (uint256 price, uint8 decimals, uint256 timestamp);\n}\n\ncontract MedicalRecordVaultXRPL {\n    /*  Types  */\n    enum DocKind { Diagnosis, Referral, Intake } // 0,1,2\n\n    struct DocMeta {\n        string  hashURI;        // encrypted pointer\n        uint256 version;        // increments per upload\n        uint256 updatedAt;      // unix timestamp\n\n        // Payment trace\n        bytes32 paymentProof;   // XRPL proof id; 0x0 for FLR-deduct\n        uint256 paidDrops;      // For XRP pricing path (legacy)\n        uint256 paidUSDc;       // For XRPL any-currency path; USD cents attested by FDC\n        bytes32 currencyHash;   // Info (any-currency path): keccak256(currencyCode|issuer)\n    }\n\n    struct RecordSet {\n        mapping(uint8 => DocMeta) docs; // one DocMeta per kind\n        address guardian;               // retained metadata (NOT enforced)\n        address pediatricPsychologist;  // retained metadata (NOT enforced)\n    }\n\n    /*  Events  */\n    event GuardianSet(bytes32 indexed patientId, address indexed guardian);\n    event PsychologistSet(bytes32 indexed patientId, address indexed psychologist);\n    event InsurerSet(bytes32 indexed patientId, address indexed insurer);\n\n    event UploadPaidFLR(bytes32 indexed patientId, uint8 indexed kind, address indexed insurer, uint256 version, uint256 amountWei);\n    event UploadPaidXRPLAny(\n        bytes32 indexed patientId,\n        uint8   indexed kind,\n        address indexed insurer,\n        uint256 version,\n        uint256 paidUSDc,\n        bytes32 proofHash,\n        bytes32 currencyHash\n    );\n    event UploadPaidXRPLXRP(\n        bytes32 indexed patientId,\n        uint8   indexed kind,\n        address indexed insurer,\n        uint256 version,\n        uint256 paidDrops,\n        bytes32 proofHash\n    );\n\n    event DocumentUploaded(bytes32 indexed patientId, uint8 indexed kind, string hashURI, uint256 version);\n    event DocumentRead(bytes32 indexed patientId, uint8 indexed kind, address accessor);\n\n    event Deposit(bytes32 indexed patientId, address indexed insurer, uint256 amount);\n    event Withdraw(address indexed to, uint256 amount);\n\n    event FtsoSet(address indexed ftso);\n    event FdcSet(address indexed fdc);\n    event OracleParams(uint256 price, uint8 decimals, uint256 timestamp);\n    event FeesUpdated(uint256 feeWei, uint256 feeUSDc, address collector);\n    event OracleStalenessUpdated(uint256 maxStalenessSeconds);\n\n    /*  Ownership  */\n    address public owner;\n    modifier onlyOwner() { require(msg.sender == owner, \"not owner\"); _; }\n\n    constructor() {\n        owner = msg.sender;\n        feeCollector = msg.sender;\n    }\n\n    function transferOwnership(address newOwner) external onlyOwner {\n        require(newOwner != address(0), \"zero owner\");\n        owner = newOwner;\n    }\n\n    /*  Storage  */\n    mapping(bytes32 => RecordSet) private records;                 // patient state\n    mapping(bytes32 => address)  public insurerOf;                 // patient -> insurer\n\n    // Billing (FLR-deduct)\n    mapping(address => uint256) public insurerBalances; // deposits by insurer\n    uint256 public uploadFeeWei = 0.0001 ether;\n    address public feeCollector;\n\n    // XRPL path: fee in USD cents (converted or attested)\n    uint256 public uploadFeeUSDc = 500; // $5.00 default\n\n    // Latest version paid: patientId => kind => version\n    mapping(bytes32 => mapping(uint8 => uint256)) public paidVersion;\n\n    // Oracles/verifiers\n    IFDC  public fdc;\n    IFTSO public ftso;                       // optional (for XRP-only pricing path)\n    uint256 public maxOracleStaleness = 10 minutes;\n\n    /*  Admin / Setup (metadata only)  */\n    function setGuardian(bytes32 patientId, address guardian_) external onlyOwner {\n        require(guardian_ != address(0), \"guardian zero\");\n        records[patientId].guardian = guardian_;\n        emit GuardianSet(patientId, guardian_);\n    }\n\n    function setPediatricPsychologist(bytes32 patientId, address psychologist) external onlyOwner {\n        require(psychologist != address(0), \"psychologist zero\");\n        records[patientId].pediatricPsychologist = psychologist;\n        emit PsychologistSet(patientId, psychologist);\n    }\n\n    function setInsurer(bytes32 patientId, address insurer) external onlyOwner {\n        require(insurer != address(0), \"insurer zero\");\n        insurerOf[patientId] = insurer;\n        emit InsurerSet(patientId, insurer);\n    }\n\n    function setUploadFees(uint256 feeWei, uint256 feeUSDc_, address collector) external onlyOwner {\n        require(collector != address(0), \"collector zero\");\n        uploadFeeWei = feeWei;\n        uploadFeeUSDc = feeUSDc_;\n        feeCollector = collector;\n        emit FeesUpdated(feeWei, feeUSDc_, collector);\n    }\n\n    function setFDC(address verifier) external onlyOwner {\n        fdc = IFDC(verifier);\n        emit FdcSet(verifier);\n    }\n\n    function setFTSO(address oracle) external onlyOwner {\n        ftso = IFTSO(oracle);\n        emit FtsoSet(oracle);\n    }\n\n    function setMaxOracleStaleness(uint256 seconds_) external onlyOwner {\n        maxOracleStaleness = seconds_;\n        emit OracleStalenessUpdated(seconds_);\n    }\n\n    /*  Funding (FLR-deduct)  */\n    function depositFor(bytes32 patientId) external payable {\n        address insurer = insurerOf[patientId];\n        require(insurer != address(0), \"insurer not set\");\n        require(msg.sender == insurer, \"only insurer\");\n        require(msg.value > 0, \"no value\");\n        insurerBalances[insurer] += msg.value;\n        emit Deposit(patientId, insurer, msg.value);\n    }\n\n    function withdraw(address payable to, uint256 amount) external onlyOwner {\n        require(to != address(0), \"to zero\");\n        require(address(this).balance >= amount, \"insufficient\");\n        to.transfer(amount);\n        emit Withdraw(to, amount);\n    }\n\n    /*  UPLOADS (no role checks)  */\n\n    /// A) FLR-deduct mode: contract deducts fee from insurer deposit.\n    function uploadDocumentDeduct(\n        bytes32 patientId,\n        uint8   kind,        // 0/1/2\n        string calldata hashURI\n    ) external {\n        _writeDoc(patientId, kind, hashURI);\n\n        address insurer = insurerOf[patientId];\n        require(insurer != address(0), \"insurer not set\");\n        require(insurerBalances[insurer] >= uploadFeeWei, \"insurer balance low\");\n\n        unchecked { insurerBalances[insurer] -= uploadFeeWei; }\n        (bool ok,) = payable(feeCollector).call{value: uploadFeeWei}(\"\");\n        require(ok, \"fee transfer failed\");\n\n        DocMeta storage d = records[patientId].docs[kind];\n        paidVersion[patientId][kind] = d.version;\n        d.paymentProof = bytes32(0); // FLR-deduct marker\n        d.paidDrops    = 0;\n        d.paidUSDc     = 0;\n        d.currencyHash = bytes32(0);\n\n        emit UploadPaidFLR(patientId, kind, insurer, d.version, uploadFeeWei);\n    }\n\n    /// B) XRPL any-currency path via FDC attestation of USD value.\n    function uploadDocumentWithXRPLAnyCurrency(\n        bytes32 patientId,\n        uint8   kind,\n        string calldata hashURI,\n        bytes  calldata xrplProof,\n        bytes32 statementId,\n        bytes32 proofId,\n        uint256 attestedUSDc,\n        bytes32 currencyHash\n    ) external {\n        _requireFdc();\n        _verifyFDC(xrplProof, statementId);\n        require(attestedUSDc >= uploadFeeUSDc, \"USD attestation too small\");\n\n        _writeDoc(patientId, kind, hashURI);\n        DocMeta storage d = records[patientId].docs[kind];\n        paidVersion[patientId][kind] = d.version;\n        d.paymentProof = proofId;\n        d.paidDrops    = 0;\n        d.paidUSDc     = attestedUSDc;\n        d.currencyHash = currencyHash;\n\n        emit UploadPaidXRPLAny(patientId, kind, insurerOf[patientId], d.version, attestedUSDc, proofId, currencyHash);\n    }\n\n    /// C) (Legacy/optional) XRPL + FDC + FTSO (XRP-only priced in USD via oracle).\n    function uploadDocumentWithXRPProof(\n        bytes32 patientId,\n        uint8   kind,\n        string calldata hashURI,\n        bytes  calldata xrplProof,\n        bytes32 statementId,\n        bytes32 proofId,\n        uint256 xrplPaidDrops\n    ) external {\n        _requireFdcAndFtso();\n        _verifyFDC(xrplProof, statementId);\n        uint256 requiredDrops = _requiredDrops();\n        require(xrplPaidDrops >= requiredDrops, \"XRP payment too small\");\n\n        _writeDoc(patientId, kind, hashURI);\n        DocMeta storage d = records[patientId].docs[kind];\n        paidVersion[patientId][kind] = d.version;\n        d.paymentProof = proofId;\n        d.paidDrops    = xrplPaidDrops;\n        d.paidUSDc     = 0;\n        d.currencyHash = bytes32(0);\n\n        emit UploadPaidXRPLXRP(patientId, kind, insurerOf[patientId], d.version, xrplPaidDrops, proofId);\n    }\n\n    /*  Internal helpers  */\n\n    function _requireFdc() internal view {\n        require(address(fdc) != address(0), \"FDC not set\");\n    }\n\n    function _requireFdcAndFtso() internal view {\n        require(address(fdc) != address(0), \"FDC not set\");\n        require(address(ftso) != address(0), \"FTSO not set\");\n    }\n\n    function _verifyFDC(bytes calldata xrplProof, bytes32 statementId) internal view {\n        require(fdc.verify(xrplProof, statementId), \"invalid XRPL payment proof\");\n    }\n\n    /// Pull oracle, check staleness, emit params, and return required drops for current uploadFeeUSDc\n    function _requiredDrops() internal view returns (uint256) {\n        (uint256 px, uint8 dec, uint256 ts) = ftso.getXRPUSDPrice();\n        require(px > 0, \"oracle price=0\");\n        require(block.timestamp >= ts && block.timestamp - ts <= maxOracleStaleness, \"price stale\");\n        return _requiredXrpDropsFromUSDc(uploadFeeUSDc, px, dec);\n    }\n\n    /// Internal write: increments version and stores URI/timestamp. (No role checks)\n    function _writeDoc(bytes32 patientId, uint8 kind, string calldata hashURI) internal {\n        require(kind <= uint8(DocKind.Intake), \"bad kind\");\n        DocMeta storage d = records[patientId].docs[kind];\n        d.hashURI  = hashURI;\n        d.version += 1;\n        d.updatedAt = block.timestamp;\n        emit DocumentUploaded(patientId, kind, hashURI, d.version);\n    }\n\n    /*  READ (free; requires paid)  */\n\n    /// Anyone may read if the latest version has been paid for.\n    function getDocument(bytes32 patientId, uint8 kind)\n        external\n        returns (string memory, uint256, uint256, bytes32)\n    {\n        require(kind <= uint8(DocKind.Intake), \"bad kind\");\n        DocMeta storage d = records[patientId].docs[kind];\n        require(paidVersion[patientId][kind] >= d.version && d.version > 0, \"unpaid or empty\");\n        emit DocumentRead(patientId, kind, msg.sender);\n        return (d.hashURI, d.version, d.updatedAt, d.paymentProof);\n    }\n\n    /*  Views & helpers  */\n\n    function getDocMeta(bytes32 patientId, uint8 kind)\n        external\n        view\n        returns (string memory hashURI, uint256 version, uint256 updatedAt, bytes32 paymentProof, uint256 paidUSDc, uint256 paidDrops, bytes32 currencyHash)\n    {\n        DocMeta storage d = records[patientId].docs[kind];\n        return (d.hashURI, d.version, d.updatedAt, d.paymentProof, d.paidUSDc, d.paidDrops, d.currencyHash);\n    }\n\n    function getRoles(bytes32 patientId)\n        external\n        view\n        returns (address guardian, address pediatricPsychologist, address insurer)\n    {\n        return (records[patientId].guardian, records[patientId].pediatricPsychologist, insurerOf[patientId]);\n    }\n\n    /// Human-readable document kind names\n    function docKindName(uint8 kind) public pure returns (string memory) {\n        if (kind == uint8(DocKind.Diagnosis)) return \"Diagnosis Letter\";\n        if (kind == uint8(DocKind.Referral))  return \"Referral\";\n        if (kind == uint8(DocKind.Intake))    return \"Intake\";\n        revert(\"bad kind\");\n    }\n\n    /// View: required XRP (in drops) for the current USD-cents fee (oracle path)\n    function requiredXrpDrops()\n        external\n        view\n        returns (uint256 drops, uint256 price, uint8 decimals, uint256 timestamp)\n    {\n        require(address(ftso) != address(0), \"FTSO not set\");\n        (uint256 px, uint8 dec, uint256 ts) = ftso.getXRPUSDPrice();\n        require(px > 0, \"oracle price=0\");\n        return (_requiredXrpDropsFromUSDc(uploadFeeUSDc, px, dec), px, dec, ts);\n    }\n\n    /*  Math  */\n\n    function _requiredXrpDropsFromUSDc(uint256 feeUSDc, uint256 price, uint8 priceDecimals) internal pure returns (uint256) {\n        // Convert USD cents to 18-decimal USD (WAD): USDc * 1e16\n        uint256 usdWad = feeUSDc * 1e16;                 // $1.00 => 1e18\n        uint256 priceWad = _scaleDecimals(price, priceDecimals, 18); // USD per XRP (18d)\n        // required XRP (WAD) = ceil(usdWad / priceWad) with 18-dec precision\n        uint256 xrpWad = _ceilDiv(usdWad * 1e18, priceWad);\n        // 1 XRP = 1e6 drops => drops = ceil(xrpWad / 1e12)\n        return _ceilDiv(xrpWad, 1e12);\n    }\n\n    function _scaleDecimals(uint256 x, uint8 fromDec, uint8 toDec) internal pure returns (uint256) {\n        if (fromDec == toDec) return x;\n        return (fromDec < toDec)\n            ? x * (10 ** (toDec - fromDec))\n            : x / (10 ** (fromDec - toDec));\n    }\n\n    function _ceilDiv(uint256 a, uint256 b) internal pure returns (uint256) {\n        return a == 0 ? 0 : 1 + ((a - 1) / b);\n    }\n\n    receive() external payable {}\n}\n",
  "sourcePath": "/workspaces/Flare-x-XRPL-Hackathon/contracts/MedicalRecordVault.sol",
  "compiler": {
    "name": "solc",
    "version": "0.8.21+commit.d9974bed.Emscripten.clang"
  },
  "schemaVersion": "3.4.16",
  "updatedAt": "2025-09-21T02:35:47.451Z",
  "devdoc": {
    "kind": "dev",
    "methods": {},
    "version": 1
  },
  "userdoc": {
    "kind": "user",
    "methods": {
      "docKindName(uint8)": {
        "notice": "Human-readable document kind names"
      },
      "getDocument(bytes32,uint8)": {
        "notice": "Anyone may read if the latest version has been paid for."
      },
      "requiredXrpDrops()": {
        "notice": "View: required XRP (in drops) for the current USD-cents fee (oracle path)"
      },
      "uploadDocumentDeduct(bytes32,uint8,string)": {
        "notice": "A) FLR-deduct mode: contract deducts fee from insurer deposit."
      },
      "uploadDocumentWithXRPLAnyCurrency(bytes32,uint8,string,bytes,bytes32,bytes32,uint256,bytes32)": {
        "notice": "B) XRPL any-currency path via FDC attestation of USD value."
      },
      "uploadDocumentWithXRPProof(bytes32,uint8,string,bytes,bytes32,bytes32,uint256)": {
        "notice": "C) (Legacy/optional) XRPL + FDC + FTSO (XRP-only priced in USD via oracle)."
      }
    },
    "version": 1
  }
}