{
  "contractName": "MockFDC",
  "abi": [
    {
      "inputs": [],
      "name": "alwaysTrue",
      "outputs": [
        {
          "internalType": "bool",
          "name": "",
          "type": "bool"
        }
      ],
      "stateMutability": "view",
      "type": "function"
    },
    {
      "inputs": [
        {
          "internalType": "bool",
          "name": "v",
          "type": "bool"
        }
      ],
      "name": "setAlwaysTrue",
      "outputs": [],
      "stateMutability": "nonpayable",
      "type": "function"
    },
    {
      "inputs": [
        {
          "internalType": "bytes",
          "name": "",
          "type": "bytes"
        },
        {
          "internalType": "bytes32",
          "name": "",
          "type": "bytes32"
        }
      ],
      "name": "verify",
      "outputs": [
        {
          "internalType": "bool",
          "name": "",
          "type": "bool"
        }
      ],
      "stateMutability": "view",
      "type": "function"
    }
  ],
  "bytecode": "0x60806040525f805460ff1916600117905534801561001b575f80fd5b5061016c806100295f395ff3fe608060405234801561000f575f80fd5b506004361061003f575f3560e01c8063223f5d6d146100435780636b40634114610065578063ee2d8f9414610093575b5f80fd5b61006361005136600461009f565b5f805460ff1916911515919091179055565b005b61007f6100733660046100c5565b5f5460ff169392505050565b604051901515815260200160405180910390f35b5f5461007f9060ff1681565b5f602082840312156100af575f80fd5b813580151581146100be575f80fd5b9392505050565b5f805f604084860312156100d7575f80fd5b833567ffffffffffffffff808211156100ee575f80fd5b818601915086601f830112610101575f80fd5b81358181111561010f575f80fd5b876020828501011115610120575f80fd5b602092830198909750959091013594935050505056fea2646970667358221220317a3b3498e96fdfd978d80118ad48fd99b17b439d7c5469526ec97b0645742d64736f6c63430008150033",
  "immutableReferences": {},
  "source": "// SPDX-License-Identifier: MIT\npragma solidity ^0.8.21;\n\ninterface IFDC {\n    function verify(bytes calldata proof, bytes32 statementId) external view returns (bool);\n}\n\ncontract MockFDC is IFDC {\n    bool public alwaysTrue = true;\n\n    function setAlwaysTrue(bool v) external { alwaysTrue = v; }\n\n    function verify(bytes calldata, bytes32) external view returns (bool) {\n        return alwaysTrue; // accept everything for testing\n    }\n}\n",
  "sourcePath": "/usr/Flare-x-XRPL-Hackathon/contracts/MockFDC.sol",
  "compiler": {
    "name": "solc",
    "version": "0.8.21+commit.d9974bed.Emscripten.clang"
  },
  "schemaVersion": "3.4.16",
  "updatedAt": "2025-09-21T07:10:09.085Z",
  "devdoc": {
    "kind": "dev",
    "methods": {},
    "version": 1
  },
  "userdoc": {
    "kind": "user",
    "methods": {},
    "version": 1
  }
}