{
  "contractName": "MockFTSO",
  "abi": [
    {
      "inputs": [],
      "stateMutability": "nonpayable",
      "type": "constructor"
    },
    {
      "anonymous": false,
      "inputs": [
        {
          "indexed": false,
          "internalType": "uint256",
          "name": "price",
          "type": "uint256"
        },
        {
          "indexed": false,
          "internalType": "uint8",
          "name": "decimals",
          "type": "uint8"
        },
        {
          "indexed": false,
          "internalType": "uint256",
          "name": "timestamp",
          "type": "uint256"
        }
      ],
      "name": "PriceUpdated",
      "type": "event"
    },
    {
      "inputs": [],
      "name": "getXRPUSDPrice",
      "outputs": [
        {
          "internalType": "uint256",
          "name": "price",
          "type": "uint256"
        },
        {
          "internalType": "uint8",
          "name": "decimals",
          "type": "uint8"
        },
        {
          "internalType": "uint256",
          "name": "timestamp",
          "type": "uint256"
        }
      ],
      "stateMutability": "view",
      "type": "function"
    },
    {
      "inputs": [
        {
          "internalType": "uint256",
          "name": "price_",
          "type": "uint256"
        },
        {
          "internalType": "uint8",
          "name": "decimals_",
          "type": "uint8"
        }
      ],
      "name": "setPrice",
      "outputs": [],
      "stateMutability": "nonpayable",
      "type": "function"
    },
    {
      "inputs": [
        {
          "internalType": "uint256",
          "name": "price_",
          "type": "uint256"
        },
        {
          "internalType": "uint8",
          "name": "decimals_",
          "type": "uint8"
        },
        {
          "internalType": "uint256",
          "name": "timestamp_",
          "type": "uint256"
        }
      ],
      "name": "setPriceAndTimestamp",
      "outputs": [],
      "stateMutability": "nonpayable",
      "type": "function"
    },
    {
      "inputs": [
        {
          "internalType": "uint256",
          "name": "secondsForward",
          "type": "uint256"
        }
      ],
      "name": "bumpTime",
      "outputs": [],
      "stateMutability": "nonpayable",
      "type": "function"
    }
  ],
  "bytecode": "0x608060405234801561000f575f80fd5b50670de0b6b3a76400005f8190556001805460ff19166012908117909155426002819055604080519384526020840192909252908201527f97ae5aed92d98534e6d59dda1f0dca488d8a9df0fb4a1c502b0129a8b17c74829060600160405180910390a16102b5806100805f395ff3fe608060405234801561000f575f80fd5b506004361061004a575f3560e01c806396383c041461004e578063b7304eaf14610063578063d4fdd87214610076578063d7b08c651461009e575b5f80fd5b61006161005c3660046101e7565b6100b1565b005b610061610071366004610211565b610110565b5f546001546002546040805193845260ff909216602084015282820152519081900360600190f35b6100616100ac366004610243565b610171565b5f8290556001805460ff191660ff83169081179091554260028190556040805185815260208101939093528201527f97ae5aed92d98534e6d59dda1f0dca488d8a9df0fb4a1c502b0129a8b17c74829060600160405180910390a15050565b5f8390556001805460ff191660ff8416908117909155600282905560408051858152602081019290925281018290527f97ae5aed92d98534e6d59dda1f0dca488d8a9df0fb4a1c502b0129a8b17c74829060600160405180910390a1505050565b8060025f828254610182919061025a565b90915550505f546001546002546040805193845260ff909216602084015282820152517f97ae5aed92d98534e6d59dda1f0dca488d8a9df0fb4a1c502b0129a8b17c74829181900360600190a150565b803560ff811681146101e2575f80fd5b919050565b5f80604083850312156101f8575f80fd5b82359150610208602084016101d2565b90509250929050565b5f805f60608486031215610223575f80fd5b83359250610233602085016101d2565b9150604084013590509250925092565b5f60208284031215610253575f80fd5b5035919050565b8082018082111561027957634e487b7160e01b5f52601160045260245ffd5b9291505056fea2646970667358221220419b25ab653ce050d10155a72d12597a1ef6e253b7c94cf76734cdf9d7df4fae64736f6c63430008150033",
  "immutableReferences": {},
  "source": "// SPDX-License-Identifier: MIT\npragma solidity ^0.8.21;\n\n/// Match your vault's interface\ninterface IFTSO {\n    /// Returns (XRP price in USD with `decimals`, decimals, timestamp)\n    function getXRPUSDPrice() external view returns (\n        uint256 price,\n        uint8   decimals,\n        uint256 timestamp\n    );\n}\n\n/// Simple configurable mock for UI / integration testing\ncontract MockFTSO is IFTSO {\n    uint256 private _price;     // e.g. 1e18 => $1.00 when decimals = 18\n    uint8   private _decimals;  // decimals of `_price`\n    uint256 private _timestamp; // last update time\n\n    event PriceUpdated(uint256 price, uint8 decimals, uint256 timestamp);\n\n    constructor() {\n        // sensible defaults: $1.00 with 18 decimals, \"now\" timestamp\n        _price     = 1e18;\n        _decimals  = 18;\n        _timestamp = block.timestamp;\n        emit PriceUpdated(_price, _decimals, _timestamp);\n    }\n\n    function getXRPUSDPrice() external view override returns (\n        uint256 price,\n        uint8   decimals,\n        uint256 timestamp\n    ) {\n        return (_price, _decimals, _timestamp);\n    }\n\n    /// Set price and decimals; timestamp = now\n    function setPrice(uint256 price_, uint8 decimals_) external {\n        _price = price_;\n        _decimals = decimals_;\n        _timestamp = block.timestamp;\n        emit PriceUpdated(_price, _decimals, _timestamp);\n    }\n\n    /// Set price, decimals, and explicit timestamp (useful to test staleness)\n    function setPriceAndTimestamp(uint256 price_, uint8 decimals_, uint256 timestamp_) external {\n        _price = price_;\n        _decimals = decimals_;\n        _timestamp = timestamp_;\n        emit PriceUpdated(_price, _decimals, _timestamp);\n    }\n\n    /// Convenience: bump timestamp forward (seconds)\n    function bumpTime(uint256 secondsForward) external {\n        _timestamp += secondsForward;\n        emit PriceUpdated(_price, _decimals, _timestamp);\n    }\n}\n",
  "sourcePath": "/usr/Flare-x-XRPL-Hackathon/contracts/MockFTSO.sol",
  "compiler": {
    "name": "solc",
    "version": "0.8.21+commit.d9974bed.Emscripten.clang"
  },
  "schemaVersion": "3.4.16",
  "updatedAt": "2025-09-21T07:10:09.087Z",
  "devdoc": {
    "kind": "dev",
    "methods": {},
    "version": 1
  },
  "userdoc": {
    "kind": "user",
    "methods": {
      "bumpTime(uint256)": {
        "notice": "Convenience: bump timestamp forward (seconds)"
      },
      "getXRPUSDPrice()": {
        "notice": "Returns (XRP price in USD with `decimals`, decimals, timestamp)"
      },
      "setPrice(uint256,uint8)": {
        "notice": "Set price and decimals; timestamp = now"
      },
      "setPriceAndTimestamp(uint256,uint8,uint256)": {
        "notice": "Set price, decimals, and explicit timestamp (useful to test staleness)"
      }
    },
    "notice": "Simple configurable mock for UI / integration testing",
    "version": 1
  }
}