{
  "contractName": "MockFDC",
  "abi": [
    {
      "inputs": [
        {
          "internalType": "bytes",
          "name": "proof",
          "type": "bytes"
        },
        {
          "internalType": "bytes32",
          "name": "statementId",
          "type": "bytes32"
        }
      ],
      "name": "verify",
      "outputs": [
        {
          "internalType": "bool",
          "name": "",
          "type": "bool"
        }
      ],
      "stateMutability": "pure",
      "type": "function"
    }
  ],
  "bytecode": "0x608060405234801561000f575f80fd5b5060f48061001c5f395ff3fe6080604052348015600e575f80fd5b50600436106026575f3560e01c80636b40634114602a575b5f80fd5b603e60353660046052565b60019392505050565b604051901515815260200160405180910390f35b5f805f604084860312156063575f80fd5b833567ffffffffffffffff808211156079575f80fd5b818601915086601f830112608b575f80fd5b8135818111156098575f80fd5b87602082850101111560a8575f80fd5b602092830198909750959091013594935050505056fea2646970667358221220efe8ec52ac75f3a5dc3cf2223c473eb70565417a98753f24d6368d90bcd7d1f064736f6c63430008150033",
  "immutableReferences": {},
  "source": "// SPDX-License-Identifier: MIT\npragma solidity ^0.8.21;\n\n/**\n * MockFDC - Always returns true for testing\n * For production, use real FDC contract from Flare\n */\ncontract MockFDC {\n    function verify(bytes calldata proof, bytes32 statementId) external pure returns (bool) {\n        // Always return true for testing - any proof passes\n        return true;\n    }\n}",
  "sourcePath": "E:\\EasyAHackathon\\contracts\\MockFDC.sol",
  "compiler": {
    "name": "solc",
    "version": "0.8.21+commit.d9974bed.Emscripten.clang"
  },
  "schemaVersion": "3.4.16",
  "updatedAt": "2025-09-21T12:57:44.982Z",
  "devdoc": {
    "kind": "dev",
    "methods": {},
    "version": 1
  },
  "userdoc": {
    "kind": "user",
    "methods": {},
    "notice": "MockFDC - Always returns true for testing For production, use real FDC contract from Flare",
    "version": 1
  }
}