{
  "contractName": "MockFTSO",
  "abi": [
    {
      "inputs": [],
      "stateMutability": "nonpayable",
      "type": "constructor"
    },
    {
      "inputs": [],
      "name": "decimals",
      "outputs": [
        {
          "internalType": "uint8",
          "name": "",
          "type": "uint8"
        }
      ],
      "stateMutability": "view",
      "type": "function"
    },
    {
      "inputs": [],
      "name": "lastUpdated",
      "outputs": [
        {
          "internalType": "uint256",
          "name": "",
          "type": "uint256"
        }
      ],
      "stateMutability": "view",
      "type": "function"
    },
    {
      "inputs": [],
      "name": "price",
      "outputs": [
        {
          "internalType": "uint256",
          "name": "",
          "type": "uint256"
        }
      ],
      "stateMutability": "view",
      "type": "function"
    },
    {
      "inputs": [],
      "name": "getXRPUSDPrice",
      "outputs": [
        {
          "internalType": "uint256",
          "name": "",
          "type": "uint256"
        },
        {
          "internalType": "uint8",
          "name": "",
          "type": "uint8"
        },
        {
          "internalType": "uint256",
          "name": "",
          "type": "uint256"
        }
      ],
      "stateMutability": "view",
      "type": "function"
    },
    {
      "inputs": [
        {
          "internalType": "uint256",
          "name": "_price",
          "type": "uint256"
        },
        {
          "internalType": "uint8",
          "name": "_decimals",
          "type": "uint8"
        }
      ],
      "name": "setPrice",
      "outputs": [],
      "stateMutability": "nonpayable",
      "type": "function"
    },
    {
      "inputs": [
        {
          "internalType": "uint256",
          "name": "_timestamp",
          "type": "uint256"
        }
      ],
      "name": "setTimestamp",
      "outputs": [],
      "stateMutability": "nonpayable",
      "type": "function"
    }
  ],
  "bytecode": "0x6080604052670de0b6b3a76400005f556001805460ff19166012179055348015610027575f80fd5b504260025561018d806100395f395ff3fe608060405234801561000f575f80fd5b5060043610610060575f3560e01c8063313ce5671461006457806396383c0414610088578063a035b1fe146100b6578063a0a2b573146100cc578063d0b06f5d146100df578063d4fdd872146100e8575b5f80fd5b6001546100719060ff1681565b60405160ff90911681526020015b60405180910390f35b6100b461009636600461010d565b5f919091556001805460ff191660ff90921691909117905542600255565b005b6100be5f5481565b60405190815260200161007f565b6100b46100da366004610140565b600255565b6100be60025481565b5f546001546002546040805193845260ff90921660208401529082015260600161007f565b5f806040838503121561011e575f80fd5b82359150602083013560ff81168114610135575f80fd5b809150509250929050565b5f60208284031215610150575f80fd5b503591905056fea26469706673582212200f6322c1acac8ee560aa308dd9339a622f1a1b3634e0f9aceaf4b3f679e7bcb464736f6c63430008150033",
  "immutableReferences": {},
  "source": "// SPDX-License-Identifier: MIT\npragma solidity ^0.8.21;\n\n/**\n * MockFTSO - Configurable XRP/USD price oracle for testing\n * For production, use real FTSO contract from Flare\n */\ncontract MockFTSO {\n    uint256 public price = 1000000000000000000; // $1.00 with 18 decimals (default)\n    uint8 public decimals = 18;\n    uint256 public lastUpdated;\n\n    constructor() {\n        lastUpdated = block.timestamp;\n    }\n\n    function getXRPUSDPrice() external view returns (uint256, uint8, uint256) {\n        return (price, decimals, lastUpdated);\n    }\n\n    // Admin functions for testing\n    function setPrice(uint256 _price, uint8 _decimals) external {\n        price = _price;\n        decimals = _decimals;\n        lastUpdated = block.timestamp;\n    }\n\n    function setTimestamp(uint256 _timestamp) external {\n        lastUpdated = _timestamp;\n    }\n}",
  "sourcePath": "E:\\EasyAHackathon\\contracts\\MockFTSO.sol",
  "compiler": {
    "name": "solc",
    "version": "0.8.21+commit.d9974bed.Emscripten.clang"
  },
  "schemaVersion": "3.4.16",
  "updatedAt": "2025-09-21T12:57:44.983Z",
  "devdoc": {
    "kind": "dev",
    "methods": {},
    "version": 1
  },
  "userdoc": {
    "kind": "user",
    "methods": {},
    "notice": "MockFTSO - Configurable XRP/USD price oracle for testing For production, use real FTSO contract from Flare",
    "version": 1
  }
}