{
  "contractName": "SimpleMedicalVault",
  "abi": [
    {
      "inputs": [],
      "stateMutability": "nonpayable",
      "type": "constructor"
    },
    {
      "anonymous": false,
      "inputs": [
        {
          "indexed": true,
          "internalType": "bytes32",
          "name": "patientId",
          "type": "bytes32"
        },
        {
          "indexed": true,
          "internalType": "uint8",
          "name": "kind",
          "type": "uint8"
        },
        {
          "indexed": false,
          "internalType": "address",
          "name": "accessor",
          "type": "address"
        }
      ],
      "name": "DocumentRead",
      "type": "event"
    },
    {
      "anonymous": false,
      "inputs": [
        {
          "indexed": true,
          "internalType": "bytes32",
          "name": "patientId",
          "type": "bytes32"
        },
        {
          "indexed": true,
          "internalType": "uint8",
          "name": "kind",
          "type": "uint8"
        },
        {
          "indexed": false,
          "internalType": "string",
          "name": "hashURI",
          "type": "string"
        },
        {
          "indexed": false,
          "internalType": "uint256",
          "name": "version",
          "type": "uint256"
        },
        {
          "indexed": false,
          "internalType": "address",
          "name": "uploader",
          "type": "address"
        }
      ],
      "name": "DocumentUploaded",
      "type": "event"
    },
    {
      "anonymous": false,
      "inputs": [
        {
          "indexed": true,
          "internalType": "bytes32",
          "name": "patientId",
          "type": "bytes32"
        },
        {
          "indexed": true,
          "internalType": "address",
          "name": "guardian",
          "type": "address"
        }
      ],
      "name": "GuardianSet",
      "type": "event"
    },
    {
      "anonymous": false,
      "inputs": [
        {
          "indexed": true,
          "internalType": "bytes32",
          "name": "patientId",
          "type": "bytes32"
        },
        {
          "indexed": true,
          "internalType": "address",
          "name": "insurer",
          "type": "address"
        }
      ],
      "name": "InsurerSet",
      "type": "event"
    },
    {
      "anonymous": false,
      "inputs": [
        {
          "indexed": true,
          "internalType": "bytes32",
          "name": "patientId",
          "type": "bytes32"
        },
        {
          "indexed": true,
          "internalType": "address",
          "name": "psychologist",
          "type": "address"
        }
      ],
      "name": "PsychologistSet",
      "type": "event"
    },
    {
      "inputs": [],
      "name": "owner",
      "outputs": [
        {
          "internalType": "address",
          "name": "",
          "type": "address"
        }
      ],
      "stateMutability": "view",
      "type": "function"
    },
    {
      "inputs": [
        {
          "internalType": "address",
          "name": "newOwner",
          "type": "address"
        }
      ],
      "name": "transferOwnership",
      "outputs": [],
      "stateMutability": "nonpayable",
      "type": "function"
    },
    {
      "inputs": [
        {
          "internalType": "bytes32",
          "name": "patientId",
          "type": "bytes32"
        },
        {
          "internalType": "uint8",
          "name": "kind",
          "type": "uint8"
        },
        {
          "internalType": "string",
          "name": "hashURI",
          "type": "string"
        }
      ],
      "name": "uploadDocument",
      "outputs": [],
      "stateMutability": "nonpayable",
      "type": "function"
    },
    {
      "inputs": [
        {
          "internalType": "bytes32",
          "name": "patientId",
          "type": "bytes32"
        },
        {
          "internalType": "uint8",
          "name": "kind",
          "type": "uint8"
        },
        {
          "internalType": "string",
          "name": "hashURI",
          "type": "string"
        }
      ],
      "name": "uploadDocumentDeduct",
      "outputs": [],
      "stateMutability": "nonpayable",
      "type": "function"
    },
    {
      "inputs": [
        {
          "internalType": "bytes32",
          "name": "patientId",
          "type": "bytes32"
        },
        {
          "internalType": "uint8",
          "name": "kind",
          "type": "uint8"
        }
      ],
      "name": "getDocument",
      "outputs": [
        {
          "internalType": "string",
          "name": "",
          "type": "string"
        },
        {
          "internalType": "uint256",
          "name": "",
          "type": "uint256"
        },
        {
          "internalType": "uint256",
          "name": "",
          "type": "uint256"
        },
        {
          "internalType": "address",
          "name": "",
          "type": "address"
        }
      ],
      "stateMutability": "nonpayable",
      "type": "function"
    },
    {
      "inputs": [
        {
          "internalType": "bytes32",
          "name": "patientId",
          "type": "bytes32"
        },
        {
          "internalType": "uint8",
          "name": "kind",
          "type": "uint8"
        }
      ],
      "name": "getDocMeta",
      "outputs": [
        {
          "internalType": "string",
          "name": "hashURI",
          "type": "string"
        },
        {
          "internalType": "uint256",
          "name": "version",
          "type": "uint256"
        },
        {
          "internalType": "uint256",
          "name": "updatedAt",
          "type": "uint256"
        },
        {
          "internalType": "address",
          "name": "uploader",
          "type": "address"
        }
      ],
      "stateMutability": "view",
      "type": "function"
    },
    {
      "inputs": [
        {
          "internalType": "bytes32",
          "name": "patientId",
          "type": "bytes32"
        },
        {
          "internalType": "address",
          "name": "guardian_",
          "type": "address"
        }
      ],
      "name": "setGuardian",
      "outputs": [],
      "stateMutability": "nonpayable",
      "type": "function"
    },
    {
      "inputs": [
        {
          "internalType": "bytes32",
          "name": "patientId",
          "type": "bytes32"
        },
        {
          "internalType": "address",
          "name": "psychologist",
          "type": "address"
        }
      ],
      "name": "setPediatricPsychologist",
      "outputs": [],
      "stateMutability": "nonpayable",
      "type": "function"
    },
    {
      "inputs": [
        {
          "internalType": "bytes32",
          "name": "patientId",
          "type": "bytes32"
        },
        {
          "internalType": "address",
          "name": "insurer",
          "type": "address"
        }
      ],
      "name": "setInsurer",
      "outputs": [],
      "stateMutability": "nonpayable",
      "type": "function"
    },
    {
      "inputs": [
        {
          "internalType": "bytes32",
          "name": "patientId",
          "type": "bytes32"
        }
      ],
      "name": "getRoles",
      "outputs": [
        {
          "internalType": "address",
          "name": "guardian",
          "type": "address"
        },
        {
          "internalType": "address",
          "name": "pediatricPsychologist",
          "type": "address"
        },
        {
          "internalType": "address",
          "name": "insurer",
          "type": "address"
        }
      ],
      "stateMutability": "view",
      "type": "function"
    },
    {
      "inputs": [
        {
          "internalType": "uint8",
          "name": "kind",
          "type": "uint8"
        }
      ],
      "name": "docKindName",
      "outputs": [
        {
          "internalType": "string",
          "name": "",
          "type": "string"
        }
      ],
      "stateMutability": "pure",
      "type": "function"
    },
    {
      "inputs": [
        {
          "internalType": "bytes32",
          "name": "patientId",
          "type": "bytes32"
        },
        {
          "internalType": "uint8",
          "name": "kind",
          "type": "uint8"
        }
      ],
      "name": "getDocumentVersion",
      "outputs": [
        {
          "internalType": "uint256",
          "name": "",
          "type": "uint256"
        }
      ],
      "stateMutability": "view",
      "type": "function"
    },
    {
      "inputs": [
        {
          "internalType": "bytes32",
          "name": "patientId",
          "type": "bytes32"
        },
        {
          "internalType": "uint8",
          "name": "kind",
          "type": "uint8"
        }
      ],
      "name": "documentExists",
      "outputs": [
        {
          "internalType": "bool",
          "name": "",
          "type": "bool"
        }
      ],
      "stateMutability": "view",
      "type": "function"
    }
  ],
  "bytecode": "0x608060405234801561000f575f80fd5b505f80546001600160a01b03191633179055610c9e8061002e5f395ff3fe608060405234801561000f575f80fd5b50600436106100cb575f3560e01c806378140468116100885780638da5cb5b116100635780638da5cb5b14610215578063b5574f2414610202578063d3674b181461023f578063f2fde38b14610252575f80fd5b806378140468146101ce5780638a2bab47146101e15780638ae5bb3714610202575f80fd5b8063116aa52f146100cf57806316a1d8b414610140578063434760f7146101555780634ad938c4146101755780634b7249e21461018857806362c75cec146101ab575b5f80fd5b6101116100dd366004610887565b5f9081526001602081905260409091209081015460028201546003909201546001600160a01b039182169392821692911690565b604080516001600160a01b03948516815292841660208401529216918101919091526060015b60405180910390f35b61015361014e3660046108b9565b610265565b005b6101686101633660046108f3565b6102f2565b6040516101379190610956565b6101536101833660046108b9565b61039d565b61019b610196366004610968565b610421565b6040519015158152602001610137565b6101be6101b9366004610968565b61046e565b6040516101379493929190610989565b6101be6101dc366004610968565b61056c565b6101f46101ef366004610968565b61065a565b604051908152602001610137565b6101536102103660046109c0565b6106a2565b5f54610227906001600160a01b031681565b6040516001600160a01b039091168152602001610137565b61015361024d3660046108b9565b610774565b610153610260366004610a40565b6107fa565b5f546001600160a01b031633146102975760405162461bcd60e51b815260040161028e90610a59565b60405180910390fd5b5f8281526001602052604080822060020180546001600160a01b0319166001600160a01b0385169081179091559051909184917f9bf5c7e7f912df9e1794b3fd8e5091ba871a1e082b3d965ad689b6c6982a56829190a35050565b606060ff821661032857505060408051808201909152601081526f2234b0b3b737b9b4b9902632ba3a32b960811b602082015290565b5f1960ff831601610357575050604080518082019091526008815267149959995c9c985b60c21b602082015290565b60011960ff831601610385575050604080518082019091526006815265496e74616b6560d01b602082015290565b60405162461bcd60e51b815260040161028e90610a7c565b5f546001600160a01b031633146103c65760405162461bcd60e51b815260040161028e90610a59565b5f8281526001602052604080822060030180546001600160a01b0319166001600160a01b0385169081179091559051909184917f58759f6892baf88a17d4d0c1f5b3f08758cd8da2f0f826688c424288f3b5cad39190a35050565b5f600260ff831611156104465760405162461bcd60e51b815260040161028e90610a7c565b505f82815260016020818152604080842060ff86168552909152909120015415155b92915050565b60605f8080600260ff861611156104975760405162461bcd60e51b815260040161028e90610a7c565b5f86815260016020818152604080842060ff8a16855290915290912090810154600282015460038301548354849392916001600160a01b03169084906104dc90610aab565b80601f016020809104026020016040519081016040528092919081815260200182805461050890610aab565b80156105535780601f1061052a57610100808354040283529160200191610553565b820191905f5260205f20905b81548152906001019060200180831161053657829003601f168201915b5050505050935094509450945094505092959194509250565b60605f8080600260ff861611156105955760405162461bcd60e51b815260040161028e90610a7c565b5f86815260016020818152604080842060ff8a168552909152909120908101546105f65760405162461bcd60e51b8152602060048201526012602482015271191bd8dd5b595b9d081b9bdd08199bdd5b9960721b604482015260640161028e565b60405133815260ff87169088907f074f075979d9759e37d7ae44786a6bc14281a51cd89a11a7efe7d94b8d98cb929060200160405180910390a36001810154600282015460038301548354849392916001600160a01b03169084906104dc90610aab565b5f600260ff8316111561067f5760405162461bcd60e51b815260040161028e90610a7c565b505f91825260016020818152604080852060ff9490941685529290529120015490565b600260ff841611156106c65760405162461bcd60e51b815260040161028e90610a7c565b5f84815260016020908152604080832060ff871684529091529020806106ed838583610b45565b506001816001015f8282546107029190610c01565b90915550504260028201556003810180546001600160a01b03191633908117909155600182015460405160ff87169288927ff58383c03a7f6f08547c930a3339ba81051f0c8d61103999ccdb887c598173fe926107659289928992909190610c20565b60405180910390a35050505050565b5f546001600160a01b0316331461079d5760405162461bcd60e51b815260040161028e90610a59565b5f82815260016020819052604080832090910180546001600160a01b0319166001600160a01b0385169081179091559051909184917f8a6e856b2fab550a4c0c3f7a8b9efd3e0326dbb5b5d44a42fba4cb735c181b319190a35050565b5f546001600160a01b031633146108235760405162461bcd60e51b815260040161028e90610a59565b6001600160a01b0381166108665760405162461bcd60e51b815260206004820152600a6024820152693d32b9379037bbb732b960b11b604482015260640161028e565b5f80546001600160a01b0319166001600160a01b0392909216919091179055565b5f60208284031215610897575f80fd5b5035919050565b80356001600160a01b03811681146108b4575f80fd5b919050565b5f80604083850312156108ca575f80fd5b823591506108da6020840161089e565b90509250929050565b803560ff811681146108b4575f80fd5b5f60208284031215610903575f80fd5b61090c826108e3565b9392505050565b5f81518084525f5b818110156109375760208185018101518683018201520161091b565b505f602082860101526020601f19601f83011685010191505092915050565b602081525f61090c6020830184610913565b5f8060408385031215610979575f80fd5b823591506108da602084016108e3565b608081525f61099b6080830187610913565b60208301959095525060408101929092526001600160a01b0316606090910152919050565b5f805f80606085870312156109d3575f80fd5b843593506109e3602086016108e3565b9250604085013567ffffffffffffffff808211156109ff575f80fd5b818701915087601f830112610a12575f80fd5b813581811115610a20575f80fd5b886020828501011115610a31575f80fd5b95989497505060200194505050565b5f60208284031215610a50575f80fd5b61090c8261089e565b6020808252600990820152683737ba1037bbb732b960b91b604082015260600190565b6020808252601590820152741a5b9d985b1a5908191bd8dd5b595b9d081ada5b99605a1b604082015260600190565b600181811c90821680610abf57607f821691505b602082108103610add57634e487b7160e01b5f52602260045260245ffd5b50919050565b634e487b7160e01b5f52604160045260245ffd5b601f821115610b40575f81815260208120601f850160051c81016020861015610b1d5750805b601f850160051c820191505b81811015610b3c57828155600101610b29565b5050505b505050565b67ffffffffffffffff831115610b5d57610b5d610ae3565b610b7183610b6b8354610aab565b83610af7565b5f601f841160018114610ba2575f8515610b8b5750838201355b5f19600387901b1c1916600186901b178355610bfa565b5f83815260209020601f19861690835b82811015610bd25786850135825560209485019460019092019101610bb2565b5086821015610bee575f1960f88860031b161c19848701351681555b505060018560011b0183555b5050505050565b8082018082111561046857634e487b7160e01b5f52601160045260245ffd5b60608152836060820152838560808301375f608085830181019190915260208201939093526001600160a01b03919091166040820152601f909201601f19169091010191905056fea26469706673582212208da13ba316d0ffd169f1fe4cad92b5892d5002b4d0d2f93ade63886d03a399d364736f6c63430008150033",
  "immutableReferences": {},
  "source": "// SPDX-License-Identifier: MIT\npragma solidity ^0.8.21;\n\n/**\n * SimpleMedicalVault - No restrictions, no payments, no guardian checks\n * - Anyone can upload/read documents\n * - No payment requirements\n * - No role-based access control\n * - Simple document storage with versioning\n */\ncontract SimpleMedicalVault {\n\n    /*  Types  */\n    enum DocKind { Diagnosis, Referral, Intake } // 0,1,2\n\n    struct DocMeta {\n        string  hashURI;        // encrypted pointer\n        uint256 version;        // increments on each upload\n        uint256 updatedAt;      // unix timestamp\n        address uploader;       // who uploaded it\n    }\n\n    struct RecordSet {\n        mapping(uint8 => DocMeta) docs; // one DocMeta per kind\n        address guardian;               // optional metadata\n        address pediatricPsychologist;  // optional metadata\n        address insurer;                // optional metadata\n    }\n\n    /*  Events  */\n    event DocumentUploaded(bytes32 indexed patientId, uint8 indexed kind, string hashURI, uint256 version, address uploader);\n    event DocumentRead(bytes32 indexed patientId, uint8 indexed kind, address accessor);\n\n    // Role events (optional metadata only)\n    event GuardianSet(bytes32 indexed patientId, address indexed guardian);\n    event PsychologistSet(bytes32 indexed patientId, address indexed psychologist);\n    event InsurerSet(bytes32 indexed patientId, address indexed insurer);\n\n    /*  Ownership (optional)  */\n    address public owner;\n    modifier onlyOwner() { require(msg.sender == owner, \"not owner\"); _; }\n\n    constructor() {\n        owner = msg.sender;\n    }\n\n    function transferOwnership(address newOwner) external onlyOwner {\n        require(newOwner != address(0), \"zero owner\");\n        owner = newOwner;\n    }\n\n    /*  Storage  */\n    mapping(bytes32 => RecordSet) private records;\n\n    /*  UPLOAD (No restrictions)  */\n\n    /// Upload document - anyone can upload, no payment required\n    function uploadDocument(\n        bytes32 patientId,\n        uint8   kind,        // 0/1/2\n        string calldata hashURI\n    ) external {\n        require(kind <= uint8(DocKind.Intake), \"invalid document kind\");\n\n        DocMeta storage d = records[patientId].docs[kind];\n        d.hashURI = hashURI;\n        d.version += 1;\n        d.updatedAt = block.timestamp;\n        d.uploader = msg.sender;\n\n        emit DocumentUploaded(patientId, kind, hashURI, d.version, msg.sender);\n    }\n\n    /// Alias for backward compatibility\n    function uploadDocumentDeduct(\n        bytes32 patientId,\n        uint8   kind,\n        string calldata hashURI\n    ) external {\n        require(kind <= uint8(DocKind.Intake), \"invalid document kind\");\n\n        DocMeta storage d = records[patientId].docs[kind];\n        d.hashURI = hashURI;\n        d.version += 1;\n        d.updatedAt = block.timestamp;\n        d.uploader = msg.sender;\n\n        emit DocumentUploaded(patientId, kind, hashURI, d.version, msg.sender);\n    }\n\n    /*  READ (No restrictions)  */\n\n    /// Anyone can read any document\n    function getDocument(bytes32 patientId, uint8 kind)\n        external\n        returns (string memory, uint256, uint256, address)\n    {\n        require(kind <= uint8(DocKind.Intake), \"invalid document kind\");\n        DocMeta storage d = records[patientId].docs[kind];\n        require(d.version > 0, \"document not found\");\n\n        emit DocumentRead(patientId, kind, msg.sender);\n        return (d.hashURI, d.version, d.updatedAt, d.uploader);\n    }\n\n    /// Get document metadata without emitting read event\n    function getDocMeta(bytes32 patientId, uint8 kind)\n        external\n        view\n        returns (string memory hashURI, uint256 version, uint256 updatedAt, address uploader)\n    {\n        require(kind <= uint8(DocKind.Intake), \"invalid document kind\");\n        DocMeta storage d = records[patientId].docs[kind];\n        return (d.hashURI, d.version, d.updatedAt, d.uploader);\n    }\n\n    /*  Optional Role Management  */\n\n    /// Set guardian (optional metadata only)\n    function setGuardian(bytes32 patientId, address guardian_) external onlyOwner {\n        records[patientId].guardian = guardian_;\n        emit GuardianSet(patientId, guardian_);\n    }\n\n    /// Set pediatric psychologist (optional metadata only)\n    function setPediatricPsychologist(bytes32 patientId, address psychologist) external onlyOwner {\n        records[patientId].pediatricPsychologist = psychologist;\n        emit PsychologistSet(patientId, psychologist);\n    }\n\n    /// Set insurer (optional metadata only)\n    function setInsurer(bytes32 patientId, address insurer) external onlyOwner {\n        records[patientId].insurer = insurer;\n        emit InsurerSet(patientId, insurer);\n    }\n\n    /// Get roles for a patient\n    function getRoles(bytes32 patientId)\n        external\n        view\n        returns (address guardian, address pediatricPsychologist, address insurer)\n    {\n        return (\n            records[patientId].guardian,\n            records[patientId].pediatricPsychologist,\n            records[patientId].insurer\n        );\n    }\n\n    /*  Utility Functions  */\n\n    /// Human-readable document kind names\n    function docKindName(uint8 kind) public pure returns (string memory) {\n        if (kind == uint8(DocKind.Diagnosis)) return \"Diagnosis Letter\";\n        if (kind == uint8(DocKind.Referral))  return \"Referral\";\n        if (kind == uint8(DocKind.Intake))    return \"Intake\";\n        revert(\"invalid document kind\");\n    }\n\n    /// Get document count for a patient (for a specific kind)\n    function getDocumentVersion(bytes32 patientId, uint8 kind) external view returns (uint256) {\n        require(kind <= uint8(DocKind.Intake), \"invalid document kind\");\n        return records[patientId].docs[kind].version;\n    }\n\n    /// Check if document exists\n    function documentExists(bytes32 patientId, uint8 kind) external view returns (bool) {\n        require(kind <= uint8(DocKind.Intake), \"invalid document kind\");\n        return records[patientId].docs[kind].version > 0;\n    }\n}",
  "sourcePath": "/usr/Flare-x-XRPL-Hackathon/contracts/SimpleMedicalVault.sol",
  "compiler": {
    "name": "solc",
    "version": "0.8.21+commit.d9974bed.Emscripten.clang"
  },
  "schemaVersion": "3.4.16",
  "updatedAt": "2025-09-21T09:30:54.158Z",
  "devdoc": {
    "kind": "dev",
    "methods": {},
    "version": 1
  },
  "userdoc": {
    "kind": "user",
    "methods": {
      "docKindName(uint8)": {
        "notice": "Human-readable document kind names"
      },
      "documentExists(bytes32,uint8)": {
        "notice": "Check if document exists"
      },
      "getDocMeta(bytes32,uint8)": {
        "notice": "Get document metadata without emitting read event"
      },
      "getDocument(bytes32,uint8)": {
        "notice": "Anyone can read any document"
      },
      "getDocumentVersion(bytes32,uint8)": {
        "notice": "Get document count for a patient (for a specific kind)"
      },
      "getRoles(bytes32)": {
        "notice": "Get roles for a patient"
      },
      "setGuardian(bytes32,address)": {
        "notice": "Set guardian (optional metadata only)"
      },
      "setInsurer(bytes32,address)": {
        "notice": "Set insurer (optional metadata only)"
      },
      "setPediatricPsychologist(bytes32,address)": {
        "notice": "Set pediatric psychologist (optional metadata only)"
      },
      "uploadDocument(bytes32,uint8,string)": {
        "notice": "Upload document - anyone can upload, no payment required"
      },
      "uploadDocumentDeduct(bytes32,uint8,string)": {
        "notice": "Alias for backward compatibility"
      }
    },
    "notice": "SimpleMedicalVault - No restrictions, no payments, no guardian checks - Anyone can upload/read documents - No payment requirements - No role-based access control - Simple document storage with versioning",
    "version": 1
  }
}